{
	"contracts/99_test.sol": {
		"codingtestAnswer": {
			"abi": [
				{
					"inputs": [],
					"name": "FClass",
					"outputs": [
						{
							"components": [
								{
									"internalType": "string",
									"name": "name",
									"type": "string"
								},
								{
									"internalType": "uint256",
									"name": "number",
									"type": "uint256"
								},
								{
									"internalType": "uint256",
									"name": "score",
									"type": "uint256"
								},
								{
									"internalType": "string",
									"name": "credit",
									"type": "string"
								},
								{
									"internalType": "string[]",
									"name": "classes",
									"type": "string[]"
								}
							],
							"internalType": "struct codingtestAnswer.Student[]",
							"name": "",
							"type": "tuple[]"
						}
					],
					"stateMutability": "view",
					"type": "function"
				},
				{
					"inputs": [],
					"name": "FClass1",
					"outputs": [
						{
							"internalType": "uint256",
							"name": "",
							"type": "uint256"
						},
						{
							"internalType": "uint256",
							"name": "",
							"type": "uint256"
						},
						{
							"components": [
								{
									"internalType": "string",
									"name": "name",
									"type": "string"
								},
								{
									"internalType": "uint256",
									"name": "number",
									"type": "uint256"
								},
								{
									"internalType": "uint256",
									"name": "score",
									"type": "uint256"
								},
								{
									"internalType": "string",
									"name": "credit",
									"type": "string"
								},
								{
									"internalType": "string[]",
									"name": "classes",
									"type": "string[]"
								}
							],
							"internalType": "struct codingtestAnswer.Student[]",
							"name": "",
							"type": "tuple[]"
						}
					],
					"stateMutability": "view",
					"type": "function"
				},
				{
					"inputs": [],
					"name": "SClass",
					"outputs": [
						{
							"components": [
								{
									"internalType": "string",
									"name": "name",
									"type": "string"
								},
								{
									"internalType": "uint256",
									"name": "number",
									"type": "uint256"
								},
								{
									"internalType": "uint256",
									"name": "score",
									"type": "uint256"
								},
								{
									"internalType": "string",
									"name": "credit",
									"type": "string"
								},
								{
									"internalType": "string[]",
									"name": "classes",
									"type": "string[]"
								}
							],
							"internalType": "struct codingtestAnswer.Student[]",
							"name": "",
							"type": "tuple[]"
						}
					],
					"stateMutability": "view",
					"type": "function"
				},
				{
					"inputs": [],
					"name": "getAllStudents",
					"outputs": [
						{
							"components": [
								{
									"internalType": "string",
									"name": "name",
									"type": "string"
								},
								{
									"internalType": "uint256",
									"name": "number",
									"type": "uint256"
								},
								{
									"internalType": "uint256",
									"name": "score",
									"type": "uint256"
								},
								{
									"internalType": "string",
									"name": "credit",
									"type": "string"
								},
								{
									"internalType": "string[]",
									"name": "classes",
									"type": "string[]"
								}
							],
							"internalType": "struct codingtestAnswer.Student[]",
							"name": "",
							"type": "tuple[]"
						}
					],
					"stateMutability": "view",
					"type": "function"
				},
				{
					"inputs": [],
					"name": "getAverageScore",
					"outputs": [
						{
							"internalType": "uint256",
							"name": "",
							"type": "uint256"
						}
					],
					"stateMutability": "view",
					"type": "function"
				},
				{
					"inputs": [
						{
							"internalType": "string",
							"name": "_name",
							"type": "string"
						}
					],
					"name": "getStudentByName",
					"outputs": [
						{
							"components": [
								{
									"internalType": "string",
									"name": "name",
									"type": "string"
								},
								{
									"internalType": "uint256",
									"name": "number",
									"type": "uint256"
								},
								{
									"internalType": "uint256",
									"name": "score",
									"type": "uint256"
								},
								{
									"internalType": "string",
									"name": "credit",
									"type": "string"
								},
								{
									"internalType": "string[]",
									"name": "classes",
									"type": "string[]"
								}
							],
							"internalType": "struct codingtestAnswer.Student",
							"name": "",
							"type": "tuple"
						}
					],
					"stateMutability": "view",
					"type": "function"
				},
				{
					"inputs": [
						{
							"internalType": "uint256",
							"name": "_number",
							"type": "uint256"
						}
					],
					"name": "getStudentByNum",
					"outputs": [
						{
							"components": [
								{
									"internalType": "string",
									"name": "name",
									"type": "string"
								},
								{
									"internalType": "uint256",
									"name": "number",
									"type": "uint256"
								},
								{
									"internalType": "uint256",
									"name": "score",
									"type": "uint256"
								},
								{
									"internalType": "string",
									"name": "credit",
									"type": "string"
								},
								{
									"internalType": "string[]",
									"name": "classes",
									"type": "string[]"
								}
							],
							"internalType": "struct codingtestAnswer.Student",
							"name": "",
							"type": "tuple"
						}
					],
					"stateMutability": "view",
					"type": "function"
				},
				{
					"inputs": [
						{
							"internalType": "string",
							"name": "_name",
							"type": "string"
						}
					],
					"name": "getStudentScore",
					"outputs": [
						{
							"internalType": "uint256",
							"name": "",
							"type": "uint256"
						}
					],
					"stateMutability": "view",
					"type": "function"
				},
				{
					"inputs": [],
					"name": "getStudentsNumber",
					"outputs": [
						{
							"internalType": "uint256",
							"name": "",
							"type": "uint256"
						}
					],
					"stateMutability": "view",
					"type": "function"
				},
				{
					"inputs": [
						{
							"internalType": "string",
							"name": "_name",
							"type": "string"
						},
						{
							"internalType": "uint256",
							"name": "_score",
							"type": "uint256"
						},
						{
							"internalType": "string[]",
							"name": "_classes",
							"type": "string[]"
						}
					],
					"name": "pushStudent",
					"outputs": [],
					"stateMutability": "nonpayable",
					"type": "function"
				},
				{
					"inputs": [],
					"name": "selfEva",
					"outputs": [
						{
							"internalType": "bool",
							"name": "",
							"type": "bool"
						}
					],
					"stateMutability": "view",
					"type": "function"
				},
				{
					"inputs": [
						{
							"internalType": "uint256",
							"name": "_score",
							"type": "uint256"
						}
					],
					"name": "setCredit",
					"outputs": [
						{
							"internalType": "string",
							"name": "",
							"type": "string"
						}
					],
					"stateMutability": "pure",
					"type": "function"
				}
			],
			"devdoc": {
				"kind": "dev",
				"methods": {},
				"version": 1
			},
			"evm": {
				"assembly": "    /* \"contracts/99_test.sol\":4801:10433  contract codingtestAnswer {... */\n  mstore(0x40, 0x80)\n  callvalue\n  dup1\n  iszero\n  tag_1\n  jumpi\n  0x00\n  dup1\n  revert\ntag_1:\n  pop\n  dataSize(sub_0)\n  dup1\n  dataOffset(sub_0)\n  0x00\n  codecopy\n  0x00\n  return\nstop\n\nsub_0: assembly {\n        /* \"contracts/99_test.sol\":4801:10433  contract codingtestAnswer {... */\n      mstore(0x40, 0x80)\n      callvalue\n      dup1\n      iszero\n      tag_1\n      jumpi\n      0x00\n      dup1\n      revert\n    tag_1:\n      pop\n      jumpi(tag_2, lt(calldatasize, 0x04))\n      shr(0xe0, calldataload(0x00))\n      dup1\n      0x9a2a5815\n      gt\n      tag_15\n      jumpi\n      dup1\n      0x9a2a5815\n      eq\n      tag_9\n      jumpi\n      dup1\n      0xd437d7ca\n      eq\n      tag_10\n      jumpi\n      dup1\n      0xdf72cdbf\n      eq\n      tag_11\n      jumpi\n      dup1\n      0xe5521501\n      eq\n      tag_12\n      jumpi\n      dup1\n      0xe9e30927\n      eq\n      tag_13\n      jumpi\n      dup1\n      0xeac1d5b7\n      eq\n      tag_14\n      jumpi\n      jump(tag_2)\n    tag_15:\n      dup1\n      0x0b439c39\n      eq\n      tag_3\n      jumpi\n      dup1\n      0x1cfd4566\n      eq\n      tag_4\n      jumpi\n      dup1\n      0x3ab58e61\n      eq\n      tag_5\n      jumpi\n      dup1\n      0x74aa6858\n      eq\n      tag_6\n      jumpi\n      dup1\n      0x75d073eb\n      eq\n      tag_7\n      jumpi\n      dup1\n      0x83b41ad8\n      eq\n      tag_8\n      jumpi\n    tag_2:\n      0x00\n      dup1\n      revert\n        /* \"contracts/99_test.sol\":6822:6944  function getStudentByNum(uint _number) public view returns(Student memory) {... */\n    tag_3:\n      tag_16\n      0x04\n      dup1\n      calldatasize\n      sub\n      dup2\n      add\n      swap1\n      tag_17\n      swap2\n      swap1\n      tag_18\n      jump\t// in\n    tag_17:\n      tag_19\n      jump\t// in\n    tag_16:\n      mload(0x40)\n      tag_20\n      swap2\n      swap1\n      tag_21\n      jump\t// in\n    tag_20:\n      mload(0x40)\n      dup1\n      swap2\n      sub\n      swap1\n      return\n        /* \"contracts/99_test.sol\":9851:10430  function SClass() public view returns(Student[] memory) {... */\n    tag_4:\n      tag_22\n      tag_23\n      jump\t// in\n    tag_22:\n      mload(0x40)\n      tag_24\n      swap2\n      swap1\n      tag_25\n      jump\t// in\n    tag_24:\n      mload(0x40)\n      dup1\n      swap2\n      sub\n      swap1\n      return\n        /* \"contracts/99_test.sol\":9013:9665  function FClass1() public view returns(uint, uint, Student[] memory) {... */\n    tag_5:\n      tag_26\n      tag_27\n      jump\t// in\n    tag_26:\n      mload(0x40)\n      tag_28\n      swap4\n      swap3\n      swap2\n      swap1\n      tag_29\n      jump\t// in\n    tag_28:\n      mload(0x40)\n      dup1\n      swap2\n      sub\n      swap1\n      return\n        /* \"contracts/99_test.sol\":6009:6304  function pushStudent(string memory _name, uint _score, string[] memory _classes) public {... */\n    tag_6:\n      tag_30\n      0x04\n      dup1\n      calldatasize\n      sub\n      dup2\n      add\n      swap1\n      tag_31\n      swap2\n      swap1\n      tag_32\n      jump\t// in\n    tag_31:\n      tag_33\n      jump\t// in\n    tag_30:\n      stop\n        /* \"contracts/99_test.sol\":8328:9005  function FClass() public view returns(Student[] memory) {... */\n    tag_7:\n      tag_34\n      tag_35\n      jump\t// in\n    tag_34:\n      mload(0x40)\n      tag_36\n      swap2\n      swap1\n      tag_25\n      jump\t// in\n    tag_36:\n      mload(0x40)\n      dup1\n      swap2\n      sub\n      swap1\n      return\n        /* \"contracts/99_test.sol\":7109:7237  function getStudentByName(string memory _name) public view returns(Student memory) {... */\n    tag_8:\n      tag_37\n      0x04\n      dup1\n      calldatasize\n      sub\n      dup2\n      add\n      swap1\n      tag_38\n      swap2\n      swap1\n      tag_39\n      jump\t// in\n    tag_38:\n      tag_40\n      jump\t// in\n    tag_37:\n      mload(0x40)\n      tag_41\n      swap2\n      swap1\n      tag_21\n      jump\t// in\n    tag_41:\n      mload(0x40)\n      dup1\n      swap2\n      sub\n      swap1\n      return\n        /* \"contracts/99_test.sol\":8041:8216  function selfEva() public view returns (bool) {... */\n    tag_9:\n      tag_42\n      tag_43\n      jump\t// in\n    tag_42:\n      mload(0x40)\n      tag_44\n      swap2\n      swap1\n      tag_45\n      jump\t// in\n    tag_44:\n      mload(0x40)\n      dup1\n      swap2\n      sub\n      swap1\n      return\n        /* \"contracts/99_test.sol\":6404:6500  function getStudentsNumber() public view returns(uint) {... */\n    tag_10:\n      tag_46\n      tag_47\n      jump\t// in\n    tag_46:\n      mload(0x40)\n      tag_48\n      swap2\n      swap1\n      tag_49\n      jump\t// in\n    tag_48:\n      mload(0x40)\n      dup1\n      swap2\n      sub\n      swap1\n      return\n        /* \"contracts/99_test.sol\":7587:7897  function getAverageScore() public view returns (uint) {... */\n    tag_11:\n      tag_50\n      tag_51\n      jump\t// in\n    tag_50:\n      mload(0x40)\n      tag_52\n      swap2\n      swap1\n      tag_49\n      jump\t// in\n    tag_52:\n      mload(0x40)\n      dup1\n      swap2\n      sub\n      swap1\n      return\n        /* \"contracts/99_test.sol\":7354:7477  function getStudentScore(string memory _name) public view returns(uint) {... */\n    tag_12:\n      tag_53\n      0x04\n      dup1\n      calldatasize\n      sub\n      dup2\n      add\n      swap1\n      tag_54\n      swap2\n      swap1\n      tag_39\n      jump\t// in\n    tag_54:\n      tag_55\n      jump\t// in\n    tag_53:\n      mload(0x40)\n      tag_56\n      swap2\n      swap1\n      tag_49\n      jump\t// in\n    tag_56:\n      mload(0x40)\n      dup1\n      swap2\n      sub\n      swap1\n      return\n        /* \"contracts/99_test.sol\":6607:6705  function getAllStudents() public view returns(Student[] memory) {... */\n    tag_13:\n      tag_57\n      tag_58\n      jump\t// in\n    tag_57:\n      mload(0x40)\n      tag_59\n      swap2\n      swap1\n      tag_25\n      jump\t// in\n    tag_59:\n      mload(0x40)\n      dup1\n      swap2\n      sub\n      swap1\n      return\n        /* \"contracts/99_test.sol\":5464:5828  function setCredit(uint _score) public pure returns(string memory) {... */\n    tag_14:\n      tag_60\n      0x04\n      dup1\n      calldatasize\n      sub\n      dup2\n      add\n      swap1\n      tag_61\n      swap2\n      swap1\n      tag_18\n      jump\t// in\n    tag_61:\n      tag_62\n      jump\t// in\n    tag_60:\n      mload(0x40)\n      tag_63\n      swap2\n      swap1\n      tag_64\n      jump\t// in\n    tag_63:\n      mload(0x40)\n      dup1\n      swap2\n      sub\n      swap1\n      return\n        /* \"contracts/99_test.sol\":6822:6944  function getStudentByNum(uint _number) public view returns(Student memory) {... */\n    tag_19:\n        /* \"contracts/99_test.sol\":6881:6895  Student memory */\n      tag_65\n      tag_66\n      jump\t// in\n    tag_65:\n        /* \"contracts/99_test.sol\":6915:6923  students */\n      0x00\n        /* \"contracts/99_test.sol\":6934:6935  1 */\n      0x01\n        /* \"contracts/99_test.sol\":6924:6931  _number */\n      dup4\n        /* \"contracts/99_test.sol\":6924:6935  _number - 1 */\n      tag_68\n      swap2\n      swap1\n      tag_69\n      jump\t// in\n    tag_68:\n        /* \"contracts/99_test.sol\":6915:6936  students[_number - 1] */\n      dup2\n      sload\n      dup2\n      lt\n      tag_70\n      jumpi\n      tag_71\n      tag_72\n      jump\t// in\n    tag_71:\n    tag_70:\n      swap1\n      0x00\n      mstore\n      keccak256(0x00, 0x20)\n      swap1\n      0x05\n      mul\n      add\n        /* \"contracts/99_test.sol\":6908:6936  return students[_number - 1] */\n      mload(0x40)\n      dup1\n      0xa0\n      add\n      0x40\n      mstore\n      swap1\n      dup2\n      0x00\n      dup3\n      add\n      dup1\n      sload\n      tag_74\n      swap1\n      tag_75\n      jump\t// in\n    tag_74:\n      dup1\n      0x1f\n      add\n      0x20\n      dup1\n      swap2\n      div\n      mul\n      0x20\n      add\n      mload(0x40)\n      swap1\n      dup2\n      add\n      0x40\n      mstore\n      dup1\n      swap3\n      swap2\n      swap1\n      dup2\n      dup2\n      mstore\n      0x20\n      add\n      dup3\n      dup1\n      sload\n      tag_76\n      swap1\n      tag_75\n      jump\t// in\n    tag_76:\n      dup1\n      iszero\n      tag_77\n      jumpi\n      dup1\n      0x1f\n      lt\n      tag_78\n      jumpi\n      0x0100\n      dup1\n      dup4\n      sload\n      div\n      mul\n      dup4\n      mstore\n      swap2\n      0x20\n      add\n      swap2\n      jump(tag_77)\n    tag_78:\n      dup3\n      add\n      swap2\n      swap1\n      0x00\n      mstore\n      keccak256(0x00, 0x20)\n      swap1\n    tag_79:\n      dup2\n      sload\n      dup2\n      mstore\n      swap1\n      0x01\n      add\n      swap1\n      0x20\n      add\n      dup1\n      dup4\n      gt\n      tag_79\n      jumpi\n      dup3\n      swap1\n      sub\n      0x1f\n      and\n      dup3\n      add\n      swap2\n    tag_77:\n      pop\n      pop\n      pop\n      pop\n      pop\n      dup2\n      mstore\n      0x20\n      add\n      0x01\n      dup3\n      add\n      sload\n      dup2\n      mstore\n      0x20\n      add\n      0x02\n      dup3\n      add\n      sload\n      dup2\n      mstore\n      0x20\n      add\n      0x03\n      dup3\n      add\n      dup1\n      sload\n      tag_80\n      swap1\n      tag_75\n      jump\t// in\n    tag_80:\n      dup1\n      0x1f\n      add\n      0x20\n      dup1\n      swap2\n      div\n      mul\n      0x20\n      add\n      mload(0x40)\n      swap1\n      dup2\n      add\n      0x40\n      mstore\n      dup1\n      swap3\n      swap2\n      swap1\n      dup2\n      dup2\n      mstore\n      0x20\n      add\n      dup3\n      dup1\n      sload\n      tag_81\n      swap1\n      tag_75\n      jump\t// in\n    tag_81:\n      dup1\n      iszero\n      tag_82\n      jumpi\n      dup1\n      0x1f\n      lt\n      tag_83\n      jumpi\n      0x0100\n      dup1\n      dup4\n      sload\n      div\n      mul\n      dup4\n      mstore\n      swap2\n      0x20\n      add\n      swap2\n      jump(tag_82)\n    tag_83:\n      dup3\n      add\n      swap2\n      swap1\n      0x00\n      mstore\n      keccak256(0x00, 0x20)\n      swap1\n    tag_84:\n      dup2\n      sload\n      dup2\n      mstore\n      swap1\n      0x01\n      add\n      swap1\n      0x20\n      add\n      dup1\n      dup4\n      gt\n      tag_84\n      jumpi\n      dup3\n      swap1\n      sub\n      0x1f\n      and\n      dup3\n      add\n      swap2\n    tag_82:\n      pop\n      pop\n      pop\n      pop\n      pop\n      dup2\n      mstore\n      0x20\n      add\n      0x04\n      dup3\n      add\n      dup1\n      sload\n      dup1\n      0x20\n      mul\n      0x20\n      add\n      mload(0x40)\n      swap1\n      dup2\n      add\n      0x40\n      mstore\n      dup1\n      swap3\n      swap2\n      swap1\n      dup2\n      dup2\n      mstore\n      0x20\n      add\n      0x00\n      swap1\n    tag_85:\n      dup3\n      dup3\n      lt\n      iszero\n      tag_86\n      jumpi\n      dup4\n      dup3\n      swap1\n      0x00\n      mstore\n      keccak256(0x00, 0x20)\n      add\n      dup1\n      sload\n      tag_88\n      swap1\n      tag_75\n      jump\t// in\n    tag_88:\n      dup1\n      0x1f\n      add\n      0x20\n      dup1\n      swap2\n      div\n      mul\n      0x20\n      add\n      mload(0x40)\n      swap1\n      dup2\n      add\n      0x40\n      mstore\n      dup1\n      swap3\n      swap2\n      swap1\n      dup2\n      dup2\n      mstore\n      0x20\n      add\n      dup3\n      dup1\n      sload\n      tag_89\n      swap1\n      tag_75\n      jump\t// in\n    tag_89:\n      dup1\n      iszero\n      tag_90\n      jumpi\n      dup1\n      0x1f\n      lt\n      tag_91\n      jumpi\n      0x0100\n      dup1\n      dup4\n      sload\n      div\n      mul\n      dup4\n      mstore\n      swap2\n      0x20\n      add\n      swap2\n      jump(tag_90)\n    tag_91:\n      dup3\n      add\n      swap2\n      swap1\n      0x00\n      mstore\n      keccak256(0x00, 0x20)\n      swap1\n    tag_92:\n      dup2\n      sload\n      dup2\n      mstore\n      swap1\n      0x01\n      add\n      swap1\n      0x20\n      add\n      dup1\n      dup4\n      gt\n      tag_92\n      jumpi\n      dup3\n      swap1\n      sub\n      0x1f\n      and\n      dup3\n      add\n      swap2\n    tag_90:\n      pop\n      pop\n      pop\n      pop\n      pop\n      dup2\n      mstore\n      0x20\n      add\n      swap1\n      0x01\n      add\n      swap1\n      jump(tag_85)\n    tag_86:\n      pop\n      pop\n      pop\n      pop\n      dup2\n      mstore\n      pop\n      pop\n      swap1\n      pop\n        /* \"contracts/99_test.sol\":6822:6944  function getStudentByNum(uint _number) public view returns(Student memory) {... */\n      swap2\n      swap1\n      pop\n      jump\t// out\n        /* \"contracts/99_test.sol\":9851:10430  function SClass() public view returns(Student[] memory) {... */\n    tag_23:\n        /* \"contracts/99_test.sol\":9889:9905  Student[] memory */\n      0x60\n        /* \"contracts/99_test.sol\":9918:9945  Student[] memory S_Students */\n      0x00\n        /* \"contracts/99_test.sol\":9948:9956  students */\n      dup1\n        /* \"contracts/99_test.sol\":9918:9956  Student[] memory S_Students = students */\n      dup1\n      sload\n      dup1\n      0x20\n      mul\n      0x20\n      add\n      mload(0x40)\n      swap1\n      dup2\n      add\n      0x40\n      mstore\n      dup1\n      swap3\n      swap2\n      swap1\n      dup2\n      dup2\n      mstore\n      0x20\n      add\n      0x00\n      swap1\n    tag_94:\n      dup3\n      dup3\n      lt\n      iszero\n      tag_95\n      jumpi\n      dup4\n      dup3\n      swap1\n      0x00\n      mstore\n      keccak256(0x00, 0x20)\n      swap1\n      0x05\n      mul\n      add\n      mload(0x40)\n      dup1\n      0xa0\n      add\n      0x40\n      mstore\n      swap1\n      dup2\n      0x00\n      dup3\n      add\n      dup1\n      sload\n      tag_97\n      swap1\n      tag_75\n      jump\t// in\n    tag_97:\n      dup1\n      0x1f\n      add\n      0x20\n      dup1\n      swap2\n      div\n      mul\n      0x20\n      add\n      mload(0x40)\n      swap1\n      dup2\n      add\n      0x40\n      mstore\n      dup1\n      swap3\n      swap2\n      swap1\n      dup2\n      dup2\n      mstore\n      0x20\n      add\n      dup3\n      dup1\n      sload\n      tag_98\n      swap1\n      tag_75\n      jump\t// in\n    tag_98:\n      dup1\n      iszero\n      tag_99\n      jumpi\n      dup1\n      0x1f\n      lt\n      tag_100\n      jumpi\n      0x0100\n      dup1\n      dup4\n      sload\n      div\n      mul\n      dup4\n      mstore\n      swap2\n      0x20\n      add\n      swap2\n      jump(tag_99)\n    tag_100:\n      dup3\n      add\n      swap2\n      swap1\n      0x00\n      mstore\n      keccak256(0x00, 0x20)\n      swap1\n    tag_101:\n      dup2\n      sload\n      dup2\n      mstore\n      swap1\n      0x01\n      add\n      swap1\n      0x20\n      add\n      dup1\n      dup4\n      gt\n      tag_101\n      jumpi\n      dup3\n      swap1\n      sub\n      0x1f\n      and\n      dup3\n      add\n      swap2\n    tag_99:\n      pop\n      pop\n      pop\n      pop\n      pop\n      dup2\n      mstore\n      0x20\n      add\n      0x01\n      dup3\n      add\n      sload\n      dup2\n      mstore\n      0x20\n      add\n      0x02\n      dup3\n      add\n      sload\n      dup2\n      mstore\n      0x20\n      add\n      0x03\n      dup3\n      add\n      dup1\n      sload\n      tag_102\n      swap1\n      tag_75\n      jump\t// in\n    tag_102:\n      dup1\n      0x1f\n      add\n      0x20\n      dup1\n      swap2\n      div\n      mul\n      0x20\n      add\n      mload(0x40)\n      swap1\n      dup2\n      add\n      0x40\n      mstore\n      dup1\n      swap3\n      swap2\n      swap1\n      dup2\n      dup2\n      mstore\n      0x20\n      add\n      dup3\n      dup1\n      sload\n      tag_103\n      swap1\n      tag_75\n      jump\t// in\n    tag_103:\n      dup1\n      iszero\n      tag_104\n      jumpi\n      dup1\n      0x1f\n      lt\n      tag_105\n      jumpi\n      0x0100\n      dup1\n      dup4\n      sload\n      div\n      mul\n      dup4\n      mstore\n      swap2\n      0x20\n      add\n      swap2\n      jump(tag_104)\n    tag_105:\n      dup3\n      add\n      swap2\n      swap1\n      0x00\n      mstore\n      keccak256(0x00, 0x20)\n      swap1\n    tag_106:\n      dup2\n      sload\n      dup2\n      mstore\n      swap1\n      0x01\n      add\n      swap1\n      0x20\n      add\n      dup1\n      dup4\n      gt\n      tag_106\n      jumpi\n      dup3\n      swap1\n      sub\n      0x1f\n      and\n      dup3\n      add\n      swap2\n    tag_104:\n      pop\n      pop\n      pop\n      pop\n      pop\n      dup2\n      mstore\n      0x20\n      add\n      0x04\n      dup3\n      add\n      dup1\n      sload\n      dup1\n      0x20\n      mul\n      0x20\n      add\n      mload(0x40)\n      swap1\n      dup2\n      add\n      0x40\n      mstore\n      dup1\n      swap3\n      swap2\n      swap1\n      dup2\n      dup2\n      mstore\n      0x20\n      add\n      0x00\n      swap1\n    tag_107:\n      dup3\n      dup3\n      lt\n      iszero\n      tag_108\n      jumpi\n      dup4\n      dup3\n      swap1\n      0x00\n      mstore\n      keccak256(0x00, 0x20)\n      add\n      dup1\n      sload\n      tag_110\n      swap1\n      tag_75\n      jump\t// in\n    tag_110:\n      dup1\n      0x1f\n      add\n      0x20\n      dup1\n      swap2\n      div\n      mul\n      0x20\n      add\n      mload(0x40)\n      swap1\n      dup2\n      add\n      0x40\n      mstore\n      dup1\n      swap3\n      swap2\n      swap1\n      dup2\n      dup2\n      mstore\n      0x20\n      add\n      dup3\n      dup1\n      sload\n      tag_111\n      swap1\n      tag_75\n      jump\t// in\n    tag_111:\n      dup1\n      iszero\n      tag_112\n      jumpi\n      dup1\n      0x1f\n      lt\n      tag_113\n      jumpi\n      0x0100\n      dup1\n      dup4\n      sload\n      div\n      mul\n      dup4\n      mstore\n      swap2\n      0x20\n      add\n      swap2\n      jump(tag_112)\n    tag_113:\n      dup3\n      add\n      swap2\n      swap1\n      0x00\n      mstore\n      keccak256(0x00, 0x20)\n      swap1\n    tag_114:\n      dup2\n      sload\n      dup2\n      mstore\n      swap1\n      0x01\n      add\n      swap1\n      0x20\n      add\n      dup1\n      dup4\n      gt\n      tag_114\n      jumpi\n      dup3\n      swap1\n      sub\n      0x1f\n      and\n      dup3\n      add\n      swap2\n    tag_112:\n      pop\n      pop\n      pop\n      pop\n      pop\n      dup2\n      mstore\n      0x20\n      add\n      swap1\n      0x01\n      add\n      swap1\n      jump(tag_107)\n    tag_108:\n      pop\n      pop\n      pop\n      pop\n      dup2\n      mstore\n      pop\n      pop\n      dup2\n      mstore\n      0x20\n      add\n      swap1\n      0x01\n      add\n      swap1\n      jump(tag_94)\n    tag_95:\n      pop\n      pop\n      pop\n      pop\n      swap1\n      pop\n        /* \"contracts/99_test.sol\":9967:9991  Student[] memory S_Class */\n      0x00\n        /* \"contracts/99_test.sol\":10008:10009  4 */\n      0x04\n        /* \"contracts/99_test.sol\":9994:10010  new Student[](4) */\n      0xffffffffffffffff\n      dup2\n      gt\n      iszero\n      tag_115\n      jumpi\n      tag_116\n      tag_117\n      jump\t// in\n    tag_116:\n    tag_115:\n      mload(0x40)\n      swap1\n      dup1\n      dup3\n      mstore\n      dup1\n      0x20\n      mul\n      0x20\n      add\n      dup3\n      add\n      0x40\n      mstore\n      dup1\n      iszero\n      tag_118\n      jumpi\n      dup2\n      0x20\n      add\n    tag_119:\n      tag_120\n      tag_66\n      jump\t// in\n    tag_120:\n      dup2\n      mstore\n      0x20\n      add\n      swap1\n      0x01\n      swap1\n      sub\n      swap1\n      dup2\n      tag_119\n      jumpi\n      swap1\n      pop\n    tag_118:\n      pop\n        /* \"contracts/99_test.sol\":9967:10010  Student[] memory S_Class = new Student[](4) */\n      swap1\n      pop\n        /* \"contracts/99_test.sol\":10027:10033  uint j */\n      0x00\n        /* \"contracts/99_test.sol\":10036:10037  1 */\n      0x01\n        /* \"contracts/99_test.sol\":10027:10037  uint j = 1 */\n      swap1\n      pop\n        /* \"contracts/99_test.sol\":10023:10307  for(uint j = 1; j < S_Students.length; j++) {... */\n    tag_121:\n        /* \"contracts/99_test.sol\":10043:10053  S_Students */\n      dup3\n        /* \"contracts/99_test.sol\":10043:10060  S_Students.length */\n      mload\n        /* \"contracts/99_test.sol\":10039:10040  j */\n      dup2\n        /* \"contracts/99_test.sol\":10039:10060  j < S_Students.length */\n      lt\n        /* \"contracts/99_test.sol\":10023:10307  for(uint j = 1; j < S_Students.length; j++) {... */\n      iszero\n      tag_122\n      jumpi\n        /* \"contracts/99_test.sol\":10086:10092  uint i */\n      0x00\n        /* \"contracts/99_test.sol\":10082:10296  for(uint i = 0; i < j; i++) {... */\n    tag_124:\n        /* \"contracts/99_test.sol\":10102:10103  j */\n      dup2\n        /* \"contracts/99_test.sol\":10098:10099  i */\n      dup2\n        /* \"contracts/99_test.sol\":10098:10103  i < j */\n      lt\n        /* \"contracts/99_test.sol\":10082:10296  for(uint i = 0; i < j; i++) {... */\n      iszero\n      tag_125\n      jumpi\n        /* \"contracts/99_test.sol\":10154:10164  S_Students */\n      dup4\n        /* \"contracts/99_test.sol\":10165:10166  j */\n      dup3\n        /* \"contracts/99_test.sol\":10154:10167  S_Students[j] */\n      dup2\n      mload\n      dup2\n      lt\n      tag_127\n      jumpi\n      tag_128\n      tag_72\n      jump\t// in\n    tag_128:\n    tag_127:\n      0x20\n      mul\n      0x20\n      add\n      add\n      mload\n        /* \"contracts/99_test.sol\":10154:10173  S_Students[j].score */\n      0x40\n      add\n      mload\n        /* \"contracts/99_test.sol\":10132:10142  S_Students */\n      dup5\n        /* \"contracts/99_test.sol\":10143:10144  i */\n      dup3\n        /* \"contracts/99_test.sol\":10132:10145  S_Students[i] */\n      dup2\n      mload\n      dup2\n      lt\n      tag_129\n      jumpi\n      tag_130\n      tag_72\n      jump\t// in\n    tag_130:\n    tag_129:\n      0x20\n      mul\n      0x20\n      add\n      add\n      mload\n        /* \"contracts/99_test.sol\":10132:10151  S_Students[i].score */\n      0x40\n      add\n      mload\n        /* \"contracts/99_test.sol\":10132:10173  S_Students[i].score < S_Students[j].score */\n      lt\n        /* \"contracts/99_test.sol\":10129:10281  if(S_Students[i].score < S_Students[j].score) {... */\n      iszero\n      tag_131\n      jumpi\n        /* \"contracts/99_test.sol\":10232:10242  S_Students */\n      dup4\n        /* \"contracts/99_test.sol\":10243:10244  j */\n      dup3\n        /* \"contracts/99_test.sol\":10232:10245  S_Students[j] */\n      dup2\n      mload\n      dup2\n      lt\n      tag_132\n      jumpi\n      tag_133\n      tag_72\n      jump\t// in\n    tag_133:\n    tag_132:\n      0x20\n      mul\n      0x20\n      add\n      add\n      mload\n        /* \"contracts/99_test.sol\":10247:10257  S_Students */\n      dup5\n        /* \"contracts/99_test.sol\":10258:10259  i */\n      dup3\n        /* \"contracts/99_test.sol\":10247:10260  S_Students[i] */\n      dup2\n      mload\n      dup2\n      lt\n      tag_134\n      jumpi\n      tag_135\n      tag_72\n      jump\t// in\n    tag_135:\n    tag_134:\n      0x20\n      mul\n      0x20\n      add\n      add\n      mload\n        /* \"contracts/99_test.sol\":10199:10209  S_Students */\n      dup6\n        /* \"contracts/99_test.sol\":10210:10211  i */\n      dup4\n        /* \"contracts/99_test.sol\":10199:10212  S_Students[i] */\n      dup2\n      mload\n      dup2\n      lt\n      tag_136\n      jumpi\n      tag_137\n      tag_72\n      jump\t// in\n    tag_137:\n    tag_136:\n      0x20\n      mul\n      0x20\n      add\n      add\n        /* \"contracts/99_test.sol\":10214:10224  S_Students */\n      dup7\n        /* \"contracts/99_test.sol\":10225:10226  j */\n      dup6\n        /* \"contracts/99_test.sol\":10214:10227  S_Students[j] */\n      dup2\n      mload\n      dup2\n      lt\n      tag_138\n      jumpi\n      tag_139\n      tag_72\n      jump\t// in\n    tag_139:\n    tag_138:\n      0x20\n      mul\n      0x20\n      add\n      add\n        /* \"contracts/99_test.sol\":10198:10261  (S_Students[i], S_Students[j]) = (S_Students[j], S_Students[i]) */\n      dup3\n      swap1\n      mstore\n      dup3\n      swap1\n      mstore\n      pop\n      pop\n        /* \"contracts/99_test.sol\":10129:10281  if(S_Students[i].score < S_Students[j].score) {... */\n    tag_131:\n        /* \"contracts/99_test.sol\":10105:10108  i++ */\n      dup1\n      dup1\n      tag_140\n      swap1\n      tag_141\n      jump\t// in\n    tag_140:\n      swap2\n      pop\n      pop\n        /* \"contracts/99_test.sol\":10082:10296  for(uint i = 0; i < j; i++) {... */\n      jump(tag_124)\n    tag_125:\n      pop\n        /* \"contracts/99_test.sol\":10062:10065  j++ */\n      dup1\n      dup1\n      tag_142\n      swap1\n      tag_141\n      jump\t// in\n    tag_142:\n      swap2\n      pop\n      pop\n        /* \"contracts/99_test.sol\":10023:10307  for(uint j = 1; j < S_Students.length; j++) {... */\n      jump(tag_121)\n    tag_122:\n      pop\n        /* \"contracts/99_test.sol\":10321:10327  uint i */\n      0x00\n        /* \"contracts/99_test.sol\":10317:10398  for(uint i = 0; i < 4; i++) {... */\n    tag_143:\n        /* \"contracts/99_test.sol\":10337:10338  4 */\n      0x04\n        /* \"contracts/99_test.sol\":10333:10334  i */\n      dup2\n        /* \"contracts/99_test.sol\":10333:10338  i < 4 */\n      lt\n        /* \"contracts/99_test.sol\":10317:10398  for(uint i = 0; i < 4; i++) {... */\n      iszero\n      tag_144\n      jumpi\n        /* \"contracts/99_test.sol\":10373:10383  S_Students */\n      dup3\n        /* \"contracts/99_test.sol\":10384:10385  i */\n      dup2\n        /* \"contracts/99_test.sol\":10373:10386  S_Students[i] */\n      dup2\n      mload\n      dup2\n      lt\n      tag_146\n      jumpi\n      tag_147\n      tag_72\n      jump\t// in\n    tag_147:\n    tag_146:\n      0x20\n      mul\n      0x20\n      add\n      add\n      mload\n        /* \"contracts/99_test.sol\":10360:10367  S_Class */\n      dup3\n        /* \"contracts/99_test.sol\":10368:10369  i */\n      dup3\n        /* \"contracts/99_test.sol\":10360:10370  S_Class[i] */\n      dup2\n      mload\n      dup2\n      lt\n      tag_148\n      jumpi\n      tag_149\n      tag_72\n      jump\t// in\n    tag_149:\n    tag_148:\n      0x20\n      mul\n      0x20\n      add\n      add\n        /* \"contracts/99_test.sol\":10360:10386  S_Class[i] = S_Students[i] */\n      dup2\n      swap1\n      mstore\n      pop\n        /* \"contracts/99_test.sol\":10340:10343  i++ */\n      dup1\n      dup1\n      tag_150\n      swap1\n      tag_141\n      jump\t// in\n    tag_150:\n      swap2\n      pop\n      pop\n        /* \"contracts/99_test.sol\":10317:10398  for(uint i = 0; i < 4; i++) {... */\n      jump(tag_143)\n    tag_144:\n      pop\n        /* \"contracts/99_test.sol\":10415:10422  S_Class */\n      dup1\n        /* \"contracts/99_test.sol\":10408:10422  return S_Class */\n      swap3\n      pop\n      pop\n      pop\n        /* \"contracts/99_test.sol\":9851:10430  function SClass() public view returns(Student[] memory) {... */\n      swap1\n      jump\t// out\n        /* \"contracts/99_test.sol\":9013:9665  function FClass1() public view returns(uint, uint, Student[] memory) {... */\n    tag_27:\n        /* \"contracts/99_test.sol\":9052:9056  uint */\n      0x00\n        /* \"contracts/99_test.sol\":9058:9062  uint */\n      dup1\n        /* \"contracts/99_test.sol\":9064:9080  Student[] memory */\n      0x60\n        /* \"contracts/99_test.sol\":9093:9120  Student[] memory F_Students */\n      0x00\n        /* \"contracts/99_test.sol\":9123:9131  students */\n      dup1\n        /* \"contracts/99_test.sol\":9093:9131  Student[] memory F_Students = students */\n      dup1\n      sload\n      dup1\n      0x20\n      mul\n      0x20\n      add\n      mload(0x40)\n      swap1\n      dup2\n      add\n      0x40\n      mstore\n      dup1\n      swap3\n      swap2\n      swap1\n      dup2\n      dup2\n      mstore\n      0x20\n      add\n      0x00\n      swap1\n    tag_152:\n      dup3\n      dup3\n      lt\n      iszero\n      tag_153\n      jumpi\n      dup4\n      dup3\n      swap1\n      0x00\n      mstore\n      keccak256(0x00, 0x20)\n      swap1\n      0x05\n      mul\n      add\n      mload(0x40)\n      dup1\n      0xa0\n      add\n      0x40\n      mstore\n      swap1\n      dup2\n      0x00\n      dup3\n      add\n      dup1\n      sload\n      tag_155\n      swap1\n      tag_75\n      jump\t// in\n    tag_155:\n      dup1\n      0x1f\n      add\n      0x20\n      dup1\n      swap2\n      div\n      mul\n      0x20\n      add\n      mload(0x40)\n      swap1\n      dup2\n      add\n      0x40\n      mstore\n      dup1\n      swap3\n      swap2\n      swap1\n      dup2\n      dup2\n      mstore\n      0x20\n      add\n      dup3\n      dup1\n      sload\n      tag_156\n      swap1\n      tag_75\n      jump\t// in\n    tag_156:\n      dup1\n      iszero\n      tag_157\n      jumpi\n      dup1\n      0x1f\n      lt\n      tag_158\n      jumpi\n      0x0100\n      dup1\n      dup4\n      sload\n      div\n      mul\n      dup4\n      mstore\n      swap2\n      0x20\n      add\n      swap2\n      jump(tag_157)\n    tag_158:\n      dup3\n      add\n      swap2\n      swap1\n      0x00\n      mstore\n      keccak256(0x00, 0x20)\n      swap1\n    tag_159:\n      dup2\n      sload\n      dup2\n      mstore\n      swap1\n      0x01\n      add\n      swap1\n      0x20\n      add\n      dup1\n      dup4\n      gt\n      tag_159\n      jumpi\n      dup3\n      swap1\n      sub\n      0x1f\n      and\n      dup3\n      add\n      swap2\n    tag_157:\n      pop\n      pop\n      pop\n      pop\n      pop\n      dup2\n      mstore\n      0x20\n      add\n      0x01\n      dup3\n      add\n      sload\n      dup2\n      mstore\n      0x20\n      add\n      0x02\n      dup3\n      add\n      sload\n      dup2\n      mstore\n      0x20\n      add\n      0x03\n      dup3\n      add\n      dup1\n      sload\n      tag_160\n      swap1\n      tag_75\n      jump\t// in\n    tag_160:\n      dup1\n      0x1f\n      add\n      0x20\n      dup1\n      swap2\n      div\n      mul\n      0x20\n      add\n      mload(0x40)\n      swap1\n      dup2\n      add\n      0x40\n      mstore\n      dup1\n      swap3\n      swap2\n      swap1\n      dup2\n      dup2\n      mstore\n      0x20\n      add\n      dup3\n      dup1\n      sload\n      tag_161\n      swap1\n      tag_75\n      jump\t// in\n    tag_161:\n      dup1\n      iszero\n      tag_162\n      jumpi\n      dup1\n      0x1f\n      lt\n      tag_163\n      jumpi\n      0x0100\n      dup1\n      dup4\n      sload\n      div\n      mul\n      dup4\n      mstore\n      swap2\n      0x20\n      add\n      swap2\n      jump(tag_162)\n    tag_163:\n      dup3\n      add\n      swap2\n      swap1\n      0x00\n      mstore\n      keccak256(0x00, 0x20)\n      swap1\n    tag_164:\n      dup2\n      sload\n      dup2\n      mstore\n      swap1\n      0x01\n      add\n      swap1\n      0x20\n      add\n      dup1\n      dup4\n      gt\n      tag_164\n      jumpi\n      dup3\n      swap1\n      sub\n      0x1f\n      and\n      dup3\n      add\n      swap2\n    tag_162:\n      pop\n      pop\n      pop\n      pop\n      pop\n      dup2\n      mstore\n      0x20\n      add\n      0x04\n      dup3\n      add\n      dup1\n      sload\n      dup1\n      0x20\n      mul\n      0x20\n      add\n      mload(0x40)\n      swap1\n      dup2\n      add\n      0x40\n      mstore\n      dup1\n      swap3\n      swap2\n      swap1\n      dup2\n      dup2\n      mstore\n      0x20\n      add\n      0x00\n      swap1\n    tag_165:\n      dup3\n      dup3\n      lt\n      iszero\n      tag_166\n      jumpi\n      dup4\n      dup3\n      swap1\n      0x00\n      mstore\n      keccak256(0x00, 0x20)\n      add\n      dup1\n      sload\n      tag_168\n      swap1\n      tag_75\n      jump\t// in\n    tag_168:\n      dup1\n      0x1f\n      add\n      0x20\n      dup1\n      swap2\n      div\n      mul\n      0x20\n      add\n      mload(0x40)\n      swap1\n      dup2\n      add\n      0x40\n      mstore\n      dup1\n      swap3\n      swap2\n      swap1\n      dup2\n      dup2\n      mstore\n      0x20\n      add\n      dup3\n      dup1\n      sload\n      tag_169\n      swap1\n      tag_75\n      jump\t// in\n    tag_169:\n      dup1\n      iszero\n      tag_170\n      jumpi\n      dup1\n      0x1f\n      lt\n      tag_171\n      jumpi\n      0x0100\n      dup1\n      dup4\n      sload\n      div\n      mul\n      dup4\n      mstore\n      swap2\n      0x20\n      add\n      swap2\n      jump(tag_170)\n    tag_171:\n      dup3\n      add\n      swap2\n      swap1\n      0x00\n      mstore\n      keccak256(0x00, 0x20)\n      swap1\n    tag_172:\n      dup2\n      sload\n      dup2\n      mstore\n      swap1\n      0x01\n      add\n      swap1\n      0x20\n      add\n      dup1\n      dup4\n      gt\n      tag_172\n      jumpi\n      dup3\n      swap1\n      sub\n      0x1f\n      and\n      dup3\n      add\n      swap2\n    tag_170:\n      pop\n      pop\n      pop\n      pop\n      pop\n      dup2\n      mstore\n      0x20\n      add\n      swap1\n      0x01\n      add\n      swap1\n      jump(tag_165)\n    tag_166:\n      pop\n      pop\n      pop\n      pop\n      dup2\n      mstore\n      pop\n      pop\n      dup2\n      mstore\n      0x20\n      add\n      swap1\n      0x01\n      add\n      swap1\n      jump(tag_152)\n    tag_153:\n      pop\n      pop\n      pop\n      pop\n      swap1\n      pop\n        /* \"contracts/99_test.sol\":9142:9168  Student[] memory F_Storage */\n      0x60\n        /* \"contracts/99_test.sol\":9181:9191  uint count */\n      0x00\n        /* \"contracts/99_test.sol\":9208:9214  uint i */\n      dup1\n        /* \"contracts/99_test.sol\":9217:9218  0 */\n      0x00\n        /* \"contracts/99_test.sol\":9208:9218  uint i = 0 */\n      swap1\n      pop\n        /* \"contracts/99_test.sol\":9204:9604  for(uint i = 0; i < students.length; i++) {... */\n    tag_173:\n        /* \"contracts/99_test.sol\":9224:9232  students */\n      0x00\n        /* \"contracts/99_test.sol\":9224:9239  students.length */\n      dup1\n      sload\n      swap1\n      pop\n        /* \"contracts/99_test.sol\":9220:9221  i */\n      dup2\n        /* \"contracts/99_test.sol\":9220:9239  i < students.length */\n      lt\n        /* \"contracts/99_test.sol\":9204:9604  for(uint i = 0; i < students.length; i++) {... */\n      iszero\n      tag_174\n      jumpi\n        /* \"contracts/99_test.sol\":9314:9324  bytes(\"F\") */\n      mload(0x40)\n      dup1\n      0x40\n      add\n      0x40\n      mstore\n      dup1\n      0x01\n      dup2\n      mstore\n      0x20\n      add\n      0x4600000000000000000000000000000000000000000000000000000000000000\n      dup2\n      mstore\n      pop\n        /* \"contracts/99_test.sol\":9304:9325  keccak256(bytes(\"F\")) */\n      dup1\n      mload\n      swap1\n      0x20\n      add\n      keccak256\n        /* \"contracts/99_test.sol\":9280:9288  students */\n      0x00\n        /* \"contracts/99_test.sol\":9289:9290  i */\n      dup3\n        /* \"contracts/99_test.sol\":9280:9291  students[i] */\n      dup2\n      sload\n      dup2\n      lt\n      tag_176\n      jumpi\n      tag_177\n      tag_72\n      jump\t// in\n    tag_177:\n    tag_176:\n      swap1\n      0x00\n      mstore\n      keccak256(0x00, 0x20)\n      swap1\n      0x05\n      mul\n      add\n        /* \"contracts/99_test.sol\":9280:9298  students[i].credit */\n      0x03\n      add\n        /* \"contracts/99_test.sol\":9264:9300  keccak256(bytes(students[i].credit)) */\n      mload(0x40)\n      tag_179\n      swap2\n      swap1\n      tag_180\n      jump\t// in\n    tag_179:\n      mload(0x40)\n      dup1\n      swap2\n      sub\n      swap1\n      keccak256\n        /* \"contracts/99_test.sol\":9264:9325  keccak256(bytes(students[i].credit)) == keccak256(bytes(\"F\")) */\n      sub\n        /* \"contracts/99_test.sol\":9261:9593  if(keccak256(bytes(students[i].credit)) == keccak256(bytes(\"F\"))) {... */\n      tag_181\n      jumpi\n        /* \"contracts/99_test.sol\":9346:9353  count++ */\n      dup2\n      dup1\n      tag_182\n      swap1\n      tag_141\n      jump\t// in\n    tag_182:\n      swap3\n      pop\n      pop\n        /* \"contracts/99_test.sol\":9394:9402  students */\n      0x00\n        /* \"contracts/99_test.sol\":9403:9404  i */\n      dup2\n        /* \"contracts/99_test.sol\":9394:9405  students[i] */\n      dup2\n      sload\n      dup2\n      lt\n      tag_183\n      jumpi\n      tag_184\n      tag_72\n      jump\t// in\n    tag_184:\n    tag_183:\n      swap1\n      0x00\n      mstore\n      keccak256(0x00, 0x20)\n      swap1\n      0x05\n      mul\n      add\n        /* \"contracts/99_test.sol\":9372:9405  F_Students[count-1] = students[i] */\n      mload(0x40)\n      dup1\n      0xa0\n      add\n      0x40\n      mstore\n      swap1\n      dup2\n      0x00\n      dup3\n      add\n      dup1\n      sload\n      tag_186\n      swap1\n      tag_75\n      jump\t// in\n    tag_186:\n      dup1\n      0x1f\n      add\n      0x20\n      dup1\n      swap2\n      div\n      mul\n      0x20\n      add\n      mload(0x40)\n      swap1\n      dup2\n      add\n      0x40\n      mstore\n      dup1\n      swap3\n      swap2\n      swap1\n      dup2\n      dup2\n      mstore\n      0x20\n      add\n      dup3\n      dup1\n      sload\n      tag_187\n      swap1\n      tag_75\n      jump\t// in\n    tag_187:\n      dup1\n      iszero\n      tag_188\n      jumpi\n      dup1\n      0x1f\n      lt\n      tag_189\n      jumpi\n      0x0100\n      dup1\n      dup4\n      sload\n      div\n      mul\n      dup4\n      mstore\n      swap2\n      0x20\n      add\n      swap2\n      jump(tag_188)\n    tag_189:\n      dup3\n      add\n      swap2\n      swap1\n      0x00\n      mstore\n      keccak256(0x00, 0x20)\n      swap1\n    tag_190:\n      dup2\n      sload\n      dup2\n      mstore\n      swap1\n      0x01\n      add\n      swap1\n      0x20\n      add\n      dup1\n      dup4\n      gt\n      tag_190\n      jumpi\n      dup3\n      swap1\n      sub\n      0x1f\n      and\n      dup3\n      add\n      swap2\n    tag_188:\n      pop\n      pop\n      pop\n      pop\n      pop\n      dup2\n      mstore\n      0x20\n      add\n      0x01\n      dup3\n      add\n      sload\n      dup2\n      mstore\n      0x20\n      add\n      0x02\n      dup3\n      add\n      sload\n      dup2\n      mstore\n      0x20\n      add\n      0x03\n      dup3\n      add\n      dup1\n      sload\n      tag_191\n      swap1\n      tag_75\n      jump\t// in\n    tag_191:\n      dup1\n      0x1f\n      add\n      0x20\n      dup1\n      swap2\n      div\n      mul\n      0x20\n      add\n      mload(0x40)\n      swap1\n      dup2\n      add\n      0x40\n      mstore\n      dup1\n      swap3\n      swap2\n      swap1\n      dup2\n      dup2\n      mstore\n      0x20\n      add\n      dup3\n      dup1\n      sload\n      tag_192\n      swap1\n      tag_75\n      jump\t// in\n    tag_192:\n      dup1\n      iszero\n      tag_193\n      jumpi\n      dup1\n      0x1f\n      lt\n      tag_194\n      jumpi\n      0x0100\n      dup1\n      dup4\n      sload\n      div\n      mul\n      dup4\n      mstore\n      swap2\n      0x20\n      add\n      swap2\n      jump(tag_193)\n    tag_194:\n      dup3\n      add\n      swap2\n      swap1\n      0x00\n      mstore\n      keccak256(0x00, 0x20)\n      swap1\n    tag_195:\n      dup2\n      sload\n      dup2\n      mstore\n      swap1\n      0x01\n      add\n      swap1\n      0x20\n      add\n      dup1\n      dup4\n      gt\n      tag_195\n      jumpi\n      dup3\n      swap1\n      sub\n      0x1f\n      and\n      dup3\n      add\n      swap2\n    tag_193:\n      pop\n      pop\n      pop\n      pop\n      pop\n      dup2\n      mstore\n      0x20\n      add\n      0x04\n      dup3\n      add\n      dup1\n      sload\n      dup1\n      0x20\n      mul\n      0x20\n      add\n      mload(0x40)\n      swap1\n      dup2\n      add\n      0x40\n      mstore\n      dup1\n      swap3\n      swap2\n      swap1\n      dup2\n      dup2\n      mstore\n      0x20\n      add\n      0x00\n      swap1\n    tag_196:\n      dup3\n      dup3\n      lt\n      iszero\n      tag_197\n      jumpi\n      dup4\n      dup3\n      swap1\n      0x00\n      mstore\n      keccak256(0x00, 0x20)\n      add\n      dup1\n      sload\n      tag_199\n      swap1\n      tag_75\n      jump\t// in\n    tag_199:\n      dup1\n      0x1f\n      add\n      0x20\n      dup1\n      swap2\n      div\n      mul\n      0x20\n      add\n      mload(0x40)\n      swap1\n      dup2\n      add\n      0x40\n      mstore\n      dup1\n      swap3\n      swap2\n      swap1\n      dup2\n      dup2\n      mstore\n      0x20\n      add\n      dup3\n      dup1\n      sload\n      tag_200\n      swap1\n      tag_75\n      jump\t// in\n    tag_200:\n      dup1\n      iszero\n      tag_201\n      jumpi\n      dup1\n      0x1f\n      lt\n      tag_202\n      jumpi\n      0x0100\n      dup1\n      dup4\n      sload\n      div\n      mul\n      dup4\n      mstore\n      swap2\n      0x20\n      add\n      swap2\n      jump(tag_201)\n    tag_202:\n      dup3\n      add\n      swap2\n      swap1\n      0x00\n      mstore\n      keccak256(0x00, 0x20)\n      swap1\n    tag_203:\n      dup2\n      sload\n      dup2\n      mstore\n      swap1\n      0x01\n      add\n      swap1\n      0x20\n      add\n      dup1\n      dup4\n      gt\n      tag_203\n      jumpi\n      dup3\n      swap1\n      sub\n      0x1f\n      and\n      dup3\n      add\n      swap2\n    tag_201:\n      pop\n      pop\n      pop\n      pop\n      pop\n      dup2\n      mstore\n      0x20\n      add\n      swap1\n      0x01\n      add\n      swap1\n      jump(tag_196)\n    tag_197:\n      pop\n      pop\n      pop\n      pop\n      dup2\n      mstore\n      pop\n      pop\n        /* \"contracts/99_test.sol\":9372:9382  F_Students */\n      dup5\n        /* \"contracts/99_test.sol\":9389:9390  1 */\n      0x01\n        /* \"contracts/99_test.sol\":9383:9388  count */\n      dup5\n        /* \"contracts/99_test.sol\":9383:9390  count-1 */\n      tag_204\n      swap2\n      swap1\n      tag_69\n      jump\t// in\n    tag_204:\n        /* \"contracts/99_test.sol\":9372:9391  F_Students[count-1] */\n      dup2\n      mload\n      dup2\n      lt\n      tag_205\n      jumpi\n      tag_206\n      tag_72\n      jump\t// in\n    tag_206:\n    tag_205:\n      0x20\n      mul\n      0x20\n      add\n      add\n        /* \"contracts/99_test.sol\":9372:9405  F_Students[count-1] = students[i] */\n      dup2\n      swap1\n      mstore\n      pop\n        /* \"contracts/99_test.sol\":9450:9455  count */\n      dup2\n        /* \"contracts/99_test.sol\":9436:9456  new Student[](count) */\n      0xffffffffffffffff\n      dup2\n      gt\n      iszero\n      tag_207\n      jumpi\n      tag_208\n      tag_117\n      jump\t// in\n    tag_208:\n    tag_207:\n      mload(0x40)\n      swap1\n      dup1\n      dup3\n      mstore\n      dup1\n      0x20\n      mul\n      0x20\n      add\n      dup3\n      add\n      0x40\n      mstore\n      dup1\n      iszero\n      tag_209\n      jumpi\n      dup2\n      0x20\n      add\n    tag_210:\n      tag_211\n      tag_66\n      jump\t// in\n    tag_211:\n      dup2\n      mstore\n      0x20\n      add\n      swap1\n      0x01\n      swap1\n      sub\n      swap1\n      dup2\n      tag_210\n      jumpi\n      swap1\n      pop\n    tag_209:\n      pop\n        /* \"contracts/99_test.sol\":9424:9456  F_Storage = new Student[](count) */\n      swap3\n      pop\n        /* \"contracts/99_test.sol\":9479:9485  uint j */\n      0x00\n        /* \"contracts/99_test.sol\":9475:9578  for(uint j = 0; j < count; j++) {... */\n    tag_212:\n        /* \"contracts/99_test.sol\":9495:9500  count */\n      dup3\n        /* \"contracts/99_test.sol\":9491:9492  j */\n      dup2\n        /* \"contracts/99_test.sol\":9491:9500  j < count */\n      lt\n        /* \"contracts/99_test.sol\":9475:9578  for(uint j = 0; j < count; j++) {... */\n      iszero\n      tag_213\n      jumpi\n        /* \"contracts/99_test.sol\":9545:9555  F_Students */\n      dup5\n        /* \"contracts/99_test.sol\":9556:9557  j */\n      dup2\n        /* \"contracts/99_test.sol\":9545:9558  F_Students[j] */\n      dup2\n      mload\n      dup2\n      lt\n      tag_215\n      jumpi\n      tag_216\n      tag_72\n      jump\t// in\n    tag_216:\n    tag_215:\n      0x20\n      mul\n      0x20\n      add\n      add\n      mload\n        /* \"contracts/99_test.sol\":9530:9539  F_Storage */\n      dup5\n        /* \"contracts/99_test.sol\":9540:9541  j */\n      dup3\n        /* \"contracts/99_test.sol\":9530:9542  F_Storage[j] */\n      dup2\n      mload\n      dup2\n      lt\n      tag_217\n      jumpi\n      tag_218\n      tag_72\n      jump\t// in\n    tag_218:\n    tag_217:\n      0x20\n      mul\n      0x20\n      add\n      add\n        /* \"contracts/99_test.sol\":9530:9558  F_Storage[j] = F_Students[j] */\n      dup2\n      swap1\n      mstore\n      pop\n        /* \"contracts/99_test.sol\":9502:9505  j++ */\n      dup1\n      dup1\n      tag_219\n      swap1\n      tag_141\n      jump\t// in\n    tag_219:\n      swap2\n      pop\n      pop\n        /* \"contracts/99_test.sol\":9475:9578  for(uint j = 0; j < count; j++) {... */\n      jump(tag_212)\n    tag_213:\n      pop\n        /* \"contracts/99_test.sol\":9261:9593  if(keccak256(bytes(students[i].credit)) == keccak256(bytes(\"F\"))) {... */\n    tag_181:\n        /* \"contracts/99_test.sol\":9241:9244  i++ */\n      dup1\n      dup1\n      tag_220\n      swap1\n      tag_141\n      jump\t// in\n    tag_220:\n      swap2\n      pop\n      pop\n        /* \"contracts/99_test.sol\":9204:9604  for(uint i = 0; i < students.length; i++) {... */\n      jump(tag_173)\n    tag_174:\n      pop\n        /* \"contracts/99_test.sol\":9622:9631  F_Storage */\n      dup2\n        /* \"contracts/99_test.sol\":9622:9638  F_Storage.length */\n      mload\n        /* \"contracts/99_test.sol\":9640:9645  count */\n      dup2\n        /* \"contracts/99_test.sol\":9647:9656  F_Storage */\n      dup4\n        /* \"contracts/99_test.sol\":9614:9657  return (F_Storage.length, count, F_Storage) */\n      swap6\n      pop\n      swap6\n      pop\n      swap6\n      pop\n      pop\n      pop\n      pop\n        /* \"contracts/99_test.sol\":9013:9665  function FClass1() public view returns(uint, uint, Student[] memory) {... */\n      swap1\n      swap2\n      swap3\n      jump\t// out\n        /* \"contracts/99_test.sol\":6009:6304  function pushStudent(string memory _name, uint _score, string[] memory _classes) public {... */\n    tag_33:\n        /* \"contracts/99_test.sol\":6108:6116  students */\n      0x00\n        /* \"contracts/99_test.sol\":6122:6194  Student(_name, students.length + 1, _score, setCredit(_score), _classes) */\n      mload(0x40)\n      dup1\n      0xa0\n      add\n      0x40\n      mstore\n      dup1\n        /* \"contracts/99_test.sol\":6130:6135  _name */\n      dup6\n        /* \"contracts/99_test.sol\":6122:6194  Student(_name, students.length + 1, _score, setCredit(_score), _classes) */\n      dup2\n      mstore\n      0x20\n      add\n        /* \"contracts/99_test.sol\":6155:6156  1 */\n      0x01\n        /* \"contracts/99_test.sol\":6137:6145  students */\n      0x00\n        /* \"contracts/99_test.sol\":6137:6152  students.length */\n      dup1\n      sload\n      swap1\n      pop\n        /* \"contracts/99_test.sol\":6137:6156  students.length + 1 */\n      tag_222\n      swap2\n      swap1\n      tag_223\n      jump\t// in\n    tag_222:\n        /* \"contracts/99_test.sol\":6122:6194  Student(_name, students.length + 1, _score, setCredit(_score), _classes) */\n      dup2\n      mstore\n      0x20\n      add\n        /* \"contracts/99_test.sol\":6158:6164  _score */\n      dup5\n        /* \"contracts/99_test.sol\":6122:6194  Student(_name, students.length + 1, _score, setCredit(_score), _classes) */\n      dup2\n      mstore\n      0x20\n      add\n        /* \"contracts/99_test.sol\":6166:6183  setCredit(_score) */\n      tag_224\n        /* \"contracts/99_test.sol\":6176:6182  _score */\n      dup6\n        /* \"contracts/99_test.sol\":6166:6175  setCredit */\n      tag_62\n        /* \"contracts/99_test.sol\":6166:6183  setCredit(_score) */\n      jump\t// in\n    tag_224:\n        /* \"contracts/99_test.sol\":6122:6194  Student(_name, students.length + 1, _score, setCredit(_score), _classes) */\n      dup2\n      mstore\n      0x20\n      add\n        /* \"contracts/99_test.sol\":6185:6193  _classes */\n      dup4\n        /* \"contracts/99_test.sol\":6122:6194  Student(_name, students.length + 1, _score, setCredit(_score), _classes) */\n      dup2\n      mstore\n      pop\n        /* \"contracts/99_test.sol\":6108:6195  students.push(Student(_name, students.length + 1, _score, setCredit(_score), _classes)) */\n      swap1\n      dup1\n      0x01\n      dup2\n      sload\n      add\n      dup1\n      dup3\n      sstore\n      dup1\n      swap2\n      pop\n      pop\n      0x01\n      swap1\n      sub\n      swap1\n      0x00\n      mstore\n      keccak256(0x00, 0x20)\n      swap1\n      0x05\n      mul\n      add\n      0x00\n      swap1\n      swap2\n      swap1\n      swap2\n      swap1\n      swap2\n      pop\n      0x00\n      dup3\n      add\n      mload\n      dup2\n      0x00\n      add\n      swap1\n      dup2\n      tag_226\n      swap2\n      swap1\n      tag_227\n      jump\t// in\n    tag_226:\n      pop\n      0x20\n      dup3\n      add\n      mload\n      dup2\n      0x01\n      add\n      sstore\n      0x40\n      dup3\n      add\n      mload\n      dup2\n      0x02\n      add\n      sstore\n      0x60\n      dup3\n      add\n      mload\n      dup2\n      0x03\n      add\n      swap1\n      dup2\n      tag_228\n      swap2\n      swap1\n      tag_227\n      jump\t// in\n    tag_228:\n      pop\n      0x80\n      dup3\n      add\n      mload\n      dup2\n      0x04\n      add\n      swap1\n      dup1\n      mload\n      swap1\n      0x20\n      add\n      swap1\n      tag_229\n      swap3\n      swap2\n      swap1\n      tag_230\n      jump\t// in\n    tag_229:\n      pop\n      pop\n      pop\n        /* \"contracts/99_test.sol\":6228:6296  Student(_name, students.length, _score, setCredit(_score), _classes) */\n      mload(0x40)\n      dup1\n      0xa0\n      add\n      0x40\n      mstore\n      dup1\n        /* \"contracts/99_test.sol\":6236:6241  _name */\n      dup5\n        /* \"contracts/99_test.sol\":6228:6296  Student(_name, students.length, _score, setCredit(_score), _classes) */\n      dup2\n      mstore\n      0x20\n      add\n        /* \"contracts/99_test.sol\":6243:6251  students */\n      0x00\n        /* \"contracts/99_test.sol\":6243:6258  students.length */\n      dup1\n      sload\n      swap1\n      pop\n        /* \"contracts/99_test.sol\":6228:6296  Student(_name, students.length, _score, setCredit(_score), _classes) */\n      dup2\n      mstore\n      0x20\n      add\n        /* \"contracts/99_test.sol\":6260:6266  _score */\n      dup4\n        /* \"contracts/99_test.sol\":6228:6296  Student(_name, students.length, _score, setCredit(_score), _classes) */\n      dup2\n      mstore\n      0x20\n      add\n        /* \"contracts/99_test.sol\":6268:6285  setCredit(_score) */\n      tag_231\n        /* \"contracts/99_test.sol\":6278:6284  _score */\n      dup5\n        /* \"contracts/99_test.sol\":6268:6277  setCredit */\n      tag_62\n        /* \"contracts/99_test.sol\":6268:6285  setCredit(_score) */\n      jump\t// in\n    tag_231:\n        /* \"contracts/99_test.sol\":6228:6296  Student(_name, students.length, _score, setCredit(_score), _classes) */\n      dup2\n      mstore\n      0x20\n      add\n        /* \"contracts/99_test.sol\":6287:6295  _classes */\n      dup3\n        /* \"contracts/99_test.sol\":6228:6296  Student(_name, students.length, _score, setCredit(_score), _classes) */\n      dup2\n      mstore\n      pop\n        /* \"contracts/99_test.sol\":6206:6218  name_Student */\n      0x01\n        /* \"contracts/99_test.sol\":6219:6224  _name */\n      dup5\n        /* \"contracts/99_test.sol\":6206:6225  name_Student[_name] */\n      mload(0x40)\n      tag_232\n      swap2\n      swap1\n      tag_233\n      jump\t// in\n    tag_232:\n      swap1\n      dup2\n      mstore\n      0x20\n      add\n      mload(0x40)\n      dup1\n      swap2\n      sub\n      swap1\n      keccak256\n        /* \"contracts/99_test.sol\":6206:6296  name_Student[_name] = Student(_name, students.length, _score, setCredit(_score), _classes) */\n      0x00\n      dup3\n      add\n      mload\n      dup2\n      0x00\n      add\n      swap1\n      dup2\n      tag_234\n      swap2\n      swap1\n      tag_227\n      jump\t// in\n    tag_234:\n      pop\n      0x20\n      dup3\n      add\n      mload\n      dup2\n      0x01\n      add\n      sstore\n      0x40\n      dup3\n      add\n      mload\n      dup2\n      0x02\n      add\n      sstore\n      0x60\n      dup3\n      add\n      mload\n      dup2\n      0x03\n      add\n      swap1\n      dup2\n      tag_235\n      swap2\n      swap1\n      tag_227\n      jump\t// in\n    tag_235:\n      pop\n      0x80\n      dup3\n      add\n      mload\n      dup2\n      0x04\n      add\n      swap1\n      dup1\n      mload\n      swap1\n      0x20\n      add\n      swap1\n      tag_236\n      swap3\n      swap2\n      swap1\n      tag_230\n      jump\t// in\n    tag_236:\n      pop\n      swap1\n      pop\n      pop\n        /* \"contracts/99_test.sol\":6009:6304  function pushStudent(string memory _name, uint _score, string[] memory _classes) public {... */\n      pop\n      pop\n      pop\n      jump\t// out\n        /* \"contracts/99_test.sol\":8328:9005  function FClass() public view returns(Student[] memory) {... */\n    tag_35:\n        /* \"contracts/99_test.sol\":8366:8382  Student[] memory */\n      0x60\n        /* \"contracts/99_test.sol\":8395:8403  uint num */\n      0x00\n        /* \"contracts/99_test.sol\":8456:8462  uint i */\n      dup1\n        /* \"contracts/99_test.sol\":8465:8466  0 */\n      0x00\n        /* \"contracts/99_test.sol\":8456:8466  uint i = 0 */\n      swap1\n      pop\n        /* \"contracts/99_test.sol\":8452:8626  for(uint i = 0; i < students.length; i++) {... */\n    tag_238:\n        /* \"contracts/99_test.sol\":8472:8480  students */\n      0x00\n        /* \"contracts/99_test.sol\":8472:8487  students.length */\n      dup1\n      sload\n      swap1\n      pop\n        /* \"contracts/99_test.sol\":8468:8469  i */\n      dup2\n        /* \"contracts/99_test.sol\":8468:8487  i < students.length */\n      lt\n        /* \"contracts/99_test.sol\":8452:8626  for(uint i = 0; i < students.length; i++) {... */\n      iszero\n      tag_239\n      jumpi\n        /* \"contracts/99_test.sol\":8562:8572  bytes(\"F\") */\n      mload(0x40)\n      dup1\n      0x40\n      add\n      0x40\n      mstore\n      dup1\n      0x01\n      dup2\n      mstore\n      0x20\n      add\n      0x4600000000000000000000000000000000000000000000000000000000000000\n      dup2\n      mstore\n      pop\n        /* \"contracts/99_test.sol\":8552:8573  keccak256(bytes(\"F\")) */\n      dup1\n      mload\n      swap1\n      0x20\n      add\n      keccak256\n        /* \"contracts/99_test.sol\":8528:8536  students */\n      0x00\n        /* \"contracts/99_test.sol\":8537:8538  i */\n      dup3\n        /* \"contracts/99_test.sol\":8528:8539  students[i] */\n      dup2\n      sload\n      dup2\n      lt\n      tag_241\n      jumpi\n      tag_242\n      tag_72\n      jump\t// in\n    tag_242:\n    tag_241:\n      swap1\n      0x00\n      mstore\n      keccak256(0x00, 0x20)\n      swap1\n      0x05\n      mul\n      add\n        /* \"contracts/99_test.sol\":8528:8546  students[i].credit */\n      0x03\n      add\n        /* \"contracts/99_test.sol\":8512:8548  keccak256(bytes(students[i].credit)) */\n      mload(0x40)\n      tag_244\n      swap2\n      swap1\n      tag_180\n      jump\t// in\n    tag_244:\n      mload(0x40)\n      dup1\n      swap2\n      sub\n      swap1\n      keccak256\n        /* \"contracts/99_test.sol\":8512:8573  keccak256(bytes(students[i].credit)) == keccak256(bytes(\"F\")) */\n      sub\n        /* \"contracts/99_test.sol\":8509:8615  if(keccak256(bytes(students[i].credit)) == keccak256(bytes(\"F\"))) {... */\n      tag_245\n      jumpi\n        /* \"contracts/99_test.sol\":8594:8599  num++ */\n      dup2\n      dup1\n      tag_246\n      swap1\n      tag_141\n      jump\t// in\n    tag_246:\n      swap3\n      pop\n      pop\n        /* \"contracts/99_test.sol\":8509:8615  if(keccak256(bytes(students[i].credit)) == keccak256(bytes(\"F\"))) {... */\n    tag_245:\n        /* \"contracts/99_test.sol\":8489:8492  i++ */\n      dup1\n      dup1\n      tag_247\n      swap1\n      tag_141\n      jump\t// in\n    tag_247:\n      swap2\n      pop\n      pop\n        /* \"contracts/99_test.sol\":8452:8626  for(uint i = 0; i < students.length; i++) {... */\n      jump(tag_238)\n    tag_239:\n      pop\n        /* \"contracts/99_test.sol\":8638:8664  Student[] memory F_Storage */\n      0x00\n        /* \"contracts/99_test.sol\":8681:8684  num */\n      dup2\n        /* \"contracts/99_test.sol\":8667:8685  new Student[](num) */\n      0xffffffffffffffff\n      dup2\n      gt\n      iszero\n      tag_248\n      jumpi\n      tag_249\n      tag_117\n      jump\t// in\n    tag_249:\n    tag_248:\n      mload(0x40)\n      swap1\n      dup1\n      dup3\n      mstore\n      dup1\n      0x20\n      mul\n      0x20\n      add\n      dup3\n      add\n      0x40\n      mstore\n      dup1\n      iszero\n      tag_250\n      jumpi\n      dup2\n      0x20\n      add\n    tag_251:\n      tag_252\n      tag_66\n      jump\t// in\n    tag_252:\n      dup2\n      mstore\n      0x20\n      add\n      swap1\n      0x01\n      swap1\n      sub\n      swap1\n      dup2\n      tag_251\n      jumpi\n      swap1\n      pop\n    tag_250:\n      pop\n        /* \"contracts/99_test.sol\":8638:8685  Student[] memory F_Storage = new Student[](num) */\n      swap1\n      pop\n        /* \"contracts/99_test.sol\":8726:8735  uint _num */\n      0x00\n        /* \"contracts/99_test.sol\":8750:8756  uint i */\n      dup1\n        /* \"contracts/99_test.sol\":8759:8760  0 */\n      0x00\n        /* \"contracts/99_test.sol\":8750:8760  uint i = 0 */\n      swap1\n      pop\n        /* \"contracts/99_test.sol\":8746:8969  for(uint i = 0; i < students.length; i++) {... */\n    tag_253:\n        /* \"contracts/99_test.sol\":8766:8774  students */\n      0x00\n        /* \"contracts/99_test.sol\":8766:8781  students.length */\n      dup1\n      sload\n      swap1\n      pop\n        /* \"contracts/99_test.sol\":8762:8763  i */\n      dup2\n        /* \"contracts/99_test.sol\":8762:8781  i < students.length */\n      lt\n        /* \"contracts/99_test.sol\":8746:8969  for(uint i = 0; i < students.length; i++) {... */\n      iszero\n      tag_254\n      jumpi\n        /* \"contracts/99_test.sol\":8856:8866  bytes(\"F\") */\n      mload(0x40)\n      dup1\n      0x40\n      add\n      0x40\n      mstore\n      dup1\n      0x01\n      dup2\n      mstore\n      0x20\n      add\n      0x4600000000000000000000000000000000000000000000000000000000000000\n      dup2\n      mstore\n      pop\n        /* \"contracts/99_test.sol\":8846:8867  keccak256(bytes(\"F\")) */\n      dup1\n      mload\n      swap1\n      0x20\n      add\n      keccak256\n        /* \"contracts/99_test.sol\":8822:8830  students */\n      0x00\n        /* \"contracts/99_test.sol\":8831:8832  i */\n      dup3\n        /* \"contracts/99_test.sol\":8822:8833  students[i] */\n      dup2\n      sload\n      dup2\n      lt\n      tag_256\n      jumpi\n      tag_257\n      tag_72\n      jump\t// in\n    tag_257:\n    tag_256:\n      swap1\n      0x00\n      mstore\n      keccak256(0x00, 0x20)\n      swap1\n      0x05\n      mul\n      add\n        /* \"contracts/99_test.sol\":8822:8840  students[i].credit */\n      0x03\n      add\n        /* \"contracts/99_test.sol\":8806:8842  keccak256(bytes(students[i].credit)) */\n      mload(0x40)\n      tag_259\n      swap2\n      swap1\n      tag_180\n      jump\t// in\n    tag_259:\n      mload(0x40)\n      dup1\n      swap2\n      sub\n      swap1\n      keccak256\n        /* \"contracts/99_test.sol\":8806:8867  keccak256(bytes(students[i].credit)) == keccak256(bytes(\"F\")) */\n      sub\n        /* \"contracts/99_test.sol\":8803:8958  if(keccak256(bytes(students[i].credit)) == keccak256(bytes(\"F\"))) {... */\n      tag_260\n      jumpi\n        /* \"contracts/99_test.sol\":8906:8914  students */\n      0x00\n        /* \"contracts/99_test.sol\":8915:8916  i */\n      dup2\n        /* \"contracts/99_test.sol\":8906:8917  students[i] */\n      dup2\n      sload\n      dup2\n      lt\n      tag_261\n      jumpi\n      tag_262\n      tag_72\n      jump\t// in\n    tag_262:\n    tag_261:\n      swap1\n      0x00\n      mstore\n      keccak256(0x00, 0x20)\n      swap1\n      0x05\n      mul\n      add\n        /* \"contracts/99_test.sol\":8888:8917  F_Storage[_num] = students[i] */\n      mload(0x40)\n      dup1\n      0xa0\n      add\n      0x40\n      mstore\n      swap1\n      dup2\n      0x00\n      dup3\n      add\n      dup1\n      sload\n      tag_264\n      swap1\n      tag_75\n      jump\t// in\n    tag_264:\n      dup1\n      0x1f\n      add\n      0x20\n      dup1\n      swap2\n      div\n      mul\n      0x20\n      add\n      mload(0x40)\n      swap1\n      dup2\n      add\n      0x40\n      mstore\n      dup1\n      swap3\n      swap2\n      swap1\n      dup2\n      dup2\n      mstore\n      0x20\n      add\n      dup3\n      dup1\n      sload\n      tag_265\n      swap1\n      tag_75\n      jump\t// in\n    tag_265:\n      dup1\n      iszero\n      tag_266\n      jumpi\n      dup1\n      0x1f\n      lt\n      tag_267\n      jumpi\n      0x0100\n      dup1\n      dup4\n      sload\n      div\n      mul\n      dup4\n      mstore\n      swap2\n      0x20\n      add\n      swap2\n      jump(tag_266)\n    tag_267:\n      dup3\n      add\n      swap2\n      swap1\n      0x00\n      mstore\n      keccak256(0x00, 0x20)\n      swap1\n    tag_268:\n      dup2\n      sload\n      dup2\n      mstore\n      swap1\n      0x01\n      add\n      swap1\n      0x20\n      add\n      dup1\n      dup4\n      gt\n      tag_268\n      jumpi\n      dup3\n      swap1\n      sub\n      0x1f\n      and\n      dup3\n      add\n      swap2\n    tag_266:\n      pop\n      pop\n      pop\n      pop\n      pop\n      dup2\n      mstore\n      0x20\n      add\n      0x01\n      dup3\n      add\n      sload\n      dup2\n      mstore\n      0x20\n      add\n      0x02\n      dup3\n      add\n      sload\n      dup2\n      mstore\n      0x20\n      add\n      0x03\n      dup3\n      add\n      dup1\n      sload\n      tag_269\n      swap1\n      tag_75\n      jump\t// in\n    tag_269:\n      dup1\n      0x1f\n      add\n      0x20\n      dup1\n      swap2\n      div\n      mul\n      0x20\n      add\n      mload(0x40)\n      swap1\n      dup2\n      add\n      0x40\n      mstore\n      dup1\n      swap3\n      swap2\n      swap1\n      dup2\n      dup2\n      mstore\n      0x20\n      add\n      dup3\n      dup1\n      sload\n      tag_270\n      swap1\n      tag_75\n      jump\t// in\n    tag_270:\n      dup1\n      iszero\n      tag_271\n      jumpi\n      dup1\n      0x1f\n      lt\n      tag_272\n      jumpi\n      0x0100\n      dup1\n      dup4\n      sload\n      div\n      mul\n      dup4\n      mstore\n      swap2\n      0x20\n      add\n      swap2\n      jump(tag_271)\n    tag_272:\n      dup3\n      add\n      swap2\n      swap1\n      0x00\n      mstore\n      keccak256(0x00, 0x20)\n      swap1\n    tag_273:\n      dup2\n      sload\n      dup2\n      mstore\n      swap1\n      0x01\n      add\n      swap1\n      0x20\n      add\n      dup1\n      dup4\n      gt\n      tag_273\n      jumpi\n      dup3\n      swap1\n      sub\n      0x1f\n      and\n      dup3\n      add\n      swap2\n    tag_271:\n      pop\n      pop\n      pop\n      pop\n      pop\n      dup2\n      mstore\n      0x20\n      add\n      0x04\n      dup3\n      add\n      dup1\n      sload\n      dup1\n      0x20\n      mul\n      0x20\n      add\n      mload(0x40)\n      swap1\n      dup2\n      add\n      0x40\n      mstore\n      dup1\n      swap3\n      swap2\n      swap1\n      dup2\n      dup2\n      mstore\n      0x20\n      add\n      0x00\n      swap1\n    tag_274:\n      dup3\n      dup3\n      lt\n      iszero\n      tag_275\n      jumpi\n      dup4\n      dup3\n      swap1\n      0x00\n      mstore\n      keccak256(0x00, 0x20)\n      add\n      dup1\n      sload\n      tag_277\n      swap1\n      tag_75\n      jump\t// in\n    tag_277:\n      dup1\n      0x1f\n      add\n      0x20\n      dup1\n      swap2\n      div\n      mul\n      0x20\n      add\n      mload(0x40)\n      swap1\n      dup2\n      add\n      0x40\n      mstore\n      dup1\n      swap3\n      swap2\n      swap1\n      dup2\n      dup2\n      mstore\n      0x20\n      add\n      dup3\n      dup1\n      sload\n      tag_278\n      swap1\n      tag_75\n      jump\t// in\n    tag_278:\n      dup1\n      iszero\n      tag_279\n      jumpi\n      dup1\n      0x1f\n      lt\n      tag_280\n      jumpi\n      0x0100\n      dup1\n      dup4\n      sload\n      div\n      mul\n      dup4\n      mstore\n      swap2\n      0x20\n      add\n      swap2\n      jump(tag_279)\n    tag_280:\n      dup3\n      add\n      swap2\n      swap1\n      0x00\n      mstore\n      keccak256(0x00, 0x20)\n      swap1\n    tag_281:\n      dup2\n      sload\n      dup2\n      mstore\n      swap1\n      0x01\n      add\n      swap1\n      0x20\n      add\n      dup1\n      dup4\n      gt\n      tag_281\n      jumpi\n      dup3\n      swap1\n      sub\n      0x1f\n      and\n      dup3\n      add\n      swap2\n    tag_279:\n      pop\n      pop\n      pop\n      pop\n      pop\n      dup2\n      mstore\n      0x20\n      add\n      swap1\n      0x01\n      add\n      swap1\n      jump(tag_274)\n    tag_275:\n      pop\n      pop\n      pop\n      pop\n      dup2\n      mstore\n      pop\n      pop\n        /* \"contracts/99_test.sol\":8888:8897  F_Storage */\n      dup4\n        /* \"contracts/99_test.sol\":8898:8902  _num */\n      dup4\n        /* \"contracts/99_test.sol\":8888:8903  F_Storage[_num] */\n      dup2\n      mload\n      dup2\n      lt\n      tag_282\n      jumpi\n      tag_283\n      tag_72\n      jump\t// in\n    tag_283:\n    tag_282:\n      0x20\n      mul\n      0x20\n      add\n      add\n        /* \"contracts/99_test.sol\":8888:8917  F_Storage[_num] = students[i] */\n      dup2\n      swap1\n      mstore\n      pop\n        /* \"contracts/99_test.sol\":8936:8942  _num++ */\n      dup2\n      dup1\n      tag_284\n      swap1\n      tag_141\n      jump\t// in\n    tag_284:\n      swap3\n      pop\n      pop\n        /* \"contracts/99_test.sol\":8803:8958  if(keccak256(bytes(students[i].credit)) == keccak256(bytes(\"F\"))) {... */\n    tag_260:\n        /* \"contracts/99_test.sol\":8783:8786  i++ */\n      dup1\n      dup1\n      tag_285\n      swap1\n      tag_141\n      jump\t// in\n    tag_285:\n      swap2\n      pop\n      pop\n        /* \"contracts/99_test.sol\":8746:8969  for(uint i = 0; i < students.length; i++) {... */\n      jump(tag_253)\n    tag_254:\n      pop\n        /* \"contracts/99_test.sol\":8988:8997  F_Storage */\n      dup2\n        /* \"contracts/99_test.sol\":8981:8997  return F_Storage */\n      swap4\n      pop\n      pop\n      pop\n      pop\n        /* \"contracts/99_test.sol\":8328:9005  function FClass() public view returns(Student[] memory) {... */\n      swap1\n      jump\t// out\n        /* \"contracts/99_test.sol\":7109:7237  function getStudentByName(string memory _name) public view returns(Student memory) {... */\n    tag_40:\n        /* \"contracts/99_test.sol\":7176:7190  Student memory */\n      tag_286\n      tag_66\n      jump\t// in\n    tag_286:\n        /* \"contracts/99_test.sol\":7210:7222  name_Student */\n      0x01\n        /* \"contracts/99_test.sol\":7223:7228  _name */\n      dup3\n        /* \"contracts/99_test.sol\":7210:7229  name_Student[_name] */\n      mload(0x40)\n      tag_288\n      swap2\n      swap1\n      tag_233\n      jump\t// in\n    tag_288:\n      swap1\n      dup2\n      mstore\n      0x20\n      add\n      mload(0x40)\n      dup1\n      swap2\n      sub\n      swap1\n      keccak256\n        /* \"contracts/99_test.sol\":7203:7229  return name_Student[_name] */\n      mload(0x40)\n      dup1\n      0xa0\n      add\n      0x40\n      mstore\n      swap1\n      dup2\n      0x00\n      dup3\n      add\n      dup1\n      sload\n      tag_289\n      swap1\n      tag_75\n      jump\t// in\n    tag_289:\n      dup1\n      0x1f\n      add\n      0x20\n      dup1\n      swap2\n      div\n      mul\n      0x20\n      add\n      mload(0x40)\n      swap1\n      dup2\n      add\n      0x40\n      mstore\n      dup1\n      swap3\n      swap2\n      swap1\n      dup2\n      dup2\n      mstore\n      0x20\n      add\n      dup3\n      dup1\n      sload\n      tag_290\n      swap1\n      tag_75\n      jump\t// in\n    tag_290:\n      dup1\n      iszero\n      tag_291\n      jumpi\n      dup1\n      0x1f\n      lt\n      tag_292\n      jumpi\n      0x0100\n      dup1\n      dup4\n      sload\n      div\n      mul\n      dup4\n      mstore\n      swap2\n      0x20\n      add\n      swap2\n      jump(tag_291)\n    tag_292:\n      dup3\n      add\n      swap2\n      swap1\n      0x00\n      mstore\n      keccak256(0x00, 0x20)\n      swap1\n    tag_293:\n      dup2\n      sload\n      dup2\n      mstore\n      swap1\n      0x01\n      add\n      swap1\n      0x20\n      add\n      dup1\n      dup4\n      gt\n      tag_293\n      jumpi\n      dup3\n      swap1\n      sub\n      0x1f\n      and\n      dup3\n      add\n      swap2\n    tag_291:\n      pop\n      pop\n      pop\n      pop\n      pop\n      dup2\n      mstore\n      0x20\n      add\n      0x01\n      dup3\n      add\n      sload\n      dup2\n      mstore\n      0x20\n      add\n      0x02\n      dup3\n      add\n      sload\n      dup2\n      mstore\n      0x20\n      add\n      0x03\n      dup3\n      add\n      dup1\n      sload\n      tag_294\n      swap1\n      tag_75\n      jump\t// in\n    tag_294:\n      dup1\n      0x1f\n      add\n      0x20\n      dup1\n      swap2\n      div\n      mul\n      0x20\n      add\n      mload(0x40)\n      swap1\n      dup2\n      add\n      0x40\n      mstore\n      dup1\n      swap3\n      swap2\n      swap1\n      dup2\n      dup2\n      mstore\n      0x20\n      add\n      dup3\n      dup1\n      sload\n      tag_295\n      swap1\n      tag_75\n      jump\t// in\n    tag_295:\n      dup1\n      iszero\n      tag_296\n      jumpi\n      dup1\n      0x1f\n      lt\n      tag_297\n      jumpi\n      0x0100\n      dup1\n      dup4\n      sload\n      div\n      mul\n      dup4\n      mstore\n      swap2\n      0x20\n      add\n      swap2\n      jump(tag_296)\n    tag_297:\n      dup3\n      add\n      swap2\n      swap1\n      0x00\n      mstore\n      keccak256(0x00, 0x20)\n      swap1\n    tag_298:\n      dup2\n      sload\n      dup2\n      mstore\n      swap1\n      0x01\n      add\n      swap1\n      0x20\n      add\n      dup1\n      dup4\n      gt\n      tag_298\n      jumpi\n      dup3\n      swap1\n      sub\n      0x1f\n      and\n      dup3\n      add\n      swap2\n    tag_296:\n      pop\n      pop\n      pop\n      pop\n      pop\n      dup2\n      mstore\n      0x20\n      add\n      0x04\n      dup3\n      add\n      dup1\n      sload\n      dup1\n      0x20\n      mul\n      0x20\n      add\n      mload(0x40)\n      swap1\n      dup2\n      add\n      0x40\n      mstore\n      dup1\n      swap3\n      swap2\n      swap1\n      dup2\n      dup2\n      mstore\n      0x20\n      add\n      0x00\n      swap1\n    tag_299:\n      dup3\n      dup3\n      lt\n      iszero\n      tag_300\n      jumpi\n      dup4\n      dup3\n      swap1\n      0x00\n      mstore\n      keccak256(0x00, 0x20)\n      add\n      dup1\n      sload\n      tag_302\n      swap1\n      tag_75\n      jump\t// in\n    tag_302:\n      dup1\n      0x1f\n      add\n      0x20\n      dup1\n      swap2\n      div\n      mul\n      0x20\n      add\n      mload(0x40)\n      swap1\n      dup2\n      add\n      0x40\n      mstore\n      dup1\n      swap3\n      swap2\n      swap1\n      dup2\n      dup2\n      mstore\n      0x20\n      add\n      dup3\n      dup1\n      sload\n      tag_303\n      swap1\n      tag_75\n      jump\t// in\n    tag_303:\n      dup1\n      iszero\n      tag_304\n      jumpi\n      dup1\n      0x1f\n      lt\n      tag_305\n      jumpi\n      0x0100\n      dup1\n      dup4\n      sload\n      div\n      mul\n      dup4\n      mstore\n      swap2\n      0x20\n      add\n      swap2\n      jump(tag_304)\n    tag_305:\n      dup3\n      add\n      swap2\n      swap1\n      0x00\n      mstore\n      keccak256(0x00, 0x20)\n      swap1\n    tag_306:\n      dup2\n      sload\n      dup2\n      mstore\n      swap1\n      0x01\n      add\n      swap1\n      0x20\n      add\n      dup1\n      dup4\n      gt\n      tag_306\n      jumpi\n      dup3\n      swap1\n      sub\n      0x1f\n      and\n      dup3\n      add\n      swap2\n    tag_304:\n      pop\n      pop\n      pop\n      pop\n      pop\n      dup2\n      mstore\n      0x20\n      add\n      swap1\n      0x01\n      add\n      swap1\n      jump(tag_299)\n    tag_300:\n      pop\n      pop\n      pop\n      pop\n      dup2\n      mstore\n      pop\n      pop\n      swap1\n      pop\n        /* \"contracts/99_test.sol\":7109:7237  function getStudentByName(string memory _name) public view returns(Student memory) {... */\n      swap2\n      swap1\n      pop\n      jump\t// out\n        /* \"contracts/99_test.sol\":8041:8216  function selfEva() public view returns (bool) {... */\n    tag_43:\n        /* \"contracts/99_test.sol\":8081:8085  bool */\n      0x00\n        /* \"contracts/99_test.sol\":8122:8124  70 */\n      0x46\n        /* \"contracts/99_test.sol\":8101:8118  getAverageScore() */\n      tag_308\n        /* \"contracts/99_test.sol\":8101:8116  getAverageScore */\n      tag_51\n        /* \"contracts/99_test.sol\":8101:8118  getAverageScore() */\n      jump\t// in\n    tag_308:\n        /* \"contracts/99_test.sol\":8101:8124  getAverageScore() >= 70 */\n      lt\n        /* \"contracts/99_test.sol\":8098:8209  if(getAverageScore() >= 70) {... */\n      tag_309\n      jumpi\n        /* \"contracts/99_test.sol\":8148:8152  true */\n      0x01\n        /* \"contracts/99_test.sol\":8141:8152  return true */\n      swap1\n      pop\n      jump(tag_307)\n        /* \"contracts/99_test.sol\":8098:8209  if(getAverageScore() >= 70) {... */\n    tag_309:\n        /* \"contracts/99_test.sol\":8192:8197  false */\n      0x00\n        /* \"contracts/99_test.sol\":8185:8197  return false */\n      swap1\n      pop\n        /* \"contracts/99_test.sol\":8041:8216  function selfEva() public view returns (bool) {... */\n    tag_307:\n      swap1\n      jump\t// out\n        /* \"contracts/99_test.sol\":6404:6500  function getStudentsNumber() public view returns(uint) {... */\n    tag_47:\n        /* \"contracts/99_test.sol\":6453:6457  uint */\n      0x00\n        /* \"contracts/99_test.sol\":6477:6485  students */\n      dup1\n        /* \"contracts/99_test.sol\":6477:6492  students.length */\n      dup1\n      sload\n      swap1\n      pop\n        /* \"contracts/99_test.sol\":6470:6492  return students.length */\n      swap1\n      pop\n        /* \"contracts/99_test.sol\":6404:6500  function getStudentsNumber() public view returns(uint) {... */\n      swap1\n      jump\t// out\n        /* \"contracts/99_test.sol\":7587:7897  function getAverageScore() public view returns (uint) {... */\n    tag_51:\n        /* \"contracts/99_test.sol\":7635:7639  uint */\n      0x00\n        /* \"contracts/99_test.sol\":7652:7667  uint totalScore */\n      dup1\n        /* \"contracts/99_test.sol\":7678:7695  uint averageScore */\n      0x00\n        /* \"contracts/99_test.sol\":7710:7716  uint i */\n      dup1\n        /* \"contracts/99_test.sol\":7719:7720  0 */\n      0x00\n        /* \"contracts/99_test.sol\":7710:7720  uint i = 0 */\n      swap1\n      pop\n        /* \"contracts/99_test.sol\":7706:7806  for(uint i = 0; i < students.length; i++) {... */\n    tag_313:\n        /* \"contracts/99_test.sol\":7726:7734  students */\n      0x00\n        /* \"contracts/99_test.sol\":7726:7741  students.length */\n      dup1\n      sload\n      swap1\n      pop\n        /* \"contracts/99_test.sol\":7722:7723  i */\n      dup2\n        /* \"contracts/99_test.sol\":7722:7741  i < students.length */\n      lt\n        /* \"contracts/99_test.sol\":7706:7806  for(uint i = 0; i < students.length; i++) {... */\n      iszero\n      tag_314\n      jumpi\n        /* \"contracts/99_test.sol\":7777:7785  students */\n      0x00\n        /* \"contracts/99_test.sol\":7786:7787  i */\n      dup2\n        /* \"contracts/99_test.sol\":7777:7788  students[i] */\n      dup2\n      sload\n      dup2\n      lt\n      tag_316\n      jumpi\n      tag_317\n      tag_72\n      jump\t// in\n    tag_317:\n    tag_316:\n      swap1\n      0x00\n      mstore\n      keccak256(0x00, 0x20)\n      swap1\n      0x05\n      mul\n      add\n        /* \"contracts/99_test.sol\":7777:7794  students[i].score */\n      0x02\n      add\n      sload\n        /* \"contracts/99_test.sol\":7763:7794  totalScore += students[i].score */\n      dup4\n      tag_319\n      swap2\n      swap1\n      tag_223\n      jump\t// in\n    tag_319:\n      swap3\n      pop\n        /* \"contracts/99_test.sol\":7743:7746  i++ */\n      dup1\n      dup1\n      tag_320\n      swap1\n      tag_141\n      jump\t// in\n    tag_320:\n      swap2\n      pop\n      pop\n        /* \"contracts/99_test.sol\":7706:7806  for(uint i = 0; i < students.length; i++) {... */\n      jump(tag_313)\n    tag_314:\n      pop\n        /* \"contracts/99_test.sol\":7844:7852  students */\n      0x00\n        /* \"contracts/99_test.sol\":7844:7859  students.length */\n      dup1\n      sload\n      swap1\n      pop\n        /* \"contracts/99_test.sol\":7831:7841  totalScore */\n      dup3\n        /* \"contracts/99_test.sol\":7831:7859  totalScore / students.length */\n      tag_321\n      swap2\n      swap1\n      tag_322\n      jump\t// in\n    tag_321:\n        /* \"contracts/99_test.sol\":7816:7859  averageScore = totalScore / students.length */\n      swap1\n      pop\n        /* \"contracts/99_test.sol\":7877:7889  averageScore */\n      dup1\n        /* \"contracts/99_test.sol\":7870:7889  return averageScore */\n      swap3\n      pop\n      pop\n      pop\n        /* \"contracts/99_test.sol\":7587:7897  function getAverageScore() public view returns (uint) {... */\n      swap1\n      jump\t// out\n        /* \"contracts/99_test.sol\":7354:7477  function getStudentScore(string memory _name) public view returns(uint) {... */\n    tag_55:\n        /* \"contracts/99_test.sol\":7420:7424  uint */\n      0x00\n        /* \"contracts/99_test.sol\":7444:7456  name_Student */\n      0x01\n        /* \"contracts/99_test.sol\":7457:7462  _name */\n      dup3\n        /* \"contracts/99_test.sol\":7444:7463  name_Student[_name] */\n      mload(0x40)\n      tag_324\n      swap2\n      swap1\n      tag_233\n      jump\t// in\n    tag_324:\n      swap1\n      dup2\n      mstore\n      0x20\n      add\n      mload(0x40)\n      dup1\n      swap2\n      sub\n      swap1\n      keccak256\n        /* \"contracts/99_test.sol\":7444:7469  name_Student[_name].score */\n      0x02\n      add\n      sload\n        /* \"contracts/99_test.sol\":7437:7469  return name_Student[_name].score */\n      swap1\n      pop\n        /* \"contracts/99_test.sol\":7354:7477  function getStudentScore(string memory _name) public view returns(uint) {... */\n      swap2\n      swap1\n      pop\n      jump\t// out\n        /* \"contracts/99_test.sol\":6607:6705  function getAllStudents() public view returns(Student[] memory) {... */\n    tag_58:\n        /* \"contracts/99_test.sol\":6653:6669  Student[] memory */\n      0x60\n        /* \"contracts/99_test.sol\":6689:6697  students */\n      0x00\n        /* \"contracts/99_test.sol\":6682:6697  return students */\n      dup1\n      sload\n      dup1\n      0x20\n      mul\n      0x20\n      add\n      mload(0x40)\n      swap1\n      dup2\n      add\n      0x40\n      mstore\n      dup1\n      swap3\n      swap2\n      swap1\n      dup2\n      dup2\n      mstore\n      0x20\n      add\n      0x00\n      swap1\n    tag_326:\n      dup3\n      dup3\n      lt\n      iszero\n      tag_327\n      jumpi\n      dup4\n      dup3\n      swap1\n      0x00\n      mstore\n      keccak256(0x00, 0x20)\n      swap1\n      0x05\n      mul\n      add\n      mload(0x40)\n      dup1\n      0xa0\n      add\n      0x40\n      mstore\n      swap1\n      dup2\n      0x00\n      dup3\n      add\n      dup1\n      sload\n      tag_329\n      swap1\n      tag_75\n      jump\t// in\n    tag_329:\n      dup1\n      0x1f\n      add\n      0x20\n      dup1\n      swap2\n      div\n      mul\n      0x20\n      add\n      mload(0x40)\n      swap1\n      dup2\n      add\n      0x40\n      mstore\n      dup1\n      swap3\n      swap2\n      swap1\n      dup2\n      dup2\n      mstore\n      0x20\n      add\n      dup3\n      dup1\n      sload\n      tag_330\n      swap1\n      tag_75\n      jump\t// in\n    tag_330:\n      dup1\n      iszero\n      tag_331\n      jumpi\n      dup1\n      0x1f\n      lt\n      tag_332\n      jumpi\n      0x0100\n      dup1\n      dup4\n      sload\n      div\n      mul\n      dup4\n      mstore\n      swap2\n      0x20\n      add\n      swap2\n      jump(tag_331)\n    tag_332:\n      dup3\n      add\n      swap2\n      swap1\n      0x00\n      mstore\n      keccak256(0x00, 0x20)\n      swap1\n    tag_333:\n      dup2\n      sload\n      dup2\n      mstore\n      swap1\n      0x01\n      add\n      swap1\n      0x20\n      add\n      dup1\n      dup4\n      gt\n      tag_333\n      jumpi\n      dup3\n      swap1\n      sub\n      0x1f\n      and\n      dup3\n      add\n      swap2\n    tag_331:\n      pop\n      pop\n      pop\n      pop\n      pop\n      dup2\n      mstore\n      0x20\n      add\n      0x01\n      dup3\n      add\n      sload\n      dup2\n      mstore\n      0x20\n      add\n      0x02\n      dup3\n      add\n      sload\n      dup2\n      mstore\n      0x20\n      add\n      0x03\n      dup3\n      add\n      dup1\n      sload\n      tag_334\n      swap1\n      tag_75\n      jump\t// in\n    tag_334:\n      dup1\n      0x1f\n      add\n      0x20\n      dup1\n      swap2\n      div\n      mul\n      0x20\n      add\n      mload(0x40)\n      swap1\n      dup2\n      add\n      0x40\n      mstore\n      dup1\n      swap3\n      swap2\n      swap1\n      dup2\n      dup2\n      mstore\n      0x20\n      add\n      dup3\n      dup1\n      sload\n      tag_335\n      swap1\n      tag_75\n      jump\t// in\n    tag_335:\n      dup1\n      iszero\n      tag_336\n      jumpi\n      dup1\n      0x1f\n      lt\n      tag_337\n      jumpi\n      0x0100\n      dup1\n      dup4\n      sload\n      div\n      mul\n      dup4\n      mstore\n      swap2\n      0x20\n      add\n      swap2\n      jump(tag_336)\n    tag_337:\n      dup3\n      add\n      swap2\n      swap1\n      0x00\n      mstore\n      keccak256(0x00, 0x20)\n      swap1\n    tag_338:\n      dup2\n      sload\n      dup2\n      mstore\n      swap1\n      0x01\n      add\n      swap1\n      0x20\n      add\n      dup1\n      dup4\n      gt\n      tag_338\n      jumpi\n      dup3\n      swap1\n      sub\n      0x1f\n      and\n      dup3\n      add\n      swap2\n    tag_336:\n      pop\n      pop\n      pop\n      pop\n      pop\n      dup2\n      mstore\n      0x20\n      add\n      0x04\n      dup3\n      add\n      dup1\n      sload\n      dup1\n      0x20\n      mul\n      0x20\n      add\n      mload(0x40)\n      swap1\n      dup2\n      add\n      0x40\n      mstore\n      dup1\n      swap3\n      swap2\n      swap1\n      dup2\n      dup2\n      mstore\n      0x20\n      add\n      0x00\n      swap1\n    tag_339:\n      dup3\n      dup3\n      lt\n      iszero\n      tag_340\n      jumpi\n      dup4\n      dup3\n      swap1\n      0x00\n      mstore\n      keccak256(0x00, 0x20)\n      add\n      dup1\n      sload\n      tag_342\n      swap1\n      tag_75\n      jump\t// in\n    tag_342:\n      dup1\n      0x1f\n      add\n      0x20\n      dup1\n      swap2\n      div\n      mul\n      0x20\n      add\n      mload(0x40)\n      swap1\n      dup2\n      add\n      0x40\n      mstore\n      dup1\n      swap3\n      swap2\n      swap1\n      dup2\n      dup2\n      mstore\n      0x20\n      add\n      dup3\n      dup1\n      sload\n      tag_343\n      swap1\n      tag_75\n      jump\t// in\n    tag_343:\n      dup1\n      iszero\n      tag_344\n      jumpi\n      dup1\n      0x1f\n      lt\n      tag_345\n      jumpi\n      0x0100\n      dup1\n      dup4\n      sload\n      div\n      mul\n      dup4\n      mstore\n      swap2\n      0x20\n      add\n      swap2\n      jump(tag_344)\n    tag_345:\n      dup3\n      add\n      swap2\n      swap1\n      0x00\n      mstore\n      keccak256(0x00, 0x20)\n      swap1\n    tag_346:\n      dup2\n      sload\n      dup2\n      mstore\n      swap1\n      0x01\n      add\n      swap1\n      0x20\n      add\n      dup1\n      dup4\n      gt\n      tag_346\n      jumpi\n      dup3\n      swap1\n      sub\n      0x1f\n      and\n      dup3\n      add\n      swap2\n    tag_344:\n      pop\n      pop\n      pop\n      pop\n      pop\n      dup2\n      mstore\n      0x20\n      add\n      swap1\n      0x01\n      add\n      swap1\n      jump(tag_339)\n    tag_340:\n      pop\n      pop\n      pop\n      pop\n      dup2\n      mstore\n      pop\n      pop\n      dup2\n      mstore\n      0x20\n      add\n      swap1\n      0x01\n      add\n      swap1\n      jump(tag_326)\n    tag_327:\n      pop\n      pop\n      pop\n      pop\n      swap1\n      pop\n        /* \"contracts/99_test.sol\":6607:6705  function getAllStudents() public view returns(Student[] memory) {... */\n      swap1\n      jump\t// out\n        /* \"contracts/99_test.sol\":5464:5828  function setCredit(uint _score) public pure returns(string memory) {... */\n    tag_62:\n        /* \"contracts/99_test.sol\":5516:5529  string memory */\n      0x60\n        /* \"contracts/99_test.sol\":5555:5557  90 */\n      0x5a\n        /* \"contracts/99_test.sol\":5545:5551  _score */\n      dup3\n        /* \"contracts/99_test.sol\":5545:5557  _score >= 90 */\n      lt\n        /* \"contracts/99_test.sol\":5542:5821  if(_score >= 90) {... */\n      tag_348\n      jumpi\n        /* \"contracts/99_test.sol\":5573:5583  return \"A\" */\n      mload(0x40)\n      dup1\n      0x40\n      add\n      0x40\n      mstore\n      dup1\n      0x01\n      dup2\n      mstore\n      0x20\n      add\n      0x4100000000000000000000000000000000000000000000000000000000000000\n      dup2\n      mstore\n      pop\n      swap1\n      pop\n      jump(tag_347)\n        /* \"contracts/99_test.sol\":5542:5821  if(_score >= 90) {... */\n    tag_348:\n        /* \"contracts/99_test.sol\":5615:5617  80 */\n      0x50\n        /* \"contracts/99_test.sol\":5605:5611  _score */\n      dup3\n        /* \"contracts/99_test.sol\":5605:5617  _score >= 80 */\n      lt\n        /* \"contracts/99_test.sol\":5601:5821  if (_score >= 80) {... */\n      tag_350\n      jumpi\n        /* \"contracts/99_test.sol\":5634:5644  return \"B\" */\n      mload(0x40)\n      dup1\n      0x40\n      add\n      0x40\n      mstore\n      dup1\n      0x01\n      dup2\n      mstore\n      0x20\n      add\n      0x4200000000000000000000000000000000000000000000000000000000000000\n      dup2\n      mstore\n      pop\n      swap1\n      pop\n      jump(tag_347)\n        /* \"contracts/99_test.sol\":5601:5821  if (_score >= 80) {... */\n    tag_350:\n        /* \"contracts/99_test.sol\":5676:5678  70 */\n      0x46\n        /* \"contracts/99_test.sol\":5666:5672  _score */\n      dup3\n        /* \"contracts/99_test.sol\":5666:5678  _score >= 70 */\n      lt\n        /* \"contracts/99_test.sol\":5662:5821  if (_score >= 70) {... */\n      tag_352\n      jumpi\n        /* \"contracts/99_test.sol\":5695:5705  return \"C\" */\n      mload(0x40)\n      dup1\n      0x40\n      add\n      0x40\n      mstore\n      dup1\n      0x01\n      dup2\n      mstore\n      0x20\n      add\n      0x4300000000000000000000000000000000000000000000000000000000000000\n      dup2\n      mstore\n      pop\n      swap1\n      pop\n      jump(tag_347)\n        /* \"contracts/99_test.sol\":5662:5821  if (_score >= 70) {... */\n    tag_352:\n        /* \"contracts/99_test.sol\":5737:5739  60 */\n      0x3c\n        /* \"contracts/99_test.sol\":5727:5733  _score */\n      dup3\n        /* \"contracts/99_test.sol\":5727:5739  _score >= 60 */\n      lt\n        /* \"contracts/99_test.sol\":5723:5821  if (_score >= 60) {... */\n      tag_354\n      jumpi\n        /* \"contracts/99_test.sol\":5756:5766  return \"D\" */\n      mload(0x40)\n      dup1\n      0x40\n      add\n      0x40\n      mstore\n      dup1\n      0x01\n      dup2\n      mstore\n      0x20\n      add\n      0x4400000000000000000000000000000000000000000000000000000000000000\n      dup2\n      mstore\n      pop\n      swap1\n      pop\n      jump(tag_347)\n        /* \"contracts/99_test.sol\":5723:5821  if (_score >= 60) {... */\n    tag_354:\n        /* \"contracts/99_test.sol\":5799:5809  return \"F\" */\n      mload(0x40)\n      dup1\n      0x40\n      add\n      0x40\n      mstore\n      dup1\n      0x01\n      dup2\n      mstore\n      0x20\n      add\n      0x4600000000000000000000000000000000000000000000000000000000000000\n      dup2\n      mstore\n      pop\n      swap1\n      pop\n        /* \"contracts/99_test.sol\":5464:5828  function setCredit(uint _score) public pure returns(string memory) {... */\n    tag_347:\n      swap2\n      swap1\n      pop\n      jump\t// out\n    tag_66:\n      mload(0x40)\n      dup1\n      0xa0\n      add\n      0x40\n      mstore\n      dup1\n      0x60\n      dup2\n      mstore\n      0x20\n      add\n      0x00\n      dup2\n      mstore\n      0x20\n      add\n      0x00\n      dup2\n      mstore\n      0x20\n      add\n      0x60\n      dup2\n      mstore\n      0x20\n      add\n      0x60\n      dup2\n      mstore\n      pop\n      swap1\n      jump\t// out\n    tag_230:\n      dup3\n      dup1\n      sload\n      dup3\n      dup3\n      sstore\n      swap1\n      0x00\n      mstore\n      keccak256(0x00, 0x20)\n      swap1\n      dup2\n      add\n      swap3\n      dup3\n      iszero\n      tag_356\n      jumpi\n      swap2\n      0x20\n      mul\n      dup3\n      add\n    tag_357:\n      dup3\n      dup2\n      gt\n      iszero\n      tag_358\n      jumpi\n      dup3\n      mload\n      dup3\n      swap1\n      dup2\n      tag_359\n      swap2\n      swap1\n      tag_227\n      jump\t// in\n    tag_359:\n      pop\n      swap2\n      0x20\n      add\n      swap2\n      swap1\n      0x01\n      add\n      swap1\n      jump(tag_357)\n    tag_358:\n    tag_356:\n      pop\n      swap1\n      pop\n      tag_360\n      swap2\n      swap1\n      tag_361\n      jump\t// in\n    tag_360:\n      pop\n      swap1\n      jump\t// out\n    tag_361:\n    tag_362:\n      dup1\n      dup3\n      gt\n      iszero\n      tag_363\n      jumpi\n      0x00\n      dup2\n      dup2\n      tag_364\n      swap2\n      swap1\n      tag_365\n      jump\t// in\n    tag_364:\n      pop\n      0x01\n      add\n      jump(tag_362)\n    tag_363:\n      pop\n      swap1\n      jump\t// out\n    tag_365:\n      pop\n      dup1\n      sload\n      tag_366\n      swap1\n      tag_75\n      jump\t// in\n    tag_366:\n      0x00\n      dup3\n      sstore\n      dup1\n      0x1f\n      lt\n      tag_368\n      jumpi\n      pop\n      jump(tag_367)\n    tag_368:\n      0x1f\n      add\n      0x20\n      swap1\n      div\n      swap1\n      0x00\n      mstore\n      keccak256(0x00, 0x20)\n      swap1\n      dup2\n      add\n      swap1\n      tag_369\n      swap2\n      swap1\n      tag_370\n      jump\t// in\n    tag_369:\n    tag_367:\n      pop\n      jump\t// out\n    tag_370:\n    tag_371:\n      dup1\n      dup3\n      gt\n      iszero\n      tag_372\n      jumpi\n      0x00\n      dup2\n      0x00\n      swap1\n      sstore\n      pop\n      0x01\n      add\n      jump(tag_371)\n    tag_372:\n      pop\n      swap1\n      jump\t// out\n        /* \"#utility.yul\":7:82   */\n    tag_373:\n        /* \"#utility.yul\":40:46   */\n      0x00\n        /* \"#utility.yul\":73:75   */\n      0x40\n        /* \"#utility.yul\":67:76   */\n      mload\n        /* \"#utility.yul\":57:76   */\n      swap1\n      pop\n        /* \"#utility.yul\":7:82   */\n      swap1\n      jump\t// out\n        /* \"#utility.yul\":88:205   */\n    tag_374:\n        /* \"#utility.yul\":197:198   */\n      0x00\n        /* \"#utility.yul\":194:195   */\n      dup1\n        /* \"#utility.yul\":187:199   */\n      revert\n        /* \"#utility.yul\":211:328   */\n    tag_375:\n        /* \"#utility.yul\":320:321   */\n      0x00\n        /* \"#utility.yul\":317:318   */\n      dup1\n        /* \"#utility.yul\":310:322   */\n      revert\n        /* \"#utility.yul\":334:411   */\n    tag_376:\n        /* \"#utility.yul\":371:378   */\n      0x00\n        /* \"#utility.yul\":400:405   */\n      dup2\n        /* \"#utility.yul\":389:405   */\n      swap1\n      pop\n        /* \"#utility.yul\":334:411   */\n      swap2\n      swap1\n      pop\n      jump\t// out\n        /* \"#utility.yul\":417:539   */\n    tag_377:\n        /* \"#utility.yul\":490:514   */\n      tag_445\n        /* \"#utility.yul\":508:513   */\n      dup2\n        /* \"#utility.yul\":490:514   */\n      tag_376\n      jump\t// in\n    tag_445:\n        /* \"#utility.yul\":483:488   */\n      dup2\n        /* \"#utility.yul\":480:515   */\n      eq\n        /* \"#utility.yul\":470:533   */\n      tag_446\n      jumpi\n        /* \"#utility.yul\":529:530   */\n      0x00\n        /* \"#utility.yul\":526:527   */\n      dup1\n        /* \"#utility.yul\":519:531   */\n      revert\n        /* \"#utility.yul\":470:533   */\n    tag_446:\n        /* \"#utility.yul\":417:539   */\n      pop\n      jump\t// out\n        /* \"#utility.yul\":545:684   */\n    tag_378:\n        /* \"#utility.yul\":591:596   */\n      0x00\n        /* \"#utility.yul\":629:635   */\n      dup2\n        /* \"#utility.yul\":616:636   */\n      calldataload\n        /* \"#utility.yul\":607:636   */\n      swap1\n      pop\n        /* \"#utility.yul\":645:678   */\n      tag_448\n        /* \"#utility.yul\":672:677   */\n      dup2\n        /* \"#utility.yul\":645:678   */\n      tag_377\n      jump\t// in\n    tag_448:\n        /* \"#utility.yul\":545:684   */\n      swap3\n      swap2\n      pop\n      pop\n      jump\t// out\n        /* \"#utility.yul\":690:1019   */\n    tag_18:\n        /* \"#utility.yul\":749:755   */\n      0x00\n        /* \"#utility.yul\":798:800   */\n      0x20\n        /* \"#utility.yul\":786:795   */\n      dup3\n        /* \"#utility.yul\":777:784   */\n      dup5\n        /* \"#utility.yul\":773:796   */\n      sub\n        /* \"#utility.yul\":769:801   */\n      slt\n        /* \"#utility.yul\":766:885   */\n      iszero\n      tag_450\n      jumpi\n        /* \"#utility.yul\":804:883   */\n      tag_451\n      tag_374\n      jump\t// in\n    tag_451:\n        /* \"#utility.yul\":766:885   */\n    tag_450:\n        /* \"#utility.yul\":924:925   */\n      0x00\n        /* \"#utility.yul\":949:1002   */\n      tag_452\n        /* \"#utility.yul\":994:1001   */\n      dup5\n        /* \"#utility.yul\":985:991   */\n      dup3\n        /* \"#utility.yul\":974:983   */\n      dup6\n        /* \"#utility.yul\":970:992   */\n      add\n        /* \"#utility.yul\":949:1002   */\n      tag_378\n      jump\t// in\n    tag_452:\n        /* \"#utility.yul\":939:1002   */\n      swap2\n      pop\n        /* \"#utility.yul\":895:1012   */\n      pop\n        /* \"#utility.yul\":690:1019   */\n      swap3\n      swap2\n      pop\n      pop\n      jump\t// out\n        /* \"#utility.yul\":1025:1124   */\n    tag_379:\n        /* \"#utility.yul\":1077:1083   */\n      0x00\n        /* \"#utility.yul\":1111:1116   */\n      dup2\n        /* \"#utility.yul\":1105:1117   */\n      mload\n        /* \"#utility.yul\":1095:1117   */\n      swap1\n      pop\n        /* \"#utility.yul\":1025:1124   */\n      swap2\n      swap1\n      pop\n      jump\t// out\n        /* \"#utility.yul\":1130:1289   */\n    tag_380:\n        /* \"#utility.yul\":1204:1215   */\n      0x00\n        /* \"#utility.yul\":1238:1244   */\n      dup3\n        /* \"#utility.yul\":1233:1236   */\n      dup3\n        /* \"#utility.yul\":1226:1245   */\n      mstore\n        /* \"#utility.yul\":1278:1282   */\n      0x20\n        /* \"#utility.yul\":1273:1276   */\n      dup3\n        /* \"#utility.yul\":1269:1283   */\n      add\n        /* \"#utility.yul\":1254:1283   */\n      swap1\n      pop\n        /* \"#utility.yul\":1130:1289   */\n      swap3\n      swap2\n      pop\n      pop\n      jump\t// out\n        /* \"#utility.yul\":1295:1541   */\n    tag_381:\n        /* \"#utility.yul\":1376:1377   */\n      0x00\n        /* \"#utility.yul\":1386:1499   */\n    tag_456:\n        /* \"#utility.yul\":1400:1406   */\n      dup4\n        /* \"#utility.yul\":1397:1398   */\n      dup2\n        /* \"#utility.yul\":1394:1407   */\n      lt\n        /* \"#utility.yul\":1386:1499   */\n      iszero\n      tag_458\n      jumpi\n        /* \"#utility.yul\":1485:1486   */\n      dup1\n        /* \"#utility.yul\":1480:1483   */\n      dup3\n        /* \"#utility.yul\":1476:1487   */\n      add\n        /* \"#utility.yul\":1470:1488   */\n      mload\n        /* \"#utility.yul\":1466:1467   */\n      dup2\n        /* \"#utility.yul\":1461:1464   */\n      dup5\n        /* \"#utility.yul\":1457:1468   */\n      add\n        /* \"#utility.yul\":1450:1489   */\n      mstore\n        /* \"#utility.yul\":1422:1424   */\n      0x20\n        /* \"#utility.yul\":1419:1420   */\n      dup2\n        /* \"#utility.yul\":1415:1425   */\n      add\n        /* \"#utility.yul\":1410:1425   */\n      swap1\n      pop\n        /* \"#utility.yul\":1386:1499   */\n      jump(tag_456)\n    tag_458:\n        /* \"#utility.yul\":1533:1534   */\n      0x00\n        /* \"#utility.yul\":1524:1530   */\n      dup5\n        /* \"#utility.yul\":1519:1522   */\n      dup5\n        /* \"#utility.yul\":1515:1531   */\n      add\n        /* \"#utility.yul\":1508:1535   */\n      mstore\n        /* \"#utility.yul\":1357:1541   */\n      pop\n        /* \"#utility.yul\":1295:1541   */\n      pop\n      pop\n      pop\n      jump\t// out\n        /* \"#utility.yul\":1547:1649   */\n    tag_382:\n        /* \"#utility.yul\":1588:1594   */\n      0x00\n        /* \"#utility.yul\":1639:1641   */\n      0x1f\n        /* \"#utility.yul\":1635:1642   */\n      not\n        /* \"#utility.yul\":1630:1632   */\n      0x1f\n        /* \"#utility.yul\":1623:1628   */\n      dup4\n        /* \"#utility.yul\":1619:1633   */\n      add\n        /* \"#utility.yul\":1615:1643   */\n      and\n        /* \"#utility.yul\":1605:1643   */\n      swap1\n      pop\n        /* \"#utility.yul\":1547:1649   */\n      swap2\n      swap1\n      pop\n      jump\t// out\n        /* \"#utility.yul\":1655:2012   */\n    tag_383:\n        /* \"#utility.yul\":1733:1736   */\n      0x00\n        /* \"#utility.yul\":1761:1800   */\n      tag_461\n        /* \"#utility.yul\":1794:1799   */\n      dup3\n        /* \"#utility.yul\":1761:1800   */\n      tag_379\n      jump\t// in\n    tag_461:\n        /* \"#utility.yul\":1816:1877   */\n      tag_462\n        /* \"#utility.yul\":1870:1876   */\n      dup2\n        /* \"#utility.yul\":1865:1868   */\n      dup6\n        /* \"#utility.yul\":1816:1877   */\n      tag_380\n      jump\t// in\n    tag_462:\n        /* \"#utility.yul\":1809:1877   */\n      swap4\n      pop\n        /* \"#utility.yul\":1886:1951   */\n      tag_463\n        /* \"#utility.yul\":1944:1950   */\n      dup2\n        /* \"#utility.yul\":1939:1942   */\n      dup6\n        /* \"#utility.yul\":1932:1936   */\n      0x20\n        /* \"#utility.yul\":1925:1930   */\n      dup7\n        /* \"#utility.yul\":1921:1937   */\n      add\n        /* \"#utility.yul\":1886:1951   */\n      tag_381\n      jump\t// in\n    tag_463:\n        /* \"#utility.yul\":1976:2005   */\n      tag_464\n        /* \"#utility.yul\":1998:2004   */\n      dup2\n        /* \"#utility.yul\":1976:2005   */\n      tag_382\n      jump\t// in\n    tag_464:\n        /* \"#utility.yul\":1971:1974   */\n      dup5\n        /* \"#utility.yul\":1967:2006   */\n      add\n        /* \"#utility.yul\":1960:2006   */\n      swap2\n      pop\n        /* \"#utility.yul\":1737:2012   */\n      pop\n        /* \"#utility.yul\":1655:2012   */\n      swap3\n      swap2\n      pop\n      pop\n      jump\t// out\n        /* \"#utility.yul\":2018:2126   */\n    tag_384:\n        /* \"#utility.yul\":2095:2119   */\n      tag_466\n        /* \"#utility.yul\":2113:2118   */\n      dup2\n        /* \"#utility.yul\":2095:2119   */\n      tag_376\n      jump\t// in\n    tag_466:\n        /* \"#utility.yul\":2090:2093   */\n      dup3\n        /* \"#utility.yul\":2083:2120   */\n      mstore\n        /* \"#utility.yul\":2018:2126   */\n      pop\n      pop\n      jump\t// out\n        /* \"#utility.yul\":2132:2256   */\n    tag_385:\n        /* \"#utility.yul\":2209:2215   */\n      0x00\n        /* \"#utility.yul\":2243:2248   */\n      dup2\n        /* \"#utility.yul\":2237:2249   */\n      mload\n        /* \"#utility.yul\":2227:2249   */\n      swap1\n      pop\n        /* \"#utility.yul\":2132:2256   */\n      swap2\n      swap1\n      pop\n      jump\t// out\n        /* \"#utility.yul\":2262:2446   */\n    tag_386:\n        /* \"#utility.yul\":2361:2372   */\n      0x00\n        /* \"#utility.yul\":2395:2401   */\n      dup3\n        /* \"#utility.yul\":2390:2393   */\n      dup3\n        /* \"#utility.yul\":2383:2402   */\n      mstore\n        /* \"#utility.yul\":2435:2439   */\n      0x20\n        /* \"#utility.yul\":2430:2433   */\n      dup3\n        /* \"#utility.yul\":2426:2440   */\n      add\n        /* \"#utility.yul\":2411:2440   */\n      swap1\n      pop\n        /* \"#utility.yul\":2262:2446   */\n      swap3\n      swap2\n      pop\n      pop\n      jump\t// out\n        /* \"#utility.yul\":2452:2594   */\n    tag_387:\n        /* \"#utility.yul\":2529:2533   */\n      0x00\n        /* \"#utility.yul\":2552:2555   */\n      dup2\n        /* \"#utility.yul\":2544:2555   */\n      swap1\n      pop\n        /* \"#utility.yul\":2582:2586   */\n      0x20\n        /* \"#utility.yul\":2577:2580   */\n      dup3\n        /* \"#utility.yul\":2573:2587   */\n      add\n        /* \"#utility.yul\":2565:2587   */\n      swap1\n      pop\n        /* \"#utility.yul\":2452:2594   */\n      swap2\n      swap1\n      pop\n      jump\t// out\n        /* \"#utility.yul\":2600:2796   */\n    tag_388:\n        /* \"#utility.yul\":2689:2699   */\n      0x00\n        /* \"#utility.yul\":2724:2790   */\n      tag_471\n        /* \"#utility.yul\":2786:2789   */\n      dup4\n        /* \"#utility.yul\":2778:2784   */\n      dup4\n        /* \"#utility.yul\":2724:2790   */\n      tag_383\n      jump\t// in\n    tag_471:\n        /* \"#utility.yul\":2710:2790   */\n      swap1\n      pop\n        /* \"#utility.yul\":2600:2796   */\n      swap3\n      swap2\n      pop\n      pop\n      jump\t// out\n        /* \"#utility.yul\":2802:2925   */\n    tag_389:\n        /* \"#utility.yul\":2882:2886   */\n      0x00\n        /* \"#utility.yul\":2914:2918   */\n      0x20\n        /* \"#utility.yul\":2909:2912   */\n      dup3\n        /* \"#utility.yul\":2905:2919   */\n      add\n        /* \"#utility.yul\":2897:2919   */\n      swap1\n      pop\n        /* \"#utility.yul\":2802:2925   */\n      swap2\n      swap1\n      pop\n      jump\t// out\n        /* \"#utility.yul\":2959:3930   */\n    tag_390:\n        /* \"#utility.yul\":3088:3091   */\n      0x00\n        /* \"#utility.yul\":3117:3181   */\n      tag_474\n        /* \"#utility.yul\":3175:3180   */\n      dup3\n        /* \"#utility.yul\":3117:3181   */\n      tag_385\n      jump\t// in\n    tag_474:\n        /* \"#utility.yul\":3197:3283   */\n      tag_475\n        /* \"#utility.yul\":3276:3282   */\n      dup2\n        /* \"#utility.yul\":3271:3274   */\n      dup6\n        /* \"#utility.yul\":3197:3283   */\n      tag_386\n      jump\t// in\n    tag_475:\n        /* \"#utility.yul\":3190:3283   */\n      swap4\n      pop\n        /* \"#utility.yul\":3309:3312   */\n      dup4\n        /* \"#utility.yul\":3354:3358   */\n      0x20\n        /* \"#utility.yul\":3346:3352   */\n      dup3\n        /* \"#utility.yul\":3342:3359   */\n      mul\n        /* \"#utility.yul\":3337:3340   */\n      dup6\n        /* \"#utility.yul\":3333:3360   */\n      add\n        /* \"#utility.yul\":3384:3450   */\n      tag_476\n        /* \"#utility.yul\":3444:3449   */\n      dup6\n        /* \"#utility.yul\":3384:3450   */\n      tag_387\n      jump\t// in\n    tag_476:\n        /* \"#utility.yul\":3473:3480   */\n      dup1\n        /* \"#utility.yul\":3504:3505   */\n      0x00\n        /* \"#utility.yul\":3489:3885   */\n    tag_477:\n        /* \"#utility.yul\":3514:3520   */\n      dup6\n        /* \"#utility.yul\":3511:3512   */\n      dup2\n        /* \"#utility.yul\":3508:3521   */\n      lt\n        /* \"#utility.yul\":3489:3885   */\n      iszero\n      tag_479\n      jumpi\n        /* \"#utility.yul\":3585:3594   */\n      dup5\n        /* \"#utility.yul\":3579:3583   */\n      dup5\n        /* \"#utility.yul\":3575:3595   */\n      sub\n        /* \"#utility.yul\":3570:3573   */\n      dup10\n        /* \"#utility.yul\":3563:3596   */\n      mstore\n        /* \"#utility.yul\":3636:3642   */\n      dup2\n        /* \"#utility.yul\":3630:3643   */\n      mload\n        /* \"#utility.yul\":3664:3748   */\n      tag_480\n        /* \"#utility.yul\":3743:3747   */\n      dup6\n        /* \"#utility.yul\":3728:3741   */\n      dup3\n        /* \"#utility.yul\":3664:3748   */\n      tag_388\n      jump\t// in\n    tag_480:\n        /* \"#utility.yul\":3656:3748   */\n      swap5\n      pop\n        /* \"#utility.yul\":3771:3841   */\n      tag_481\n        /* \"#utility.yul\":3834:3840   */\n      dup4\n        /* \"#utility.yul\":3771:3841   */\n      tag_389\n      jump\t// in\n    tag_481:\n        /* \"#utility.yul\":3761:3841   */\n      swap3\n      pop\n        /* \"#utility.yul\":3870:3874   */\n      0x20\n        /* \"#utility.yul\":3865:3868   */\n      dup11\n        /* \"#utility.yul\":3861:3875   */\n      add\n        /* \"#utility.yul\":3854:3875   */\n      swap10\n      pop\n        /* \"#utility.yul\":3549:3885   */\n      pop\n        /* \"#utility.yul\":3536:3537   */\n      0x01\n        /* \"#utility.yul\":3533:3534   */\n      dup2\n        /* \"#utility.yul\":3529:3538   */\n      add\n        /* \"#utility.yul\":3524:3538   */\n      swap1\n      pop\n        /* \"#utility.yul\":3489:3885   */\n      jump(tag_477)\n    tag_479:\n        /* \"#utility.yul\":3493:3507   */\n      pop\n        /* \"#utility.yul\":3901:3905   */\n      dup3\n        /* \"#utility.yul\":3894:3905   */\n      swap8\n      pop\n        /* \"#utility.yul\":3921:3924   */\n      dup8\n        /* \"#utility.yul\":3914:3924   */\n      swap6\n      pop\n        /* \"#utility.yul\":3093:3930   */\n      pop\n      pop\n      pop\n      pop\n      pop\n        /* \"#utility.yul\":2959:3930   */\n      swap3\n      swap2\n      pop\n      pop\n      jump\t// out\n        /* \"#utility.yul\":4010:5336   */\n    tag_391:\n        /* \"#utility.yul\":4127:4130   */\n      0x00\n        /* \"#utility.yul\":4163:4167   */\n      0xa0\n        /* \"#utility.yul\":4158:4161   */\n      dup4\n        /* \"#utility.yul\":4154:4168   */\n      add\n        /* \"#utility.yul\":4250:4254   */\n      0x00\n        /* \"#utility.yul\":4243:4248   */\n      dup4\n        /* \"#utility.yul\":4239:4255   */\n      add\n        /* \"#utility.yul\":4233:4256   */\n      mload\n        /* \"#utility.yul\":4303:4306   */\n      dup5\n        /* \"#utility.yul\":4297:4301   */\n      dup3\n        /* \"#utility.yul\":4293:4307   */\n      sub\n        /* \"#utility.yul\":4286:4290   */\n      0x00\n        /* \"#utility.yul\":4281:4284   */\n      dup7\n        /* \"#utility.yul\":4277:4291   */\n      add\n        /* \"#utility.yul\":4270:4308   */\n      mstore\n        /* \"#utility.yul\":4329:4402   */\n      tag_483\n        /* \"#utility.yul\":4397:4401   */\n      dup3\n        /* \"#utility.yul\":4383:4395   */\n      dup3\n        /* \"#utility.yul\":4329:4402   */\n      tag_383\n      jump\t// in\n    tag_483:\n        /* \"#utility.yul\":4321:4402   */\n      swap2\n      pop\n        /* \"#utility.yul\":4178:4413   */\n      pop\n        /* \"#utility.yul\":4497:4501   */\n      0x20\n        /* \"#utility.yul\":4490:4495   */\n      dup4\n        /* \"#utility.yul\":4486:4502   */\n      add\n        /* \"#utility.yul\":4480:4503   */\n      mload\n        /* \"#utility.yul\":4516:4579   */\n      tag_484\n        /* \"#utility.yul\":4573:4577   */\n      0x20\n        /* \"#utility.yul\":4568:4571   */\n      dup7\n        /* \"#utility.yul\":4564:4578   */\n      add\n        /* \"#utility.yul\":4550:4562   */\n      dup3\n        /* \"#utility.yul\":4516:4579   */\n      tag_384\n      jump\t// in\n    tag_484:\n        /* \"#utility.yul\":4423:4589   */\n      pop\n        /* \"#utility.yul\":4672:4676   */\n      0x40\n        /* \"#utility.yul\":4665:4670   */\n      dup4\n        /* \"#utility.yul\":4661:4677   */\n      add\n        /* \"#utility.yul\":4655:4678   */\n      mload\n        /* \"#utility.yul\":4691:4754   */\n      tag_485\n        /* \"#utility.yul\":4748:4752   */\n      0x40\n        /* \"#utility.yul\":4743:4746   */\n      dup7\n        /* \"#utility.yul\":4739:4753   */\n      add\n        /* \"#utility.yul\":4725:4737   */\n      dup3\n        /* \"#utility.yul\":4691:4754   */\n      tag_384\n      jump\t// in\n    tag_485:\n        /* \"#utility.yul\":4599:4764   */\n      pop\n        /* \"#utility.yul\":4848:4852   */\n      0x60\n        /* \"#utility.yul\":4841:4846   */\n      dup4\n        /* \"#utility.yul\":4837:4853   */\n      add\n        /* \"#utility.yul\":4831:4854   */\n      mload\n        /* \"#utility.yul\":4901:4904   */\n      dup5\n        /* \"#utility.yul\":4895:4899   */\n      dup3\n        /* \"#utility.yul\":4891:4905   */\n      sub\n        /* \"#utility.yul\":4884:4888   */\n      0x60\n        /* \"#utility.yul\":4879:4882   */\n      dup7\n        /* \"#utility.yul\":4875:4889   */\n      add\n        /* \"#utility.yul\":4868:4906   */\n      mstore\n        /* \"#utility.yul\":4927:5000   */\n      tag_486\n        /* \"#utility.yul\":4995:4999   */\n      dup3\n        /* \"#utility.yul\":4981:4993   */\n      dup3\n        /* \"#utility.yul\":4927:5000   */\n      tag_383\n      jump\t// in\n    tag_486:\n        /* \"#utility.yul\":4919:5000   */\n      swap2\n      pop\n        /* \"#utility.yul\":4774:5011   */\n      pop\n        /* \"#utility.yul\":5096:5100   */\n      0x80\n        /* \"#utility.yul\":5089:5094   */\n      dup4\n        /* \"#utility.yul\":5085:5101   */\n      add\n        /* \"#utility.yul\":5079:5102   */\n      mload\n        /* \"#utility.yul\":5149:5152   */\n      dup5\n        /* \"#utility.yul\":5143:5147   */\n      dup3\n        /* \"#utility.yul\":5139:5153   */\n      sub\n        /* \"#utility.yul\":5132:5136   */\n      0x80\n        /* \"#utility.yul\":5127:5130   */\n      dup7\n        /* \"#utility.yul\":5123:5137   */\n      add\n        /* \"#utility.yul\":5116:5154   */\n      mstore\n        /* \"#utility.yul\":5175:5298   */\n      tag_487\n        /* \"#utility.yul\":5293:5297   */\n      dup3\n        /* \"#utility.yul\":5279:5291   */\n      dup3\n        /* \"#utility.yul\":5175:5298   */\n      tag_390\n      jump\t// in\n    tag_487:\n        /* \"#utility.yul\":5167:5298   */\n      swap2\n      pop\n        /* \"#utility.yul\":5021:5309   */\n      pop\n        /* \"#utility.yul\":5326:5330   */\n      dup1\n        /* \"#utility.yul\":5319:5330   */\n      swap2\n      pop\n        /* \"#utility.yul\":4132:5336   */\n      pop\n        /* \"#utility.yul\":4010:5336   */\n      swap3\n      swap2\n      pop\n      pop\n      jump\t// out\n        /* \"#utility.yul\":5342:5711   */\n    tag_21:\n        /* \"#utility.yul\":5483:5487   */\n      0x00\n        /* \"#utility.yul\":5521:5523   */\n      0x20\n        /* \"#utility.yul\":5510:5519   */\n      dup3\n        /* \"#utility.yul\":5506:5524   */\n      add\n        /* \"#utility.yul\":5498:5524   */\n      swap1\n      pop\n        /* \"#utility.yul\":5570:5579   */\n      dup2\n        /* \"#utility.yul\":5564:5568   */\n      dup2\n        /* \"#utility.yul\":5560:5580   */\n      sub\n        /* \"#utility.yul\":5556:5557   */\n      0x00\n        /* \"#utility.yul\":5545:5554   */\n      dup4\n        /* \"#utility.yul\":5541:5558   */\n      add\n        /* \"#utility.yul\":5534:5581   */\n      mstore\n        /* \"#utility.yul\":5598:5704   */\n      tag_489\n        /* \"#utility.yul\":5699:5703   */\n      dup2\n        /* \"#utility.yul\":5690:5696   */\n      dup5\n        /* \"#utility.yul\":5598:5704   */\n      tag_391\n      jump\t// in\n    tag_489:\n        /* \"#utility.yul\":5590:5704   */\n      swap1\n      pop\n        /* \"#utility.yul\":5342:5711   */\n      swap3\n      swap2\n      pop\n      pop\n      jump\t// out\n        /* \"#utility.yul\":5717:5855   */\n    tag_392:\n        /* \"#utility.yul\":5808:5814   */\n      0x00\n        /* \"#utility.yul\":5842:5847   */\n      dup2\n        /* \"#utility.yul\":5836:5848   */\n      mload\n        /* \"#utility.yul\":5826:5848   */\n      swap1\n      pop\n        /* \"#utility.yul\":5717:5855   */\n      swap2\n      swap1\n      pop\n      jump\t// out\n        /* \"#utility.yul\":5861:6069   */\n    tag_393:\n        /* \"#utility.yul\":5984:5995   */\n      0x00\n        /* \"#utility.yul\":6018:6024   */\n      dup3\n        /* \"#utility.yul\":6013:6016   */\n      dup3\n        /* \"#utility.yul\":6006:6025   */\n      mstore\n        /* \"#utility.yul\":6058:6062   */\n      0x20\n        /* \"#utility.yul\":6053:6056   */\n      dup3\n        /* \"#utility.yul\":6049:6063   */\n      add\n        /* \"#utility.yul\":6034:6063   */\n      swap1\n      pop\n        /* \"#utility.yul\":5861:6069   */\n      swap3\n      swap2\n      pop\n      pop\n      jump\t// out\n        /* \"#utility.yul\":6075:6231   */\n    tag_394:\n        /* \"#utility.yul\":6166:6170   */\n      0x00\n        /* \"#utility.yul\":6189:6192   */\n      dup2\n        /* \"#utility.yul\":6181:6192   */\n      swap1\n      pop\n        /* \"#utility.yul\":6219:6223   */\n      0x20\n        /* \"#utility.yul\":6214:6217   */\n      dup3\n        /* \"#utility.yul\":6210:6224   */\n      add\n        /* \"#utility.yul\":6202:6224   */\n      swap1\n      pop\n        /* \"#utility.yul\":6075:6231   */\n      swap2\n      swap1\n      pop\n      jump\t// out\n        /* \"#utility.yul\":6311:7627   */\n    tag_395:\n        /* \"#utility.yul\":6418:6421   */\n      0x00\n        /* \"#utility.yul\":6454:6458   */\n      0xa0\n        /* \"#utility.yul\":6449:6452   */\n      dup4\n        /* \"#utility.yul\":6445:6459   */\n      add\n        /* \"#utility.yul\":6541:6545   */\n      0x00\n        /* \"#utility.yul\":6534:6539   */\n      dup4\n        /* \"#utility.yul\":6530:6546   */\n      add\n        /* \"#utility.yul\":6524:6547   */\n      mload\n        /* \"#utility.yul\":6594:6597   */\n      dup5\n        /* \"#utility.yul\":6588:6592   */\n      dup3\n        /* \"#utility.yul\":6584:6598   */\n      sub\n        /* \"#utility.yul\":6577:6581   */\n      0x00\n        /* \"#utility.yul\":6572:6575   */\n      dup7\n        /* \"#utility.yul\":6568:6582   */\n      add\n        /* \"#utility.yul\":6561:6599   */\n      mstore\n        /* \"#utility.yul\":6620:6693   */\n      tag_494\n        /* \"#utility.yul\":6688:6692   */\n      dup3\n        /* \"#utility.yul\":6674:6686   */\n      dup3\n        /* \"#utility.yul\":6620:6693   */\n      tag_383\n      jump\t// in\n    tag_494:\n        /* \"#utility.yul\":6612:6693   */\n      swap2\n      pop\n        /* \"#utility.yul\":6469:6704   */\n      pop\n        /* \"#utility.yul\":6788:6792   */\n      0x20\n        /* \"#utility.yul\":6781:6786   */\n      dup4\n        /* \"#utility.yul\":6777:6793   */\n      add\n        /* \"#utility.yul\":6771:6794   */\n      mload\n        /* \"#utility.yul\":6807:6870   */\n      tag_495\n        /* \"#utility.yul\":6864:6868   */\n      0x20\n        /* \"#utility.yul\":6859:6862   */\n      dup7\n        /* \"#utility.yul\":6855:6869   */\n      add\n        /* \"#utility.yul\":6841:6853   */\n      dup3\n        /* \"#utility.yul\":6807:6870   */\n      tag_384\n      jump\t// in\n    tag_495:\n        /* \"#utility.yul\":6714:6880   */\n      pop\n        /* \"#utility.yul\":6963:6967   */\n      0x40\n        /* \"#utility.yul\":6956:6961   */\n      dup4\n        /* \"#utility.yul\":6952:6968   */\n      add\n        /* \"#utility.yul\":6946:6969   */\n      mload\n        /* \"#utility.yul\":6982:7045   */\n      tag_496\n        /* \"#utility.yul\":7039:7043   */\n      0x40\n        /* \"#utility.yul\":7034:7037   */\n      dup7\n        /* \"#utility.yul\":7030:7044   */\n      add\n        /* \"#utility.yul\":7016:7028   */\n      dup3\n        /* \"#utility.yul\":6982:7045   */\n      tag_384\n      jump\t// in\n    tag_496:\n        /* \"#utility.yul\":6890:7055   */\n      pop\n        /* \"#utility.yul\":7139:7143   */\n      0x60\n        /* \"#utility.yul\":7132:7137   */\n      dup4\n        /* \"#utility.yul\":7128:7144   */\n      add\n        /* \"#utility.yul\":7122:7145   */\n      mload\n        /* \"#utility.yul\":7192:7195   */\n      dup5\n        /* \"#utility.yul\":7186:7190   */\n      dup3\n        /* \"#utility.yul\":7182:7196   */\n      sub\n        /* \"#utility.yul\":7175:7179   */\n      0x60\n        /* \"#utility.yul\":7170:7173   */\n      dup7\n        /* \"#utility.yul\":7166:7180   */\n      add\n        /* \"#utility.yul\":7159:7197   */\n      mstore\n        /* \"#utility.yul\":7218:7291   */\n      tag_497\n        /* \"#utility.yul\":7286:7290   */\n      dup3\n        /* \"#utility.yul\":7272:7284   */\n      dup3\n        /* \"#utility.yul\":7218:7291   */\n      tag_383\n      jump\t// in\n    tag_497:\n        /* \"#utility.yul\":7210:7291   */\n      swap2\n      pop\n        /* \"#utility.yul\":7065:7302   */\n      pop\n        /* \"#utility.yul\":7387:7391   */\n      0x80\n        /* \"#utility.yul\":7380:7385   */\n      dup4\n        /* \"#utility.yul\":7376:7392   */\n      add\n        /* \"#utility.yul\":7370:7393   */\n      mload\n        /* \"#utility.yul\":7440:7443   */\n      dup5\n        /* \"#utility.yul\":7434:7438   */\n      dup3\n        /* \"#utility.yul\":7430:7444   */\n      sub\n        /* \"#utility.yul\":7423:7427   */\n      0x80\n        /* \"#utility.yul\":7418:7421   */\n      dup7\n        /* \"#utility.yul\":7414:7428   */\n      add\n        /* \"#utility.yul\":7407:7445   */\n      mstore\n        /* \"#utility.yul\":7466:7589   */\n      tag_498\n        /* \"#utility.yul\":7584:7588   */\n      dup3\n        /* \"#utility.yul\":7570:7582   */\n      dup3\n        /* \"#utility.yul\":7466:7589   */\n      tag_390\n      jump\t// in\n    tag_498:\n        /* \"#utility.yul\":7458:7589   */\n      swap2\n      pop\n        /* \"#utility.yul\":7312:7600   */\n      pop\n        /* \"#utility.yul\":7617:7621   */\n      dup1\n        /* \"#utility.yul\":7610:7621   */\n      swap2\n      pop\n        /* \"#utility.yul\":6423:7627   */\n      pop\n        /* \"#utility.yul\":6311:7627   */\n      swap3\n      swap2\n      pop\n      pop\n      jump\t// out\n        /* \"#utility.yul\":7633:7885   */\n    tag_396:\n        /* \"#utility.yul\":7750:7760   */\n      0x00\n        /* \"#utility.yul\":7785:7879   */\n      tag_500\n        /* \"#utility.yul\":7875:7878   */\n      dup4\n        /* \"#utility.yul\":7867:7873   */\n      dup4\n        /* \"#utility.yul\":7785:7879   */\n      tag_395\n      jump\t// in\n    tag_500:\n        /* \"#utility.yul\":7771:7879   */\n      swap1\n      pop\n        /* \"#utility.yul\":7633:7885   */\n      swap3\n      swap2\n      pop\n      pop\n      jump\t// out\n        /* \"#utility.yul\":7891:8028   */\n    tag_397:\n        /* \"#utility.yul\":7985:7989   */\n      0x00\n        /* \"#utility.yul\":8017:8021   */\n      0x20\n        /* \"#utility.yul\":8012:8015   */\n      dup3\n        /* \"#utility.yul\":8008:8022   */\n      add\n        /* \"#utility.yul\":8000:8022   */\n      swap1\n      pop\n        /* \"#utility.yul\":7891:8028   */\n      swap2\n      swap1\n      pop\n      jump\t// out\n        /* \"#utility.yul\":8112:9215   */\n    tag_398:\n        /* \"#utility.yul\":8279:8282   */\n      0x00\n        /* \"#utility.yul\":8308:8386   */\n      tag_503\n        /* \"#utility.yul\":8380:8385   */\n      dup3\n        /* \"#utility.yul\":8308:8386   */\n      tag_392\n      jump\t// in\n    tag_503:\n        /* \"#utility.yul\":8402:8512   */\n      tag_504\n        /* \"#utility.yul\":8505:8511   */\n      dup2\n        /* \"#utility.yul\":8500:8503   */\n      dup6\n        /* \"#utility.yul\":8402:8512   */\n      tag_393\n      jump\t// in\n    tag_504:\n        /* \"#utility.yul\":8395:8512   */\n      swap4\n      pop\n        /* \"#utility.yul\":8538:8541   */\n      dup4\n        /* \"#utility.yul\":8583:8587   */\n      0x20\n        /* \"#utility.yul\":8575:8581   */\n      dup3\n        /* \"#utility.yul\":8571:8588   */\n      mul\n        /* \"#utility.yul\":8566:8569   */\n      dup6\n        /* \"#utility.yul\":8562:8589   */\n      add\n        /* \"#utility.yul\":8613:8693   */\n      tag_505\n        /* \"#utility.yul\":8687:8692   */\n      dup6\n        /* \"#utility.yul\":8613:8693   */\n      tag_394\n      jump\t// in\n    tag_505:\n        /* \"#utility.yul\":8716:8723   */\n      dup1\n        /* \"#utility.yul\":8747:8748   */\n      0x00\n        /* \"#utility.yul\":8732:9170   */\n    tag_506:\n        /* \"#utility.yul\":8757:8763   */\n      dup6\n        /* \"#utility.yul\":8754:8755   */\n      dup2\n        /* \"#utility.yul\":8751:8764   */\n      lt\n        /* \"#utility.yul\":8732:9170   */\n      iszero\n      tag_508\n      jumpi\n        /* \"#utility.yul\":8828:8837   */\n      dup5\n        /* \"#utility.yul\":8822:8826   */\n      dup5\n        /* \"#utility.yul\":8818:8838   */\n      sub\n        /* \"#utility.yul\":8813:8816   */\n      dup10\n        /* \"#utility.yul\":8806:8839   */\n      mstore\n        /* \"#utility.yul\":8879:8885   */\n      dup2\n        /* \"#utility.yul\":8873:8886   */\n      mload\n        /* \"#utility.yul\":8907:9019   */\n      tag_509\n        /* \"#utility.yul\":9014:9018   */\n      dup6\n        /* \"#utility.yul\":8999:9012   */\n      dup3\n        /* \"#utility.yul\":8907:9019   */\n      tag_396\n      jump\t// in\n    tag_509:\n        /* \"#utility.yul\":8899:9019   */\n      swap5\n      pop\n        /* \"#utility.yul\":9042:9126   */\n      tag_510\n        /* \"#utility.yul\":9119:9125   */\n      dup4\n        /* \"#utility.yul\":9042:9126   */\n      tag_397\n      jump\t// in\n    tag_510:\n        /* \"#utility.yul\":9032:9126   */\n      swap3\n      pop\n        /* \"#utility.yul\":9155:9159   */\n      0x20\n        /* \"#utility.yul\":9150:9153   */\n      dup11\n        /* \"#utility.yul\":9146:9160   */\n      add\n        /* \"#utility.yul\":9139:9160   */\n      swap10\n      pop\n        /* \"#utility.yul\":8792:9170   */\n      pop\n        /* \"#utility.yul\":8779:8780   */\n      0x01\n        /* \"#utility.yul\":8776:8777   */\n      dup2\n        /* \"#utility.yul\":8772:8781   */\n      add\n        /* \"#utility.yul\":8767:8781   */\n      swap1\n      pop\n        /* \"#utility.yul\":8732:9170   */\n      jump(tag_506)\n    tag_508:\n        /* \"#utility.yul\":8736:8750   */\n      pop\n        /* \"#utility.yul\":9186:9190   */\n      dup3\n        /* \"#utility.yul\":9179:9190   */\n      swap8\n      pop\n        /* \"#utility.yul\":9206:9209   */\n      dup8\n        /* \"#utility.yul\":9199:9209   */\n      swap6\n      pop\n        /* \"#utility.yul\":8284:9215   */\n      pop\n      pop\n      pop\n      pop\n      pop\n        /* \"#utility.yul\":8112:9215   */\n      swap3\n      swap2\n      pop\n      pop\n      jump\t// out\n        /* \"#utility.yul\":9221:9690   */\n    tag_25:\n        /* \"#utility.yul\":9412:9416   */\n      0x00\n        /* \"#utility.yul\":9450:9452   */\n      0x20\n        /* \"#utility.yul\":9439:9448   */\n      dup3\n        /* \"#utility.yul\":9435:9453   */\n      add\n        /* \"#utility.yul\":9427:9453   */\n      swap1\n      pop\n        /* \"#utility.yul\":9499:9508   */\n      dup2\n        /* \"#utility.yul\":9493:9497   */\n      dup2\n        /* \"#utility.yul\":9489:9509   */\n      sub\n        /* \"#utility.yul\":9485:9486   */\n      0x00\n        /* \"#utility.yul\":9474:9483   */\n      dup4\n        /* \"#utility.yul\":9470:9487   */\n      add\n        /* \"#utility.yul\":9463:9510   */\n      mstore\n        /* \"#utility.yul\":9527:9683   */\n      tag_512\n        /* \"#utility.yul\":9678:9682   */\n      dup2\n        /* \"#utility.yul\":9669:9675   */\n      dup5\n        /* \"#utility.yul\":9527:9683   */\n      tag_398\n      jump\t// in\n    tag_512:\n        /* \"#utility.yul\":9519:9683   */\n      swap1\n      pop\n        /* \"#utility.yul\":9221:9690   */\n      swap3\n      swap2\n      pop\n      pop\n      jump\t// out\n        /* \"#utility.yul\":9696:9814   */\n    tag_399:\n        /* \"#utility.yul\":9783:9807   */\n      tag_514\n        /* \"#utility.yul\":9801:9806   */\n      dup2\n        /* \"#utility.yul\":9783:9807   */\n      tag_376\n      jump\t// in\n    tag_514:\n        /* \"#utility.yul\":9778:9781   */\n      dup3\n        /* \"#utility.yul\":9771:9808   */\n      mstore\n        /* \"#utility.yul\":9696:9814   */\n      pop\n      pop\n      jump\t// out\n        /* \"#utility.yul\":9820:10509   */\n    tag_29:\n        /* \"#utility.yul\":10067:10071   */\n      0x00\n        /* \"#utility.yul\":10105:10107   */\n      0x60\n        /* \"#utility.yul\":10094:10103   */\n      dup3\n        /* \"#utility.yul\":10090:10108   */\n      add\n        /* \"#utility.yul\":10082:10108   */\n      swap1\n      pop\n        /* \"#utility.yul\":10118:10189   */\n      tag_516\n        /* \"#utility.yul\":10186:10187   */\n      0x00\n        /* \"#utility.yul\":10175:10184   */\n      dup4\n        /* \"#utility.yul\":10171:10188   */\n      add\n        /* \"#utility.yul\":10162:10168   */\n      dup7\n        /* \"#utility.yul\":10118:10189   */\n      tag_399\n      jump\t// in\n    tag_516:\n        /* \"#utility.yul\":10199:10271   */\n      tag_517\n        /* \"#utility.yul\":10267:10269   */\n      0x20\n        /* \"#utility.yul\":10256:10265   */\n      dup4\n        /* \"#utility.yul\":10252:10270   */\n      add\n        /* \"#utility.yul\":10243:10249   */\n      dup6\n        /* \"#utility.yul\":10199:10271   */\n      tag_399\n      jump\t// in\n    tag_517:\n        /* \"#utility.yul\":10318:10327   */\n      dup2\n        /* \"#utility.yul\":10312:10316   */\n      dup2\n        /* \"#utility.yul\":10308:10328   */\n      sub\n        /* \"#utility.yul\":10303:10305   */\n      0x40\n        /* \"#utility.yul\":10292:10301   */\n      dup4\n        /* \"#utility.yul\":10288:10306   */\n      add\n        /* \"#utility.yul\":10281:10329   */\n      mstore\n        /* \"#utility.yul\":10346:10502   */\n      tag_518\n        /* \"#utility.yul\":10497:10501   */\n      dup2\n        /* \"#utility.yul\":10488:10494   */\n      dup5\n        /* \"#utility.yul\":10346:10502   */\n      tag_398\n      jump\t// in\n    tag_518:\n        /* \"#utility.yul\":10338:10502   */\n      swap1\n      pop\n        /* \"#utility.yul\":9820:10509   */\n      swap5\n      swap4\n      pop\n      pop\n      pop\n      pop\n      jump\t// out\n        /* \"#utility.yul\":10515:10632   */\n    tag_400:\n        /* \"#utility.yul\":10624:10625   */\n      0x00\n        /* \"#utility.yul\":10621:10622   */\n      dup1\n        /* \"#utility.yul\":10614:10626   */\n      revert\n        /* \"#utility.yul\":10638:10755   */\n    tag_401:\n        /* \"#utility.yul\":10747:10748   */\n      0x00\n        /* \"#utility.yul\":10744:10745   */\n      dup1\n        /* \"#utility.yul\":10737:10749   */\n      revert\n        /* \"#utility.yul\":10761:10941   */\n    tag_117:\n        /* \"#utility.yul\":10809:10886   */\n      0x4e487b7100000000000000000000000000000000000000000000000000000000\n        /* \"#utility.yul\":10806:10807   */\n      0x00\n        /* \"#utility.yul\":10799:10887   */\n      mstore\n        /* \"#utility.yul\":10906:10910   */\n      0x41\n        /* \"#utility.yul\":10903:10904   */\n      0x04\n        /* \"#utility.yul\":10896:10911   */\n      mstore\n        /* \"#utility.yul\":10930:10934   */\n      0x24\n        /* \"#utility.yul\":10927:10928   */\n      0x00\n        /* \"#utility.yul\":10920:10935   */\n      revert\n        /* \"#utility.yul\":10947:11228   */\n    tag_402:\n        /* \"#utility.yul\":11030:11057   */\n      tag_523\n        /* \"#utility.yul\":11052:11056   */\n      dup3\n        /* \"#utility.yul\":11030:11057   */\n      tag_382\n      jump\t// in\n    tag_523:\n        /* \"#utility.yul\":11022:11028   */\n      dup2\n        /* \"#utility.yul\":11018:11058   */\n      add\n        /* \"#utility.yul\":11160:11166   */\n      dup2\n        /* \"#utility.yul\":11148:11158   */\n      dup2\n        /* \"#utility.yul\":11145:11167   */\n      lt\n        /* \"#utility.yul\":11124:11142   */\n      0xffffffffffffffff\n        /* \"#utility.yul\":11112:11122   */\n      dup3\n        /* \"#utility.yul\":11109:11143   */\n      gt\n        /* \"#utility.yul\":11106:11168   */\n      or\n        /* \"#utility.yul\":11103:11191   */\n      iszero\n      tag_524\n      jumpi\n        /* \"#utility.yul\":11171:11189   */\n      tag_525\n      tag_117\n      jump\t// in\n    tag_525:\n        /* \"#utility.yul\":11103:11191   */\n    tag_524:\n        /* \"#utility.yul\":11211:11221   */\n      dup1\n        /* \"#utility.yul\":11207:11209   */\n      0x40\n        /* \"#utility.yul\":11200:11222   */\n      mstore\n        /* \"#utility.yul\":10990:11228   */\n      pop\n        /* \"#utility.yul\":10947:11228   */\n      pop\n      pop\n      jump\t// out\n        /* \"#utility.yul\":11234:11363   */\n    tag_403:\n        /* \"#utility.yul\":11268:11274   */\n      0x00\n        /* \"#utility.yul\":11295:11315   */\n      tag_527\n      tag_373\n      jump\t// in\n    tag_527:\n        /* \"#utility.yul\":11285:11315   */\n      swap1\n      pop\n        /* \"#utility.yul\":11324:11357   */\n      tag_528\n        /* \"#utility.yul\":11352:11356   */\n      dup3\n        /* \"#utility.yul\":11344:11350   */\n      dup3\n        /* \"#utility.yul\":11324:11357   */\n      tag_402\n      jump\t// in\n    tag_528:\n        /* \"#utility.yul\":11234:11363   */\n      swap2\n      swap1\n      pop\n      jump\t// out\n        /* \"#utility.yul\":11369:11677   */\n    tag_404:\n        /* \"#utility.yul\":11431:11435   */\n      0x00\n        /* \"#utility.yul\":11521:11539   */\n      0xffffffffffffffff\n        /* \"#utility.yul\":11513:11519   */\n      dup3\n        /* \"#utility.yul\":11510:11540   */\n      gt\n        /* \"#utility.yul\":11507:11563   */\n      iszero\n      tag_530\n      jumpi\n        /* \"#utility.yul\":11543:11561   */\n      tag_531\n      tag_117\n      jump\t// in\n    tag_531:\n        /* \"#utility.yul\":11507:11563   */\n    tag_530:\n        /* \"#utility.yul\":11581:11610   */\n      tag_532\n        /* \"#utility.yul\":11603:11609   */\n      dup3\n        /* \"#utility.yul\":11581:11610   */\n      tag_382\n      jump\t// in\n    tag_532:\n        /* \"#utility.yul\":11573:11610   */\n      swap1\n      pop\n        /* \"#utility.yul\":11665:11669   */\n      0x20\n        /* \"#utility.yul\":11659:11663   */\n      dup2\n        /* \"#utility.yul\":11655:11670   */\n      add\n        /* \"#utility.yul\":11647:11670   */\n      swap1\n      pop\n        /* \"#utility.yul\":11369:11677   */\n      swap2\n      swap1\n      pop\n      jump\t// out\n        /* \"#utility.yul\":11683:11829   */\n    tag_405:\n        /* \"#utility.yul\":11780:11786   */\n      dup3\n        /* \"#utility.yul\":11775:11778   */\n      dup2\n        /* \"#utility.yul\":11770:11773   */\n      dup4\n        /* \"#utility.yul\":11757:11787   */\n      calldatacopy\n        /* \"#utility.yul\":11821:11822   */\n      0x00\n        /* \"#utility.yul\":11812:11818   */\n      dup4\n        /* \"#utility.yul\":11807:11810   */\n      dup4\n        /* \"#utility.yul\":11803:11819   */\n      add\n        /* \"#utility.yul\":11796:11823   */\n      mstore\n        /* \"#utility.yul\":11683:11829   */\n      pop\n      pop\n      pop\n      jump\t// out\n        /* \"#utility.yul\":11835:12260   */\n    tag_406:\n        /* \"#utility.yul\":11913:11918   */\n      0x00\n        /* \"#utility.yul\":11938:12004   */\n      tag_535\n        /* \"#utility.yul\":11954:12003   */\n      tag_536\n        /* \"#utility.yul\":11996:12002   */\n      dup5\n        /* \"#utility.yul\":11954:12003   */\n      tag_404\n      jump\t// in\n    tag_536:\n        /* \"#utility.yul\":11938:12004   */\n      tag_403\n      jump\t// in\n    tag_535:\n        /* \"#utility.yul\":11929:12004   */\n      swap1\n      pop\n        /* \"#utility.yul\":12027:12033   */\n      dup3\n        /* \"#utility.yul\":12020:12025   */\n      dup2\n        /* \"#utility.yul\":12013:12034   */\n      mstore\n        /* \"#utility.yul\":12065:12069   */\n      0x20\n        /* \"#utility.yul\":12058:12063   */\n      dup2\n        /* \"#utility.yul\":12054:12070   */\n      add\n        /* \"#utility.yul\":12103:12106   */\n      dup5\n        /* \"#utility.yul\":12094:12100   */\n      dup5\n        /* \"#utility.yul\":12089:12092   */\n      dup5\n        /* \"#utility.yul\":12085:12101   */\n      add\n        /* \"#utility.yul\":12082:12107   */\n      gt\n        /* \"#utility.yul\":12079:12191   */\n      iszero\n      tag_537\n      jumpi\n        /* \"#utility.yul\":12110:12189   */\n      tag_538\n      tag_401\n      jump\t// in\n    tag_538:\n        /* \"#utility.yul\":12079:12191   */\n    tag_537:\n        /* \"#utility.yul\":12200:12254   */\n      tag_539\n        /* \"#utility.yul\":12247:12253   */\n      dup5\n        /* \"#utility.yul\":12242:12245   */\n      dup3\n        /* \"#utility.yul\":12237:12240   */\n      dup6\n        /* \"#utility.yul\":12200:12254   */\n      tag_405\n      jump\t// in\n    tag_539:\n        /* \"#utility.yul\":11919:12260   */\n      pop\n        /* \"#utility.yul\":11835:12260   */\n      swap4\n      swap3\n      pop\n      pop\n      pop\n      jump\t// out\n        /* \"#utility.yul\":12280:12620   */\n    tag_407:\n        /* \"#utility.yul\":12336:12341   */\n      0x00\n        /* \"#utility.yul\":12385:12388   */\n      dup3\n        /* \"#utility.yul\":12378:12382   */\n      0x1f\n        /* \"#utility.yul\":12370:12376   */\n      dup4\n        /* \"#utility.yul\":12366:12383   */\n      add\n        /* \"#utility.yul\":12362:12389   */\n      slt\n        /* \"#utility.yul\":12352:12474   */\n      tag_541\n      jumpi\n        /* \"#utility.yul\":12393:12472   */\n      tag_542\n      tag_400\n      jump\t// in\n    tag_542:\n        /* \"#utility.yul\":12352:12474   */\n    tag_541:\n        /* \"#utility.yul\":12510:12516   */\n      dup2\n        /* \"#utility.yul\":12497:12517   */\n      calldataload\n        /* \"#utility.yul\":12535:12614   */\n      tag_543\n        /* \"#utility.yul\":12610:12613   */\n      dup5\n        /* \"#utility.yul\":12602:12608   */\n      dup3\n        /* \"#utility.yul\":12595:12599   */\n      0x20\n        /* \"#utility.yul\":12587:12593   */\n      dup7\n        /* \"#utility.yul\":12583:12600   */\n      add\n        /* \"#utility.yul\":12535:12614   */\n      tag_406\n      jump\t// in\n    tag_543:\n        /* \"#utility.yul\":12526:12614   */\n      swap2\n      pop\n        /* \"#utility.yul\":12342:12620   */\n      pop\n        /* \"#utility.yul\":12280:12620   */\n      swap3\n      swap2\n      pop\n      pop\n      jump\t// out\n        /* \"#utility.yul\":12626:12947   */\n    tag_408:\n        /* \"#utility.yul\":12713:12717   */\n      0x00\n        /* \"#utility.yul\":12803:12821   */\n      0xffffffffffffffff\n        /* \"#utility.yul\":12795:12801   */\n      dup3\n        /* \"#utility.yul\":12792:12822   */\n      gt\n        /* \"#utility.yul\":12789:12845   */\n      iszero\n      tag_545\n      jumpi\n        /* \"#utility.yul\":12825:12843   */\n      tag_546\n      tag_117\n      jump\t// in\n    tag_546:\n        /* \"#utility.yul\":12789:12845   */\n    tag_545:\n        /* \"#utility.yul\":12875:12879   */\n      0x20\n        /* \"#utility.yul\":12867:12873   */\n      dup3\n        /* \"#utility.yul\":12863:12880   */\n      mul\n        /* \"#utility.yul\":12855:12880   */\n      swap1\n      pop\n        /* \"#utility.yul\":12935:12939   */\n      0x20\n        /* \"#utility.yul\":12929:12933   */\n      dup2\n        /* \"#utility.yul\":12925:12940   */\n      add\n        /* \"#utility.yul\":12917:12940   */\n      swap1\n      pop\n        /* \"#utility.yul\":12626:12947   */\n      swap2\n      swap1\n      pop\n      jump\t// out\n        /* \"#utility.yul\":12953:13070   */\n    tag_409:\n        /* \"#utility.yul\":13062:13063   */\n      0x00\n        /* \"#utility.yul\":13059:13060   */\n      dup1\n        /* \"#utility.yul\":13052:13064   */\n      revert\n        /* \"#utility.yul\":13092:14037   */\n    tag_410:\n        /* \"#utility.yul\":13198:13203   */\n      0x00\n        /* \"#utility.yul\":13223:13314   */\n      tag_549\n        /* \"#utility.yul\":13239:13313   */\n      tag_550\n        /* \"#utility.yul\":13306:13312   */\n      dup5\n        /* \"#utility.yul\":13239:13313   */\n      tag_408\n      jump\t// in\n    tag_550:\n        /* \"#utility.yul\":13223:13314   */\n      tag_403\n      jump\t// in\n    tag_549:\n        /* \"#utility.yul\":13214:13314   */\n      swap1\n      pop\n        /* \"#utility.yul\":13334:13339   */\n      dup1\n        /* \"#utility.yul\":13363:13369   */\n      dup4\n        /* \"#utility.yul\":13356:13361   */\n      dup3\n        /* \"#utility.yul\":13349:13370   */\n      mstore\n        /* \"#utility.yul\":13397:13401   */\n      0x20\n        /* \"#utility.yul\":13390:13395   */\n      dup3\n        /* \"#utility.yul\":13386:13402   */\n      add\n        /* \"#utility.yul\":13379:13402   */\n      swap1\n      pop\n        /* \"#utility.yul\":13450:13454   */\n      0x20\n        /* \"#utility.yul\":13442:13448   */\n      dup5\n        /* \"#utility.yul\":13438:13455   */\n      mul\n        /* \"#utility.yul\":13430:13436   */\n      dup4\n        /* \"#utility.yul\":13426:13456   */\n      add\n        /* \"#utility.yul\":13479:13482   */\n      dup6\n        /* \"#utility.yul\":13471:13477   */\n      dup2\n        /* \"#utility.yul\":13468:13483   */\n      gt\n        /* \"#utility.yul\":13465:13587   */\n      iszero\n      tag_551\n      jumpi\n        /* \"#utility.yul\":13498:13577   */\n      tag_552\n      tag_409\n      jump\t// in\n    tag_552:\n        /* \"#utility.yul\":13465:13587   */\n    tag_551:\n        /* \"#utility.yul\":13613:13619   */\n      dup4\n        /* \"#utility.yul\":13596:14031   */\n    tag_553:\n        /* \"#utility.yul\":13630:13636   */\n      dup2\n        /* \"#utility.yul\":13625:13628   */\n      dup2\n        /* \"#utility.yul\":13622:13637   */\n      lt\n        /* \"#utility.yul\":13596:14031   */\n      iszero\n      tag_555\n      jumpi\n        /* \"#utility.yul\":13719:13722   */\n      dup1\n        /* \"#utility.yul\":13706:13723   */\n      calldataload\n        /* \"#utility.yul\":13755:13773   */\n      0xffffffffffffffff\n        /* \"#utility.yul\":13742:13753   */\n      dup2\n        /* \"#utility.yul\":13739:13774   */\n      gt\n        /* \"#utility.yul\":13736:13858   */\n      iszero\n      tag_556\n      jumpi\n        /* \"#utility.yul\":13777:13856   */\n      tag_557\n      tag_400\n      jump\t// in\n    tag_557:\n        /* \"#utility.yul\":13736:13858   */\n    tag_556:\n        /* \"#utility.yul\":13901:13912   */\n      dup1\n        /* \"#utility.yul\":13893:13899   */\n      dup7\n        /* \"#utility.yul\":13889:13913   */\n      add\n        /* \"#utility.yul\":13939:13986   */\n      tag_558\n        /* \"#utility.yul\":13982:13985   */\n      dup10\n        /* \"#utility.yul\":13970:13980   */\n      dup3\n        /* \"#utility.yul\":13939:13986   */\n      tag_407\n      jump\t// in\n    tag_558:\n        /* \"#utility.yul\":13934:13937   */\n      dup6\n        /* \"#utility.yul\":13927:13987   */\n      mstore\n        /* \"#utility.yul\":14016:14020   */\n      0x20\n        /* \"#utility.yul\":14011:14014   */\n      dup6\n        /* \"#utility.yul\":14007:14021   */\n      add\n        /* \"#utility.yul\":14000:14021   */\n      swap5\n      pop\n        /* \"#utility.yul\":13672:14031   */\n      pop\n      pop\n        /* \"#utility.yul\":13656:13660   */\n      0x20\n        /* \"#utility.yul\":13651:13654   */\n      dup2\n        /* \"#utility.yul\":13647:13661   */\n      add\n        /* \"#utility.yul\":13640:13661   */\n      swap1\n      pop\n        /* \"#utility.yul\":13596:14031   */\n      jump(tag_553)\n    tag_555:\n        /* \"#utility.yul\":13600:13621   */\n      pop\n        /* \"#utility.yul\":13204:14037   */\n      pop\n      pop\n        /* \"#utility.yul\":13092:14037   */\n      swap4\n      swap3\n      pop\n      pop\n      pop\n      jump\t// out\n        /* \"#utility.yul\":14059:14449   */\n    tag_411:\n        /* \"#utility.yul\":14140:14145   */\n      0x00\n        /* \"#utility.yul\":14189:14192   */\n      dup3\n        /* \"#utility.yul\":14182:14186   */\n      0x1f\n        /* \"#utility.yul\":14174:14180   */\n      dup4\n        /* \"#utility.yul\":14170:14187   */\n      add\n        /* \"#utility.yul\":14166:14193   */\n      slt\n        /* \"#utility.yul\":14156:14278   */\n      tag_560\n      jumpi\n        /* \"#utility.yul\":14197:14276   */\n      tag_561\n      tag_400\n      jump\t// in\n    tag_561:\n        /* \"#utility.yul\":14156:14278   */\n    tag_560:\n        /* \"#utility.yul\":14314:14320   */\n      dup2\n        /* \"#utility.yul\":14301:14321   */\n      calldataload\n        /* \"#utility.yul\":14339:14443   */\n      tag_562\n        /* \"#utility.yul\":14439:14442   */\n      dup5\n        /* \"#utility.yul\":14431:14437   */\n      dup3\n        /* \"#utility.yul\":14424:14428   */\n      0x20\n        /* \"#utility.yul\":14416:14422   */\n      dup7\n        /* \"#utility.yul\":14412:14429   */\n      add\n        /* \"#utility.yul\":14339:14443   */\n      tag_410\n      jump\t// in\n    tag_562:\n        /* \"#utility.yul\":14330:14443   */\n      swap2\n      pop\n        /* \"#utility.yul\":14146:14449   */\n      pop\n        /* \"#utility.yul\":14059:14449   */\n      swap3\n      swap2\n      pop\n      pop\n      jump\t// out\n        /* \"#utility.yul\":14455:15484   */\n    tag_32:\n        /* \"#utility.yul\":14577:14583   */\n      0x00\n        /* \"#utility.yul\":14585:14591   */\n      dup1\n        /* \"#utility.yul\":14593:14599   */\n      0x00\n        /* \"#utility.yul\":14642:14644   */\n      0x60\n        /* \"#utility.yul\":14630:14639   */\n      dup5\n        /* \"#utility.yul\":14621:14628   */\n      dup7\n        /* \"#utility.yul\":14617:14640   */\n      sub\n        /* \"#utility.yul\":14613:14645   */\n      slt\n        /* \"#utility.yul\":14610:14729   */\n      iszero\n      tag_564\n      jumpi\n        /* \"#utility.yul\":14648:14727   */\n      tag_565\n      tag_374\n      jump\t// in\n    tag_565:\n        /* \"#utility.yul\":14610:14729   */\n    tag_564:\n        /* \"#utility.yul\":14796:14797   */\n      0x00\n        /* \"#utility.yul\":14785:14794   */\n      dup5\n        /* \"#utility.yul\":14781:14798   */\n      add\n        /* \"#utility.yul\":14768:14799   */\n      calldataload\n        /* \"#utility.yul\":14826:14844   */\n      0xffffffffffffffff\n        /* \"#utility.yul\":14818:14824   */\n      dup2\n        /* \"#utility.yul\":14815:14845   */\n      gt\n        /* \"#utility.yul\":14812:14929   */\n      iszero\n      tag_566\n      jumpi\n        /* \"#utility.yul\":14848:14927   */\n      tag_567\n      tag_375\n      jump\t// in\n    tag_567:\n        /* \"#utility.yul\":14812:14929   */\n    tag_566:\n        /* \"#utility.yul\":14953:15016   */\n      tag_568\n        /* \"#utility.yul\":15008:15015   */\n      dup7\n        /* \"#utility.yul\":14999:15005   */\n      dup3\n        /* \"#utility.yul\":14988:14997   */\n      dup8\n        /* \"#utility.yul\":14984:15006   */\n      add\n        /* \"#utility.yul\":14953:15016   */\n      tag_407\n      jump\t// in\n    tag_568:\n        /* \"#utility.yul\":14943:15016   */\n      swap4\n      pop\n        /* \"#utility.yul\":14739:15026   */\n      pop\n        /* \"#utility.yul\":15065:15067   */\n      0x20\n        /* \"#utility.yul\":15091:15144   */\n      tag_569\n        /* \"#utility.yul\":15136:15143   */\n      dup7\n        /* \"#utility.yul\":15127:15133   */\n      dup3\n        /* \"#utility.yul\":15116:15125   */\n      dup8\n        /* \"#utility.yul\":15112:15134   */\n      add\n        /* \"#utility.yul\":15091:15144   */\n      tag_378\n      jump\t// in\n    tag_569:\n        /* \"#utility.yul\":15081:15144   */\n      swap3\n      pop\n        /* \"#utility.yul\":15036:15154   */\n      pop\n        /* \"#utility.yul\":15221:15223   */\n      0x40\n        /* \"#utility.yul\":15210:15219   */\n      dup5\n        /* \"#utility.yul\":15206:15224   */\n      add\n        /* \"#utility.yul\":15193:15225   */\n      calldataload\n        /* \"#utility.yul\":15252:15270   */\n      0xffffffffffffffff\n        /* \"#utility.yul\":15244:15250   */\n      dup2\n        /* \"#utility.yul\":15241:15271   */\n      gt\n        /* \"#utility.yul\":15238:15355   */\n      iszero\n      tag_570\n      jumpi\n        /* \"#utility.yul\":15274:15353   */\n      tag_571\n      tag_375\n      jump\t// in\n    tag_571:\n        /* \"#utility.yul\":15238:15355   */\n    tag_570:\n        /* \"#utility.yul\":15379:15467   */\n      tag_572\n        /* \"#utility.yul\":15459:15466   */\n      dup7\n        /* \"#utility.yul\":15450:15456   */\n      dup3\n        /* \"#utility.yul\":15439:15448   */\n      dup8\n        /* \"#utility.yul\":15435:15457   */\n      add\n        /* \"#utility.yul\":15379:15467   */\n      tag_411\n      jump\t// in\n    tag_572:\n        /* \"#utility.yul\":15369:15467   */\n      swap2\n      pop\n        /* \"#utility.yul\":15164:15477   */\n      pop\n        /* \"#utility.yul\":14455:15484   */\n      swap3\n      pop\n      swap3\n      pop\n      swap3\n      jump\t// out\n        /* \"#utility.yul\":15490:15999   */\n    tag_39:\n        /* \"#utility.yul\":15559:15565   */\n      0x00\n        /* \"#utility.yul\":15608:15610   */\n      0x20\n        /* \"#utility.yul\":15596:15605   */\n      dup3\n        /* \"#utility.yul\":15587:15594   */\n      dup5\n        /* \"#utility.yul\":15583:15606   */\n      sub\n        /* \"#utility.yul\":15579:15611   */\n      slt\n        /* \"#utility.yul\":15576:15695   */\n      iszero\n      tag_574\n      jumpi\n        /* \"#utility.yul\":15614:15693   */\n      tag_575\n      tag_374\n      jump\t// in\n    tag_575:\n        /* \"#utility.yul\":15576:15695   */\n    tag_574:\n        /* \"#utility.yul\":15762:15763   */\n      0x00\n        /* \"#utility.yul\":15751:15760   */\n      dup3\n        /* \"#utility.yul\":15747:15764   */\n      add\n        /* \"#utility.yul\":15734:15765   */\n      calldataload\n        /* \"#utility.yul\":15792:15810   */\n      0xffffffffffffffff\n        /* \"#utility.yul\":15784:15790   */\n      dup2\n        /* \"#utility.yul\":15781:15811   */\n      gt\n        /* \"#utility.yul\":15778:15895   */\n      iszero\n      tag_576\n      jumpi\n        /* \"#utility.yul\":15814:15893   */\n      tag_577\n      tag_375\n      jump\t// in\n    tag_577:\n        /* \"#utility.yul\":15778:15895   */\n    tag_576:\n        /* \"#utility.yul\":15919:15982   */\n      tag_578\n        /* \"#utility.yul\":15974:15981   */\n      dup5\n        /* \"#utility.yul\":15965:15971   */\n      dup3\n        /* \"#utility.yul\":15954:15963   */\n      dup6\n        /* \"#utility.yul\":15950:15972   */\n      add\n        /* \"#utility.yul\":15919:15982   */\n      tag_407\n      jump\t// in\n    tag_578:\n        /* \"#utility.yul\":15909:15982   */\n      swap2\n      pop\n        /* \"#utility.yul\":15705:15992   */\n      pop\n        /* \"#utility.yul\":15490:15999   */\n      swap3\n      swap2\n      pop\n      pop\n      jump\t// out\n        /* \"#utility.yul\":16005:16095   */\n    tag_412:\n        /* \"#utility.yul\":16039:16046   */\n      0x00\n        /* \"#utility.yul\":16082:16087   */\n      dup2\n        /* \"#utility.yul\":16075:16088   */\n      iszero\n        /* \"#utility.yul\":16068:16089   */\n      iszero\n        /* \"#utility.yul\":16057:16089   */\n      swap1\n      pop\n        /* \"#utility.yul\":16005:16095   */\n      swap2\n      swap1\n      pop\n      jump\t// out\n        /* \"#utility.yul\":16101:16210   */\n    tag_413:\n        /* \"#utility.yul\":16182:16203   */\n      tag_581\n        /* \"#utility.yul\":16197:16202   */\n      dup2\n        /* \"#utility.yul\":16182:16203   */\n      tag_412\n      jump\t// in\n    tag_581:\n        /* \"#utility.yul\":16177:16180   */\n      dup3\n        /* \"#utility.yul\":16170:16204   */\n      mstore\n        /* \"#utility.yul\":16101:16210   */\n      pop\n      pop\n      jump\t// out\n        /* \"#utility.yul\":16216:16426   */\n    tag_45:\n        /* \"#utility.yul\":16303:16307   */\n      0x00\n        /* \"#utility.yul\":16341:16343   */\n      0x20\n        /* \"#utility.yul\":16330:16339   */\n      dup3\n        /* \"#utility.yul\":16326:16344   */\n      add\n        /* \"#utility.yul\":16318:16344   */\n      swap1\n      pop\n        /* \"#utility.yul\":16354:16419   */\n      tag_583\n        /* \"#utility.yul\":16416:16417   */\n      0x00\n        /* \"#utility.yul\":16405:16414   */\n      dup4\n        /* \"#utility.yul\":16401:16418   */\n      add\n        /* \"#utility.yul\":16392:16398   */\n      dup5\n        /* \"#utility.yul\":16354:16419   */\n      tag_413\n      jump\t// in\n    tag_583:\n        /* \"#utility.yul\":16216:16426   */\n      swap3\n      swap2\n      pop\n      pop\n      jump\t// out\n        /* \"#utility.yul\":16432:16654   */\n    tag_49:\n        /* \"#utility.yul\":16525:16529   */\n      0x00\n        /* \"#utility.yul\":16563:16565   */\n      0x20\n        /* \"#utility.yul\":16552:16561   */\n      dup3\n        /* \"#utility.yul\":16548:16566   */\n      add\n        /* \"#utility.yul\":16540:16566   */\n      swap1\n      pop\n        /* \"#utility.yul\":16576:16647   */\n      tag_585\n        /* \"#utility.yul\":16644:16645   */\n      0x00\n        /* \"#utility.yul\":16633:16642   */\n      dup4\n        /* \"#utility.yul\":16629:16646   */\n      add\n        /* \"#utility.yul\":16620:16626   */\n      dup5\n        /* \"#utility.yul\":16576:16647   */\n      tag_399\n      jump\t// in\n    tag_585:\n        /* \"#utility.yul\":16432:16654   */\n      swap3\n      swap2\n      pop\n      pop\n      jump\t// out\n        /* \"#utility.yul\":16660:16829   */\n    tag_414:\n        /* \"#utility.yul\":16744:16755   */\n      0x00\n        /* \"#utility.yul\":16778:16784   */\n      dup3\n        /* \"#utility.yul\":16773:16776   */\n      dup3\n        /* \"#utility.yul\":16766:16785   */\n      mstore\n        /* \"#utility.yul\":16818:16822   */\n      0x20\n        /* \"#utility.yul\":16813:16816   */\n      dup3\n        /* \"#utility.yul\":16809:16823   */\n      add\n        /* \"#utility.yul\":16794:16823   */\n      swap1\n      pop\n        /* \"#utility.yul\":16660:16829   */\n      swap3\n      swap2\n      pop\n      pop\n      jump\t// out\n        /* \"#utility.yul\":16835:17212   */\n    tag_415:\n        /* \"#utility.yul\":16923:16926   */\n      0x00\n        /* \"#utility.yul\":16951:16990   */\n      tag_588\n        /* \"#utility.yul\":16984:16989   */\n      dup3\n        /* \"#utility.yul\":16951:16990   */\n      tag_379\n      jump\t// in\n    tag_588:\n        /* \"#utility.yul\":17006:17077   */\n      tag_589\n        /* \"#utility.yul\":17070:17076   */\n      dup2\n        /* \"#utility.yul\":17065:17068   */\n      dup6\n        /* \"#utility.yul\":17006:17077   */\n      tag_414\n      jump\t// in\n    tag_589:\n        /* \"#utility.yul\":16999:17077   */\n      swap4\n      pop\n        /* \"#utility.yul\":17086:17151   */\n      tag_590\n        /* \"#utility.yul\":17144:17150   */\n      dup2\n        /* \"#utility.yul\":17139:17142   */\n      dup6\n        /* \"#utility.yul\":17132:17136   */\n      0x20\n        /* \"#utility.yul\":17125:17130   */\n      dup7\n        /* \"#utility.yul\":17121:17137   */\n      add\n        /* \"#utility.yul\":17086:17151   */\n      tag_381\n      jump\t// in\n    tag_590:\n        /* \"#utility.yul\":17176:17205   */\n      tag_591\n        /* \"#utility.yul\":17198:17204   */\n      dup2\n        /* \"#utility.yul\":17176:17205   */\n      tag_382\n      jump\t// in\n    tag_591:\n        /* \"#utility.yul\":17171:17174   */\n      dup5\n        /* \"#utility.yul\":17167:17206   */\n      add\n        /* \"#utility.yul\":17160:17206   */\n      swap2\n      pop\n        /* \"#utility.yul\":16927:17212   */\n      pop\n        /* \"#utility.yul\":16835:17212   */\n      swap3\n      swap2\n      pop\n      pop\n      jump\t// out\n        /* \"#utility.yul\":17218:17531   */\n    tag_64:\n        /* \"#utility.yul\":17331:17335   */\n      0x00\n        /* \"#utility.yul\":17369:17371   */\n      0x20\n        /* \"#utility.yul\":17358:17367   */\n      dup3\n        /* \"#utility.yul\":17354:17372   */\n      add\n        /* \"#utility.yul\":17346:17372   */\n      swap1\n      pop\n        /* \"#utility.yul\":17418:17427   */\n      dup2\n        /* \"#utility.yul\":17412:17416   */\n      dup2\n        /* \"#utility.yul\":17408:17428   */\n      sub\n        /* \"#utility.yul\":17404:17405   */\n      0x00\n        /* \"#utility.yul\":17393:17402   */\n      dup4\n        /* \"#utility.yul\":17389:17406   */\n      add\n        /* \"#utility.yul\":17382:17429   */\n      mstore\n        /* \"#utility.yul\":17446:17524   */\n      tag_593\n        /* \"#utility.yul\":17519:17523   */\n      dup2\n        /* \"#utility.yul\":17510:17516   */\n      dup5\n        /* \"#utility.yul\":17446:17524   */\n      tag_415\n      jump\t// in\n    tag_593:\n        /* \"#utility.yul\":17438:17524   */\n      swap1\n      pop\n        /* \"#utility.yul\":17218:17531   */\n      swap3\n      swap2\n      pop\n      pop\n      jump\t// out\n        /* \"#utility.yul\":17537:17717   */\n    tag_416:\n        /* \"#utility.yul\":17585:17662   */\n      0x4e487b7100000000000000000000000000000000000000000000000000000000\n        /* \"#utility.yul\":17582:17583   */\n      0x00\n        /* \"#utility.yul\":17575:17663   */\n      mstore\n        /* \"#utility.yul\":17682:17686   */\n      0x11\n        /* \"#utility.yul\":17679:17680   */\n      0x04\n        /* \"#utility.yul\":17672:17687   */\n      mstore\n        /* \"#utility.yul\":17706:17710   */\n      0x24\n        /* \"#utility.yul\":17703:17704   */\n      0x00\n        /* \"#utility.yul\":17696:17711   */\n      revert\n        /* \"#utility.yul\":17723:17917   */\n    tag_69:\n        /* \"#utility.yul\":17763:17767   */\n      0x00\n        /* \"#utility.yul\":17783:17803   */\n      tag_596\n        /* \"#utility.yul\":17801:17802   */\n      dup3\n        /* \"#utility.yul\":17783:17803   */\n      tag_376\n      jump\t// in\n    tag_596:\n        /* \"#utility.yul\":17778:17803   */\n      swap2\n      pop\n        /* \"#utility.yul\":17817:17837   */\n      tag_597\n        /* \"#utility.yul\":17835:17836   */\n      dup4\n        /* \"#utility.yul\":17817:17837   */\n      tag_376\n      jump\t// in\n    tag_597:\n        /* \"#utility.yul\":17812:17837   */\n      swap3\n      pop\n        /* \"#utility.yul\":17861:17862   */\n      dup3\n        /* \"#utility.yul\":17858:17859   */\n      dup3\n        /* \"#utility.yul\":17854:17863   */\n      sub\n        /* \"#utility.yul\":17846:17863   */\n      swap1\n      pop\n        /* \"#utility.yul\":17885:17886   */\n      dup2\n        /* \"#utility.yul\":17879:17883   */\n      dup2\n        /* \"#utility.yul\":17876:17887   */\n      gt\n        /* \"#utility.yul\":17873:17910   */\n      iszero\n      tag_598\n      jumpi\n        /* \"#utility.yul\":17890:17908   */\n      tag_599\n      tag_416\n      jump\t// in\n    tag_599:\n        /* \"#utility.yul\":17873:17910   */\n    tag_598:\n        /* \"#utility.yul\":17723:17917   */\n      swap3\n      swap2\n      pop\n      pop\n      jump\t// out\n        /* \"#utility.yul\":17923:18103   */\n    tag_72:\n        /* \"#utility.yul\":17971:18048   */\n      0x4e487b7100000000000000000000000000000000000000000000000000000000\n        /* \"#utility.yul\":17968:17969   */\n      0x00\n        /* \"#utility.yul\":17961:18049   */\n      mstore\n        /* \"#utility.yul\":18068:18072   */\n      0x32\n        /* \"#utility.yul\":18065:18066   */\n      0x04\n        /* \"#utility.yul\":18058:18073   */\n      mstore\n        /* \"#utility.yul\":18092:18096   */\n      0x24\n        /* \"#utility.yul\":18089:18090   */\n      0x00\n        /* \"#utility.yul\":18082:18097   */\n      revert\n        /* \"#utility.yul\":18109:18289   */\n    tag_417:\n        /* \"#utility.yul\":18157:18234   */\n      0x4e487b7100000000000000000000000000000000000000000000000000000000\n        /* \"#utility.yul\":18154:18155   */\n      0x00\n        /* \"#utility.yul\":18147:18235   */\n      mstore\n        /* \"#utility.yul\":18254:18258   */\n      0x22\n        /* \"#utility.yul\":18251:18252   */\n      0x04\n        /* \"#utility.yul\":18244:18259   */\n      mstore\n        /* \"#utility.yul\":18278:18282   */\n      0x24\n        /* \"#utility.yul\":18275:18276   */\n      0x00\n        /* \"#utility.yul\":18268:18283   */\n      revert\n        /* \"#utility.yul\":18295:18615   */\n    tag_75:\n        /* \"#utility.yul\":18339:18345   */\n      0x00\n        /* \"#utility.yul\":18376:18377   */\n      0x02\n        /* \"#utility.yul\":18370:18374   */\n      dup3\n        /* \"#utility.yul\":18366:18378   */\n      div\n        /* \"#utility.yul\":18356:18378   */\n      swap1\n      pop\n        /* \"#utility.yul\":18423:18424   */\n      0x01\n        /* \"#utility.yul\":18417:18421   */\n      dup3\n        /* \"#utility.yul\":18413:18425   */\n      and\n        /* \"#utility.yul\":18444:18462   */\n      dup1\n        /* \"#utility.yul\":18434:18515   */\n      tag_603\n      jumpi\n        /* \"#utility.yul\":18500:18504   */\n      0x7f\n        /* \"#utility.yul\":18492:18498   */\n      dup3\n        /* \"#utility.yul\":18488:18505   */\n      and\n        /* \"#utility.yul\":18478:18505   */\n      swap2\n      pop\n        /* \"#utility.yul\":18434:18515   */\n    tag_603:\n        /* \"#utility.yul\":18562:18564   */\n      0x20\n        /* \"#utility.yul\":18554:18560   */\n      dup3\n        /* \"#utility.yul\":18551:18565   */\n      lt\n        /* \"#utility.yul\":18531:18549   */\n      dup2\n        /* \"#utility.yul\":18528:18566   */\n      sub\n        /* \"#utility.yul\":18525:18609   */\n      tag_604\n      jumpi\n        /* \"#utility.yul\":18581:18599   */\n      tag_605\n      tag_417\n      jump\t// in\n    tag_605:\n        /* \"#utility.yul\":18525:18609   */\n    tag_604:\n        /* \"#utility.yul\":18346:18615   */\n      pop\n        /* \"#utility.yul\":18295:18615   */\n      swap2\n      swap1\n      pop\n      jump\t// out\n        /* \"#utility.yul\":18621:18854   */\n    tag_141:\n        /* \"#utility.yul\":18660:18663   */\n      0x00\n        /* \"#utility.yul\":18683:18707   */\n      tag_607\n        /* \"#utility.yul\":18701:18706   */\n      dup3\n        /* \"#utility.yul\":18683:18707   */\n      tag_376\n      jump\t// in\n    tag_607:\n        /* \"#utility.yul\":18674:18707   */\n      swap2\n      pop\n        /* \"#utility.yul\":18729:18795   */\n      0xffffffffffffffffffffffffffffffffffffffffffffffffffffffffffffffff\n        /* \"#utility.yul\":18722:18727   */\n      dup3\n        /* \"#utility.yul\":18719:18796   */\n      sub\n        /* \"#utility.yul\":18716:18819   */\n      tag_608\n      jumpi\n        /* \"#utility.yul\":18799:18817   */\n      tag_609\n      tag_416\n      jump\t// in\n    tag_609:\n        /* \"#utility.yul\":18716:18819   */\n    tag_608:\n        /* \"#utility.yul\":18846:18847   */\n      0x01\n        /* \"#utility.yul\":18839:18844   */\n      dup3\n        /* \"#utility.yul\":18835:18848   */\n      add\n        /* \"#utility.yul\":18828:18848   */\n      swap1\n      pop\n        /* \"#utility.yul\":18621:18854   */\n      swap2\n      swap1\n      pop\n      jump\t// out\n        /* \"#utility.yul\":18860:19007   */\n    tag_418:\n        /* \"#utility.yul\":18961:18972   */\n      0x00\n        /* \"#utility.yul\":18998:19001   */\n      dup2\n        /* \"#utility.yul\":18983:19001   */\n      swap1\n      pop\n        /* \"#utility.yul\":18860:19007   */\n      swap3\n      swap2\n      pop\n      pop\n      jump\t// out\n        /* \"#utility.yul\":19013:19157   */\n    tag_419:\n        /* \"#utility.yul\":19065:19069   */\n      0x00\n        /* \"#utility.yul\":19088:19091   */\n      dup2\n        /* \"#utility.yul\":19080:19091   */\n      swap1\n      pop\n        /* \"#utility.yul\":19111:19114   */\n      dup2\n        /* \"#utility.yul\":19108:19109   */\n      0x00\n        /* \"#utility.yul\":19101:19115   */\n      mstore\n        /* \"#utility.yul\":19145:19149   */\n      0x20\n        /* \"#utility.yul\":19142:19143   */\n      0x00\n        /* \"#utility.yul\":19132:19150   */\n      keccak256\n        /* \"#utility.yul\":19124:19150   */\n      swap1\n      pop\n        /* \"#utility.yul\":19013:19157   */\n      swap2\n      swap1\n      pop\n      jump\t// out\n        /* \"#utility.yul\":19185:20063   */\n    tag_420:\n        /* \"#utility.yul\":19290:19293   */\n      0x00\n        /* \"#utility.yul\":19327:19332   */\n      dup2\n        /* \"#utility.yul\":19321:19333   */\n      sload\n        /* \"#utility.yul\":19356:19392   */\n      tag_613\n        /* \"#utility.yul\":19382:19391   */\n      dup2\n        /* \"#utility.yul\":19356:19392   */\n      tag_75\n      jump\t// in\n    tag_613:\n        /* \"#utility.yul\":19408:19496   */\n      tag_614\n        /* \"#utility.yul\":19489:19495   */\n      dup2\n        /* \"#utility.yul\":19484:19487   */\n      dup7\n        /* \"#utility.yul\":19408:19496   */\n      tag_418\n      jump\t// in\n    tag_614:\n        /* \"#utility.yul\":19401:19496   */\n      swap5\n      pop\n        /* \"#utility.yul\":19527:19528   */\n      0x01\n        /* \"#utility.yul\":19516:19525   */\n      dup3\n        /* \"#utility.yul\":19512:19529   */\n      and\n        /* \"#utility.yul\":19543:19544   */\n      0x00\n        /* \"#utility.yul\":19538:19704   */\n      dup2\n      eq\n      tag_616\n      jumpi\n        /* \"#utility.yul\":19718:19719   */\n      0x01\n        /* \"#utility.yul\":19713:20057   */\n      dup2\n      eq\n      tag_617\n      jumpi\n        /* \"#utility.yul\":19505:20057   */\n      jump(tag_615)\n        /* \"#utility.yul\":19538:19704   */\n    tag_616:\n        /* \"#utility.yul\":19622:19626   */\n      0xff\n        /* \"#utility.yul\":19618:19627   */\n      not\n        /* \"#utility.yul\":19607:19616   */\n      dup4\n        /* \"#utility.yul\":19603:19628   */\n      and\n        /* \"#utility.yul\":19598:19601   */\n      dup7\n        /* \"#utility.yul\":19591:19629   */\n      mstore\n        /* \"#utility.yul\":19684:19690   */\n      dup2\n        /* \"#utility.yul\":19677:19691   */\n      iszero\n        /* \"#utility.yul\":19670:19692   */\n      iszero\n        /* \"#utility.yul\":19662:19668   */\n      dup3\n        /* \"#utility.yul\":19658:19693   */\n      mul\n        /* \"#utility.yul\":19653:19656   */\n      dup7\n        /* \"#utility.yul\":19649:19694   */\n      add\n        /* \"#utility.yul\":19642:19694   */\n      swap4\n      pop\n        /* \"#utility.yul\":19538:19704   */\n      jump(tag_615)\n        /* \"#utility.yul\":19713:20057   */\n    tag_617:\n        /* \"#utility.yul\":19780:19821   */\n      tag_618\n        /* \"#utility.yul\":19815:19820   */\n      dup6\n        /* \"#utility.yul\":19780:19821   */\n      tag_419\n      jump\t// in\n    tag_618:\n        /* \"#utility.yul\":19843:19844   */\n      0x00\n        /* \"#utility.yul\":19857:20011   */\n    tag_619:\n        /* \"#utility.yul\":19871:19877   */\n      dup4\n        /* \"#utility.yul\":19868:19869   */\n      dup2\n        /* \"#utility.yul\":19865:19878   */\n      lt\n        /* \"#utility.yul\":19857:20011   */\n      iszero\n      tag_621\n      jumpi\n        /* \"#utility.yul\":19945:19952   */\n      dup2\n        /* \"#utility.yul\":19939:19953   */\n      sload\n        /* \"#utility.yul\":19935:19936   */\n      dup2\n        /* \"#utility.yul\":19930:19933   */\n      dup10\n        /* \"#utility.yul\":19926:19937   */\n      add\n        /* \"#utility.yul\":19919:19954   */\n      mstore\n        /* \"#utility.yul\":19995:19996   */\n      0x01\n        /* \"#utility.yul\":19986:19993   */\n      dup3\n        /* \"#utility.yul\":19982:19997   */\n      add\n        /* \"#utility.yul\":19971:19997   */\n      swap2\n      pop\n        /* \"#utility.yul\":19893:19897   */\n      0x20\n        /* \"#utility.yul\":19890:19891   */\n      dup2\n        /* \"#utility.yul\":19886:19898   */\n      add\n        /* \"#utility.yul\":19881:19898   */\n      swap1\n      pop\n        /* \"#utility.yul\":19857:20011   */\n      jump(tag_619)\n    tag_621:\n        /* \"#utility.yul\":20040:20046   */\n      dup4\n        /* \"#utility.yul\":20035:20038   */\n      dup9\n        /* \"#utility.yul\":20031:20047   */\n      add\n        /* \"#utility.yul\":20024:20047   */\n      swap6\n      pop\n        /* \"#utility.yul\":19720:20057   */\n      pop\n      pop\n        /* \"#utility.yul\":19505:20057   */\n    tag_615:\n      pop\n        /* \"#utility.yul\":19294:20063   */\n      pop\n      pop\n        /* \"#utility.yul\":19185:20063   */\n      swap3\n      swap2\n      pop\n      pop\n      jump\t// out\n        /* \"#utility.yul\":20069:20342   */\n    tag_180:\n        /* \"#utility.yul\":20200:20203   */\n      0x00\n        /* \"#utility.yul\":20222:20316   */\n      tag_623\n        /* \"#utility.yul\":20312:20315   */\n      dup3\n        /* \"#utility.yul\":20303:20309   */\n      dup5\n        /* \"#utility.yul\":20222:20316   */\n      tag_420\n      jump\t// in\n    tag_623:\n        /* \"#utility.yul\":20215:20316   */\n      swap2\n      pop\n        /* \"#utility.yul\":20333:20336   */\n      dup2\n        /* \"#utility.yul\":20326:20336   */\n      swap1\n      pop\n        /* \"#utility.yul\":20069:20342   */\n      swap3\n      swap2\n      pop\n      pop\n      jump\t// out\n        /* \"#utility.yul\":20348:20539   */\n    tag_223:\n        /* \"#utility.yul\":20388:20391   */\n      0x00\n        /* \"#utility.yul\":20407:20427   */\n      tag_625\n        /* \"#utility.yul\":20425:20426   */\n      dup3\n        /* \"#utility.yul\":20407:20427   */\n      tag_376\n      jump\t// in\n    tag_625:\n        /* \"#utility.yul\":20402:20427   */\n      swap2\n      pop\n        /* \"#utility.yul\":20441:20461   */\n      tag_626\n        /* \"#utility.yul\":20459:20460   */\n      dup4\n        /* \"#utility.yul\":20441:20461   */\n      tag_376\n      jump\t// in\n    tag_626:\n        /* \"#utility.yul\":20436:20461   */\n      swap3\n      pop\n        /* \"#utility.yul\":20484:20485   */\n      dup3\n        /* \"#utility.yul\":20481:20482   */\n      dup3\n        /* \"#utility.yul\":20477:20486   */\n      add\n        /* \"#utility.yul\":20470:20486   */\n      swap1\n      pop\n        /* \"#utility.yul\":20505:20508   */\n      dup1\n        /* \"#utility.yul\":20502:20503   */\n      dup3\n        /* \"#utility.yul\":20499:20509   */\n      gt\n        /* \"#utility.yul\":20496:20532   */\n      iszero\n      tag_627\n      jumpi\n        /* \"#utility.yul\":20512:20530   */\n      tag_628\n      tag_416\n      jump\t// in\n    tag_628:\n        /* \"#utility.yul\":20496:20532   */\n    tag_627:\n        /* \"#utility.yul\":20348:20539   */\n      swap3\n      swap2\n      pop\n      pop\n      jump\t// out\n        /* \"#utility.yul\":20545:20686   */\n    tag_421:\n        /* \"#utility.yul\":20594:20598   */\n      0x00\n        /* \"#utility.yul\":20617:20620   */\n      dup2\n        /* \"#utility.yul\":20609:20620   */\n      swap1\n      pop\n        /* \"#utility.yul\":20640:20643   */\n      dup2\n        /* \"#utility.yul\":20637:20638   */\n      0x00\n        /* \"#utility.yul\":20630:20644   */\n      mstore\n        /* \"#utility.yul\":20674:20678   */\n      0x20\n        /* \"#utility.yul\":20671:20672   */\n      0x00\n        /* \"#utility.yul\":20661:20679   */\n      keccak256\n        /* \"#utility.yul\":20653:20679   */\n      swap1\n      pop\n        /* \"#utility.yul\":20545:20686   */\n      swap2\n      swap1\n      pop\n      jump\t// out\n        /* \"#utility.yul\":20692:20785   */\n    tag_422:\n        /* \"#utility.yul\":20729:20735   */\n      0x00\n        /* \"#utility.yul\":20776:20778   */\n      0x20\n        /* \"#utility.yul\":20771:20773   */\n      0x1f\n        /* \"#utility.yul\":20764:20769   */\n      dup4\n        /* \"#utility.yul\":20760:20774   */\n      add\n        /* \"#utility.yul\":20756:20779   */\n      div\n        /* \"#utility.yul\":20746:20779   */\n      swap1\n      pop\n        /* \"#utility.yul\":20692:20785   */\n      swap2\n      swap1\n      pop\n      jump\t// out\n        /* \"#utility.yul\":20791:20898   */\n    tag_423:\n        /* \"#utility.yul\":20835:20843   */\n      0x00\n        /* \"#utility.yul\":20885:20890   */\n      dup3\n        /* \"#utility.yul\":20879:20883   */\n      dup3\n        /* \"#utility.yul\":20875:20891   */\n      shl\n        /* \"#utility.yul\":20854:20891   */\n      swap1\n      pop\n        /* \"#utility.yul\":20791:20898   */\n      swap3\n      swap2\n      pop\n      pop\n      jump\t// out\n        /* \"#utility.yul\":20904:21297   */\n    tag_424:\n        /* \"#utility.yul\":20973:20979   */\n      0x00\n        /* \"#utility.yul\":21023:21024   */\n      0x08\n        /* \"#utility.yul\":21011:21021   */\n      dup4\n        /* \"#utility.yul\":21007:21025   */\n      mul\n        /* \"#utility.yul\":21046:21143   */\n      tag_633\n        /* \"#utility.yul\":21076:21142   */\n      0xffffffffffffffffffffffffffffffffffffffffffffffffffffffffffffffff\n        /* \"#utility.yul\":21065:21074   */\n      dup3\n        /* \"#utility.yul\":21046:21143   */\n      tag_423\n      jump\t// in\n    tag_633:\n        /* \"#utility.yul\":21164:21203   */\n      tag_634\n        /* \"#utility.yul\":21194:21202   */\n      dup7\n        /* \"#utility.yul\":21183:21192   */\n      dup4\n        /* \"#utility.yul\":21164:21203   */\n      tag_423\n      jump\t// in\n    tag_634:\n        /* \"#utility.yul\":21152:21203   */\n      swap6\n      pop\n        /* \"#utility.yul\":21236:21240   */\n      dup1\n        /* \"#utility.yul\":21232:21241   */\n      not\n        /* \"#utility.yul\":21225:21230   */\n      dup5\n        /* \"#utility.yul\":21221:21242   */\n      and\n        /* \"#utility.yul\":21212:21242   */\n      swap4\n      pop\n        /* \"#utility.yul\":21285:21289   */\n      dup1\n        /* \"#utility.yul\":21275:21283   */\n      dup7\n        /* \"#utility.yul\":21271:21290   */\n      and\n        /* \"#utility.yul\":21264:21269   */\n      dup5\n        /* \"#utility.yul\":21261:21291   */\n      or\n        /* \"#utility.yul\":21251:21291   */\n      swap3\n      pop\n        /* \"#utility.yul\":20980:21297   */\n      pop\n      pop\n        /* \"#utility.yul\":20904:21297   */\n      swap4\n      swap3\n      pop\n      pop\n      pop\n      jump\t// out\n        /* \"#utility.yul\":21303:21363   */\n    tag_425:\n        /* \"#utility.yul\":21331:21334   */\n      0x00\n        /* \"#utility.yul\":21352:21357   */\n      dup2\n        /* \"#utility.yul\":21345:21357   */\n      swap1\n      pop\n        /* \"#utility.yul\":21303:21363   */\n      swap2\n      swap1\n      pop\n      jump\t// out\n        /* \"#utility.yul\":21369:21511   */\n    tag_426:\n        /* \"#utility.yul\":21419:21428   */\n      0x00\n        /* \"#utility.yul\":21452:21505   */\n      tag_637\n        /* \"#utility.yul\":21470:21504   */\n      tag_638\n        /* \"#utility.yul\":21479:21503   */\n      tag_639\n        /* \"#utility.yul\":21497:21502   */\n      dup5\n        /* \"#utility.yul\":21479:21503   */\n      tag_376\n      jump\t// in\n    tag_639:\n        /* \"#utility.yul\":21470:21504   */\n      tag_425\n      jump\t// in\n    tag_638:\n        /* \"#utility.yul\":21452:21505   */\n      tag_376\n      jump\t// in\n    tag_637:\n        /* \"#utility.yul\":21439:21505   */\n      swap1\n      pop\n        /* \"#utility.yul\":21369:21511   */\n      swap2\n      swap1\n      pop\n      jump\t// out\n        /* \"#utility.yul\":21517:21592   */\n    tag_427:\n        /* \"#utility.yul\":21560:21563   */\n      0x00\n        /* \"#utility.yul\":21581:21586   */\n      dup2\n        /* \"#utility.yul\":21574:21586   */\n      swap1\n      pop\n        /* \"#utility.yul\":21517:21592   */\n      swap2\n      swap1\n      pop\n      jump\t// out\n        /* \"#utility.yul\":21598:21867   */\n    tag_428:\n        /* \"#utility.yul\":21708:21747   */\n      tag_642\n        /* \"#utility.yul\":21739:21746   */\n      dup4\n        /* \"#utility.yul\":21708:21747   */\n      tag_426\n      jump\t// in\n    tag_642:\n        /* \"#utility.yul\":21769:21860   */\n      tag_643\n        /* \"#utility.yul\":21818:21859   */\n      tag_644\n        /* \"#utility.yul\":21842:21858   */\n      dup3\n        /* \"#utility.yul\":21818:21859   */\n      tag_427\n      jump\t// in\n    tag_644:\n        /* \"#utility.yul\":21810:21816   */\n      dup5\n        /* \"#utility.yul\":21803:21807   */\n      dup5\n        /* \"#utility.yul\":21797:21808   */\n      sload\n        /* \"#utility.yul\":21769:21860   */\n      tag_424\n      jump\t// in\n    tag_643:\n        /* \"#utility.yul\":21763:21767   */\n      dup3\n        /* \"#utility.yul\":21756:21861   */\n      sstore\n        /* \"#utility.yul\":21674:21867   */\n      pop\n        /* \"#utility.yul\":21598:21867   */\n      pop\n      pop\n      pop\n      jump\t// out\n        /* \"#utility.yul\":21873:21946   */\n    tag_429:\n        /* \"#utility.yul\":21918:21921   */\n      0x00\n        /* \"#utility.yul\":21873:21946   */\n      swap1\n      jump\t// out\n        /* \"#utility.yul\":21952:22141   */\n    tag_430:\n        /* \"#utility.yul\":22029:22061   */\n      tag_647\n      tag_429\n      jump\t// in\n    tag_647:\n        /* \"#utility.yul\":22070:22135   */\n      tag_648\n        /* \"#utility.yul\":22128:22134   */\n      dup2\n        /* \"#utility.yul\":22120:22126   */\n      dup5\n        /* \"#utility.yul\":22114:22118   */\n      dup5\n        /* \"#utility.yul\":22070:22135   */\n      tag_428\n      jump\t// in\n    tag_648:\n        /* \"#utility.yul\":22005:22141   */\n      pop\n        /* \"#utility.yul\":21952:22141   */\n      pop\n      pop\n      jump\t// out\n        /* \"#utility.yul\":22147:22333   */\n    tag_431:\n        /* \"#utility.yul\":22207:22327   */\n    tag_650:\n        /* \"#utility.yul\":22224:22227   */\n      dup2\n        /* \"#utility.yul\":22217:22222   */\n      dup2\n        /* \"#utility.yul\":22214:22228   */\n      lt\n        /* \"#utility.yul\":22207:22327   */\n      iszero\n      tag_652\n      jumpi\n        /* \"#utility.yul\":22278:22317   */\n      tag_653\n        /* \"#utility.yul\":22315:22316   */\n      0x00\n        /* \"#utility.yul\":22308:22313   */\n      dup3\n        /* \"#utility.yul\":22278:22317   */\n      tag_430\n      jump\t// in\n    tag_653:\n        /* \"#utility.yul\":22251:22252   */\n      0x01\n        /* \"#utility.yul\":22244:22249   */\n      dup2\n        /* \"#utility.yul\":22240:22253   */\n      add\n        /* \"#utility.yul\":22231:22253   */\n      swap1\n      pop\n        /* \"#utility.yul\":22207:22327   */\n      jump(tag_650)\n    tag_652:\n        /* \"#utility.yul\":22147:22333   */\n      pop\n      pop\n      jump\t// out\n        /* \"#utility.yul\":22339:22882   */\n    tag_432:\n        /* \"#utility.yul\":22440:22442   */\n      0x1f\n        /* \"#utility.yul\":22435:22438   */\n      dup3\n        /* \"#utility.yul\":22432:22443   */\n      gt\n        /* \"#utility.yul\":22429:22875   */\n      iszero\n      tag_655\n      jumpi\n        /* \"#utility.yul\":22474:22512   */\n      tag_656\n        /* \"#utility.yul\":22506:22511   */\n      dup2\n        /* \"#utility.yul\":22474:22512   */\n      tag_421\n      jump\t// in\n    tag_656:\n        /* \"#utility.yul\":22558:22587   */\n      tag_657\n        /* \"#utility.yul\":22576:22586   */\n      dup5\n        /* \"#utility.yul\":22558:22587   */\n      tag_422\n      jump\t// in\n    tag_657:\n        /* \"#utility.yul\":22548:22556   */\n      dup2\n        /* \"#utility.yul\":22544:22588   */\n      add\n        /* \"#utility.yul\":22741:22743   */\n      0x20\n        /* \"#utility.yul\":22729:22739   */\n      dup6\n        /* \"#utility.yul\":22726:22744   */\n      lt\n        /* \"#utility.yul\":22723:22772   */\n      iszero\n      tag_658\n      jumpi\n        /* \"#utility.yul\":22762:22770   */\n      dup2\n        /* \"#utility.yul\":22747:22770   */\n      swap1\n      pop\n        /* \"#utility.yul\":22723:22772   */\n    tag_658:\n        /* \"#utility.yul\":22785:22865   */\n      tag_659\n        /* \"#utility.yul\":22841:22863   */\n      tag_660\n        /* \"#utility.yul\":22859:22862   */\n      dup6\n        /* \"#utility.yul\":22841:22863   */\n      tag_422\n      jump\t// in\n    tag_660:\n        /* \"#utility.yul\":22831:22839   */\n      dup4\n        /* \"#utility.yul\":22827:22864   */\n      add\n        /* \"#utility.yul\":22814:22825   */\n      dup3\n        /* \"#utility.yul\":22785:22865   */\n      tag_431\n      jump\t// in\n    tag_659:\n        /* \"#utility.yul\":22444:22875   */\n      pop\n      pop\n        /* \"#utility.yul\":22429:22875   */\n    tag_655:\n        /* \"#utility.yul\":22339:22882   */\n      pop\n      pop\n      pop\n      jump\t// out\n        /* \"#utility.yul\":22888:23005   */\n    tag_433:\n        /* \"#utility.yul\":22942:22950   */\n      0x00\n        /* \"#utility.yul\":22992:22997   */\n      dup3\n        /* \"#utility.yul\":22986:22990   */\n      dup3\n        /* \"#utility.yul\":22982:22998   */\n      shr\n        /* \"#utility.yul\":22961:22998   */\n      swap1\n      pop\n        /* \"#utility.yul\":22888:23005   */\n      swap3\n      swap2\n      pop\n      pop\n      jump\t// out\n        /* \"#utility.yul\":23011:23180   */\n    tag_434:\n        /* \"#utility.yul\":23055:23061   */\n      0x00\n        /* \"#utility.yul\":23088:23139   */\n      tag_663\n        /* \"#utility.yul\":23136:23137   */\n      0x00\n        /* \"#utility.yul\":23132:23138   */\n      not\n        /* \"#utility.yul\":23124:23129   */\n      dup5\n        /* \"#utility.yul\":23121:23122   */\n      0x08\n        /* \"#utility.yul\":23117:23130   */\n      mul\n        /* \"#utility.yul\":23088:23139   */\n      tag_433\n      jump\t// in\n    tag_663:\n        /* \"#utility.yul\":23084:23140   */\n      not\n        /* \"#utility.yul\":23169:23173   */\n      dup1\n        /* \"#utility.yul\":23163:23167   */\n      dup4\n        /* \"#utility.yul\":23159:23174   */\n      and\n        /* \"#utility.yul\":23149:23174   */\n      swap2\n      pop\n        /* \"#utility.yul\":23062:23180   */\n      pop\n        /* \"#utility.yul\":23011:23180   */\n      swap3\n      swap2\n      pop\n      pop\n      jump\t// out\n        /* \"#utility.yul\":23185:23480   */\n    tag_435:\n        /* \"#utility.yul\":23261:23265   */\n      0x00\n        /* \"#utility.yul\":23407:23436   */\n      tag_665\n        /* \"#utility.yul\":23432:23435   */\n      dup4\n        /* \"#utility.yul\":23426:23430   */\n      dup4\n        /* \"#utility.yul\":23407:23436   */\n      tag_434\n      jump\t// in\n    tag_665:\n        /* \"#utility.yul\":23399:23436   */\n      swap2\n      pop\n        /* \"#utility.yul\":23469:23472   */\n      dup3\n        /* \"#utility.yul\":23466:23467   */\n      0x02\n        /* \"#utility.yul\":23462:23473   */\n      mul\n        /* \"#utility.yul\":23456:23460   */\n      dup3\n        /* \"#utility.yul\":23453:23474   */\n      or\n        /* \"#utility.yul\":23445:23474   */\n      swap1\n      pop\n        /* \"#utility.yul\":23185:23480   */\n      swap3\n      swap2\n      pop\n      pop\n      jump\t// out\n        /* \"#utility.yul\":23485:24880   */\n    tag_227:\n        /* \"#utility.yul\":23602:23639   */\n      tag_667\n        /* \"#utility.yul\":23635:23638   */\n      dup3\n        /* \"#utility.yul\":23602:23639   */\n      tag_379\n      jump\t// in\n    tag_667:\n        /* \"#utility.yul\":23704:23722   */\n      0xffffffffffffffff\n        /* \"#utility.yul\":23696:23702   */\n      dup2\n        /* \"#utility.yul\":23693:23723   */\n      gt\n        /* \"#utility.yul\":23690:23746   */\n      iszero\n      tag_668\n      jumpi\n        /* \"#utility.yul\":23726:23744   */\n      tag_669\n      tag_117\n      jump\t// in\n    tag_669:\n        /* \"#utility.yul\":23690:23746   */\n    tag_668:\n        /* \"#utility.yul\":23770:23808   */\n      tag_670\n        /* \"#utility.yul\":23802:23806   */\n      dup3\n        /* \"#utility.yul\":23796:23807   */\n      sload\n        /* \"#utility.yul\":23770:23808   */\n      tag_75\n      jump\t// in\n    tag_670:\n        /* \"#utility.yul\":23855:23922   */\n      tag_671\n        /* \"#utility.yul\":23915:23921   */\n      dup3\n        /* \"#utility.yul\":23907:23913   */\n      dup3\n        /* \"#utility.yul\":23901:23905   */\n      dup6\n        /* \"#utility.yul\":23855:23922   */\n      tag_432\n      jump\t// in\n    tag_671:\n        /* \"#utility.yul\":23949:23950   */\n      0x00\n        /* \"#utility.yul\":23973:23977   */\n      0x20\n        /* \"#utility.yul\":23960:23977   */\n      swap1\n      pop\n        /* \"#utility.yul\":24005:24007   */\n      0x1f\n        /* \"#utility.yul\":23997:24003   */\n      dup4\n        /* \"#utility.yul\":23994:24008   */\n      gt\n        /* \"#utility.yul\":24022:24023   */\n      0x01\n        /* \"#utility.yul\":24017:24635   */\n      dup2\n      eq\n      tag_673\n      jumpi\n        /* \"#utility.yul\":24679:24680   */\n      0x00\n        /* \"#utility.yul\":24696:24702   */\n      dup5\n        /* \"#utility.yul\":24693:24770   */\n      iszero\n      tag_674\n      jumpi\n        /* \"#utility.yul\":24745:24754   */\n      dup3\n        /* \"#utility.yul\":24740:24743   */\n      dup8\n        /* \"#utility.yul\":24736:24755   */\n      add\n        /* \"#utility.yul\":24730:24756   */\n      mload\n        /* \"#utility.yul\":24721:24756   */\n      swap1\n      pop\n        /* \"#utility.yul\":24693:24770   */\n    tag_674:\n        /* \"#utility.yul\":24796:24863   */\n      tag_675\n        /* \"#utility.yul\":24856:24862   */\n      dup6\n        /* \"#utility.yul\":24849:24854   */\n      dup3\n        /* \"#utility.yul\":24796:24863   */\n      tag_435\n      jump\t// in\n    tag_675:\n        /* \"#utility.yul\":24790:24794   */\n      dup7\n        /* \"#utility.yul\":24783:24864   */\n      sstore\n        /* \"#utility.yul\":24652:24874   */\n      pop\n        /* \"#utility.yul\":23987:24874   */\n      jump(tag_672)\n        /* \"#utility.yul\":24017:24635   */\n    tag_673:\n        /* \"#utility.yul\":24069:24073   */\n      0x1f\n        /* \"#utility.yul\":24065:24074   */\n      not\n        /* \"#utility.yul\":24057:24063   */\n      dup5\n        /* \"#utility.yul\":24053:24075   */\n      and\n        /* \"#utility.yul\":24103:24140   */\n      tag_676\n        /* \"#utility.yul\":24135:24139   */\n      dup7\n        /* \"#utility.yul\":24103:24140   */\n      tag_421\n      jump\t// in\n    tag_676:\n        /* \"#utility.yul\":24162:24163   */\n      0x00\n        /* \"#utility.yul\":24176:24384   */\n    tag_677:\n        /* \"#utility.yul\":24190:24197   */\n      dup3\n        /* \"#utility.yul\":24187:24188   */\n      dup2\n        /* \"#utility.yul\":24184:24198   */\n      lt\n        /* \"#utility.yul\":24176:24384   */\n      iszero\n      tag_679\n      jumpi\n        /* \"#utility.yul\":24269:24278   */\n      dup5\n        /* \"#utility.yul\":24264:24267   */\n      dup10\n        /* \"#utility.yul\":24260:24279   */\n      add\n        /* \"#utility.yul\":24254:24280   */\n      mload\n        /* \"#utility.yul\":24246:24252   */\n      dup3\n        /* \"#utility.yul\":24239:24281   */\n      sstore\n        /* \"#utility.yul\":24320:24321   */\n      0x01\n        /* \"#utility.yul\":24312:24318   */\n      dup3\n        /* \"#utility.yul\":24308:24322   */\n      add\n        /* \"#utility.yul\":24298:24322   */\n      swap2\n      pop\n        /* \"#utility.yul\":24367:24369   */\n      0x20\n        /* \"#utility.yul\":24356:24365   */\n      dup6\n        /* \"#utility.yul\":24352:24370   */\n      add\n        /* \"#utility.yul\":24339:24370   */\n      swap5\n      pop\n        /* \"#utility.yul\":24213:24217   */\n      0x20\n        /* \"#utility.yul\":24210:24211   */\n      dup2\n        /* \"#utility.yul\":24206:24218   */\n      add\n        /* \"#utility.yul\":24201:24218   */\n      swap1\n      pop\n        /* \"#utility.yul\":24176:24384   */\n      jump(tag_677)\n    tag_679:\n        /* \"#utility.yul\":24412:24418   */\n      dup7\n        /* \"#utility.yul\":24403:24410   */\n      dup4\n        /* \"#utility.yul\":24400:24419   */\n      lt\n        /* \"#utility.yul\":24397:24576   */\n      iszero\n      tag_680\n      jumpi\n        /* \"#utility.yul\":24470:24479   */\n      dup5\n        /* \"#utility.yul\":24465:24468   */\n      dup10\n        /* \"#utility.yul\":24461:24480   */\n      add\n        /* \"#utility.yul\":24455:24481   */\n      mload\n        /* \"#utility.yul\":24513:24561   */\n      tag_681\n        /* \"#utility.yul\":24555:24559   */\n      0x1f\n        /* \"#utility.yul\":24547:24553   */\n      dup10\n        /* \"#utility.yul\":24543:24560   */\n      and\n        /* \"#utility.yul\":24532:24541   */\n      dup3\n        /* \"#utility.yul\":24513:24561   */\n      tag_434\n      jump\t// in\n    tag_681:\n        /* \"#utility.yul\":24505:24511   */\n      dup4\n        /* \"#utility.yul\":24498:24562   */\n      sstore\n        /* \"#utility.yul\":24420:24576   */\n      pop\n        /* \"#utility.yul\":24397:24576   */\n    tag_680:\n        /* \"#utility.yul\":24622:24623   */\n      0x01\n        /* \"#utility.yul\":24618:24619   */\n      0x02\n        /* \"#utility.yul\":24610:24616   */\n      dup9\n        /* \"#utility.yul\":24606:24620   */\n      mul\n        /* \"#utility.yul\":24602:24624   */\n      add\n        /* \"#utility.yul\":24596:24600   */\n      dup9\n        /* \"#utility.yul\":24589:24625   */\n      sstore\n        /* \"#utility.yul\":24024:24635   */\n      pop\n      pop\n      pop\n        /* \"#utility.yul\":23987:24874   */\n    tag_672:\n      pop\n        /* \"#utility.yul\":23577:24880   */\n      pop\n      pop\n      pop\n        /* \"#utility.yul\":23485:24880   */\n      pop\n      pop\n      jump\t// out\n        /* \"#utility.yul\":24886:25034   */\n    tag_436:\n        /* \"#utility.yul\":24988:24999   */\n      0x00\n        /* \"#utility.yul\":25025:25028   */\n      dup2\n        /* \"#utility.yul\":25010:25028   */\n      swap1\n      pop\n        /* \"#utility.yul\":24886:25034   */\n      swap3\n      swap2\n      pop\n      pop\n      jump\t// out\n        /* \"#utility.yul\":25040:25430   */\n    tag_437:\n        /* \"#utility.yul\":25146:25149   */\n      0x00\n        /* \"#utility.yul\":25174:25213   */\n      tag_684\n        /* \"#utility.yul\":25207:25212   */\n      dup3\n        /* \"#utility.yul\":25174:25213   */\n      tag_379\n      jump\t// in\n    tag_684:\n        /* \"#utility.yul\":25229:25318   */\n      tag_685\n        /* \"#utility.yul\":25311:25317   */\n      dup2\n        /* \"#utility.yul\":25306:25309   */\n      dup6\n        /* \"#utility.yul\":25229:25318   */\n      tag_436\n      jump\t// in\n    tag_685:\n        /* \"#utility.yul\":25222:25318   */\n      swap4\n      pop\n        /* \"#utility.yul\":25327:25392   */\n      tag_686\n        /* \"#utility.yul\":25385:25391   */\n      dup2\n        /* \"#utility.yul\":25380:25383   */\n      dup6\n        /* \"#utility.yul\":25373:25377   */\n      0x20\n        /* \"#utility.yul\":25366:25371   */\n      dup7\n        /* \"#utility.yul\":25362:25378   */\n      add\n        /* \"#utility.yul\":25327:25392   */\n      tag_381\n      jump\t// in\n    tag_686:\n        /* \"#utility.yul\":25417:25423   */\n      dup1\n        /* \"#utility.yul\":25412:25415   */\n      dup5\n        /* \"#utility.yul\":25408:25424   */\n      add\n        /* \"#utility.yul\":25401:25424   */\n      swap2\n      pop\n        /* \"#utility.yul\":25150:25430   */\n      pop\n        /* \"#utility.yul\":25040:25430   */\n      swap3\n      swap2\n      pop\n      pop\n      jump\t// out\n        /* \"#utility.yul\":25436:25711   */\n    tag_233:\n        /* \"#utility.yul\":25568:25571   */\n      0x00\n        /* \"#utility.yul\":25590:25685   */\n      tag_688\n        /* \"#utility.yul\":25681:25684   */\n      dup3\n        /* \"#utility.yul\":25672:25678   */\n      dup5\n        /* \"#utility.yul\":25590:25685   */\n      tag_437\n      jump\t// in\n    tag_688:\n        /* \"#utility.yul\":25583:25685   */\n      swap2\n      pop\n        /* \"#utility.yul\":25702:25705   */\n      dup2\n        /* \"#utility.yul\":25695:25705   */\n      swap1\n      pop\n        /* \"#utility.yul\":25436:25711   */\n      swap3\n      swap2\n      pop\n      pop\n      jump\t// out\n        /* \"#utility.yul\":25717:25897   */\n    tag_438:\n        /* \"#utility.yul\":25765:25842   */\n      0x4e487b7100000000000000000000000000000000000000000000000000000000\n        /* \"#utility.yul\":25762:25763   */\n      0x00\n        /* \"#utility.yul\":25755:25843   */\n      mstore\n        /* \"#utility.yul\":25862:25866   */\n      0x12\n        /* \"#utility.yul\":25859:25860   */\n      0x04\n        /* \"#utility.yul\":25852:25867   */\n      mstore\n        /* \"#utility.yul\":25886:25890   */\n      0x24\n        /* \"#utility.yul\":25883:25884   */\n      0x00\n        /* \"#utility.yul\":25876:25891   */\n      revert\n        /* \"#utility.yul\":25903:26088   */\n    tag_322:\n        /* \"#utility.yul\":25943:25944   */\n      0x00\n        /* \"#utility.yul\":25960:25980   */\n      tag_691\n        /* \"#utility.yul\":25978:25979   */\n      dup3\n        /* \"#utility.yul\":25960:25980   */\n      tag_376\n      jump\t// in\n    tag_691:\n        /* \"#utility.yul\":25955:25980   */\n      swap2\n      pop\n        /* \"#utility.yul\":25994:26014   */\n      tag_692\n        /* \"#utility.yul\":26012:26013   */\n      dup4\n        /* \"#utility.yul\":25994:26014   */\n      tag_376\n      jump\t// in\n    tag_692:\n        /* \"#utility.yul\":25989:26014   */\n      swap3\n      pop\n        /* \"#utility.yul\":26033:26034   */\n      dup3\n        /* \"#utility.yul\":26023:26058   */\n      tag_693\n      jumpi\n        /* \"#utility.yul\":26038:26056   */\n      tag_694\n      tag_438\n      jump\t// in\n    tag_694:\n        /* \"#utility.yul\":26023:26058   */\n    tag_693:\n        /* \"#utility.yul\":26080:26081   */\n      dup3\n        /* \"#utility.yul\":26077:26078   */\n      dup3\n        /* \"#utility.yul\":26073:26082   */\n      div\n        /* \"#utility.yul\":26068:26082   */\n      swap1\n      pop\n        /* \"#utility.yul\":25903:26088   */\n      swap3\n      swap2\n      pop\n      pop\n      jump\t// out\n\n    auxdata: 0xa2646970667358221220701e1a785ee243b6addb374085b2bf23cab8e37268987cf378c77273a4487b9064736f6c63430008120033\n}\n",
				"bytecode": {
					"linkReferences": {},
					"object": "608060405234801561001057600080fd5b50612a32806100206000396000f3fe608060405234801561001057600080fd5b50600436106100b45760003560e01c80639a2a5815116100715780639a2a581514610191578063d437d7ca146101af578063df72cdbf146101cd578063e5521501146101eb578063e9e309271461021b578063eac1d5b714610239576100b4565b80630b439c39146100b95780631cfd4566146100e95780633ab58e611461010757806374aa68581461012757806375d073eb1461014357806383b41ad814610161575b600080fd5b6100d360048036038101906100ce9190611d0e565b610269565b6040516100e09190611f20565b60405180910390f35b6100f16104c2565b6040516100fe9190612088565b60405180910390f35b61010f6108e4565b60405161011e939291906120b9565b60405180910390f35b610141600480360381019061013c9190612312565b610f33565b005b61014b6110b4565b6040516101589190612088565b60405180910390f35b61017b6004803603810190610176919061239d565b6114db565b6040516101889190611f20565b60405180910390f35b610199611724565b6040516101a69190612401565b60405180910390f35b6101b7611746565b6040516101c4919061241c565b60405180910390f35b6101d5611752565b6040516101e2919061241c565b60405180910390f35b6102056004803603810190610200919061239d565b6117cc565b604051610212919061241c565b60405180910390f35b6102236117f7565b6040516102309190612088565b60405180910390f35b610253600480360381019061024e9190611d0e565b611a67565b6040516102609190612481565b60405180910390f35b610271611bbb565b600060018361028091906124d2565b8154811061029157610290612506565b5b90600052602060002090600502016040518060a00160405290816000820180546102ba90612564565b80601f01602080910402602001604051908101604052809291908181526020018280546102e690612564565b80156103335780601f1061030857610100808354040283529160200191610333565b820191906000526020600020905b81548152906001019060200180831161031657829003601f168201915b50505050508152602001600182015481526020016002820154815260200160038201805461036090612564565b80601f016020809104026020016040519081016040528092919081815260200182805461038c90612564565b80156103d95780601f106103ae576101008083540402835291602001916103d9565b820191906000526020600020905b8154815290600101906020018083116103bc57829003601f168201915b5050505050815260200160048201805480602002602001604051908101604052809291908181526020016000905b828210156104b357838290600052602060002001805461042690612564565b80601f016020809104026020016040519081016040528092919081815260200182805461045290612564565b801561049f5780601f106104745761010080835404028352916020019161049f565b820191906000526020600020905b81548152906001019060200180831161048257829003601f168201915b505050505081526020019060010190610407565b50505050815250509050919050565b6060600080805480602002602001604051908101604052809291908181526020016000905b8282101561072a57838290600052602060002090600502016040518060a001604052908160008201805461051a90612564565b80601f016020809104026020016040519081016040528092919081815260200182805461054690612564565b80156105935780601f1061056857610100808354040283529160200191610593565b820191906000526020600020905b81548152906001019060200180831161057657829003601f168201915b5050505050815260200160018201548152602001600282015481526020016003820180546105c090612564565b80601f01602080910402602001604051908101604052809291908181526020018280546105ec90612564565b80156106395780601f1061060e57610100808354040283529160200191610639565b820191906000526020600020905b81548152906001019060200180831161061c57829003601f168201915b5050505050815260200160048201805480602002602001604051908101604052809291908181526020016000905b8282101561071357838290600052602060002001805461068690612564565b80601f01602080910402602001604051908101604052809291908181526020018280546106b290612564565b80156106ff5780601f106106d4576101008083540402835291602001916106ff565b820191906000526020600020905b8154815290600101906020018083116106e257829003601f168201915b505050505081526020019060010190610667565b5050505081525050815260200190600101906104e7565b5050505090506000600467ffffffffffffffff81111561074d5761074c612101565b5b60405190808252806020026020018201604052801561078657816020015b610773611bbb565b81526020019060019003908161076b5790505b5090506000600190505b82518110156108825760005b8181101561086e578382815181106107b7576107b6612506565b5b6020026020010151604001518482815181106107d6576107d5612506565b5b602002602001015160400151101561085b578382815181106107fb576107fa612506565b5b602002602001015184828151811061081657610815612506565b5b602002602001015185838151811061083157610830612506565b5b6020026020010186858151811061084b5761084a612506565b5b6020026020010182905282905250505b808061086690612595565b91505061079c565b50808061087a90612595565b915050610790565b5060005b60048110156108db578281815181106108a2576108a1612506565b5b60200260200101518282815181106108bd576108bc612506565b5b602002602001018190525080806108d390612595565b915050610886565b50809250505090565b6000806060600080805480602002602001604051908101604052809291908181526020016000905b82821015610b4f57838290600052602060002090600502016040518060a001604052908160008201805461093f90612564565b80601f016020809104026020016040519081016040528092919081815260200182805461096b90612564565b80156109b85780601f1061098d576101008083540402835291602001916109b8565b820191906000526020600020905b81548152906001019060200180831161099b57829003601f168201915b5050505050815260200160018201548152602001600282015481526020016003820180546109e590612564565b80601f0160208091040260200160405190810160405280929190818152602001828054610a1190612564565b8015610a5e5780601f10610a3357610100808354040283529160200191610a5e565b820191906000526020600020905b815481529060010190602001808311610a4157829003601f168201915b5050505050815260200160048201805480602002602001604051908101604052809291908181526020016000905b82821015610b38578382906000526020600020018054610aab90612564565b80601f0160208091040260200160405190810160405280929190818152602001828054610ad790612564565b8015610b245780601f10610af957610100808354040283529160200191610b24565b820191906000526020600020905b815481529060010190602001808311610b0757829003601f168201915b505050505081526020019060010190610a8c565b50505050815250508152602001906001019061090c565b5050505090506060600080600090505b600080549050811015610f20576040518060400160405280600181526020017f46000000000000000000000000000000000000000000000000000000000000008152508051906020012060008281548110610bbd57610bbc612506565b5b9060005260206000209060050201600301604051610bdb9190612680565b604051809103902003610f0d578180610bf390612595565b92505060008181548110610c0a57610c09612506565b5b90600052602060002090600502016040518060a0016040529081600082018054610c3390612564565b80601f0160208091040260200160405190810160405280929190818152602001828054610c5f90612564565b8015610cac5780601f10610c8157610100808354040283529160200191610cac565b820191906000526020600020905b815481529060010190602001808311610c8f57829003601f168201915b505050505081526020016001820154815260200160028201548152602001600382018054610cd990612564565b80601f0160208091040260200160405190810160405280929190818152602001828054610d0590612564565b8015610d525780601f10610d2757610100808354040283529160200191610d52565b820191906000526020600020905b815481529060010190602001808311610d3557829003601f168201915b5050505050815260200160048201805480602002602001604051908101604052809291908181526020016000905b82821015610e2c578382906000526020600020018054610d9f90612564565b80601f0160208091040260200160405190810160405280929190818152602001828054610dcb90612564565b8015610e185780601f10610ded57610100808354040283529160200191610e18565b820191906000526020600020905b815481529060010190602001808311610dfb57829003601f168201915b505050505081526020019060010190610d80565b505050508152505084600184610e4291906124d2565b81518110610e5357610e52612506565b5b60200260200101819052508167ffffffffffffffff811115610e7857610e77612101565b5b604051908082528060200260200182016040528015610eb157816020015b610e9e611bbb565b815260200190600190039081610e965790505b50925060005b82811015610f0b57848181518110610ed257610ed1612506565b5b6020026020010151848281518110610eed57610eec612506565b5b60200260200101819052508080610f0390612595565b915050610eb7565b505b8080610f1890612595565b915050610b5f565b5081518183955095509550505050909192565b60006040518060a001604052808581526020016001600080549050610f589190612697565b8152602001848152602001610f6c85611a67565b81526020018381525090806001815401808255809150506001900390600052602060002090600502016000909190919091506000820151816000019081610fb39190612877565b5060208201518160010155604082015181600201556060820151816003019081610fdd9190612877565b506080820151816004019080519060200190610ffa929190611bea565b5050506040518060a00160405280848152602001600080549050815260200183815260200161102884611a67565b8152602001828152506001846040516110419190612985565b908152602001604051809103902060008201518160000190816110649190612877565b506020820151816001015560408201518160020155606082015181600301908161108e9190612877565b5060808201518160040190805190602001906110ab929190611bea565b50905050505050565b6060600080600090505b600080549050811015611169576040518060400160405280600181526020017f4600000000000000000000000000000000000000000000000000000000000000815250805190602001206000828154811061111c5761111b612506565b5b906000526020600020906005020160030160405161113a9190612680565b60405180910390200361115657818061115290612595565b9250505b808061116190612595565b9150506110be565b5060008167ffffffffffffffff81111561118657611185612101565b5b6040519080825280602002602001820160405280156111bf57816020015b6111ac611bbb565b8152602001906001900390816111a45790505b509050600080600090505b6000805490508110156114d1576040518060400160405280600181526020017f4600000000000000000000000000000000000000000000000000000000000000815250805190602001206000828154811061122857611227612506565b5b90600052602060002090600502016003016040516112469190612680565b6040518091039020036114be576000818154811061126757611266612506565b5b90600052602060002090600502016040518060a001604052908160008201805461129090612564565b80601f01602080910402602001604051908101604052809291908181526020018280546112bc90612564565b80156113095780601f106112de57610100808354040283529160200191611309565b820191906000526020600020905b8154815290600101906020018083116112ec57829003601f168201915b50505050508152602001600182015481526020016002820154815260200160038201805461133690612564565b80601f016020809104026020016040519081016040528092919081815260200182805461136290612564565b80156113af5780601f10611384576101008083540402835291602001916113af565b820191906000526020600020905b81548152906001019060200180831161139257829003601f168201915b5050505050815260200160048201805480602002602001604051908101604052809291908181526020016000905b828210156114895783829060005260206000200180546113fc90612564565b80601f016020809104026020016040519081016040528092919081815260200182805461142890612564565b80156114755780601f1061144a57610100808354040283529160200191611475565b820191906000526020600020905b81548152906001019060200180831161145857829003601f168201915b5050505050815260200190600101906113dd565b50505050815250508383815181106114a4576114a3612506565b5b602002602001018190525081806114ba90612595565b9250505b80806114c990612595565b9150506111ca565b5081935050505090565b6114e3611bbb565b6001826040516114f39190612985565b90815260200160405180910390206040518060a001604052908160008201805461151c90612564565b80601f016020809104026020016040519081016040528092919081815260200182805461154890612564565b80156115955780601f1061156a57610100808354040283529160200191611595565b820191906000526020600020905b81548152906001019060200180831161157857829003601f168201915b5050505050815260200160018201548152602001600282015481526020016003820180546115c290612564565b80601f01602080910402602001604051908101604052809291908181526020018280546115ee90612564565b801561163b5780601f106116105761010080835404028352916020019161163b565b820191906000526020600020905b81548152906001019060200180831161161e57829003601f168201915b5050505050815260200160048201805480602002602001604051908101604052809291908181526020016000905b8282101561171557838290600052602060002001805461168890612564565b80601f01602080910402602001604051908101604052809291908181526020018280546116b490612564565b80156117015780601f106116d657610100808354040283529160200191611701565b820191906000526020600020905b8154815290600101906020018083116116e457829003601f168201915b505050505081526020019060010190611669565b50505050815250509050919050565b60006046611730611752565b1061173e5760019050611743565b600090505b90565b60008080549050905090565b600080600080600090505b6000805490508110156117b0576000818154811061177e5761177d612506565b5b9060005260206000209060050201600201548361179b9190612697565b925080806117a890612595565b91505061175d565b50600080549050826117c291906129cb565b9050809250505090565b60006001826040516117de9190612985565b9081526020016040518091039020600201549050919050565b60606000805480602002602001604051908101604052809291908181526020016000905b82821015611a5e57838290600052602060002090600502016040518060a001604052908160008201805461184e90612564565b80601f016020809104026020016040519081016040528092919081815260200182805461187a90612564565b80156118c75780601f1061189c576101008083540402835291602001916118c7565b820191906000526020600020905b8154815290600101906020018083116118aa57829003601f168201915b5050505050815260200160018201548152602001600282015481526020016003820180546118f490612564565b80601f016020809104026020016040519081016040528092919081815260200182805461192090612564565b801561196d5780601f106119425761010080835404028352916020019161196d565b820191906000526020600020905b81548152906001019060200180831161195057829003601f168201915b5050505050815260200160048201805480602002602001604051908101604052809291908181526020016000905b82821015611a475783829060005260206000200180546119ba90612564565b80601f01602080910402602001604051908101604052809291908181526020018280546119e690612564565b8015611a335780601f10611a0857610100808354040283529160200191611a33565b820191906000526020600020905b815481529060010190602001808311611a1657829003601f168201915b50505050508152602001906001019061199b565b50505050815250508152602001906001019061181b565b50505050905090565b6060605a8210611aae576040518060400160405280600181526020017f41000000000000000000000000000000000000000000000000000000000000008152509050611bb6565b60508210611af3576040518060400160405280600181526020017f42000000000000000000000000000000000000000000000000000000000000008152509050611bb6565b60468210611b38576040518060400160405280600181526020017f43000000000000000000000000000000000000000000000000000000000000008152509050611bb6565b603c8210611b7d576040518060400160405280600181526020017f44000000000000000000000000000000000000000000000000000000000000008152509050611bb6565b6040518060400160405280600181526020017f460000000000000000000000000000000000000000000000000000000000000081525090505b919050565b6040518060a0016040528060608152602001600081526020016000815260200160608152602001606081525090565b828054828255906000526020600020908101928215611c32579160200282015b82811115611c31578251829081611c219190612877565b5091602001919060010190611c0a565b5b509050611c3f9190611c43565b5090565b5b80821115611c635760008181611c5a9190611c67565b50600101611c44565b5090565b508054611c7390612564565b6000825580601f10611c855750611ca4565b601f016020900490600052602060002090810190611ca39190611ca7565b5b50565b5b80821115611cc0576000816000905550600101611ca8565b5090565b6000604051905090565b600080fd5b600080fd5b6000819050919050565b611ceb81611cd8565b8114611cf657600080fd5b50565b600081359050611d0881611ce2565b92915050565b600060208284031215611d2457611d23611cce565b5b6000611d3284828501611cf9565b91505092915050565b600081519050919050565b600082825260208201905092915050565b60005b83811015611d75578082015181840152602081019050611d5a565b60008484015250505050565b6000601f19601f8301169050919050565b6000611d9d82611d3b565b611da78185611d46565b9350611db7818560208601611d57565b611dc081611d81565b840191505092915050565b611dd481611cd8565b82525050565b600081519050919050565b600082825260208201905092915050565b6000819050602082019050919050565b6000611e128383611d92565b905092915050565b6000602082019050919050565b6000611e3282611dda565b611e3c8185611de5565b935083602082028501611e4e85611df6565b8060005b85811015611e8a5784840389528151611e6b8582611e06565b9450611e7683611e1a565b925060208a01995050600181019050611e52565b50829750879550505050505092915050565b600060a0830160008301518482036000860152611eb98282611d92565b9150506020830151611ece6020860182611dcb565b506040830151611ee16040860182611dcb565b5060608301518482036060860152611ef98282611d92565b91505060808301518482036080860152611f138282611e27565b9150508091505092915050565b60006020820190508181036000830152611f3a8184611e9c565b905092915050565b600081519050919050565b600082825260208201905092915050565b6000819050602082019050919050565b600060a0830160008301518482036000860152611f8b8282611d92565b9150506020830151611fa06020860182611dcb565b506040830151611fb36040860182611dcb565b5060608301518482036060860152611fcb8282611d92565b91505060808301518482036080860152611fe58282611e27565b9150508091505092915050565b6000611ffe8383611f6e565b905092915050565b6000602082019050919050565b600061201e82611f42565b6120288185611f4d565b93508360208202850161203a85611f5e565b8060005b8581101561207657848403895281516120578582611ff2565b945061206283612006565b925060208a0199505060018101905061203e565b50829750879550505050505092915050565b600060208201905081810360008301526120a28184612013565b905092915050565b6120b381611cd8565b82525050565b60006060820190506120ce60008301866120aa565b6120db60208301856120aa565b81810360408301526120ed8184612013565b9050949350505050565b600080fd5b600080fd5b7f4e487b7100000000000000000000000000000000000000000000000000000000600052604160045260246000fd5b61213982611d81565b810181811067ffffffffffffffff8211171561215857612157612101565b5b80604052505050565b600061216b611cc4565b90506121778282612130565b919050565b600067ffffffffffffffff82111561219757612196612101565b5b6121a082611d81565b9050602081019050919050565b82818337600083830152505050565b60006121cf6121ca8461217c565b612161565b9050828152602081018484840111156121eb576121ea6120fc565b5b6121f68482856121ad565b509392505050565b600082601f830112612213576122126120f7565b5b81356122238482602086016121bc565b91505092915050565b600067ffffffffffffffff82111561224757612246612101565b5b602082029050602081019050919050565b600080fd5b600061227061226b8461222c565b612161565b9050808382526020820190506020840283018581111561229357612292612258565b5b835b818110156122da57803567ffffffffffffffff8111156122b8576122b76120f7565b5b8086016122c589826121fe565b85526020850194505050602081019050612295565b5050509392505050565b600082601f8301126122f9576122f86120f7565b5b813561230984826020860161225d565b91505092915050565b60008060006060848603121561232b5761232a611cce565b5b600084013567ffffffffffffffff81111561234957612348611cd3565b5b612355868287016121fe565b935050602061236686828701611cf9565b925050604084013567ffffffffffffffff81111561238757612386611cd3565b5b612393868287016122e4565b9150509250925092565b6000602082840312156123b3576123b2611cce565b5b600082013567ffffffffffffffff8111156123d1576123d0611cd3565b5b6123dd848285016121fe565b91505092915050565b60008115159050919050565b6123fb816123e6565b82525050565b600060208201905061241660008301846123f2565b92915050565b600060208201905061243160008301846120aa565b92915050565b600082825260208201905092915050565b600061245382611d3b565b61245d8185612437565b935061246d818560208601611d57565b61247681611d81565b840191505092915050565b6000602082019050818103600083015261249b8184612448565b905092915050565b7f4e487b7100000000000000000000000000000000000000000000000000000000600052601160045260246000fd5b60006124dd82611cd8565b91506124e883611cd8565b9250828203905081811115612500576124ff6124a3565b5b92915050565b7f4e487b7100000000000000000000000000000000000000000000000000000000600052603260045260246000fd5b7f4e487b7100000000000000000000000000000000000000000000000000000000600052602260045260246000fd5b6000600282049050600182168061257c57607f821691505b60208210810361258f5761258e612535565b5b50919050565b60006125a082611cd8565b91507fffffffffffffffffffffffffffffffffffffffffffffffffffffffffffffffff82036125d2576125d16124a3565b5b600182019050919050565b600081905092915050565b60008190508160005260206000209050919050565b6000815461260a81612564565b61261481866125dd565b9450600182166000811461262f576001811461264457612677565b60ff1983168652811515820286019350612677565b61264d856125e8565b60005b8381101561266f57815481890152600182019150602081019050612650565b838801955050505b50505092915050565b600061268c82846125fd565b915081905092915050565b60006126a282611cd8565b91506126ad83611cd8565b92508282019050808211156126c5576126c46124a3565b5b92915050565b60008190508160005260206000209050919050565b60006020601f8301049050919050565b600082821b905092915050565b60006008830261272d7fffffffffffffffffffffffffffffffffffffffffffffffffffffffffffffffff826126f0565b61273786836126f0565b95508019841693508086168417925050509392505050565b6000819050919050565b600061277461276f61276a84611cd8565b61274f565b611cd8565b9050919050565b6000819050919050565b61278e83612759565b6127a261279a8261277b565b8484546126fd565b825550505050565b600090565b6127b76127aa565b6127c2818484612785565b505050565b5b818110156127e6576127db6000826127af565b6001810190506127c8565b5050565b601f82111561282b576127fc816126cb565b612805846126e0565b81016020851015612814578190505b612828612820856126e0565b8301826127c7565b50505b505050565b600082821c905092915050565b600061284e60001984600802612830565b1980831691505092915050565b6000612867838361283d565b9150826002028217905092915050565b61288082611d3b565b67ffffffffffffffff81111561289957612898612101565b5b6128a38254612564565b6128ae8282856127ea565b600060209050601f8311600181146128e157600084156128cf578287015190505b6128d9858261285b565b865550612941565b601f1984166128ef866126cb565b60005b82811015612917578489015182556001820191506020850194506020810190506128f2565b868310156129345784890151612930601f89168261283d565b8355505b6001600288020188555050505b505050505050565b600081905092915050565b600061295f82611d3b565b6129698185612949565b9350612979818560208601611d57565b80840191505092915050565b60006129918284612954565b915081905092915050565b7f4e487b7100000000000000000000000000000000000000000000000000000000600052601260045260246000fd5b60006129d682611cd8565b91506129e183611cd8565b9250826129f1576129f061299c565b5b82820490509291505056fea2646970667358221220701e1a785ee243b6addb374085b2bf23cab8e37268987cf378c77273a4487b9064736f6c63430008120033",
					"opcodes": "PUSH1 0x80 PUSH1 0x40 MSTORE CALLVALUE DUP1 ISZERO PUSH2 0x10 JUMPI PUSH1 0x0 DUP1 REVERT JUMPDEST POP PUSH2 0x2A32 DUP1 PUSH2 0x20 PUSH1 0x0 CODECOPY PUSH1 0x0 RETURN INVALID PUSH1 0x80 PUSH1 0x40 MSTORE CALLVALUE DUP1 ISZERO PUSH2 0x10 JUMPI PUSH1 0x0 DUP1 REVERT JUMPDEST POP PUSH1 0x4 CALLDATASIZE LT PUSH2 0xB4 JUMPI PUSH1 0x0 CALLDATALOAD PUSH1 0xE0 SHR DUP1 PUSH4 0x9A2A5815 GT PUSH2 0x71 JUMPI DUP1 PUSH4 0x9A2A5815 EQ PUSH2 0x191 JUMPI DUP1 PUSH4 0xD437D7CA EQ PUSH2 0x1AF JUMPI DUP1 PUSH4 0xDF72CDBF EQ PUSH2 0x1CD JUMPI DUP1 PUSH4 0xE5521501 EQ PUSH2 0x1EB JUMPI DUP1 PUSH4 0xE9E30927 EQ PUSH2 0x21B JUMPI DUP1 PUSH4 0xEAC1D5B7 EQ PUSH2 0x239 JUMPI PUSH2 0xB4 JUMP JUMPDEST DUP1 PUSH4 0xB439C39 EQ PUSH2 0xB9 JUMPI DUP1 PUSH4 0x1CFD4566 EQ PUSH2 0xE9 JUMPI DUP1 PUSH4 0x3AB58E61 EQ PUSH2 0x107 JUMPI DUP1 PUSH4 0x74AA6858 EQ PUSH2 0x127 JUMPI DUP1 PUSH4 0x75D073EB EQ PUSH2 0x143 JUMPI DUP1 PUSH4 0x83B41AD8 EQ PUSH2 0x161 JUMPI JUMPDEST PUSH1 0x0 DUP1 REVERT JUMPDEST PUSH2 0xD3 PUSH1 0x4 DUP1 CALLDATASIZE SUB DUP2 ADD SWAP1 PUSH2 0xCE SWAP2 SWAP1 PUSH2 0x1D0E JUMP JUMPDEST PUSH2 0x269 JUMP JUMPDEST PUSH1 0x40 MLOAD PUSH2 0xE0 SWAP2 SWAP1 PUSH2 0x1F20 JUMP JUMPDEST PUSH1 0x40 MLOAD DUP1 SWAP2 SUB SWAP1 RETURN JUMPDEST PUSH2 0xF1 PUSH2 0x4C2 JUMP JUMPDEST PUSH1 0x40 MLOAD PUSH2 0xFE SWAP2 SWAP1 PUSH2 0x2088 JUMP JUMPDEST PUSH1 0x40 MLOAD DUP1 SWAP2 SUB SWAP1 RETURN JUMPDEST PUSH2 0x10F PUSH2 0x8E4 JUMP JUMPDEST PUSH1 0x40 MLOAD PUSH2 0x11E SWAP4 SWAP3 SWAP2 SWAP1 PUSH2 0x20B9 JUMP JUMPDEST PUSH1 0x40 MLOAD DUP1 SWAP2 SUB SWAP1 RETURN JUMPDEST PUSH2 0x141 PUSH1 0x4 DUP1 CALLDATASIZE SUB DUP2 ADD SWAP1 PUSH2 0x13C SWAP2 SWAP1 PUSH2 0x2312 JUMP JUMPDEST PUSH2 0xF33 JUMP JUMPDEST STOP JUMPDEST PUSH2 0x14B PUSH2 0x10B4 JUMP JUMPDEST PUSH1 0x40 MLOAD PUSH2 0x158 SWAP2 SWAP1 PUSH2 0x2088 JUMP JUMPDEST PUSH1 0x40 MLOAD DUP1 SWAP2 SUB SWAP1 RETURN JUMPDEST PUSH2 0x17B PUSH1 0x4 DUP1 CALLDATASIZE SUB DUP2 ADD SWAP1 PUSH2 0x176 SWAP2 SWAP1 PUSH2 0x239D JUMP JUMPDEST PUSH2 0x14DB JUMP JUMPDEST PUSH1 0x40 MLOAD PUSH2 0x188 SWAP2 SWAP1 PUSH2 0x1F20 JUMP JUMPDEST PUSH1 0x40 MLOAD DUP1 SWAP2 SUB SWAP1 RETURN JUMPDEST PUSH2 0x199 PUSH2 0x1724 JUMP JUMPDEST PUSH1 0x40 MLOAD PUSH2 0x1A6 SWAP2 SWAP1 PUSH2 0x2401 JUMP JUMPDEST PUSH1 0x40 MLOAD DUP1 SWAP2 SUB SWAP1 RETURN JUMPDEST PUSH2 0x1B7 PUSH2 0x1746 JUMP JUMPDEST PUSH1 0x40 MLOAD PUSH2 0x1C4 SWAP2 SWAP1 PUSH2 0x241C JUMP JUMPDEST PUSH1 0x40 MLOAD DUP1 SWAP2 SUB SWAP1 RETURN JUMPDEST PUSH2 0x1D5 PUSH2 0x1752 JUMP JUMPDEST PUSH1 0x40 MLOAD PUSH2 0x1E2 SWAP2 SWAP1 PUSH2 0x241C JUMP JUMPDEST PUSH1 0x40 MLOAD DUP1 SWAP2 SUB SWAP1 RETURN JUMPDEST PUSH2 0x205 PUSH1 0x4 DUP1 CALLDATASIZE SUB DUP2 ADD SWAP1 PUSH2 0x200 SWAP2 SWAP1 PUSH2 0x239D JUMP JUMPDEST PUSH2 0x17CC JUMP JUMPDEST PUSH1 0x40 MLOAD PUSH2 0x212 SWAP2 SWAP1 PUSH2 0x241C JUMP JUMPDEST PUSH1 0x40 MLOAD DUP1 SWAP2 SUB SWAP1 RETURN JUMPDEST PUSH2 0x223 PUSH2 0x17F7 JUMP JUMPDEST PUSH1 0x40 MLOAD PUSH2 0x230 SWAP2 SWAP1 PUSH2 0x2088 JUMP JUMPDEST PUSH1 0x40 MLOAD DUP1 SWAP2 SUB SWAP1 RETURN JUMPDEST PUSH2 0x253 PUSH1 0x4 DUP1 CALLDATASIZE SUB DUP2 ADD SWAP1 PUSH2 0x24E SWAP2 SWAP1 PUSH2 0x1D0E JUMP JUMPDEST PUSH2 0x1A67 JUMP JUMPDEST PUSH1 0x40 MLOAD PUSH2 0x260 SWAP2 SWAP1 PUSH2 0x2481 JUMP JUMPDEST PUSH1 0x40 MLOAD DUP1 SWAP2 SUB SWAP1 RETURN JUMPDEST PUSH2 0x271 PUSH2 0x1BBB JUMP JUMPDEST PUSH1 0x0 PUSH1 0x1 DUP4 PUSH2 0x280 SWAP2 SWAP1 PUSH2 0x24D2 JUMP JUMPDEST DUP2 SLOAD DUP2 LT PUSH2 0x291 JUMPI PUSH2 0x290 PUSH2 0x2506 JUMP JUMPDEST JUMPDEST SWAP1 PUSH1 0x0 MSTORE PUSH1 0x20 PUSH1 0x0 KECCAK256 SWAP1 PUSH1 0x5 MUL ADD PUSH1 0x40 MLOAD DUP1 PUSH1 0xA0 ADD PUSH1 0x40 MSTORE SWAP1 DUP2 PUSH1 0x0 DUP3 ADD DUP1 SLOAD PUSH2 0x2BA SWAP1 PUSH2 0x2564 JUMP JUMPDEST DUP1 PUSH1 0x1F ADD PUSH1 0x20 DUP1 SWAP2 DIV MUL PUSH1 0x20 ADD PUSH1 0x40 MLOAD SWAP1 DUP2 ADD PUSH1 0x40 MSTORE DUP1 SWAP3 SWAP2 SWAP1 DUP2 DUP2 MSTORE PUSH1 0x20 ADD DUP3 DUP1 SLOAD PUSH2 0x2E6 SWAP1 PUSH2 0x2564 JUMP JUMPDEST DUP1 ISZERO PUSH2 0x333 JUMPI DUP1 PUSH1 0x1F LT PUSH2 0x308 JUMPI PUSH2 0x100 DUP1 DUP4 SLOAD DIV MUL DUP4 MSTORE SWAP2 PUSH1 0x20 ADD SWAP2 PUSH2 0x333 JUMP JUMPDEST DUP3 ADD SWAP2 SWAP1 PUSH1 0x0 MSTORE PUSH1 0x20 PUSH1 0x0 KECCAK256 SWAP1 JUMPDEST DUP2 SLOAD DUP2 MSTORE SWAP1 PUSH1 0x1 ADD SWAP1 PUSH1 0x20 ADD DUP1 DUP4 GT PUSH2 0x316 JUMPI DUP3 SWAP1 SUB PUSH1 0x1F AND DUP3 ADD SWAP2 JUMPDEST POP POP POP POP POP DUP2 MSTORE PUSH1 0x20 ADD PUSH1 0x1 DUP3 ADD SLOAD DUP2 MSTORE PUSH1 0x20 ADD PUSH1 0x2 DUP3 ADD SLOAD DUP2 MSTORE PUSH1 0x20 ADD PUSH1 0x3 DUP3 ADD DUP1 SLOAD PUSH2 0x360 SWAP1 PUSH2 0x2564 JUMP JUMPDEST DUP1 PUSH1 0x1F ADD PUSH1 0x20 DUP1 SWAP2 DIV MUL PUSH1 0x20 ADD PUSH1 0x40 MLOAD SWAP1 DUP2 ADD PUSH1 0x40 MSTORE DUP1 SWAP3 SWAP2 SWAP1 DUP2 DUP2 MSTORE PUSH1 0x20 ADD DUP3 DUP1 SLOAD PUSH2 0x38C SWAP1 PUSH2 0x2564 JUMP JUMPDEST DUP1 ISZERO PUSH2 0x3D9 JUMPI DUP1 PUSH1 0x1F LT PUSH2 0x3AE JUMPI PUSH2 0x100 DUP1 DUP4 SLOAD DIV MUL DUP4 MSTORE SWAP2 PUSH1 0x20 ADD SWAP2 PUSH2 0x3D9 JUMP JUMPDEST DUP3 ADD SWAP2 SWAP1 PUSH1 0x0 MSTORE PUSH1 0x20 PUSH1 0x0 KECCAK256 SWAP1 JUMPDEST DUP2 SLOAD DUP2 MSTORE SWAP1 PUSH1 0x1 ADD SWAP1 PUSH1 0x20 ADD DUP1 DUP4 GT PUSH2 0x3BC JUMPI DUP3 SWAP1 SUB PUSH1 0x1F AND DUP3 ADD SWAP2 JUMPDEST POP POP POP POP POP DUP2 MSTORE PUSH1 0x20 ADD PUSH1 0x4 DUP3 ADD DUP1 SLOAD DUP1 PUSH1 0x20 MUL PUSH1 0x20 ADD PUSH1 0x40 MLOAD SWAP1 DUP2 ADD PUSH1 0x40 MSTORE DUP1 SWAP3 SWAP2 SWAP1 DUP2 DUP2 MSTORE PUSH1 0x20 ADD PUSH1 0x0 SWAP1 JUMPDEST DUP3 DUP3 LT ISZERO PUSH2 0x4B3 JUMPI DUP4 DUP3 SWAP1 PUSH1 0x0 MSTORE PUSH1 0x20 PUSH1 0x0 KECCAK256 ADD DUP1 SLOAD PUSH2 0x426 SWAP1 PUSH2 0x2564 JUMP JUMPDEST DUP1 PUSH1 0x1F ADD PUSH1 0x20 DUP1 SWAP2 DIV MUL PUSH1 0x20 ADD PUSH1 0x40 MLOAD SWAP1 DUP2 ADD PUSH1 0x40 MSTORE DUP1 SWAP3 SWAP2 SWAP1 DUP2 DUP2 MSTORE PUSH1 0x20 ADD DUP3 DUP1 SLOAD PUSH2 0x452 SWAP1 PUSH2 0x2564 JUMP JUMPDEST DUP1 ISZERO PUSH2 0x49F JUMPI DUP1 PUSH1 0x1F LT PUSH2 0x474 JUMPI PUSH2 0x100 DUP1 DUP4 SLOAD DIV MUL DUP4 MSTORE SWAP2 PUSH1 0x20 ADD SWAP2 PUSH2 0x49F JUMP JUMPDEST DUP3 ADD SWAP2 SWAP1 PUSH1 0x0 MSTORE PUSH1 0x20 PUSH1 0x0 KECCAK256 SWAP1 JUMPDEST DUP2 SLOAD DUP2 MSTORE SWAP1 PUSH1 0x1 ADD SWAP1 PUSH1 0x20 ADD DUP1 DUP4 GT PUSH2 0x482 JUMPI DUP3 SWAP1 SUB PUSH1 0x1F AND DUP3 ADD SWAP2 JUMPDEST POP POP POP POP POP DUP2 MSTORE PUSH1 0x20 ADD SWAP1 PUSH1 0x1 ADD SWAP1 PUSH2 0x407 JUMP JUMPDEST POP POP POP POP DUP2 MSTORE POP POP SWAP1 POP SWAP2 SWAP1 POP JUMP JUMPDEST PUSH1 0x60 PUSH1 0x0 DUP1 DUP1 SLOAD DUP1 PUSH1 0x20 MUL PUSH1 0x20 ADD PUSH1 0x40 MLOAD SWAP1 DUP2 ADD PUSH1 0x40 MSTORE DUP1 SWAP3 SWAP2 SWAP1 DUP2 DUP2 MSTORE PUSH1 0x20 ADD PUSH1 0x0 SWAP1 JUMPDEST DUP3 DUP3 LT ISZERO PUSH2 0x72A JUMPI DUP4 DUP3 SWAP1 PUSH1 0x0 MSTORE PUSH1 0x20 PUSH1 0x0 KECCAK256 SWAP1 PUSH1 0x5 MUL ADD PUSH1 0x40 MLOAD DUP1 PUSH1 0xA0 ADD PUSH1 0x40 MSTORE SWAP1 DUP2 PUSH1 0x0 DUP3 ADD DUP1 SLOAD PUSH2 0x51A SWAP1 PUSH2 0x2564 JUMP JUMPDEST DUP1 PUSH1 0x1F ADD PUSH1 0x20 DUP1 SWAP2 DIV MUL PUSH1 0x20 ADD PUSH1 0x40 MLOAD SWAP1 DUP2 ADD PUSH1 0x40 MSTORE DUP1 SWAP3 SWAP2 SWAP1 DUP2 DUP2 MSTORE PUSH1 0x20 ADD DUP3 DUP1 SLOAD PUSH2 0x546 SWAP1 PUSH2 0x2564 JUMP JUMPDEST DUP1 ISZERO PUSH2 0x593 JUMPI DUP1 PUSH1 0x1F LT PUSH2 0x568 JUMPI PUSH2 0x100 DUP1 DUP4 SLOAD DIV MUL DUP4 MSTORE SWAP2 PUSH1 0x20 ADD SWAP2 PUSH2 0x593 JUMP JUMPDEST DUP3 ADD SWAP2 SWAP1 PUSH1 0x0 MSTORE PUSH1 0x20 PUSH1 0x0 KECCAK256 SWAP1 JUMPDEST DUP2 SLOAD DUP2 MSTORE SWAP1 PUSH1 0x1 ADD SWAP1 PUSH1 0x20 ADD DUP1 DUP4 GT PUSH2 0x576 JUMPI DUP3 SWAP1 SUB PUSH1 0x1F AND DUP3 ADD SWAP2 JUMPDEST POP POP POP POP POP DUP2 MSTORE PUSH1 0x20 ADD PUSH1 0x1 DUP3 ADD SLOAD DUP2 MSTORE PUSH1 0x20 ADD PUSH1 0x2 DUP3 ADD SLOAD DUP2 MSTORE PUSH1 0x20 ADD PUSH1 0x3 DUP3 ADD DUP1 SLOAD PUSH2 0x5C0 SWAP1 PUSH2 0x2564 JUMP JUMPDEST DUP1 PUSH1 0x1F ADD PUSH1 0x20 DUP1 SWAP2 DIV MUL PUSH1 0x20 ADD PUSH1 0x40 MLOAD SWAP1 DUP2 ADD PUSH1 0x40 MSTORE DUP1 SWAP3 SWAP2 SWAP1 DUP2 DUP2 MSTORE PUSH1 0x20 ADD DUP3 DUP1 SLOAD PUSH2 0x5EC SWAP1 PUSH2 0x2564 JUMP JUMPDEST DUP1 ISZERO PUSH2 0x639 JUMPI DUP1 PUSH1 0x1F LT PUSH2 0x60E JUMPI PUSH2 0x100 DUP1 DUP4 SLOAD DIV MUL DUP4 MSTORE SWAP2 PUSH1 0x20 ADD SWAP2 PUSH2 0x639 JUMP JUMPDEST DUP3 ADD SWAP2 SWAP1 PUSH1 0x0 MSTORE PUSH1 0x20 PUSH1 0x0 KECCAK256 SWAP1 JUMPDEST DUP2 SLOAD DUP2 MSTORE SWAP1 PUSH1 0x1 ADD SWAP1 PUSH1 0x20 ADD DUP1 DUP4 GT PUSH2 0x61C JUMPI DUP3 SWAP1 SUB PUSH1 0x1F AND DUP3 ADD SWAP2 JUMPDEST POP POP POP POP POP DUP2 MSTORE PUSH1 0x20 ADD PUSH1 0x4 DUP3 ADD DUP1 SLOAD DUP1 PUSH1 0x20 MUL PUSH1 0x20 ADD PUSH1 0x40 MLOAD SWAP1 DUP2 ADD PUSH1 0x40 MSTORE DUP1 SWAP3 SWAP2 SWAP1 DUP2 DUP2 MSTORE PUSH1 0x20 ADD PUSH1 0x0 SWAP1 JUMPDEST DUP3 DUP3 LT ISZERO PUSH2 0x713 JUMPI DUP4 DUP3 SWAP1 PUSH1 0x0 MSTORE PUSH1 0x20 PUSH1 0x0 KECCAK256 ADD DUP1 SLOAD PUSH2 0x686 SWAP1 PUSH2 0x2564 JUMP JUMPDEST DUP1 PUSH1 0x1F ADD PUSH1 0x20 DUP1 SWAP2 DIV MUL PUSH1 0x20 ADD PUSH1 0x40 MLOAD SWAP1 DUP2 ADD PUSH1 0x40 MSTORE DUP1 SWAP3 SWAP2 SWAP1 DUP2 DUP2 MSTORE PUSH1 0x20 ADD DUP3 DUP1 SLOAD PUSH2 0x6B2 SWAP1 PUSH2 0x2564 JUMP JUMPDEST DUP1 ISZERO PUSH2 0x6FF JUMPI DUP1 PUSH1 0x1F LT PUSH2 0x6D4 JUMPI PUSH2 0x100 DUP1 DUP4 SLOAD DIV MUL DUP4 MSTORE SWAP2 PUSH1 0x20 ADD SWAP2 PUSH2 0x6FF JUMP JUMPDEST DUP3 ADD SWAP2 SWAP1 PUSH1 0x0 MSTORE PUSH1 0x20 PUSH1 0x0 KECCAK256 SWAP1 JUMPDEST DUP2 SLOAD DUP2 MSTORE SWAP1 PUSH1 0x1 ADD SWAP1 PUSH1 0x20 ADD DUP1 DUP4 GT PUSH2 0x6E2 JUMPI DUP3 SWAP1 SUB PUSH1 0x1F AND DUP3 ADD SWAP2 JUMPDEST POP POP POP POP POP DUP2 MSTORE PUSH1 0x20 ADD SWAP1 PUSH1 0x1 ADD SWAP1 PUSH2 0x667 JUMP JUMPDEST POP POP POP POP DUP2 MSTORE POP POP DUP2 MSTORE PUSH1 0x20 ADD SWAP1 PUSH1 0x1 ADD SWAP1 PUSH2 0x4E7 JUMP JUMPDEST POP POP POP POP SWAP1 POP PUSH1 0x0 PUSH1 0x4 PUSH8 0xFFFFFFFFFFFFFFFF DUP2 GT ISZERO PUSH2 0x74D JUMPI PUSH2 0x74C PUSH2 0x2101 JUMP JUMPDEST JUMPDEST PUSH1 0x40 MLOAD SWAP1 DUP1 DUP3 MSTORE DUP1 PUSH1 0x20 MUL PUSH1 0x20 ADD DUP3 ADD PUSH1 0x40 MSTORE DUP1 ISZERO PUSH2 0x786 JUMPI DUP2 PUSH1 0x20 ADD JUMPDEST PUSH2 0x773 PUSH2 0x1BBB JUMP JUMPDEST DUP2 MSTORE PUSH1 0x20 ADD SWAP1 PUSH1 0x1 SWAP1 SUB SWAP1 DUP2 PUSH2 0x76B JUMPI SWAP1 POP JUMPDEST POP SWAP1 POP PUSH1 0x0 PUSH1 0x1 SWAP1 POP JUMPDEST DUP3 MLOAD DUP2 LT ISZERO PUSH2 0x882 JUMPI PUSH1 0x0 JUMPDEST DUP2 DUP2 LT ISZERO PUSH2 0x86E JUMPI DUP4 DUP3 DUP2 MLOAD DUP2 LT PUSH2 0x7B7 JUMPI PUSH2 0x7B6 PUSH2 0x2506 JUMP JUMPDEST JUMPDEST PUSH1 0x20 MUL PUSH1 0x20 ADD ADD MLOAD PUSH1 0x40 ADD MLOAD DUP5 DUP3 DUP2 MLOAD DUP2 LT PUSH2 0x7D6 JUMPI PUSH2 0x7D5 PUSH2 0x2506 JUMP JUMPDEST JUMPDEST PUSH1 0x20 MUL PUSH1 0x20 ADD ADD MLOAD PUSH1 0x40 ADD MLOAD LT ISZERO PUSH2 0x85B JUMPI DUP4 DUP3 DUP2 MLOAD DUP2 LT PUSH2 0x7FB JUMPI PUSH2 0x7FA PUSH2 0x2506 JUMP JUMPDEST JUMPDEST PUSH1 0x20 MUL PUSH1 0x20 ADD ADD MLOAD DUP5 DUP3 DUP2 MLOAD DUP2 LT PUSH2 0x816 JUMPI PUSH2 0x815 PUSH2 0x2506 JUMP JUMPDEST JUMPDEST PUSH1 0x20 MUL PUSH1 0x20 ADD ADD MLOAD DUP6 DUP4 DUP2 MLOAD DUP2 LT PUSH2 0x831 JUMPI PUSH2 0x830 PUSH2 0x2506 JUMP JUMPDEST JUMPDEST PUSH1 0x20 MUL PUSH1 0x20 ADD ADD DUP7 DUP6 DUP2 MLOAD DUP2 LT PUSH2 0x84B JUMPI PUSH2 0x84A PUSH2 0x2506 JUMP JUMPDEST JUMPDEST PUSH1 0x20 MUL PUSH1 0x20 ADD ADD DUP3 SWAP1 MSTORE DUP3 SWAP1 MSTORE POP POP JUMPDEST DUP1 DUP1 PUSH2 0x866 SWAP1 PUSH2 0x2595 JUMP JUMPDEST SWAP2 POP POP PUSH2 0x79C JUMP JUMPDEST POP DUP1 DUP1 PUSH2 0x87A SWAP1 PUSH2 0x2595 JUMP JUMPDEST SWAP2 POP POP PUSH2 0x790 JUMP JUMPDEST POP PUSH1 0x0 JUMPDEST PUSH1 0x4 DUP2 LT ISZERO PUSH2 0x8DB JUMPI DUP3 DUP2 DUP2 MLOAD DUP2 LT PUSH2 0x8A2 JUMPI PUSH2 0x8A1 PUSH2 0x2506 JUMP JUMPDEST JUMPDEST PUSH1 0x20 MUL PUSH1 0x20 ADD ADD MLOAD DUP3 DUP3 DUP2 MLOAD DUP2 LT PUSH2 0x8BD JUMPI PUSH2 0x8BC PUSH2 0x2506 JUMP JUMPDEST JUMPDEST PUSH1 0x20 MUL PUSH1 0x20 ADD ADD DUP2 SWAP1 MSTORE POP DUP1 DUP1 PUSH2 0x8D3 SWAP1 PUSH2 0x2595 JUMP JUMPDEST SWAP2 POP POP PUSH2 0x886 JUMP JUMPDEST POP DUP1 SWAP3 POP POP POP SWAP1 JUMP JUMPDEST PUSH1 0x0 DUP1 PUSH1 0x60 PUSH1 0x0 DUP1 DUP1 SLOAD DUP1 PUSH1 0x20 MUL PUSH1 0x20 ADD PUSH1 0x40 MLOAD SWAP1 DUP2 ADD PUSH1 0x40 MSTORE DUP1 SWAP3 SWAP2 SWAP1 DUP2 DUP2 MSTORE PUSH1 0x20 ADD PUSH1 0x0 SWAP1 JUMPDEST DUP3 DUP3 LT ISZERO PUSH2 0xB4F JUMPI DUP4 DUP3 SWAP1 PUSH1 0x0 MSTORE PUSH1 0x20 PUSH1 0x0 KECCAK256 SWAP1 PUSH1 0x5 MUL ADD PUSH1 0x40 MLOAD DUP1 PUSH1 0xA0 ADD PUSH1 0x40 MSTORE SWAP1 DUP2 PUSH1 0x0 DUP3 ADD DUP1 SLOAD PUSH2 0x93F SWAP1 PUSH2 0x2564 JUMP JUMPDEST DUP1 PUSH1 0x1F ADD PUSH1 0x20 DUP1 SWAP2 DIV MUL PUSH1 0x20 ADD PUSH1 0x40 MLOAD SWAP1 DUP2 ADD PUSH1 0x40 MSTORE DUP1 SWAP3 SWAP2 SWAP1 DUP2 DUP2 MSTORE PUSH1 0x20 ADD DUP3 DUP1 SLOAD PUSH2 0x96B SWAP1 PUSH2 0x2564 JUMP JUMPDEST DUP1 ISZERO PUSH2 0x9B8 JUMPI DUP1 PUSH1 0x1F LT PUSH2 0x98D JUMPI PUSH2 0x100 DUP1 DUP4 SLOAD DIV MUL DUP4 MSTORE SWAP2 PUSH1 0x20 ADD SWAP2 PUSH2 0x9B8 JUMP JUMPDEST DUP3 ADD SWAP2 SWAP1 PUSH1 0x0 MSTORE PUSH1 0x20 PUSH1 0x0 KECCAK256 SWAP1 JUMPDEST DUP2 SLOAD DUP2 MSTORE SWAP1 PUSH1 0x1 ADD SWAP1 PUSH1 0x20 ADD DUP1 DUP4 GT PUSH2 0x99B JUMPI DUP3 SWAP1 SUB PUSH1 0x1F AND DUP3 ADD SWAP2 JUMPDEST POP POP POP POP POP DUP2 MSTORE PUSH1 0x20 ADD PUSH1 0x1 DUP3 ADD SLOAD DUP2 MSTORE PUSH1 0x20 ADD PUSH1 0x2 DUP3 ADD SLOAD DUP2 MSTORE PUSH1 0x20 ADD PUSH1 0x3 DUP3 ADD DUP1 SLOAD PUSH2 0x9E5 SWAP1 PUSH2 0x2564 JUMP JUMPDEST DUP1 PUSH1 0x1F ADD PUSH1 0x20 DUP1 SWAP2 DIV MUL PUSH1 0x20 ADD PUSH1 0x40 MLOAD SWAP1 DUP2 ADD PUSH1 0x40 MSTORE DUP1 SWAP3 SWAP2 SWAP1 DUP2 DUP2 MSTORE PUSH1 0x20 ADD DUP3 DUP1 SLOAD PUSH2 0xA11 SWAP1 PUSH2 0x2564 JUMP JUMPDEST DUP1 ISZERO PUSH2 0xA5E JUMPI DUP1 PUSH1 0x1F LT PUSH2 0xA33 JUMPI PUSH2 0x100 DUP1 DUP4 SLOAD DIV MUL DUP4 MSTORE SWAP2 PUSH1 0x20 ADD SWAP2 PUSH2 0xA5E JUMP JUMPDEST DUP3 ADD SWAP2 SWAP1 PUSH1 0x0 MSTORE PUSH1 0x20 PUSH1 0x0 KECCAK256 SWAP1 JUMPDEST DUP2 SLOAD DUP2 MSTORE SWAP1 PUSH1 0x1 ADD SWAP1 PUSH1 0x20 ADD DUP1 DUP4 GT PUSH2 0xA41 JUMPI DUP3 SWAP1 SUB PUSH1 0x1F AND DUP3 ADD SWAP2 JUMPDEST POP POP POP POP POP DUP2 MSTORE PUSH1 0x20 ADD PUSH1 0x4 DUP3 ADD DUP1 SLOAD DUP1 PUSH1 0x20 MUL PUSH1 0x20 ADD PUSH1 0x40 MLOAD SWAP1 DUP2 ADD PUSH1 0x40 MSTORE DUP1 SWAP3 SWAP2 SWAP1 DUP2 DUP2 MSTORE PUSH1 0x20 ADD PUSH1 0x0 SWAP1 JUMPDEST DUP3 DUP3 LT ISZERO PUSH2 0xB38 JUMPI DUP4 DUP3 SWAP1 PUSH1 0x0 MSTORE PUSH1 0x20 PUSH1 0x0 KECCAK256 ADD DUP1 SLOAD PUSH2 0xAAB SWAP1 PUSH2 0x2564 JUMP JUMPDEST DUP1 PUSH1 0x1F ADD PUSH1 0x20 DUP1 SWAP2 DIV MUL PUSH1 0x20 ADD PUSH1 0x40 MLOAD SWAP1 DUP2 ADD PUSH1 0x40 MSTORE DUP1 SWAP3 SWAP2 SWAP1 DUP2 DUP2 MSTORE PUSH1 0x20 ADD DUP3 DUP1 SLOAD PUSH2 0xAD7 SWAP1 PUSH2 0x2564 JUMP JUMPDEST DUP1 ISZERO PUSH2 0xB24 JUMPI DUP1 PUSH1 0x1F LT PUSH2 0xAF9 JUMPI PUSH2 0x100 DUP1 DUP4 SLOAD DIV MUL DUP4 MSTORE SWAP2 PUSH1 0x20 ADD SWAP2 PUSH2 0xB24 JUMP JUMPDEST DUP3 ADD SWAP2 SWAP1 PUSH1 0x0 MSTORE PUSH1 0x20 PUSH1 0x0 KECCAK256 SWAP1 JUMPDEST DUP2 SLOAD DUP2 MSTORE SWAP1 PUSH1 0x1 ADD SWAP1 PUSH1 0x20 ADD DUP1 DUP4 GT PUSH2 0xB07 JUMPI DUP3 SWAP1 SUB PUSH1 0x1F AND DUP3 ADD SWAP2 JUMPDEST POP POP POP POP POP DUP2 MSTORE PUSH1 0x20 ADD SWAP1 PUSH1 0x1 ADD SWAP1 PUSH2 0xA8C JUMP JUMPDEST POP POP POP POP DUP2 MSTORE POP POP DUP2 MSTORE PUSH1 0x20 ADD SWAP1 PUSH1 0x1 ADD SWAP1 PUSH2 0x90C JUMP JUMPDEST POP POP POP POP SWAP1 POP PUSH1 0x60 PUSH1 0x0 DUP1 PUSH1 0x0 SWAP1 POP JUMPDEST PUSH1 0x0 DUP1 SLOAD SWAP1 POP DUP2 LT ISZERO PUSH2 0xF20 JUMPI PUSH1 0x40 MLOAD DUP1 PUSH1 0x40 ADD PUSH1 0x40 MSTORE DUP1 PUSH1 0x1 DUP2 MSTORE PUSH1 0x20 ADD PUSH32 0x4600000000000000000000000000000000000000000000000000000000000000 DUP2 MSTORE POP DUP1 MLOAD SWAP1 PUSH1 0x20 ADD KECCAK256 PUSH1 0x0 DUP3 DUP2 SLOAD DUP2 LT PUSH2 0xBBD JUMPI PUSH2 0xBBC PUSH2 0x2506 JUMP JUMPDEST JUMPDEST SWAP1 PUSH1 0x0 MSTORE PUSH1 0x20 PUSH1 0x0 KECCAK256 SWAP1 PUSH1 0x5 MUL ADD PUSH1 0x3 ADD PUSH1 0x40 MLOAD PUSH2 0xBDB SWAP2 SWAP1 PUSH2 0x2680 JUMP JUMPDEST PUSH1 0x40 MLOAD DUP1 SWAP2 SUB SWAP1 KECCAK256 SUB PUSH2 0xF0D JUMPI DUP2 DUP1 PUSH2 0xBF3 SWAP1 PUSH2 0x2595 JUMP JUMPDEST SWAP3 POP POP PUSH1 0x0 DUP2 DUP2 SLOAD DUP2 LT PUSH2 0xC0A JUMPI PUSH2 0xC09 PUSH2 0x2506 JUMP JUMPDEST JUMPDEST SWAP1 PUSH1 0x0 MSTORE PUSH1 0x20 PUSH1 0x0 KECCAK256 SWAP1 PUSH1 0x5 MUL ADD PUSH1 0x40 MLOAD DUP1 PUSH1 0xA0 ADD PUSH1 0x40 MSTORE SWAP1 DUP2 PUSH1 0x0 DUP3 ADD DUP1 SLOAD PUSH2 0xC33 SWAP1 PUSH2 0x2564 JUMP JUMPDEST DUP1 PUSH1 0x1F ADD PUSH1 0x20 DUP1 SWAP2 DIV MUL PUSH1 0x20 ADD PUSH1 0x40 MLOAD SWAP1 DUP2 ADD PUSH1 0x40 MSTORE DUP1 SWAP3 SWAP2 SWAP1 DUP2 DUP2 MSTORE PUSH1 0x20 ADD DUP3 DUP1 SLOAD PUSH2 0xC5F SWAP1 PUSH2 0x2564 JUMP JUMPDEST DUP1 ISZERO PUSH2 0xCAC JUMPI DUP1 PUSH1 0x1F LT PUSH2 0xC81 JUMPI PUSH2 0x100 DUP1 DUP4 SLOAD DIV MUL DUP4 MSTORE SWAP2 PUSH1 0x20 ADD SWAP2 PUSH2 0xCAC JUMP JUMPDEST DUP3 ADD SWAP2 SWAP1 PUSH1 0x0 MSTORE PUSH1 0x20 PUSH1 0x0 KECCAK256 SWAP1 JUMPDEST DUP2 SLOAD DUP2 MSTORE SWAP1 PUSH1 0x1 ADD SWAP1 PUSH1 0x20 ADD DUP1 DUP4 GT PUSH2 0xC8F JUMPI DUP3 SWAP1 SUB PUSH1 0x1F AND DUP3 ADD SWAP2 JUMPDEST POP POP POP POP POP DUP2 MSTORE PUSH1 0x20 ADD PUSH1 0x1 DUP3 ADD SLOAD DUP2 MSTORE PUSH1 0x20 ADD PUSH1 0x2 DUP3 ADD SLOAD DUP2 MSTORE PUSH1 0x20 ADD PUSH1 0x3 DUP3 ADD DUP1 SLOAD PUSH2 0xCD9 SWAP1 PUSH2 0x2564 JUMP JUMPDEST DUP1 PUSH1 0x1F ADD PUSH1 0x20 DUP1 SWAP2 DIV MUL PUSH1 0x20 ADD PUSH1 0x40 MLOAD SWAP1 DUP2 ADD PUSH1 0x40 MSTORE DUP1 SWAP3 SWAP2 SWAP1 DUP2 DUP2 MSTORE PUSH1 0x20 ADD DUP3 DUP1 SLOAD PUSH2 0xD05 SWAP1 PUSH2 0x2564 JUMP JUMPDEST DUP1 ISZERO PUSH2 0xD52 JUMPI DUP1 PUSH1 0x1F LT PUSH2 0xD27 JUMPI PUSH2 0x100 DUP1 DUP4 SLOAD DIV MUL DUP4 MSTORE SWAP2 PUSH1 0x20 ADD SWAP2 PUSH2 0xD52 JUMP JUMPDEST DUP3 ADD SWAP2 SWAP1 PUSH1 0x0 MSTORE PUSH1 0x20 PUSH1 0x0 KECCAK256 SWAP1 JUMPDEST DUP2 SLOAD DUP2 MSTORE SWAP1 PUSH1 0x1 ADD SWAP1 PUSH1 0x20 ADD DUP1 DUP4 GT PUSH2 0xD35 JUMPI DUP3 SWAP1 SUB PUSH1 0x1F AND DUP3 ADD SWAP2 JUMPDEST POP POP POP POP POP DUP2 MSTORE PUSH1 0x20 ADD PUSH1 0x4 DUP3 ADD DUP1 SLOAD DUP1 PUSH1 0x20 MUL PUSH1 0x20 ADD PUSH1 0x40 MLOAD SWAP1 DUP2 ADD PUSH1 0x40 MSTORE DUP1 SWAP3 SWAP2 SWAP1 DUP2 DUP2 MSTORE PUSH1 0x20 ADD PUSH1 0x0 SWAP1 JUMPDEST DUP3 DUP3 LT ISZERO PUSH2 0xE2C JUMPI DUP4 DUP3 SWAP1 PUSH1 0x0 MSTORE PUSH1 0x20 PUSH1 0x0 KECCAK256 ADD DUP1 SLOAD PUSH2 0xD9F SWAP1 PUSH2 0x2564 JUMP JUMPDEST DUP1 PUSH1 0x1F ADD PUSH1 0x20 DUP1 SWAP2 DIV MUL PUSH1 0x20 ADD PUSH1 0x40 MLOAD SWAP1 DUP2 ADD PUSH1 0x40 MSTORE DUP1 SWAP3 SWAP2 SWAP1 DUP2 DUP2 MSTORE PUSH1 0x20 ADD DUP3 DUP1 SLOAD PUSH2 0xDCB SWAP1 PUSH2 0x2564 JUMP JUMPDEST DUP1 ISZERO PUSH2 0xE18 JUMPI DUP1 PUSH1 0x1F LT PUSH2 0xDED JUMPI PUSH2 0x100 DUP1 DUP4 SLOAD DIV MUL DUP4 MSTORE SWAP2 PUSH1 0x20 ADD SWAP2 PUSH2 0xE18 JUMP JUMPDEST DUP3 ADD SWAP2 SWAP1 PUSH1 0x0 MSTORE PUSH1 0x20 PUSH1 0x0 KECCAK256 SWAP1 JUMPDEST DUP2 SLOAD DUP2 MSTORE SWAP1 PUSH1 0x1 ADD SWAP1 PUSH1 0x20 ADD DUP1 DUP4 GT PUSH2 0xDFB JUMPI DUP3 SWAP1 SUB PUSH1 0x1F AND DUP3 ADD SWAP2 JUMPDEST POP POP POP POP POP DUP2 MSTORE PUSH1 0x20 ADD SWAP1 PUSH1 0x1 ADD SWAP1 PUSH2 0xD80 JUMP JUMPDEST POP POP POP POP DUP2 MSTORE POP POP DUP5 PUSH1 0x1 DUP5 PUSH2 0xE42 SWAP2 SWAP1 PUSH2 0x24D2 JUMP JUMPDEST DUP2 MLOAD DUP2 LT PUSH2 0xE53 JUMPI PUSH2 0xE52 PUSH2 0x2506 JUMP JUMPDEST JUMPDEST PUSH1 0x20 MUL PUSH1 0x20 ADD ADD DUP2 SWAP1 MSTORE POP DUP2 PUSH8 0xFFFFFFFFFFFFFFFF DUP2 GT ISZERO PUSH2 0xE78 JUMPI PUSH2 0xE77 PUSH2 0x2101 JUMP JUMPDEST JUMPDEST PUSH1 0x40 MLOAD SWAP1 DUP1 DUP3 MSTORE DUP1 PUSH1 0x20 MUL PUSH1 0x20 ADD DUP3 ADD PUSH1 0x40 MSTORE DUP1 ISZERO PUSH2 0xEB1 JUMPI DUP2 PUSH1 0x20 ADD JUMPDEST PUSH2 0xE9E PUSH2 0x1BBB JUMP JUMPDEST DUP2 MSTORE PUSH1 0x20 ADD SWAP1 PUSH1 0x1 SWAP1 SUB SWAP1 DUP2 PUSH2 0xE96 JUMPI SWAP1 POP JUMPDEST POP SWAP3 POP PUSH1 0x0 JUMPDEST DUP3 DUP2 LT ISZERO PUSH2 0xF0B JUMPI DUP5 DUP2 DUP2 MLOAD DUP2 LT PUSH2 0xED2 JUMPI PUSH2 0xED1 PUSH2 0x2506 JUMP JUMPDEST JUMPDEST PUSH1 0x20 MUL PUSH1 0x20 ADD ADD MLOAD DUP5 DUP3 DUP2 MLOAD DUP2 LT PUSH2 0xEED JUMPI PUSH2 0xEEC PUSH2 0x2506 JUMP JUMPDEST JUMPDEST PUSH1 0x20 MUL PUSH1 0x20 ADD ADD DUP2 SWAP1 MSTORE POP DUP1 DUP1 PUSH2 0xF03 SWAP1 PUSH2 0x2595 JUMP JUMPDEST SWAP2 POP POP PUSH2 0xEB7 JUMP JUMPDEST POP JUMPDEST DUP1 DUP1 PUSH2 0xF18 SWAP1 PUSH2 0x2595 JUMP JUMPDEST SWAP2 POP POP PUSH2 0xB5F JUMP JUMPDEST POP DUP2 MLOAD DUP2 DUP4 SWAP6 POP SWAP6 POP SWAP6 POP POP POP POP SWAP1 SWAP2 SWAP3 JUMP JUMPDEST PUSH1 0x0 PUSH1 0x40 MLOAD DUP1 PUSH1 0xA0 ADD PUSH1 0x40 MSTORE DUP1 DUP6 DUP2 MSTORE PUSH1 0x20 ADD PUSH1 0x1 PUSH1 0x0 DUP1 SLOAD SWAP1 POP PUSH2 0xF58 SWAP2 SWAP1 PUSH2 0x2697 JUMP JUMPDEST DUP2 MSTORE PUSH1 0x20 ADD DUP5 DUP2 MSTORE PUSH1 0x20 ADD PUSH2 0xF6C DUP6 PUSH2 0x1A67 JUMP JUMPDEST DUP2 MSTORE PUSH1 0x20 ADD DUP4 DUP2 MSTORE POP SWAP1 DUP1 PUSH1 0x1 DUP2 SLOAD ADD DUP1 DUP3 SSTORE DUP1 SWAP2 POP POP PUSH1 0x1 SWAP1 SUB SWAP1 PUSH1 0x0 MSTORE PUSH1 0x20 PUSH1 0x0 KECCAK256 SWAP1 PUSH1 0x5 MUL ADD PUSH1 0x0 SWAP1 SWAP2 SWAP1 SWAP2 SWAP1 SWAP2 POP PUSH1 0x0 DUP3 ADD MLOAD DUP2 PUSH1 0x0 ADD SWAP1 DUP2 PUSH2 0xFB3 SWAP2 SWAP1 PUSH2 0x2877 JUMP JUMPDEST POP PUSH1 0x20 DUP3 ADD MLOAD DUP2 PUSH1 0x1 ADD SSTORE PUSH1 0x40 DUP3 ADD MLOAD DUP2 PUSH1 0x2 ADD SSTORE PUSH1 0x60 DUP3 ADD MLOAD DUP2 PUSH1 0x3 ADD SWAP1 DUP2 PUSH2 0xFDD SWAP2 SWAP1 PUSH2 0x2877 JUMP JUMPDEST POP PUSH1 0x80 DUP3 ADD MLOAD DUP2 PUSH1 0x4 ADD SWAP1 DUP1 MLOAD SWAP1 PUSH1 0x20 ADD SWAP1 PUSH2 0xFFA SWAP3 SWAP2 SWAP1 PUSH2 0x1BEA JUMP JUMPDEST POP POP POP PUSH1 0x40 MLOAD DUP1 PUSH1 0xA0 ADD PUSH1 0x40 MSTORE DUP1 DUP5 DUP2 MSTORE PUSH1 0x20 ADD PUSH1 0x0 DUP1 SLOAD SWAP1 POP DUP2 MSTORE PUSH1 0x20 ADD DUP4 DUP2 MSTORE PUSH1 0x20 ADD PUSH2 0x1028 DUP5 PUSH2 0x1A67 JUMP JUMPDEST DUP2 MSTORE PUSH1 0x20 ADD DUP3 DUP2 MSTORE POP PUSH1 0x1 DUP5 PUSH1 0x40 MLOAD PUSH2 0x1041 SWAP2 SWAP1 PUSH2 0x2985 JUMP JUMPDEST SWAP1 DUP2 MSTORE PUSH1 0x20 ADD PUSH1 0x40 MLOAD DUP1 SWAP2 SUB SWAP1 KECCAK256 PUSH1 0x0 DUP3 ADD MLOAD DUP2 PUSH1 0x0 ADD SWAP1 DUP2 PUSH2 0x1064 SWAP2 SWAP1 PUSH2 0x2877 JUMP JUMPDEST POP PUSH1 0x20 DUP3 ADD MLOAD DUP2 PUSH1 0x1 ADD SSTORE PUSH1 0x40 DUP3 ADD MLOAD DUP2 PUSH1 0x2 ADD SSTORE PUSH1 0x60 DUP3 ADD MLOAD DUP2 PUSH1 0x3 ADD SWAP1 DUP2 PUSH2 0x108E SWAP2 SWAP1 PUSH2 0x2877 JUMP JUMPDEST POP PUSH1 0x80 DUP3 ADD MLOAD DUP2 PUSH1 0x4 ADD SWAP1 DUP1 MLOAD SWAP1 PUSH1 0x20 ADD SWAP1 PUSH2 0x10AB SWAP3 SWAP2 SWAP1 PUSH2 0x1BEA JUMP JUMPDEST POP SWAP1 POP POP POP POP POP JUMP JUMPDEST PUSH1 0x60 PUSH1 0x0 DUP1 PUSH1 0x0 SWAP1 POP JUMPDEST PUSH1 0x0 DUP1 SLOAD SWAP1 POP DUP2 LT ISZERO PUSH2 0x1169 JUMPI PUSH1 0x40 MLOAD DUP1 PUSH1 0x40 ADD PUSH1 0x40 MSTORE DUP1 PUSH1 0x1 DUP2 MSTORE PUSH1 0x20 ADD PUSH32 0x4600000000000000000000000000000000000000000000000000000000000000 DUP2 MSTORE POP DUP1 MLOAD SWAP1 PUSH1 0x20 ADD KECCAK256 PUSH1 0x0 DUP3 DUP2 SLOAD DUP2 LT PUSH2 0x111C JUMPI PUSH2 0x111B PUSH2 0x2506 JUMP JUMPDEST JUMPDEST SWAP1 PUSH1 0x0 MSTORE PUSH1 0x20 PUSH1 0x0 KECCAK256 SWAP1 PUSH1 0x5 MUL ADD PUSH1 0x3 ADD PUSH1 0x40 MLOAD PUSH2 0x113A SWAP2 SWAP1 PUSH2 0x2680 JUMP JUMPDEST PUSH1 0x40 MLOAD DUP1 SWAP2 SUB SWAP1 KECCAK256 SUB PUSH2 0x1156 JUMPI DUP2 DUP1 PUSH2 0x1152 SWAP1 PUSH2 0x2595 JUMP JUMPDEST SWAP3 POP POP JUMPDEST DUP1 DUP1 PUSH2 0x1161 SWAP1 PUSH2 0x2595 JUMP JUMPDEST SWAP2 POP POP PUSH2 0x10BE JUMP JUMPDEST POP PUSH1 0x0 DUP2 PUSH8 0xFFFFFFFFFFFFFFFF DUP2 GT ISZERO PUSH2 0x1186 JUMPI PUSH2 0x1185 PUSH2 0x2101 JUMP JUMPDEST JUMPDEST PUSH1 0x40 MLOAD SWAP1 DUP1 DUP3 MSTORE DUP1 PUSH1 0x20 MUL PUSH1 0x20 ADD DUP3 ADD PUSH1 0x40 MSTORE DUP1 ISZERO PUSH2 0x11BF JUMPI DUP2 PUSH1 0x20 ADD JUMPDEST PUSH2 0x11AC PUSH2 0x1BBB JUMP JUMPDEST DUP2 MSTORE PUSH1 0x20 ADD SWAP1 PUSH1 0x1 SWAP1 SUB SWAP1 DUP2 PUSH2 0x11A4 JUMPI SWAP1 POP JUMPDEST POP SWAP1 POP PUSH1 0x0 DUP1 PUSH1 0x0 SWAP1 POP JUMPDEST PUSH1 0x0 DUP1 SLOAD SWAP1 POP DUP2 LT ISZERO PUSH2 0x14D1 JUMPI PUSH1 0x40 MLOAD DUP1 PUSH1 0x40 ADD PUSH1 0x40 MSTORE DUP1 PUSH1 0x1 DUP2 MSTORE PUSH1 0x20 ADD PUSH32 0x4600000000000000000000000000000000000000000000000000000000000000 DUP2 MSTORE POP DUP1 MLOAD SWAP1 PUSH1 0x20 ADD KECCAK256 PUSH1 0x0 DUP3 DUP2 SLOAD DUP2 LT PUSH2 0x1228 JUMPI PUSH2 0x1227 PUSH2 0x2506 JUMP JUMPDEST JUMPDEST SWAP1 PUSH1 0x0 MSTORE PUSH1 0x20 PUSH1 0x0 KECCAK256 SWAP1 PUSH1 0x5 MUL ADD PUSH1 0x3 ADD PUSH1 0x40 MLOAD PUSH2 0x1246 SWAP2 SWAP1 PUSH2 0x2680 JUMP JUMPDEST PUSH1 0x40 MLOAD DUP1 SWAP2 SUB SWAP1 KECCAK256 SUB PUSH2 0x14BE JUMPI PUSH1 0x0 DUP2 DUP2 SLOAD DUP2 LT PUSH2 0x1267 JUMPI PUSH2 0x1266 PUSH2 0x2506 JUMP JUMPDEST JUMPDEST SWAP1 PUSH1 0x0 MSTORE PUSH1 0x20 PUSH1 0x0 KECCAK256 SWAP1 PUSH1 0x5 MUL ADD PUSH1 0x40 MLOAD DUP1 PUSH1 0xA0 ADD PUSH1 0x40 MSTORE SWAP1 DUP2 PUSH1 0x0 DUP3 ADD DUP1 SLOAD PUSH2 0x1290 SWAP1 PUSH2 0x2564 JUMP JUMPDEST DUP1 PUSH1 0x1F ADD PUSH1 0x20 DUP1 SWAP2 DIV MUL PUSH1 0x20 ADD PUSH1 0x40 MLOAD SWAP1 DUP2 ADD PUSH1 0x40 MSTORE DUP1 SWAP3 SWAP2 SWAP1 DUP2 DUP2 MSTORE PUSH1 0x20 ADD DUP3 DUP1 SLOAD PUSH2 0x12BC SWAP1 PUSH2 0x2564 JUMP JUMPDEST DUP1 ISZERO PUSH2 0x1309 JUMPI DUP1 PUSH1 0x1F LT PUSH2 0x12DE JUMPI PUSH2 0x100 DUP1 DUP4 SLOAD DIV MUL DUP4 MSTORE SWAP2 PUSH1 0x20 ADD SWAP2 PUSH2 0x1309 JUMP JUMPDEST DUP3 ADD SWAP2 SWAP1 PUSH1 0x0 MSTORE PUSH1 0x20 PUSH1 0x0 KECCAK256 SWAP1 JUMPDEST DUP2 SLOAD DUP2 MSTORE SWAP1 PUSH1 0x1 ADD SWAP1 PUSH1 0x20 ADD DUP1 DUP4 GT PUSH2 0x12EC JUMPI DUP3 SWAP1 SUB PUSH1 0x1F AND DUP3 ADD SWAP2 JUMPDEST POP POP POP POP POP DUP2 MSTORE PUSH1 0x20 ADD PUSH1 0x1 DUP3 ADD SLOAD DUP2 MSTORE PUSH1 0x20 ADD PUSH1 0x2 DUP3 ADD SLOAD DUP2 MSTORE PUSH1 0x20 ADD PUSH1 0x3 DUP3 ADD DUP1 SLOAD PUSH2 0x1336 SWAP1 PUSH2 0x2564 JUMP JUMPDEST DUP1 PUSH1 0x1F ADD PUSH1 0x20 DUP1 SWAP2 DIV MUL PUSH1 0x20 ADD PUSH1 0x40 MLOAD SWAP1 DUP2 ADD PUSH1 0x40 MSTORE DUP1 SWAP3 SWAP2 SWAP1 DUP2 DUP2 MSTORE PUSH1 0x20 ADD DUP3 DUP1 SLOAD PUSH2 0x1362 SWAP1 PUSH2 0x2564 JUMP JUMPDEST DUP1 ISZERO PUSH2 0x13AF JUMPI DUP1 PUSH1 0x1F LT PUSH2 0x1384 JUMPI PUSH2 0x100 DUP1 DUP4 SLOAD DIV MUL DUP4 MSTORE SWAP2 PUSH1 0x20 ADD SWAP2 PUSH2 0x13AF JUMP JUMPDEST DUP3 ADD SWAP2 SWAP1 PUSH1 0x0 MSTORE PUSH1 0x20 PUSH1 0x0 KECCAK256 SWAP1 JUMPDEST DUP2 SLOAD DUP2 MSTORE SWAP1 PUSH1 0x1 ADD SWAP1 PUSH1 0x20 ADD DUP1 DUP4 GT PUSH2 0x1392 JUMPI DUP3 SWAP1 SUB PUSH1 0x1F AND DUP3 ADD SWAP2 JUMPDEST POP POP POP POP POP DUP2 MSTORE PUSH1 0x20 ADD PUSH1 0x4 DUP3 ADD DUP1 SLOAD DUP1 PUSH1 0x20 MUL PUSH1 0x20 ADD PUSH1 0x40 MLOAD SWAP1 DUP2 ADD PUSH1 0x40 MSTORE DUP1 SWAP3 SWAP2 SWAP1 DUP2 DUP2 MSTORE PUSH1 0x20 ADD PUSH1 0x0 SWAP1 JUMPDEST DUP3 DUP3 LT ISZERO PUSH2 0x1489 JUMPI DUP4 DUP3 SWAP1 PUSH1 0x0 MSTORE PUSH1 0x20 PUSH1 0x0 KECCAK256 ADD DUP1 SLOAD PUSH2 0x13FC SWAP1 PUSH2 0x2564 JUMP JUMPDEST DUP1 PUSH1 0x1F ADD PUSH1 0x20 DUP1 SWAP2 DIV MUL PUSH1 0x20 ADD PUSH1 0x40 MLOAD SWAP1 DUP2 ADD PUSH1 0x40 MSTORE DUP1 SWAP3 SWAP2 SWAP1 DUP2 DUP2 MSTORE PUSH1 0x20 ADD DUP3 DUP1 SLOAD PUSH2 0x1428 SWAP1 PUSH2 0x2564 JUMP JUMPDEST DUP1 ISZERO PUSH2 0x1475 JUMPI DUP1 PUSH1 0x1F LT PUSH2 0x144A JUMPI PUSH2 0x100 DUP1 DUP4 SLOAD DIV MUL DUP4 MSTORE SWAP2 PUSH1 0x20 ADD SWAP2 PUSH2 0x1475 JUMP JUMPDEST DUP3 ADD SWAP2 SWAP1 PUSH1 0x0 MSTORE PUSH1 0x20 PUSH1 0x0 KECCAK256 SWAP1 JUMPDEST DUP2 SLOAD DUP2 MSTORE SWAP1 PUSH1 0x1 ADD SWAP1 PUSH1 0x20 ADD DUP1 DUP4 GT PUSH2 0x1458 JUMPI DUP3 SWAP1 SUB PUSH1 0x1F AND DUP3 ADD SWAP2 JUMPDEST POP POP POP POP POP DUP2 MSTORE PUSH1 0x20 ADD SWAP1 PUSH1 0x1 ADD SWAP1 PUSH2 0x13DD JUMP JUMPDEST POP POP POP POP DUP2 MSTORE POP POP DUP4 DUP4 DUP2 MLOAD DUP2 LT PUSH2 0x14A4 JUMPI PUSH2 0x14A3 PUSH2 0x2506 JUMP JUMPDEST JUMPDEST PUSH1 0x20 MUL PUSH1 0x20 ADD ADD DUP2 SWAP1 MSTORE POP DUP2 DUP1 PUSH2 0x14BA SWAP1 PUSH2 0x2595 JUMP JUMPDEST SWAP3 POP POP JUMPDEST DUP1 DUP1 PUSH2 0x14C9 SWAP1 PUSH2 0x2595 JUMP JUMPDEST SWAP2 POP POP PUSH2 0x11CA JUMP JUMPDEST POP DUP2 SWAP4 POP POP POP POP SWAP1 JUMP JUMPDEST PUSH2 0x14E3 PUSH2 0x1BBB JUMP JUMPDEST PUSH1 0x1 DUP3 PUSH1 0x40 MLOAD PUSH2 0x14F3 SWAP2 SWAP1 PUSH2 0x2985 JUMP JUMPDEST SWAP1 DUP2 MSTORE PUSH1 0x20 ADD PUSH1 0x40 MLOAD DUP1 SWAP2 SUB SWAP1 KECCAK256 PUSH1 0x40 MLOAD DUP1 PUSH1 0xA0 ADD PUSH1 0x40 MSTORE SWAP1 DUP2 PUSH1 0x0 DUP3 ADD DUP1 SLOAD PUSH2 0x151C SWAP1 PUSH2 0x2564 JUMP JUMPDEST DUP1 PUSH1 0x1F ADD PUSH1 0x20 DUP1 SWAP2 DIV MUL PUSH1 0x20 ADD PUSH1 0x40 MLOAD SWAP1 DUP2 ADD PUSH1 0x40 MSTORE DUP1 SWAP3 SWAP2 SWAP1 DUP2 DUP2 MSTORE PUSH1 0x20 ADD DUP3 DUP1 SLOAD PUSH2 0x1548 SWAP1 PUSH2 0x2564 JUMP JUMPDEST DUP1 ISZERO PUSH2 0x1595 JUMPI DUP1 PUSH1 0x1F LT PUSH2 0x156A JUMPI PUSH2 0x100 DUP1 DUP4 SLOAD DIV MUL DUP4 MSTORE SWAP2 PUSH1 0x20 ADD SWAP2 PUSH2 0x1595 JUMP JUMPDEST DUP3 ADD SWAP2 SWAP1 PUSH1 0x0 MSTORE PUSH1 0x20 PUSH1 0x0 KECCAK256 SWAP1 JUMPDEST DUP2 SLOAD DUP2 MSTORE SWAP1 PUSH1 0x1 ADD SWAP1 PUSH1 0x20 ADD DUP1 DUP4 GT PUSH2 0x1578 JUMPI DUP3 SWAP1 SUB PUSH1 0x1F AND DUP3 ADD SWAP2 JUMPDEST POP POP POP POP POP DUP2 MSTORE PUSH1 0x20 ADD PUSH1 0x1 DUP3 ADD SLOAD DUP2 MSTORE PUSH1 0x20 ADD PUSH1 0x2 DUP3 ADD SLOAD DUP2 MSTORE PUSH1 0x20 ADD PUSH1 0x3 DUP3 ADD DUP1 SLOAD PUSH2 0x15C2 SWAP1 PUSH2 0x2564 JUMP JUMPDEST DUP1 PUSH1 0x1F ADD PUSH1 0x20 DUP1 SWAP2 DIV MUL PUSH1 0x20 ADD PUSH1 0x40 MLOAD SWAP1 DUP2 ADD PUSH1 0x40 MSTORE DUP1 SWAP3 SWAP2 SWAP1 DUP2 DUP2 MSTORE PUSH1 0x20 ADD DUP3 DUP1 SLOAD PUSH2 0x15EE SWAP1 PUSH2 0x2564 JUMP JUMPDEST DUP1 ISZERO PUSH2 0x163B JUMPI DUP1 PUSH1 0x1F LT PUSH2 0x1610 JUMPI PUSH2 0x100 DUP1 DUP4 SLOAD DIV MUL DUP4 MSTORE SWAP2 PUSH1 0x20 ADD SWAP2 PUSH2 0x163B JUMP JUMPDEST DUP3 ADD SWAP2 SWAP1 PUSH1 0x0 MSTORE PUSH1 0x20 PUSH1 0x0 KECCAK256 SWAP1 JUMPDEST DUP2 SLOAD DUP2 MSTORE SWAP1 PUSH1 0x1 ADD SWAP1 PUSH1 0x20 ADD DUP1 DUP4 GT PUSH2 0x161E JUMPI DUP3 SWAP1 SUB PUSH1 0x1F AND DUP3 ADD SWAP2 JUMPDEST POP POP POP POP POP DUP2 MSTORE PUSH1 0x20 ADD PUSH1 0x4 DUP3 ADD DUP1 SLOAD DUP1 PUSH1 0x20 MUL PUSH1 0x20 ADD PUSH1 0x40 MLOAD SWAP1 DUP2 ADD PUSH1 0x40 MSTORE DUP1 SWAP3 SWAP2 SWAP1 DUP2 DUP2 MSTORE PUSH1 0x20 ADD PUSH1 0x0 SWAP1 JUMPDEST DUP3 DUP3 LT ISZERO PUSH2 0x1715 JUMPI DUP4 DUP3 SWAP1 PUSH1 0x0 MSTORE PUSH1 0x20 PUSH1 0x0 KECCAK256 ADD DUP1 SLOAD PUSH2 0x1688 SWAP1 PUSH2 0x2564 JUMP JUMPDEST DUP1 PUSH1 0x1F ADD PUSH1 0x20 DUP1 SWAP2 DIV MUL PUSH1 0x20 ADD PUSH1 0x40 MLOAD SWAP1 DUP2 ADD PUSH1 0x40 MSTORE DUP1 SWAP3 SWAP2 SWAP1 DUP2 DUP2 MSTORE PUSH1 0x20 ADD DUP3 DUP1 SLOAD PUSH2 0x16B4 SWAP1 PUSH2 0x2564 JUMP JUMPDEST DUP1 ISZERO PUSH2 0x1701 JUMPI DUP1 PUSH1 0x1F LT PUSH2 0x16D6 JUMPI PUSH2 0x100 DUP1 DUP4 SLOAD DIV MUL DUP4 MSTORE SWAP2 PUSH1 0x20 ADD SWAP2 PUSH2 0x1701 JUMP JUMPDEST DUP3 ADD SWAP2 SWAP1 PUSH1 0x0 MSTORE PUSH1 0x20 PUSH1 0x0 KECCAK256 SWAP1 JUMPDEST DUP2 SLOAD DUP2 MSTORE SWAP1 PUSH1 0x1 ADD SWAP1 PUSH1 0x20 ADD DUP1 DUP4 GT PUSH2 0x16E4 JUMPI DUP3 SWAP1 SUB PUSH1 0x1F AND DUP3 ADD SWAP2 JUMPDEST POP POP POP POP POP DUP2 MSTORE PUSH1 0x20 ADD SWAP1 PUSH1 0x1 ADD SWAP1 PUSH2 0x1669 JUMP JUMPDEST POP POP POP POP DUP2 MSTORE POP POP SWAP1 POP SWAP2 SWAP1 POP JUMP JUMPDEST PUSH1 0x0 PUSH1 0x46 PUSH2 0x1730 PUSH2 0x1752 JUMP JUMPDEST LT PUSH2 0x173E JUMPI PUSH1 0x1 SWAP1 POP PUSH2 0x1743 JUMP JUMPDEST PUSH1 0x0 SWAP1 POP JUMPDEST SWAP1 JUMP JUMPDEST PUSH1 0x0 DUP1 DUP1 SLOAD SWAP1 POP SWAP1 POP SWAP1 JUMP JUMPDEST PUSH1 0x0 DUP1 PUSH1 0x0 DUP1 PUSH1 0x0 SWAP1 POP JUMPDEST PUSH1 0x0 DUP1 SLOAD SWAP1 POP DUP2 LT ISZERO PUSH2 0x17B0 JUMPI PUSH1 0x0 DUP2 DUP2 SLOAD DUP2 LT PUSH2 0x177E JUMPI PUSH2 0x177D PUSH2 0x2506 JUMP JUMPDEST JUMPDEST SWAP1 PUSH1 0x0 MSTORE PUSH1 0x20 PUSH1 0x0 KECCAK256 SWAP1 PUSH1 0x5 MUL ADD PUSH1 0x2 ADD SLOAD DUP4 PUSH2 0x179B SWAP2 SWAP1 PUSH2 0x2697 JUMP JUMPDEST SWAP3 POP DUP1 DUP1 PUSH2 0x17A8 SWAP1 PUSH2 0x2595 JUMP JUMPDEST SWAP2 POP POP PUSH2 0x175D JUMP JUMPDEST POP PUSH1 0x0 DUP1 SLOAD SWAP1 POP DUP3 PUSH2 0x17C2 SWAP2 SWAP1 PUSH2 0x29CB JUMP JUMPDEST SWAP1 POP DUP1 SWAP3 POP POP POP SWAP1 JUMP JUMPDEST PUSH1 0x0 PUSH1 0x1 DUP3 PUSH1 0x40 MLOAD PUSH2 0x17DE SWAP2 SWAP1 PUSH2 0x2985 JUMP JUMPDEST SWAP1 DUP2 MSTORE PUSH1 0x20 ADD PUSH1 0x40 MLOAD DUP1 SWAP2 SUB SWAP1 KECCAK256 PUSH1 0x2 ADD SLOAD SWAP1 POP SWAP2 SWAP1 POP JUMP JUMPDEST PUSH1 0x60 PUSH1 0x0 DUP1 SLOAD DUP1 PUSH1 0x20 MUL PUSH1 0x20 ADD PUSH1 0x40 MLOAD SWAP1 DUP2 ADD PUSH1 0x40 MSTORE DUP1 SWAP3 SWAP2 SWAP1 DUP2 DUP2 MSTORE PUSH1 0x20 ADD PUSH1 0x0 SWAP1 JUMPDEST DUP3 DUP3 LT ISZERO PUSH2 0x1A5E JUMPI DUP4 DUP3 SWAP1 PUSH1 0x0 MSTORE PUSH1 0x20 PUSH1 0x0 KECCAK256 SWAP1 PUSH1 0x5 MUL ADD PUSH1 0x40 MLOAD DUP1 PUSH1 0xA0 ADD PUSH1 0x40 MSTORE SWAP1 DUP2 PUSH1 0x0 DUP3 ADD DUP1 SLOAD PUSH2 0x184E SWAP1 PUSH2 0x2564 JUMP JUMPDEST DUP1 PUSH1 0x1F ADD PUSH1 0x20 DUP1 SWAP2 DIV MUL PUSH1 0x20 ADD PUSH1 0x40 MLOAD SWAP1 DUP2 ADD PUSH1 0x40 MSTORE DUP1 SWAP3 SWAP2 SWAP1 DUP2 DUP2 MSTORE PUSH1 0x20 ADD DUP3 DUP1 SLOAD PUSH2 0x187A SWAP1 PUSH2 0x2564 JUMP JUMPDEST DUP1 ISZERO PUSH2 0x18C7 JUMPI DUP1 PUSH1 0x1F LT PUSH2 0x189C JUMPI PUSH2 0x100 DUP1 DUP4 SLOAD DIV MUL DUP4 MSTORE SWAP2 PUSH1 0x20 ADD SWAP2 PUSH2 0x18C7 JUMP JUMPDEST DUP3 ADD SWAP2 SWAP1 PUSH1 0x0 MSTORE PUSH1 0x20 PUSH1 0x0 KECCAK256 SWAP1 JUMPDEST DUP2 SLOAD DUP2 MSTORE SWAP1 PUSH1 0x1 ADD SWAP1 PUSH1 0x20 ADD DUP1 DUP4 GT PUSH2 0x18AA JUMPI DUP3 SWAP1 SUB PUSH1 0x1F AND DUP3 ADD SWAP2 JUMPDEST POP POP POP POP POP DUP2 MSTORE PUSH1 0x20 ADD PUSH1 0x1 DUP3 ADD SLOAD DUP2 MSTORE PUSH1 0x20 ADD PUSH1 0x2 DUP3 ADD SLOAD DUP2 MSTORE PUSH1 0x20 ADD PUSH1 0x3 DUP3 ADD DUP1 SLOAD PUSH2 0x18F4 SWAP1 PUSH2 0x2564 JUMP JUMPDEST DUP1 PUSH1 0x1F ADD PUSH1 0x20 DUP1 SWAP2 DIV MUL PUSH1 0x20 ADD PUSH1 0x40 MLOAD SWAP1 DUP2 ADD PUSH1 0x40 MSTORE DUP1 SWAP3 SWAP2 SWAP1 DUP2 DUP2 MSTORE PUSH1 0x20 ADD DUP3 DUP1 SLOAD PUSH2 0x1920 SWAP1 PUSH2 0x2564 JUMP JUMPDEST DUP1 ISZERO PUSH2 0x196D JUMPI DUP1 PUSH1 0x1F LT PUSH2 0x1942 JUMPI PUSH2 0x100 DUP1 DUP4 SLOAD DIV MUL DUP4 MSTORE SWAP2 PUSH1 0x20 ADD SWAP2 PUSH2 0x196D JUMP JUMPDEST DUP3 ADD SWAP2 SWAP1 PUSH1 0x0 MSTORE PUSH1 0x20 PUSH1 0x0 KECCAK256 SWAP1 JUMPDEST DUP2 SLOAD DUP2 MSTORE SWAP1 PUSH1 0x1 ADD SWAP1 PUSH1 0x20 ADD DUP1 DUP4 GT PUSH2 0x1950 JUMPI DUP3 SWAP1 SUB PUSH1 0x1F AND DUP3 ADD SWAP2 JUMPDEST POP POP POP POP POP DUP2 MSTORE PUSH1 0x20 ADD PUSH1 0x4 DUP3 ADD DUP1 SLOAD DUP1 PUSH1 0x20 MUL PUSH1 0x20 ADD PUSH1 0x40 MLOAD SWAP1 DUP2 ADD PUSH1 0x40 MSTORE DUP1 SWAP3 SWAP2 SWAP1 DUP2 DUP2 MSTORE PUSH1 0x20 ADD PUSH1 0x0 SWAP1 JUMPDEST DUP3 DUP3 LT ISZERO PUSH2 0x1A47 JUMPI DUP4 DUP3 SWAP1 PUSH1 0x0 MSTORE PUSH1 0x20 PUSH1 0x0 KECCAK256 ADD DUP1 SLOAD PUSH2 0x19BA SWAP1 PUSH2 0x2564 JUMP JUMPDEST DUP1 PUSH1 0x1F ADD PUSH1 0x20 DUP1 SWAP2 DIV MUL PUSH1 0x20 ADD PUSH1 0x40 MLOAD SWAP1 DUP2 ADD PUSH1 0x40 MSTORE DUP1 SWAP3 SWAP2 SWAP1 DUP2 DUP2 MSTORE PUSH1 0x20 ADD DUP3 DUP1 SLOAD PUSH2 0x19E6 SWAP1 PUSH2 0x2564 JUMP JUMPDEST DUP1 ISZERO PUSH2 0x1A33 JUMPI DUP1 PUSH1 0x1F LT PUSH2 0x1A08 JUMPI PUSH2 0x100 DUP1 DUP4 SLOAD DIV MUL DUP4 MSTORE SWAP2 PUSH1 0x20 ADD SWAP2 PUSH2 0x1A33 JUMP JUMPDEST DUP3 ADD SWAP2 SWAP1 PUSH1 0x0 MSTORE PUSH1 0x20 PUSH1 0x0 KECCAK256 SWAP1 JUMPDEST DUP2 SLOAD DUP2 MSTORE SWAP1 PUSH1 0x1 ADD SWAP1 PUSH1 0x20 ADD DUP1 DUP4 GT PUSH2 0x1A16 JUMPI DUP3 SWAP1 SUB PUSH1 0x1F AND DUP3 ADD SWAP2 JUMPDEST POP POP POP POP POP DUP2 MSTORE PUSH1 0x20 ADD SWAP1 PUSH1 0x1 ADD SWAP1 PUSH2 0x199B JUMP JUMPDEST POP POP POP POP DUP2 MSTORE POP POP DUP2 MSTORE PUSH1 0x20 ADD SWAP1 PUSH1 0x1 ADD SWAP1 PUSH2 0x181B JUMP JUMPDEST POP POP POP POP SWAP1 POP SWAP1 JUMP JUMPDEST PUSH1 0x60 PUSH1 0x5A DUP3 LT PUSH2 0x1AAE JUMPI PUSH1 0x40 MLOAD DUP1 PUSH1 0x40 ADD PUSH1 0x40 MSTORE DUP1 PUSH1 0x1 DUP2 MSTORE PUSH1 0x20 ADD PUSH32 0x4100000000000000000000000000000000000000000000000000000000000000 DUP2 MSTORE POP SWAP1 POP PUSH2 0x1BB6 JUMP JUMPDEST PUSH1 0x50 DUP3 LT PUSH2 0x1AF3 JUMPI PUSH1 0x40 MLOAD DUP1 PUSH1 0x40 ADD PUSH1 0x40 MSTORE DUP1 PUSH1 0x1 DUP2 MSTORE PUSH1 0x20 ADD PUSH32 0x4200000000000000000000000000000000000000000000000000000000000000 DUP2 MSTORE POP SWAP1 POP PUSH2 0x1BB6 JUMP JUMPDEST PUSH1 0x46 DUP3 LT PUSH2 0x1B38 JUMPI PUSH1 0x40 MLOAD DUP1 PUSH1 0x40 ADD PUSH1 0x40 MSTORE DUP1 PUSH1 0x1 DUP2 MSTORE PUSH1 0x20 ADD PUSH32 0x4300000000000000000000000000000000000000000000000000000000000000 DUP2 MSTORE POP SWAP1 POP PUSH2 0x1BB6 JUMP JUMPDEST PUSH1 0x3C DUP3 LT PUSH2 0x1B7D JUMPI PUSH1 0x40 MLOAD DUP1 PUSH1 0x40 ADD PUSH1 0x40 MSTORE DUP1 PUSH1 0x1 DUP2 MSTORE PUSH1 0x20 ADD PUSH32 0x4400000000000000000000000000000000000000000000000000000000000000 DUP2 MSTORE POP SWAP1 POP PUSH2 0x1BB6 JUMP JUMPDEST PUSH1 0x40 MLOAD DUP1 PUSH1 0x40 ADD PUSH1 0x40 MSTORE DUP1 PUSH1 0x1 DUP2 MSTORE PUSH1 0x20 ADD PUSH32 0x4600000000000000000000000000000000000000000000000000000000000000 DUP2 MSTORE POP SWAP1 POP JUMPDEST SWAP2 SWAP1 POP JUMP JUMPDEST PUSH1 0x40 MLOAD DUP1 PUSH1 0xA0 ADD PUSH1 0x40 MSTORE DUP1 PUSH1 0x60 DUP2 MSTORE PUSH1 0x20 ADD PUSH1 0x0 DUP2 MSTORE PUSH1 0x20 ADD PUSH1 0x0 DUP2 MSTORE PUSH1 0x20 ADD PUSH1 0x60 DUP2 MSTORE PUSH1 0x20 ADD PUSH1 0x60 DUP2 MSTORE POP SWAP1 JUMP JUMPDEST DUP3 DUP1 SLOAD DUP3 DUP3 SSTORE SWAP1 PUSH1 0x0 MSTORE PUSH1 0x20 PUSH1 0x0 KECCAK256 SWAP1 DUP2 ADD SWAP3 DUP3 ISZERO PUSH2 0x1C32 JUMPI SWAP2 PUSH1 0x20 MUL DUP3 ADD JUMPDEST DUP3 DUP2 GT ISZERO PUSH2 0x1C31 JUMPI DUP3 MLOAD DUP3 SWAP1 DUP2 PUSH2 0x1C21 SWAP2 SWAP1 PUSH2 0x2877 JUMP JUMPDEST POP SWAP2 PUSH1 0x20 ADD SWAP2 SWAP1 PUSH1 0x1 ADD SWAP1 PUSH2 0x1C0A JUMP JUMPDEST JUMPDEST POP SWAP1 POP PUSH2 0x1C3F SWAP2 SWAP1 PUSH2 0x1C43 JUMP JUMPDEST POP SWAP1 JUMP JUMPDEST JUMPDEST DUP1 DUP3 GT ISZERO PUSH2 0x1C63 JUMPI PUSH1 0x0 DUP2 DUP2 PUSH2 0x1C5A SWAP2 SWAP1 PUSH2 0x1C67 JUMP JUMPDEST POP PUSH1 0x1 ADD PUSH2 0x1C44 JUMP JUMPDEST POP SWAP1 JUMP JUMPDEST POP DUP1 SLOAD PUSH2 0x1C73 SWAP1 PUSH2 0x2564 JUMP JUMPDEST PUSH1 0x0 DUP3 SSTORE DUP1 PUSH1 0x1F LT PUSH2 0x1C85 JUMPI POP PUSH2 0x1CA4 JUMP JUMPDEST PUSH1 0x1F ADD PUSH1 0x20 SWAP1 DIV SWAP1 PUSH1 0x0 MSTORE PUSH1 0x20 PUSH1 0x0 KECCAK256 SWAP1 DUP2 ADD SWAP1 PUSH2 0x1CA3 SWAP2 SWAP1 PUSH2 0x1CA7 JUMP JUMPDEST JUMPDEST POP JUMP JUMPDEST JUMPDEST DUP1 DUP3 GT ISZERO PUSH2 0x1CC0 JUMPI PUSH1 0x0 DUP2 PUSH1 0x0 SWAP1 SSTORE POP PUSH1 0x1 ADD PUSH2 0x1CA8 JUMP JUMPDEST POP SWAP1 JUMP JUMPDEST PUSH1 0x0 PUSH1 0x40 MLOAD SWAP1 POP SWAP1 JUMP JUMPDEST PUSH1 0x0 DUP1 REVERT JUMPDEST PUSH1 0x0 DUP1 REVERT JUMPDEST PUSH1 0x0 DUP2 SWAP1 POP SWAP2 SWAP1 POP JUMP JUMPDEST PUSH2 0x1CEB DUP2 PUSH2 0x1CD8 JUMP JUMPDEST DUP2 EQ PUSH2 0x1CF6 JUMPI PUSH1 0x0 DUP1 REVERT JUMPDEST POP JUMP JUMPDEST PUSH1 0x0 DUP2 CALLDATALOAD SWAP1 POP PUSH2 0x1D08 DUP2 PUSH2 0x1CE2 JUMP JUMPDEST SWAP3 SWAP2 POP POP JUMP JUMPDEST PUSH1 0x0 PUSH1 0x20 DUP3 DUP5 SUB SLT ISZERO PUSH2 0x1D24 JUMPI PUSH2 0x1D23 PUSH2 0x1CCE JUMP JUMPDEST JUMPDEST PUSH1 0x0 PUSH2 0x1D32 DUP5 DUP3 DUP6 ADD PUSH2 0x1CF9 JUMP JUMPDEST SWAP2 POP POP SWAP3 SWAP2 POP POP JUMP JUMPDEST PUSH1 0x0 DUP2 MLOAD SWAP1 POP SWAP2 SWAP1 POP JUMP JUMPDEST PUSH1 0x0 DUP3 DUP3 MSTORE PUSH1 0x20 DUP3 ADD SWAP1 POP SWAP3 SWAP2 POP POP JUMP JUMPDEST PUSH1 0x0 JUMPDEST DUP4 DUP2 LT ISZERO PUSH2 0x1D75 JUMPI DUP1 DUP3 ADD MLOAD DUP2 DUP5 ADD MSTORE PUSH1 0x20 DUP2 ADD SWAP1 POP PUSH2 0x1D5A JUMP JUMPDEST PUSH1 0x0 DUP5 DUP5 ADD MSTORE POP POP POP POP JUMP JUMPDEST PUSH1 0x0 PUSH1 0x1F NOT PUSH1 0x1F DUP4 ADD AND SWAP1 POP SWAP2 SWAP1 POP JUMP JUMPDEST PUSH1 0x0 PUSH2 0x1D9D DUP3 PUSH2 0x1D3B JUMP JUMPDEST PUSH2 0x1DA7 DUP2 DUP6 PUSH2 0x1D46 JUMP JUMPDEST SWAP4 POP PUSH2 0x1DB7 DUP2 DUP6 PUSH1 0x20 DUP7 ADD PUSH2 0x1D57 JUMP JUMPDEST PUSH2 0x1DC0 DUP2 PUSH2 0x1D81 JUMP JUMPDEST DUP5 ADD SWAP2 POP POP SWAP3 SWAP2 POP POP JUMP JUMPDEST PUSH2 0x1DD4 DUP2 PUSH2 0x1CD8 JUMP JUMPDEST DUP3 MSTORE POP POP JUMP JUMPDEST PUSH1 0x0 DUP2 MLOAD SWAP1 POP SWAP2 SWAP1 POP JUMP JUMPDEST PUSH1 0x0 DUP3 DUP3 MSTORE PUSH1 0x20 DUP3 ADD SWAP1 POP SWAP3 SWAP2 POP POP JUMP JUMPDEST PUSH1 0x0 DUP2 SWAP1 POP PUSH1 0x20 DUP3 ADD SWAP1 POP SWAP2 SWAP1 POP JUMP JUMPDEST PUSH1 0x0 PUSH2 0x1E12 DUP4 DUP4 PUSH2 0x1D92 JUMP JUMPDEST SWAP1 POP SWAP3 SWAP2 POP POP JUMP JUMPDEST PUSH1 0x0 PUSH1 0x20 DUP3 ADD SWAP1 POP SWAP2 SWAP1 POP JUMP JUMPDEST PUSH1 0x0 PUSH2 0x1E32 DUP3 PUSH2 0x1DDA JUMP JUMPDEST PUSH2 0x1E3C DUP2 DUP6 PUSH2 0x1DE5 JUMP JUMPDEST SWAP4 POP DUP4 PUSH1 0x20 DUP3 MUL DUP6 ADD PUSH2 0x1E4E DUP6 PUSH2 0x1DF6 JUMP JUMPDEST DUP1 PUSH1 0x0 JUMPDEST DUP6 DUP2 LT ISZERO PUSH2 0x1E8A JUMPI DUP5 DUP5 SUB DUP10 MSTORE DUP2 MLOAD PUSH2 0x1E6B DUP6 DUP3 PUSH2 0x1E06 JUMP JUMPDEST SWAP5 POP PUSH2 0x1E76 DUP4 PUSH2 0x1E1A JUMP JUMPDEST SWAP3 POP PUSH1 0x20 DUP11 ADD SWAP10 POP POP PUSH1 0x1 DUP2 ADD SWAP1 POP PUSH2 0x1E52 JUMP JUMPDEST POP DUP3 SWAP8 POP DUP8 SWAP6 POP POP POP POP POP POP SWAP3 SWAP2 POP POP JUMP JUMPDEST PUSH1 0x0 PUSH1 0xA0 DUP4 ADD PUSH1 0x0 DUP4 ADD MLOAD DUP5 DUP3 SUB PUSH1 0x0 DUP7 ADD MSTORE PUSH2 0x1EB9 DUP3 DUP3 PUSH2 0x1D92 JUMP JUMPDEST SWAP2 POP POP PUSH1 0x20 DUP4 ADD MLOAD PUSH2 0x1ECE PUSH1 0x20 DUP7 ADD DUP3 PUSH2 0x1DCB JUMP JUMPDEST POP PUSH1 0x40 DUP4 ADD MLOAD PUSH2 0x1EE1 PUSH1 0x40 DUP7 ADD DUP3 PUSH2 0x1DCB JUMP JUMPDEST POP PUSH1 0x60 DUP4 ADD MLOAD DUP5 DUP3 SUB PUSH1 0x60 DUP7 ADD MSTORE PUSH2 0x1EF9 DUP3 DUP3 PUSH2 0x1D92 JUMP JUMPDEST SWAP2 POP POP PUSH1 0x80 DUP4 ADD MLOAD DUP5 DUP3 SUB PUSH1 0x80 DUP7 ADD MSTORE PUSH2 0x1F13 DUP3 DUP3 PUSH2 0x1E27 JUMP JUMPDEST SWAP2 POP POP DUP1 SWAP2 POP POP SWAP3 SWAP2 POP POP JUMP JUMPDEST PUSH1 0x0 PUSH1 0x20 DUP3 ADD SWAP1 POP DUP2 DUP2 SUB PUSH1 0x0 DUP4 ADD MSTORE PUSH2 0x1F3A DUP2 DUP5 PUSH2 0x1E9C JUMP JUMPDEST SWAP1 POP SWAP3 SWAP2 POP POP JUMP JUMPDEST PUSH1 0x0 DUP2 MLOAD SWAP1 POP SWAP2 SWAP1 POP JUMP JUMPDEST PUSH1 0x0 DUP3 DUP3 MSTORE PUSH1 0x20 DUP3 ADD SWAP1 POP SWAP3 SWAP2 POP POP JUMP JUMPDEST PUSH1 0x0 DUP2 SWAP1 POP PUSH1 0x20 DUP3 ADD SWAP1 POP SWAP2 SWAP1 POP JUMP JUMPDEST PUSH1 0x0 PUSH1 0xA0 DUP4 ADD PUSH1 0x0 DUP4 ADD MLOAD DUP5 DUP3 SUB PUSH1 0x0 DUP7 ADD MSTORE PUSH2 0x1F8B DUP3 DUP3 PUSH2 0x1D92 JUMP JUMPDEST SWAP2 POP POP PUSH1 0x20 DUP4 ADD MLOAD PUSH2 0x1FA0 PUSH1 0x20 DUP7 ADD DUP3 PUSH2 0x1DCB JUMP JUMPDEST POP PUSH1 0x40 DUP4 ADD MLOAD PUSH2 0x1FB3 PUSH1 0x40 DUP7 ADD DUP3 PUSH2 0x1DCB JUMP JUMPDEST POP PUSH1 0x60 DUP4 ADD MLOAD DUP5 DUP3 SUB PUSH1 0x60 DUP7 ADD MSTORE PUSH2 0x1FCB DUP3 DUP3 PUSH2 0x1D92 JUMP JUMPDEST SWAP2 POP POP PUSH1 0x80 DUP4 ADD MLOAD DUP5 DUP3 SUB PUSH1 0x80 DUP7 ADD MSTORE PUSH2 0x1FE5 DUP3 DUP3 PUSH2 0x1E27 JUMP JUMPDEST SWAP2 POP POP DUP1 SWAP2 POP POP SWAP3 SWAP2 POP POP JUMP JUMPDEST PUSH1 0x0 PUSH2 0x1FFE DUP4 DUP4 PUSH2 0x1F6E JUMP JUMPDEST SWAP1 POP SWAP3 SWAP2 POP POP JUMP JUMPDEST PUSH1 0x0 PUSH1 0x20 DUP3 ADD SWAP1 POP SWAP2 SWAP1 POP JUMP JUMPDEST PUSH1 0x0 PUSH2 0x201E DUP3 PUSH2 0x1F42 JUMP JUMPDEST PUSH2 0x2028 DUP2 DUP6 PUSH2 0x1F4D JUMP JUMPDEST SWAP4 POP DUP4 PUSH1 0x20 DUP3 MUL DUP6 ADD PUSH2 0x203A DUP6 PUSH2 0x1F5E JUMP JUMPDEST DUP1 PUSH1 0x0 JUMPDEST DUP6 DUP2 LT ISZERO PUSH2 0x2076 JUMPI DUP5 DUP5 SUB DUP10 MSTORE DUP2 MLOAD PUSH2 0x2057 DUP6 DUP3 PUSH2 0x1FF2 JUMP JUMPDEST SWAP5 POP PUSH2 0x2062 DUP4 PUSH2 0x2006 JUMP JUMPDEST SWAP3 POP PUSH1 0x20 DUP11 ADD SWAP10 POP POP PUSH1 0x1 DUP2 ADD SWAP1 POP PUSH2 0x203E JUMP JUMPDEST POP DUP3 SWAP8 POP DUP8 SWAP6 POP POP POP POP POP POP SWAP3 SWAP2 POP POP JUMP JUMPDEST PUSH1 0x0 PUSH1 0x20 DUP3 ADD SWAP1 POP DUP2 DUP2 SUB PUSH1 0x0 DUP4 ADD MSTORE PUSH2 0x20A2 DUP2 DUP5 PUSH2 0x2013 JUMP JUMPDEST SWAP1 POP SWAP3 SWAP2 POP POP JUMP JUMPDEST PUSH2 0x20B3 DUP2 PUSH2 0x1CD8 JUMP JUMPDEST DUP3 MSTORE POP POP JUMP JUMPDEST PUSH1 0x0 PUSH1 0x60 DUP3 ADD SWAP1 POP PUSH2 0x20CE PUSH1 0x0 DUP4 ADD DUP7 PUSH2 0x20AA JUMP JUMPDEST PUSH2 0x20DB PUSH1 0x20 DUP4 ADD DUP6 PUSH2 0x20AA JUMP JUMPDEST DUP2 DUP2 SUB PUSH1 0x40 DUP4 ADD MSTORE PUSH2 0x20ED DUP2 DUP5 PUSH2 0x2013 JUMP JUMPDEST SWAP1 POP SWAP5 SWAP4 POP POP POP POP JUMP JUMPDEST PUSH1 0x0 DUP1 REVERT JUMPDEST PUSH1 0x0 DUP1 REVERT JUMPDEST PUSH32 0x4E487B7100000000000000000000000000000000000000000000000000000000 PUSH1 0x0 MSTORE PUSH1 0x41 PUSH1 0x4 MSTORE PUSH1 0x24 PUSH1 0x0 REVERT JUMPDEST PUSH2 0x2139 DUP3 PUSH2 0x1D81 JUMP JUMPDEST DUP2 ADD DUP2 DUP2 LT PUSH8 0xFFFFFFFFFFFFFFFF DUP3 GT OR ISZERO PUSH2 0x2158 JUMPI PUSH2 0x2157 PUSH2 0x2101 JUMP JUMPDEST JUMPDEST DUP1 PUSH1 0x40 MSTORE POP POP POP JUMP JUMPDEST PUSH1 0x0 PUSH2 0x216B PUSH2 0x1CC4 JUMP JUMPDEST SWAP1 POP PUSH2 0x2177 DUP3 DUP3 PUSH2 0x2130 JUMP JUMPDEST SWAP2 SWAP1 POP JUMP JUMPDEST PUSH1 0x0 PUSH8 0xFFFFFFFFFFFFFFFF DUP3 GT ISZERO PUSH2 0x2197 JUMPI PUSH2 0x2196 PUSH2 0x2101 JUMP JUMPDEST JUMPDEST PUSH2 0x21A0 DUP3 PUSH2 0x1D81 JUMP JUMPDEST SWAP1 POP PUSH1 0x20 DUP2 ADD SWAP1 POP SWAP2 SWAP1 POP JUMP JUMPDEST DUP3 DUP2 DUP4 CALLDATACOPY PUSH1 0x0 DUP4 DUP4 ADD MSTORE POP POP POP JUMP JUMPDEST PUSH1 0x0 PUSH2 0x21CF PUSH2 0x21CA DUP5 PUSH2 0x217C JUMP JUMPDEST PUSH2 0x2161 JUMP JUMPDEST SWAP1 POP DUP3 DUP2 MSTORE PUSH1 0x20 DUP2 ADD DUP5 DUP5 DUP5 ADD GT ISZERO PUSH2 0x21EB JUMPI PUSH2 0x21EA PUSH2 0x20FC JUMP JUMPDEST JUMPDEST PUSH2 0x21F6 DUP5 DUP3 DUP6 PUSH2 0x21AD JUMP JUMPDEST POP SWAP4 SWAP3 POP POP POP JUMP JUMPDEST PUSH1 0x0 DUP3 PUSH1 0x1F DUP4 ADD SLT PUSH2 0x2213 JUMPI PUSH2 0x2212 PUSH2 0x20F7 JUMP JUMPDEST JUMPDEST DUP2 CALLDATALOAD PUSH2 0x2223 DUP5 DUP3 PUSH1 0x20 DUP7 ADD PUSH2 0x21BC JUMP JUMPDEST SWAP2 POP POP SWAP3 SWAP2 POP POP JUMP JUMPDEST PUSH1 0x0 PUSH8 0xFFFFFFFFFFFFFFFF DUP3 GT ISZERO PUSH2 0x2247 JUMPI PUSH2 0x2246 PUSH2 0x2101 JUMP JUMPDEST JUMPDEST PUSH1 0x20 DUP3 MUL SWAP1 POP PUSH1 0x20 DUP2 ADD SWAP1 POP SWAP2 SWAP1 POP JUMP JUMPDEST PUSH1 0x0 DUP1 REVERT JUMPDEST PUSH1 0x0 PUSH2 0x2270 PUSH2 0x226B DUP5 PUSH2 0x222C JUMP JUMPDEST PUSH2 0x2161 JUMP JUMPDEST SWAP1 POP DUP1 DUP4 DUP3 MSTORE PUSH1 0x20 DUP3 ADD SWAP1 POP PUSH1 0x20 DUP5 MUL DUP4 ADD DUP6 DUP2 GT ISZERO PUSH2 0x2293 JUMPI PUSH2 0x2292 PUSH2 0x2258 JUMP JUMPDEST JUMPDEST DUP4 JUMPDEST DUP2 DUP2 LT ISZERO PUSH2 0x22DA JUMPI DUP1 CALLDATALOAD PUSH8 0xFFFFFFFFFFFFFFFF DUP2 GT ISZERO PUSH2 0x22B8 JUMPI PUSH2 0x22B7 PUSH2 0x20F7 JUMP JUMPDEST JUMPDEST DUP1 DUP7 ADD PUSH2 0x22C5 DUP10 DUP3 PUSH2 0x21FE JUMP JUMPDEST DUP6 MSTORE PUSH1 0x20 DUP6 ADD SWAP5 POP POP POP PUSH1 0x20 DUP2 ADD SWAP1 POP PUSH2 0x2295 JUMP JUMPDEST POP POP POP SWAP4 SWAP3 POP POP POP JUMP JUMPDEST PUSH1 0x0 DUP3 PUSH1 0x1F DUP4 ADD SLT PUSH2 0x22F9 JUMPI PUSH2 0x22F8 PUSH2 0x20F7 JUMP JUMPDEST JUMPDEST DUP2 CALLDATALOAD PUSH2 0x2309 DUP5 DUP3 PUSH1 0x20 DUP7 ADD PUSH2 0x225D JUMP JUMPDEST SWAP2 POP POP SWAP3 SWAP2 POP POP JUMP JUMPDEST PUSH1 0x0 DUP1 PUSH1 0x0 PUSH1 0x60 DUP5 DUP7 SUB SLT ISZERO PUSH2 0x232B JUMPI PUSH2 0x232A PUSH2 0x1CCE JUMP JUMPDEST JUMPDEST PUSH1 0x0 DUP5 ADD CALLDATALOAD PUSH8 0xFFFFFFFFFFFFFFFF DUP2 GT ISZERO PUSH2 0x2349 JUMPI PUSH2 0x2348 PUSH2 0x1CD3 JUMP JUMPDEST JUMPDEST PUSH2 0x2355 DUP7 DUP3 DUP8 ADD PUSH2 0x21FE JUMP JUMPDEST SWAP4 POP POP PUSH1 0x20 PUSH2 0x2366 DUP7 DUP3 DUP8 ADD PUSH2 0x1CF9 JUMP JUMPDEST SWAP3 POP POP PUSH1 0x40 DUP5 ADD CALLDATALOAD PUSH8 0xFFFFFFFFFFFFFFFF DUP2 GT ISZERO PUSH2 0x2387 JUMPI PUSH2 0x2386 PUSH2 0x1CD3 JUMP JUMPDEST JUMPDEST PUSH2 0x2393 DUP7 DUP3 DUP8 ADD PUSH2 0x22E4 JUMP JUMPDEST SWAP2 POP POP SWAP3 POP SWAP3 POP SWAP3 JUMP JUMPDEST PUSH1 0x0 PUSH1 0x20 DUP3 DUP5 SUB SLT ISZERO PUSH2 0x23B3 JUMPI PUSH2 0x23B2 PUSH2 0x1CCE JUMP JUMPDEST JUMPDEST PUSH1 0x0 DUP3 ADD CALLDATALOAD PUSH8 0xFFFFFFFFFFFFFFFF DUP2 GT ISZERO PUSH2 0x23D1 JUMPI PUSH2 0x23D0 PUSH2 0x1CD3 JUMP JUMPDEST JUMPDEST PUSH2 0x23DD DUP5 DUP3 DUP6 ADD PUSH2 0x21FE JUMP JUMPDEST SWAP2 POP POP SWAP3 SWAP2 POP POP JUMP JUMPDEST PUSH1 0x0 DUP2 ISZERO ISZERO SWAP1 POP SWAP2 SWAP1 POP JUMP JUMPDEST PUSH2 0x23FB DUP2 PUSH2 0x23E6 JUMP JUMPDEST DUP3 MSTORE POP POP JUMP JUMPDEST PUSH1 0x0 PUSH1 0x20 DUP3 ADD SWAP1 POP PUSH2 0x2416 PUSH1 0x0 DUP4 ADD DUP5 PUSH2 0x23F2 JUMP JUMPDEST SWAP3 SWAP2 POP POP JUMP JUMPDEST PUSH1 0x0 PUSH1 0x20 DUP3 ADD SWAP1 POP PUSH2 0x2431 PUSH1 0x0 DUP4 ADD DUP5 PUSH2 0x20AA JUMP JUMPDEST SWAP3 SWAP2 POP POP JUMP JUMPDEST PUSH1 0x0 DUP3 DUP3 MSTORE PUSH1 0x20 DUP3 ADD SWAP1 POP SWAP3 SWAP2 POP POP JUMP JUMPDEST PUSH1 0x0 PUSH2 0x2453 DUP3 PUSH2 0x1D3B JUMP JUMPDEST PUSH2 0x245D DUP2 DUP6 PUSH2 0x2437 JUMP JUMPDEST SWAP4 POP PUSH2 0x246D DUP2 DUP6 PUSH1 0x20 DUP7 ADD PUSH2 0x1D57 JUMP JUMPDEST PUSH2 0x2476 DUP2 PUSH2 0x1D81 JUMP JUMPDEST DUP5 ADD SWAP2 POP POP SWAP3 SWAP2 POP POP JUMP JUMPDEST PUSH1 0x0 PUSH1 0x20 DUP3 ADD SWAP1 POP DUP2 DUP2 SUB PUSH1 0x0 DUP4 ADD MSTORE PUSH2 0x249B DUP2 DUP5 PUSH2 0x2448 JUMP JUMPDEST SWAP1 POP SWAP3 SWAP2 POP POP JUMP JUMPDEST PUSH32 0x4E487B7100000000000000000000000000000000000000000000000000000000 PUSH1 0x0 MSTORE PUSH1 0x11 PUSH1 0x4 MSTORE PUSH1 0x24 PUSH1 0x0 REVERT JUMPDEST PUSH1 0x0 PUSH2 0x24DD DUP3 PUSH2 0x1CD8 JUMP JUMPDEST SWAP2 POP PUSH2 0x24E8 DUP4 PUSH2 0x1CD8 JUMP JUMPDEST SWAP3 POP DUP3 DUP3 SUB SWAP1 POP DUP2 DUP2 GT ISZERO PUSH2 0x2500 JUMPI PUSH2 0x24FF PUSH2 0x24A3 JUMP JUMPDEST JUMPDEST SWAP3 SWAP2 POP POP JUMP JUMPDEST PUSH32 0x4E487B7100000000000000000000000000000000000000000000000000000000 PUSH1 0x0 MSTORE PUSH1 0x32 PUSH1 0x4 MSTORE PUSH1 0x24 PUSH1 0x0 REVERT JUMPDEST PUSH32 0x4E487B7100000000000000000000000000000000000000000000000000000000 PUSH1 0x0 MSTORE PUSH1 0x22 PUSH1 0x4 MSTORE PUSH1 0x24 PUSH1 0x0 REVERT JUMPDEST PUSH1 0x0 PUSH1 0x2 DUP3 DIV SWAP1 POP PUSH1 0x1 DUP3 AND DUP1 PUSH2 0x257C JUMPI PUSH1 0x7F DUP3 AND SWAP2 POP JUMPDEST PUSH1 0x20 DUP3 LT DUP2 SUB PUSH2 0x258F JUMPI PUSH2 0x258E PUSH2 0x2535 JUMP JUMPDEST JUMPDEST POP SWAP2 SWAP1 POP JUMP JUMPDEST PUSH1 0x0 PUSH2 0x25A0 DUP3 PUSH2 0x1CD8 JUMP JUMPDEST SWAP2 POP PUSH32 0xFFFFFFFFFFFFFFFFFFFFFFFFFFFFFFFFFFFFFFFFFFFFFFFFFFFFFFFFFFFFFFFF DUP3 SUB PUSH2 0x25D2 JUMPI PUSH2 0x25D1 PUSH2 0x24A3 JUMP JUMPDEST JUMPDEST PUSH1 0x1 DUP3 ADD SWAP1 POP SWAP2 SWAP1 POP JUMP JUMPDEST PUSH1 0x0 DUP2 SWAP1 POP SWAP3 SWAP2 POP POP JUMP JUMPDEST PUSH1 0x0 DUP2 SWAP1 POP DUP2 PUSH1 0x0 MSTORE PUSH1 0x20 PUSH1 0x0 KECCAK256 SWAP1 POP SWAP2 SWAP1 POP JUMP JUMPDEST PUSH1 0x0 DUP2 SLOAD PUSH2 0x260A DUP2 PUSH2 0x2564 JUMP JUMPDEST PUSH2 0x2614 DUP2 DUP7 PUSH2 0x25DD JUMP JUMPDEST SWAP5 POP PUSH1 0x1 DUP3 AND PUSH1 0x0 DUP2 EQ PUSH2 0x262F JUMPI PUSH1 0x1 DUP2 EQ PUSH2 0x2644 JUMPI PUSH2 0x2677 JUMP JUMPDEST PUSH1 0xFF NOT DUP4 AND DUP7 MSTORE DUP2 ISZERO ISZERO DUP3 MUL DUP7 ADD SWAP4 POP PUSH2 0x2677 JUMP JUMPDEST PUSH2 0x264D DUP6 PUSH2 0x25E8 JUMP JUMPDEST PUSH1 0x0 JUMPDEST DUP4 DUP2 LT ISZERO PUSH2 0x266F JUMPI DUP2 SLOAD DUP2 DUP10 ADD MSTORE PUSH1 0x1 DUP3 ADD SWAP2 POP PUSH1 0x20 DUP2 ADD SWAP1 POP PUSH2 0x2650 JUMP JUMPDEST DUP4 DUP9 ADD SWAP6 POP POP POP JUMPDEST POP POP POP SWAP3 SWAP2 POP POP JUMP JUMPDEST PUSH1 0x0 PUSH2 0x268C DUP3 DUP5 PUSH2 0x25FD JUMP JUMPDEST SWAP2 POP DUP2 SWAP1 POP SWAP3 SWAP2 POP POP JUMP JUMPDEST PUSH1 0x0 PUSH2 0x26A2 DUP3 PUSH2 0x1CD8 JUMP JUMPDEST SWAP2 POP PUSH2 0x26AD DUP4 PUSH2 0x1CD8 JUMP JUMPDEST SWAP3 POP DUP3 DUP3 ADD SWAP1 POP DUP1 DUP3 GT ISZERO PUSH2 0x26C5 JUMPI PUSH2 0x26C4 PUSH2 0x24A3 JUMP JUMPDEST JUMPDEST SWAP3 SWAP2 POP POP JUMP JUMPDEST PUSH1 0x0 DUP2 SWAP1 POP DUP2 PUSH1 0x0 MSTORE PUSH1 0x20 PUSH1 0x0 KECCAK256 SWAP1 POP SWAP2 SWAP1 POP JUMP JUMPDEST PUSH1 0x0 PUSH1 0x20 PUSH1 0x1F DUP4 ADD DIV SWAP1 POP SWAP2 SWAP1 POP JUMP JUMPDEST PUSH1 0x0 DUP3 DUP3 SHL SWAP1 POP SWAP3 SWAP2 POP POP JUMP JUMPDEST PUSH1 0x0 PUSH1 0x8 DUP4 MUL PUSH2 0x272D PUSH32 0xFFFFFFFFFFFFFFFFFFFFFFFFFFFFFFFFFFFFFFFFFFFFFFFFFFFFFFFFFFFFFFFF DUP3 PUSH2 0x26F0 JUMP JUMPDEST PUSH2 0x2737 DUP7 DUP4 PUSH2 0x26F0 JUMP JUMPDEST SWAP6 POP DUP1 NOT DUP5 AND SWAP4 POP DUP1 DUP7 AND DUP5 OR SWAP3 POP POP POP SWAP4 SWAP3 POP POP POP JUMP JUMPDEST PUSH1 0x0 DUP2 SWAP1 POP SWAP2 SWAP1 POP JUMP JUMPDEST PUSH1 0x0 PUSH2 0x2774 PUSH2 0x276F PUSH2 0x276A DUP5 PUSH2 0x1CD8 JUMP JUMPDEST PUSH2 0x274F JUMP JUMPDEST PUSH2 0x1CD8 JUMP JUMPDEST SWAP1 POP SWAP2 SWAP1 POP JUMP JUMPDEST PUSH1 0x0 DUP2 SWAP1 POP SWAP2 SWAP1 POP JUMP JUMPDEST PUSH2 0x278E DUP4 PUSH2 0x2759 JUMP JUMPDEST PUSH2 0x27A2 PUSH2 0x279A DUP3 PUSH2 0x277B JUMP JUMPDEST DUP5 DUP5 SLOAD PUSH2 0x26FD JUMP JUMPDEST DUP3 SSTORE POP POP POP POP JUMP JUMPDEST PUSH1 0x0 SWAP1 JUMP JUMPDEST PUSH2 0x27B7 PUSH2 0x27AA JUMP JUMPDEST PUSH2 0x27C2 DUP2 DUP5 DUP5 PUSH2 0x2785 JUMP JUMPDEST POP POP POP JUMP JUMPDEST JUMPDEST DUP2 DUP2 LT ISZERO PUSH2 0x27E6 JUMPI PUSH2 0x27DB PUSH1 0x0 DUP3 PUSH2 0x27AF JUMP JUMPDEST PUSH1 0x1 DUP2 ADD SWAP1 POP PUSH2 0x27C8 JUMP JUMPDEST POP POP JUMP JUMPDEST PUSH1 0x1F DUP3 GT ISZERO PUSH2 0x282B JUMPI PUSH2 0x27FC DUP2 PUSH2 0x26CB JUMP JUMPDEST PUSH2 0x2805 DUP5 PUSH2 0x26E0 JUMP JUMPDEST DUP2 ADD PUSH1 0x20 DUP6 LT ISZERO PUSH2 0x2814 JUMPI DUP2 SWAP1 POP JUMPDEST PUSH2 0x2828 PUSH2 0x2820 DUP6 PUSH2 0x26E0 JUMP JUMPDEST DUP4 ADD DUP3 PUSH2 0x27C7 JUMP JUMPDEST POP POP JUMPDEST POP POP POP JUMP JUMPDEST PUSH1 0x0 DUP3 DUP3 SHR SWAP1 POP SWAP3 SWAP2 POP POP JUMP JUMPDEST PUSH1 0x0 PUSH2 0x284E PUSH1 0x0 NOT DUP5 PUSH1 0x8 MUL PUSH2 0x2830 JUMP JUMPDEST NOT DUP1 DUP4 AND SWAP2 POP POP SWAP3 SWAP2 POP POP JUMP JUMPDEST PUSH1 0x0 PUSH2 0x2867 DUP4 DUP4 PUSH2 0x283D JUMP JUMPDEST SWAP2 POP DUP3 PUSH1 0x2 MUL DUP3 OR SWAP1 POP SWAP3 SWAP2 POP POP JUMP JUMPDEST PUSH2 0x2880 DUP3 PUSH2 0x1D3B JUMP JUMPDEST PUSH8 0xFFFFFFFFFFFFFFFF DUP2 GT ISZERO PUSH2 0x2899 JUMPI PUSH2 0x2898 PUSH2 0x2101 JUMP JUMPDEST JUMPDEST PUSH2 0x28A3 DUP3 SLOAD PUSH2 0x2564 JUMP JUMPDEST PUSH2 0x28AE DUP3 DUP3 DUP6 PUSH2 0x27EA JUMP JUMPDEST PUSH1 0x0 PUSH1 0x20 SWAP1 POP PUSH1 0x1F DUP4 GT PUSH1 0x1 DUP2 EQ PUSH2 0x28E1 JUMPI PUSH1 0x0 DUP5 ISZERO PUSH2 0x28CF JUMPI DUP3 DUP8 ADD MLOAD SWAP1 POP JUMPDEST PUSH2 0x28D9 DUP6 DUP3 PUSH2 0x285B JUMP JUMPDEST DUP7 SSTORE POP PUSH2 0x2941 JUMP JUMPDEST PUSH1 0x1F NOT DUP5 AND PUSH2 0x28EF DUP7 PUSH2 0x26CB JUMP JUMPDEST PUSH1 0x0 JUMPDEST DUP3 DUP2 LT ISZERO PUSH2 0x2917 JUMPI DUP5 DUP10 ADD MLOAD DUP3 SSTORE PUSH1 0x1 DUP3 ADD SWAP2 POP PUSH1 0x20 DUP6 ADD SWAP5 POP PUSH1 0x20 DUP2 ADD SWAP1 POP PUSH2 0x28F2 JUMP JUMPDEST DUP7 DUP4 LT ISZERO PUSH2 0x2934 JUMPI DUP5 DUP10 ADD MLOAD PUSH2 0x2930 PUSH1 0x1F DUP10 AND DUP3 PUSH2 0x283D JUMP JUMPDEST DUP4 SSTORE POP JUMPDEST PUSH1 0x1 PUSH1 0x2 DUP9 MUL ADD DUP9 SSTORE POP POP POP JUMPDEST POP POP POP POP POP POP JUMP JUMPDEST PUSH1 0x0 DUP2 SWAP1 POP SWAP3 SWAP2 POP POP JUMP JUMPDEST PUSH1 0x0 PUSH2 0x295F DUP3 PUSH2 0x1D3B JUMP JUMPDEST PUSH2 0x2969 DUP2 DUP6 PUSH2 0x2949 JUMP JUMPDEST SWAP4 POP PUSH2 0x2979 DUP2 DUP6 PUSH1 0x20 DUP7 ADD PUSH2 0x1D57 JUMP JUMPDEST DUP1 DUP5 ADD SWAP2 POP POP SWAP3 SWAP2 POP POP JUMP JUMPDEST PUSH1 0x0 PUSH2 0x2991 DUP3 DUP5 PUSH2 0x2954 JUMP JUMPDEST SWAP2 POP DUP2 SWAP1 POP SWAP3 SWAP2 POP POP JUMP JUMPDEST PUSH32 0x4E487B7100000000000000000000000000000000000000000000000000000000 PUSH1 0x0 MSTORE PUSH1 0x12 PUSH1 0x4 MSTORE PUSH1 0x24 PUSH1 0x0 REVERT JUMPDEST PUSH1 0x0 PUSH2 0x29D6 DUP3 PUSH2 0x1CD8 JUMP JUMPDEST SWAP2 POP PUSH2 0x29E1 DUP4 PUSH2 0x1CD8 JUMP JUMPDEST SWAP3 POP DUP3 PUSH2 0x29F1 JUMPI PUSH2 0x29F0 PUSH2 0x299C JUMP JUMPDEST JUMPDEST DUP3 DUP3 DIV SWAP1 POP SWAP3 SWAP2 POP POP JUMP INVALID LOG2 PUSH5 0x6970667358 0x22 SLT KECCAK256 PUSH17 0x1E1A785EE243B6ADDB374085B2BF23CAB8 0xE3 PUSH19 0x68987CF378C77273A4487B9064736F6C634300 ADDMOD SLT STOP CALLER "
				},
				"gasEstimates": {
					"creation": {
						"codeDepositCost": "2160400",
						"executionCost": "2302",
						"totalCost": "2162702"
					},
					"external": {
						"FClass()": "infinite",
						"FClass1()": "infinite",
						"SClass()": "infinite",
						"getAllStudents()": "infinite",
						"getAverageScore()": "infinite",
						"getStudentByName(string)": "infinite",
						"getStudentByNum(uint256)": "infinite",
						"getStudentScore(string)": "infinite",
						"getStudentsNumber()": "2467",
						"pushStudent(string,uint256,string[])": "infinite",
						"selfEva()": "infinite",
						"setCredit(uint256)": "infinite"
					}
				},
				"methodIdentifiers": {
					"FClass()": "75d073eb",
					"FClass1()": "3ab58e61",
					"SClass()": "1cfd4566",
					"getAllStudents()": "e9e30927",
					"getAverageScore()": "df72cdbf",
					"getStudentByName(string)": "83b41ad8",
					"getStudentByNum(uint256)": "0b439c39",
					"getStudentScore(string)": "e5521501",
					"getStudentsNumber()": "d437d7ca",
					"pushStudent(string,uint256,string[])": "74aa6858",
					"selfEva()": "9a2a5815",
					"setCredit(uint256)": "eac1d5b7"
				}
			},
			"storageLayout": {
				"storage": [
					{
						"astId": 242,
						"contract": "contracts/99_test.sol:codingtestAnswer",
						"label": "students",
						"offset": 0,
						"slot": "0",
						"type": "t_array(t_struct(Student)238_storage)dyn_storage"
					},
					{
						"astId": 363,
						"contract": "contracts/99_test.sol:codingtestAnswer",
						"label": "name_Student",
						"offset": 0,
						"slot": "1",
						"type": "t_mapping(t_string_memory_ptr,t_struct(Student)238_storage)"
					}
				],
				"types": {
					"t_array(t_string_storage)dyn_storage": {
						"base": "t_string_storage",
						"encoding": "dynamic_array",
						"label": "string[]",
						"numberOfBytes": "32"
					},
					"t_array(t_struct(Student)238_storage)dyn_storage": {
						"base": "t_struct(Student)238_storage",
						"encoding": "dynamic_array",
						"label": "struct codingtestAnswer.Student[]",
						"numberOfBytes": "32"
					},
					"t_mapping(t_string_memory_ptr,t_struct(Student)238_storage)": {
						"encoding": "mapping",
						"key": "t_string_memory_ptr",
						"label": "mapping(string => struct codingtestAnswer.Student)",
						"numberOfBytes": "32",
						"value": "t_struct(Student)238_storage"
					},
					"t_string_memory_ptr": {
						"encoding": "bytes",
						"label": "string",
						"numberOfBytes": "32"
					},
					"t_string_storage": {
						"encoding": "bytes",
						"label": "string",
						"numberOfBytes": "32"
					},
					"t_struct(Student)238_storage": {
						"encoding": "inplace",
						"label": "struct codingtestAnswer.Student",
						"members": [
							{
								"astId": 228,
								"contract": "contracts/99_test.sol:codingtestAnswer",
								"label": "name",
								"offset": 0,
								"slot": "0",
								"type": "t_string_storage"
							},
							{
								"astId": 230,
								"contract": "contracts/99_test.sol:codingtestAnswer",
								"label": "number",
								"offset": 0,
								"slot": "1",
								"type": "t_uint256"
							},
							{
								"astId": 232,
								"contract": "contracts/99_test.sol:codingtestAnswer",
								"label": "score",
								"offset": 0,
								"slot": "2",
								"type": "t_uint256"
							},
							{
								"astId": 234,
								"contract": "contracts/99_test.sol:codingtestAnswer",
								"label": "credit",
								"offset": 0,
								"slot": "3",
								"type": "t_string_storage"
							},
							{
								"astId": 237,
								"contract": "contracts/99_test.sol:codingtestAnswer",
								"label": "classes",
								"offset": 0,
								"slot": "4",
								"type": "t_array(t_string_storage)dyn_storage"
							}
						],
						"numberOfBytes": "160"
					},
					"t_uint256": {
						"encoding": "inplace",
						"label": "uint256",
						"numberOfBytes": "32"
					}
				}
			},
			"userdoc": {
				"kind": "user",
				"methods": {},
				"version": 1
			}
		}
	}
}