{
	"contracts/1_Mapping.sol": {
		"Practice1": {
			"abi": [
				{
					"inputs": [
						{
							"internalType": "uint256",
							"name": "_number",
							"type": "uint256"
						}
					],
					"name": "getWallet",
					"outputs": [
						{
							"components": [
								{
									"internalType": "string",
									"name": "name",
									"type": "string"
								},
								{
									"internalType": "uint256",
									"name": "number",
									"type": "uint256"
								},
								{
									"internalType": "address",
									"name": "account",
									"type": "address"
								}
							],
							"internalType": "struct Practice1.Wallet",
							"name": "",
							"type": "tuple"
						}
					],
					"stateMutability": "view",
					"type": "function"
				},
				{
					"inputs": [
						{
							"internalType": "uint256",
							"name": "_number",
							"type": "uint256"
						}
					],
					"name": "getWalletAccount",
					"outputs": [
						{
							"internalType": "address",
							"name": "",
							"type": "address"
						}
					],
					"stateMutability": "view",
					"type": "function"
				},
				{
					"inputs": [],
					"name": "getWallets",
					"outputs": [
						{
							"components": [
								{
									"internalType": "string",
									"name": "name",
									"type": "string"
								},
								{
									"internalType": "uint256",
									"name": "number",
									"type": "uint256"
								},
								{
									"internalType": "address",
									"name": "account",
									"type": "address"
								}
							],
							"internalType": "struct Practice1.Wallet[]",
							"name": "",
							"type": "tuple[]"
						}
					],
					"stateMutability": "view",
					"type": "function"
				},
				{
					"inputs": [
						{
							"internalType": "string",
							"name": "_name",
							"type": "string"
						},
						{
							"internalType": "uint256",
							"name": "_number",
							"type": "uint256"
						},
						{
							"internalType": "address",
							"name": "_account",
							"type": "address"
						}
					],
					"name": "setWallets",
					"outputs": [],
					"stateMutability": "nonpayable",
					"type": "function"
				}
			],
			"devdoc": {
				"kind": "dev",
				"methods": {},
				"version": 1
			},
			"evm": {
				"assembly": "    /* \"contracts/1_Mapping.sol\":671:1453  contract Practice1 {... */\n  mstore(0x40, 0x80)\n  callvalue\n  dup1\n  iszero\n  tag_1\n  jumpi\n  0x00\n  dup1\n  revert\ntag_1:\n  pop\n  dataSize(sub_0)\n  dup1\n  dataOffset(sub_0)\n  0x00\n  codecopy\n  0x00\n  return\nstop\n\nsub_0: assembly {\n        /* \"contracts/1_Mapping.sol\":671:1453  contract Practice1 {... */\n      mstore(0x40, 0x80)\n      callvalue\n      dup1\n      iszero\n      tag_1\n      jumpi\n      0x00\n      dup1\n      revert\n    tag_1:\n      pop\n      jumpi(tag_2, lt(calldatasize, 0x04))\n      shr(0xe0, calldataload(0x00))\n      dup1\n      0x5470b13b\n      eq\n      tag_3\n      jumpi\n      dup1\n      0x8b18e5c9\n      eq\n      tag_4\n      jumpi\n      dup1\n      0xbfa5b382\n      eq\n      tag_5\n      jumpi\n      dup1\n      0xdb7a4605\n      eq\n      tag_6\n      jumpi\n    tag_2:\n      0x00\n      dup1\n      revert\n        /* \"contracts/1_Mapping.sol\":1102:1217  function getWallet(uint _number) public view returns (Wallet memory) {... */\n    tag_3:\n      tag_7\n      0x04\n      dup1\n      calldatasize\n      sub\n      dup2\n      add\n      swap1\n      tag_8\n      swap2\n      swap1\n      tag_9\n      jump\t// in\n    tag_8:\n      tag_10\n      jump\t// in\n    tag_7:\n      mload(0x40)\n      tag_11\n      swap2\n      swap1\n      tag_12\n      jump\t// in\n    tag_11:\n      mload(0x40)\n      dup1\n      swap2\n      sub\n      swap1\n      return\n        /* \"contracts/1_Mapping.sol\":949:1094  function setWallets(string memory _name, uint _number, address _account) public {... */\n    tag_4:\n      tag_13\n      0x04\n      dup1\n      calldatasize\n      sub\n      dup2\n      add\n      swap1\n      tag_14\n      swap2\n      swap1\n      tag_15\n      jump\t// in\n    tag_14:\n      tag_16\n      jump\t// in\n    tag_13:\n      stop\n        /* \"contracts/1_Mapping.sol\":1225:1349  function getWalletAccount(uint _number) public view returns (address) {... */\n    tag_5:\n      tag_17\n      0x04\n      dup1\n      calldatasize\n      sub\n      dup2\n      add\n      swap1\n      tag_18\n      swap2\n      swap1\n      tag_9\n      jump\t// in\n    tag_18:\n      tag_19\n      jump\t// in\n    tag_17:\n      mload(0x40)\n      tag_20\n      swap2\n      swap1\n      tag_21\n      jump\t// in\n    tag_20:\n      mload(0x40)\n      dup1\n      swap2\n      sub\n      swap1\n      return\n        /* \"contracts/1_Mapping.sol\":1357:1450  function getWallets() public view returns (Wallet[] memory) {... */\n    tag_6:\n      tag_22\n      tag_23\n      jump\t// in\n    tag_22:\n      mload(0x40)\n      tag_24\n      swap2\n      swap1\n      tag_25\n      jump\t// in\n    tag_24:\n      mload(0x40)\n      dup1\n      swap2\n      sub\n      swap1\n      return\n        /* \"contracts/1_Mapping.sol\":1102:1217  function getWallet(uint _number) public view returns (Wallet memory) {... */\n    tag_10:\n        /* \"contracts/1_Mapping.sol\":1156:1169  Wallet memory */\n      tag_26\n      tag_27\n      jump\t// in\n    tag_26:\n        /* \"contracts/1_Mapping.sol\":1189:1196  wallets */\n      0x03\n        /* \"contracts/1_Mapping.sol\":1207:1208  1 */\n      0x01\n        /* \"contracts/1_Mapping.sol\":1197:1204  _number */\n      dup4\n        /* \"contracts/1_Mapping.sol\":1197:1208  _number - 1 */\n      tag_29\n      swap2\n      swap1\n      tag_30\n      jump\t// in\n    tag_29:\n        /* \"contracts/1_Mapping.sol\":1189:1209  wallets[_number - 1] */\n      dup2\n      sload\n      dup2\n      lt\n      tag_31\n      jumpi\n      tag_32\n      tag_33\n      jump\t// in\n    tag_32:\n    tag_31:\n      swap1\n      0x00\n      mstore\n      keccak256(0x00, 0x20)\n      swap1\n      0x03\n      mul\n      add\n        /* \"contracts/1_Mapping.sol\":1182:1209  return wallets[_number - 1] */\n      mload(0x40)\n      dup1\n      0x60\n      add\n      0x40\n      mstore\n      swap1\n      dup2\n      0x00\n      dup3\n      add\n      dup1\n      sload\n      tag_35\n      swap1\n      tag_36\n      jump\t// in\n    tag_35:\n      dup1\n      0x1f\n      add\n      0x20\n      dup1\n      swap2\n      div\n      mul\n      0x20\n      add\n      mload(0x40)\n      swap1\n      dup2\n      add\n      0x40\n      mstore\n      dup1\n      swap3\n      swap2\n      swap1\n      dup2\n      dup2\n      mstore\n      0x20\n      add\n      dup3\n      dup1\n      sload\n      tag_37\n      swap1\n      tag_36\n      jump\t// in\n    tag_37:\n      dup1\n      iszero\n      tag_38\n      jumpi\n      dup1\n      0x1f\n      lt\n      tag_39\n      jumpi\n      0x0100\n      dup1\n      dup4\n      sload\n      div\n      mul\n      dup4\n      mstore\n      swap2\n      0x20\n      add\n      swap2\n      jump(tag_38)\n    tag_39:\n      dup3\n      add\n      swap2\n      swap1\n      0x00\n      mstore\n      keccak256(0x00, 0x20)\n      swap1\n    tag_40:\n      dup2\n      sload\n      dup2\n      mstore\n      swap1\n      0x01\n      add\n      swap1\n      0x20\n      add\n      dup1\n      dup4\n      gt\n      tag_40\n      jumpi\n      dup3\n      swap1\n      sub\n      0x1f\n      and\n      dup3\n      add\n      swap2\n    tag_38:\n      pop\n      pop\n      pop\n      pop\n      pop\n      dup2\n      mstore\n      0x20\n      add\n      0x01\n      dup3\n      add\n      sload\n      dup2\n      mstore\n      0x20\n      add\n      0x02\n      dup3\n      add\n      0x00\n      swap1\n      sload\n      swap1\n      0x0100\n      exp\n      swap1\n      div\n      0xffffffffffffffffffffffffffffffffffffffff\n      and\n      0xffffffffffffffffffffffffffffffffffffffff\n      and\n      0xffffffffffffffffffffffffffffffffffffffff\n      and\n      dup2\n      mstore\n      pop\n      pop\n      swap1\n      pop\n        /* \"contracts/1_Mapping.sol\":1102:1217  function getWallet(uint _number) public view returns (Wallet memory) {... */\n      swap2\n      swap1\n      pop\n      jump\t// out\n        /* \"contracts/1_Mapping.sol\":949:1094  function setWallets(string memory _name, uint _number, address _account) public {... */\n    tag_16:\n        /* \"contracts/1_Mapping.sol\":1040:1047  wallets */\n      0x03\n        /* \"contracts/1_Mapping.sol\":1053:1085  Wallet(_name, _number, _account) */\n      mload(0x40)\n      dup1\n      0x60\n      add\n      0x40\n      mstore\n      dup1\n        /* \"contracts/1_Mapping.sol\":1060:1065  _name */\n      dup6\n        /* \"contracts/1_Mapping.sol\":1053:1085  Wallet(_name, _number, _account) */\n      dup2\n      mstore\n      0x20\n      add\n        /* \"contracts/1_Mapping.sol\":1067:1074  _number */\n      dup5\n        /* \"contracts/1_Mapping.sol\":1053:1085  Wallet(_name, _number, _account) */\n      dup2\n      mstore\n      0x20\n      add\n        /* \"contracts/1_Mapping.sol\":1076:1084  _account */\n      dup4\n        /* \"contracts/1_Mapping.sol\":1053:1085  Wallet(_name, _number, _account) */\n      0xffffffffffffffffffffffffffffffffffffffff\n      and\n      dup2\n      mstore\n      pop\n        /* \"contracts/1_Mapping.sol\":1040:1086  wallets.push(Wallet(_name, _number, _account)) */\n      swap1\n      dup1\n      0x01\n      dup2\n      sload\n      add\n      dup1\n      dup3\n      sstore\n      dup1\n      swap2\n      pop\n      pop\n      0x01\n      swap1\n      sub\n      swap1\n      0x00\n      mstore\n      keccak256(0x00, 0x20)\n      swap1\n      0x03\n      mul\n      add\n      0x00\n      swap1\n      swap2\n      swap1\n      swap2\n      swap1\n      swap2\n      pop\n      0x00\n      dup3\n      add\n      mload\n      dup2\n      0x00\n      add\n      swap1\n      dup2\n      tag_43\n      swap2\n      swap1\n      tag_44\n      jump\t// in\n    tag_43:\n      pop\n      0x20\n      dup3\n      add\n      mload\n      dup2\n      0x01\n      add\n      sstore\n      0x40\n      dup3\n      add\n      mload\n      dup2\n      0x02\n      add\n      exp(0x0100, 0x00)\n      dup2\n      sload\n      dup2\n      0xffffffffffffffffffffffffffffffffffffffff\n      mul\n      not\n      and\n      swap1\n      dup4\n      0xffffffffffffffffffffffffffffffffffffffff\n      and\n      mul\n      or\n      swap1\n      sstore\n      pop\n      pop\n      pop\n        /* \"contracts/1_Mapping.sol\":949:1094  function setWallets(string memory _name, uint _number, address _account) public {... */\n      pop\n      pop\n      pop\n      jump\t// out\n        /* \"contracts/1_Mapping.sol\":1225:1349  function getWalletAccount(uint _number) public view returns (address) {... */\n    tag_19:\n        /* \"contracts/1_Mapping.sol\":1286:1293  address */\n      0x00\n        /* \"contracts/1_Mapping.sol\":1313:1320  wallets */\n      0x03\n        /* \"contracts/1_Mapping.sol\":1331:1332  1 */\n      0x01\n        /* \"contracts/1_Mapping.sol\":1321:1328  _number */\n      dup4\n        /* \"contracts/1_Mapping.sol\":1321:1332  _number - 1 */\n      tag_46\n      swap2\n      swap1\n      tag_30\n      jump\t// in\n    tag_46:\n        /* \"contracts/1_Mapping.sol\":1313:1333  wallets[_number - 1] */\n      dup2\n      sload\n      dup2\n      lt\n      tag_47\n      jumpi\n      tag_48\n      tag_33\n      jump\t// in\n    tag_48:\n    tag_47:\n      swap1\n      0x00\n      mstore\n      keccak256(0x00, 0x20)\n      swap1\n      0x03\n      mul\n      add\n        /* \"contracts/1_Mapping.sol\":1313:1341  wallets[_number - 1].account */\n      0x02\n      add\n      0x00\n      swap1\n      sload\n      swap1\n      0x0100\n      exp\n      swap1\n      div\n      0xffffffffffffffffffffffffffffffffffffffff\n      and\n        /* \"contracts/1_Mapping.sol\":1306:1341  return wallets[_number - 1].account */\n      swap1\n      pop\n        /* \"contracts/1_Mapping.sol\":1225:1349  function getWalletAccount(uint _number) public view returns (address) {... */\n      swap2\n      swap1\n      pop\n      jump\t// out\n        /* \"contracts/1_Mapping.sol\":1357:1450  function getWallets() public view returns (Wallet[] memory) {... */\n    tag_23:\n        /* \"contracts/1_Mapping.sol\":1400:1415  Wallet[] memory */\n      0x60\n        /* \"contracts/1_Mapping.sol\":1435:1442  wallets */\n      0x03\n        /* \"contracts/1_Mapping.sol\":1428:1442  return wallets */\n      dup1\n      sload\n      dup1\n      0x20\n      mul\n      0x20\n      add\n      mload(0x40)\n      swap1\n      dup2\n      add\n      0x40\n      mstore\n      dup1\n      swap3\n      swap2\n      swap1\n      dup2\n      dup2\n      mstore\n      0x20\n      add\n      0x00\n      swap1\n    tag_51:\n      dup3\n      dup3\n      lt\n      iszero\n      tag_52\n      jumpi\n      dup4\n      dup3\n      swap1\n      0x00\n      mstore\n      keccak256(0x00, 0x20)\n      swap1\n      0x03\n      mul\n      add\n      mload(0x40)\n      dup1\n      0x60\n      add\n      0x40\n      mstore\n      swap1\n      dup2\n      0x00\n      dup3\n      add\n      dup1\n      sload\n      tag_54\n      swap1\n      tag_36\n      jump\t// in\n    tag_54:\n      dup1\n      0x1f\n      add\n      0x20\n      dup1\n      swap2\n      div\n      mul\n      0x20\n      add\n      mload(0x40)\n      swap1\n      dup2\n      add\n      0x40\n      mstore\n      dup1\n      swap3\n      swap2\n      swap1\n      dup2\n      dup2\n      mstore\n      0x20\n      add\n      dup3\n      dup1\n      sload\n      tag_55\n      swap1\n      tag_36\n      jump\t// in\n    tag_55:\n      dup1\n      iszero\n      tag_56\n      jumpi\n      dup1\n      0x1f\n      lt\n      tag_57\n      jumpi\n      0x0100\n      dup1\n      dup4\n      sload\n      div\n      mul\n      dup4\n      mstore\n      swap2\n      0x20\n      add\n      swap2\n      jump(tag_56)\n    tag_57:\n      dup3\n      add\n      swap2\n      swap1\n      0x00\n      mstore\n      keccak256(0x00, 0x20)\n      swap1\n    tag_58:\n      dup2\n      sload\n      dup2\n      mstore\n      swap1\n      0x01\n      add\n      swap1\n      0x20\n      add\n      dup1\n      dup4\n      gt\n      tag_58\n      jumpi\n      dup3\n      swap1\n      sub\n      0x1f\n      and\n      dup3\n      add\n      swap2\n    tag_56:\n      pop\n      pop\n      pop\n      pop\n      pop\n      dup2\n      mstore\n      0x20\n      add\n      0x01\n      dup3\n      add\n      sload\n      dup2\n      mstore\n      0x20\n      add\n      0x02\n      dup3\n      add\n      0x00\n      swap1\n      sload\n      swap1\n      0x0100\n      exp\n      swap1\n      div\n      0xffffffffffffffffffffffffffffffffffffffff\n      and\n      0xffffffffffffffffffffffffffffffffffffffff\n      and\n      0xffffffffffffffffffffffffffffffffffffffff\n      and\n      dup2\n      mstore\n      pop\n      pop\n      dup2\n      mstore\n      0x20\n      add\n      swap1\n      0x01\n      add\n      swap1\n      jump(tag_51)\n    tag_52:\n      pop\n      pop\n      pop\n      pop\n      swap1\n      pop\n        /* \"contracts/1_Mapping.sol\":1357:1450  function getWallets() public view returns (Wallet[] memory) {... */\n      swap1\n      jump\t// out\n    tag_27:\n      mload(0x40)\n      dup1\n      0x60\n      add\n      0x40\n      mstore\n      dup1\n      0x60\n      dup2\n      mstore\n      0x20\n      add\n      0x00\n      dup2\n      mstore\n      0x20\n      add\n      and(0xffffffffffffffffffffffffffffffffffffffff, 0x00)\n      dup2\n      mstore\n      pop\n      swap1\n      jump\t// out\n        /* \"#utility.yul\":7:82   */\n    tag_59:\n        /* \"#utility.yul\":40:46   */\n      0x00\n        /* \"#utility.yul\":73:75   */\n      0x40\n        /* \"#utility.yul\":67:76   */\n      mload\n        /* \"#utility.yul\":57:76   */\n      swap1\n      pop\n        /* \"#utility.yul\":7:82   */\n      swap1\n      jump\t// out\n        /* \"#utility.yul\":88:205   */\n    tag_60:\n        /* \"#utility.yul\":197:198   */\n      0x00\n        /* \"#utility.yul\":194:195   */\n      dup1\n        /* \"#utility.yul\":187:199   */\n      revert\n        /* \"#utility.yul\":211:328   */\n    tag_61:\n        /* \"#utility.yul\":320:321   */\n      0x00\n        /* \"#utility.yul\":317:318   */\n      dup1\n        /* \"#utility.yul\":310:322   */\n      revert\n        /* \"#utility.yul\":334:411   */\n    tag_62:\n        /* \"#utility.yul\":371:378   */\n      0x00\n        /* \"#utility.yul\":400:405   */\n      dup2\n        /* \"#utility.yul\":389:405   */\n      swap1\n      pop\n        /* \"#utility.yul\":334:411   */\n      swap2\n      swap1\n      pop\n      jump\t// out\n        /* \"#utility.yul\":417:539   */\n    tag_63:\n        /* \"#utility.yul\":490:514   */\n      tag_117\n        /* \"#utility.yul\":508:513   */\n      dup2\n        /* \"#utility.yul\":490:514   */\n      tag_62\n      jump\t// in\n    tag_117:\n        /* \"#utility.yul\":483:488   */\n      dup2\n        /* \"#utility.yul\":480:515   */\n      eq\n        /* \"#utility.yul\":470:533   */\n      tag_118\n      jumpi\n        /* \"#utility.yul\":529:530   */\n      0x00\n        /* \"#utility.yul\":526:527   */\n      dup1\n        /* \"#utility.yul\":519:531   */\n      revert\n        /* \"#utility.yul\":470:533   */\n    tag_118:\n        /* \"#utility.yul\":417:539   */\n      pop\n      jump\t// out\n        /* \"#utility.yul\":545:684   */\n    tag_64:\n        /* \"#utility.yul\":591:596   */\n      0x00\n        /* \"#utility.yul\":629:635   */\n      dup2\n        /* \"#utility.yul\":616:636   */\n      calldataload\n        /* \"#utility.yul\":607:636   */\n      swap1\n      pop\n        /* \"#utility.yul\":645:678   */\n      tag_120\n        /* \"#utility.yul\":672:677   */\n      dup2\n        /* \"#utility.yul\":645:678   */\n      tag_63\n      jump\t// in\n    tag_120:\n        /* \"#utility.yul\":545:684   */\n      swap3\n      swap2\n      pop\n      pop\n      jump\t// out\n        /* \"#utility.yul\":690:1019   */\n    tag_9:\n        /* \"#utility.yul\":749:755   */\n      0x00\n        /* \"#utility.yul\":798:800   */\n      0x20\n        /* \"#utility.yul\":786:795   */\n      dup3\n        /* \"#utility.yul\":777:784   */\n      dup5\n        /* \"#utility.yul\":773:796   */\n      sub\n        /* \"#utility.yul\":769:801   */\n      slt\n        /* \"#utility.yul\":766:885   */\n      iszero\n      tag_122\n      jumpi\n        /* \"#utility.yul\":804:883   */\n      tag_123\n      tag_60\n      jump\t// in\n    tag_123:\n        /* \"#utility.yul\":766:885   */\n    tag_122:\n        /* \"#utility.yul\":924:925   */\n      0x00\n        /* \"#utility.yul\":949:1002   */\n      tag_124\n        /* \"#utility.yul\":994:1001   */\n      dup5\n        /* \"#utility.yul\":985:991   */\n      dup3\n        /* \"#utility.yul\":974:983   */\n      dup6\n        /* \"#utility.yul\":970:992   */\n      add\n        /* \"#utility.yul\":949:1002   */\n      tag_64\n      jump\t// in\n    tag_124:\n        /* \"#utility.yul\":939:1002   */\n      swap2\n      pop\n        /* \"#utility.yul\":895:1012   */\n      pop\n        /* \"#utility.yul\":690:1019   */\n      swap3\n      swap2\n      pop\n      pop\n      jump\t// out\n        /* \"#utility.yul\":1025:1124   */\n    tag_65:\n        /* \"#utility.yul\":1077:1083   */\n      0x00\n        /* \"#utility.yul\":1111:1116   */\n      dup2\n        /* \"#utility.yul\":1105:1117   */\n      mload\n        /* \"#utility.yul\":1095:1117   */\n      swap1\n      pop\n        /* \"#utility.yul\":1025:1124   */\n      swap2\n      swap1\n      pop\n      jump\t// out\n        /* \"#utility.yul\":1130:1289   */\n    tag_66:\n        /* \"#utility.yul\":1204:1215   */\n      0x00\n        /* \"#utility.yul\":1238:1244   */\n      dup3\n        /* \"#utility.yul\":1233:1236   */\n      dup3\n        /* \"#utility.yul\":1226:1245   */\n      mstore\n        /* \"#utility.yul\":1278:1282   */\n      0x20\n        /* \"#utility.yul\":1273:1276   */\n      dup3\n        /* \"#utility.yul\":1269:1283   */\n      add\n        /* \"#utility.yul\":1254:1283   */\n      swap1\n      pop\n        /* \"#utility.yul\":1130:1289   */\n      swap3\n      swap2\n      pop\n      pop\n      jump\t// out\n        /* \"#utility.yul\":1295:1541   */\n    tag_67:\n        /* \"#utility.yul\":1376:1377   */\n      0x00\n        /* \"#utility.yul\":1386:1499   */\n    tag_128:\n        /* \"#utility.yul\":1400:1406   */\n      dup4\n        /* \"#utility.yul\":1397:1398   */\n      dup2\n        /* \"#utility.yul\":1394:1407   */\n      lt\n        /* \"#utility.yul\":1386:1499   */\n      iszero\n      tag_130\n      jumpi\n        /* \"#utility.yul\":1485:1486   */\n      dup1\n        /* \"#utility.yul\":1480:1483   */\n      dup3\n        /* \"#utility.yul\":1476:1487   */\n      add\n        /* \"#utility.yul\":1470:1488   */\n      mload\n        /* \"#utility.yul\":1466:1467   */\n      dup2\n        /* \"#utility.yul\":1461:1464   */\n      dup5\n        /* \"#utility.yul\":1457:1468   */\n      add\n        /* \"#utility.yul\":1450:1489   */\n      mstore\n        /* \"#utility.yul\":1422:1424   */\n      0x20\n        /* \"#utility.yul\":1419:1420   */\n      dup2\n        /* \"#utility.yul\":1415:1425   */\n      add\n        /* \"#utility.yul\":1410:1425   */\n      swap1\n      pop\n        /* \"#utility.yul\":1386:1499   */\n      jump(tag_128)\n    tag_130:\n        /* \"#utility.yul\":1533:1534   */\n      0x00\n        /* \"#utility.yul\":1524:1530   */\n      dup5\n        /* \"#utility.yul\":1519:1522   */\n      dup5\n        /* \"#utility.yul\":1515:1531   */\n      add\n        /* \"#utility.yul\":1508:1535   */\n      mstore\n        /* \"#utility.yul\":1357:1541   */\n      pop\n        /* \"#utility.yul\":1295:1541   */\n      pop\n      pop\n      pop\n      jump\t// out\n        /* \"#utility.yul\":1547:1649   */\n    tag_68:\n        /* \"#utility.yul\":1588:1594   */\n      0x00\n        /* \"#utility.yul\":1639:1641   */\n      0x1f\n        /* \"#utility.yul\":1635:1642   */\n      not\n        /* \"#utility.yul\":1630:1632   */\n      0x1f\n        /* \"#utility.yul\":1623:1628   */\n      dup4\n        /* \"#utility.yul\":1619:1633   */\n      add\n        /* \"#utility.yul\":1615:1643   */\n      and\n        /* \"#utility.yul\":1605:1643   */\n      swap1\n      pop\n        /* \"#utility.yul\":1547:1649   */\n      swap2\n      swap1\n      pop\n      jump\t// out\n        /* \"#utility.yul\":1655:2012   */\n    tag_69:\n        /* \"#utility.yul\":1733:1736   */\n      0x00\n        /* \"#utility.yul\":1761:1800   */\n      tag_133\n        /* \"#utility.yul\":1794:1799   */\n      dup3\n        /* \"#utility.yul\":1761:1800   */\n      tag_65\n      jump\t// in\n    tag_133:\n        /* \"#utility.yul\":1816:1877   */\n      tag_134\n        /* \"#utility.yul\":1870:1876   */\n      dup2\n        /* \"#utility.yul\":1865:1868   */\n      dup6\n        /* \"#utility.yul\":1816:1877   */\n      tag_66\n      jump\t// in\n    tag_134:\n        /* \"#utility.yul\":1809:1877   */\n      swap4\n      pop\n        /* \"#utility.yul\":1886:1951   */\n      tag_135\n        /* \"#utility.yul\":1944:1950   */\n      dup2\n        /* \"#utility.yul\":1939:1942   */\n      dup6\n        /* \"#utility.yul\":1932:1936   */\n      0x20\n        /* \"#utility.yul\":1925:1930   */\n      dup7\n        /* \"#utility.yul\":1921:1937   */\n      add\n        /* \"#utility.yul\":1886:1951   */\n      tag_67\n      jump\t// in\n    tag_135:\n        /* \"#utility.yul\":1976:2005   */\n      tag_136\n        /* \"#utility.yul\":1998:2004   */\n      dup2\n        /* \"#utility.yul\":1976:2005   */\n      tag_68\n      jump\t// in\n    tag_136:\n        /* \"#utility.yul\":1971:1974   */\n      dup5\n        /* \"#utility.yul\":1967:2006   */\n      add\n        /* \"#utility.yul\":1960:2006   */\n      swap2\n      pop\n        /* \"#utility.yul\":1737:2012   */\n      pop\n        /* \"#utility.yul\":1655:2012   */\n      swap3\n      swap2\n      pop\n      pop\n      jump\t// out\n        /* \"#utility.yul\":2018:2126   */\n    tag_70:\n        /* \"#utility.yul\":2095:2119   */\n      tag_138\n        /* \"#utility.yul\":2113:2118   */\n      dup2\n        /* \"#utility.yul\":2095:2119   */\n      tag_62\n      jump\t// in\n    tag_138:\n        /* \"#utility.yul\":2090:2093   */\n      dup3\n        /* \"#utility.yul\":2083:2120   */\n      mstore\n        /* \"#utility.yul\":2018:2126   */\n      pop\n      pop\n      jump\t// out\n        /* \"#utility.yul\":2132:2258   */\n    tag_71:\n        /* \"#utility.yul\":2169:2176   */\n      0x00\n        /* \"#utility.yul\":2209:2251   */\n      0xffffffffffffffffffffffffffffffffffffffff\n        /* \"#utility.yul\":2202:2207   */\n      dup3\n        /* \"#utility.yul\":2198:2252   */\n      and\n        /* \"#utility.yul\":2187:2252   */\n      swap1\n      pop\n        /* \"#utility.yul\":2132:2258   */\n      swap2\n      swap1\n      pop\n      jump\t// out\n        /* \"#utility.yul\":2264:2360   */\n    tag_72:\n        /* \"#utility.yul\":2301:2308   */\n      0x00\n        /* \"#utility.yul\":2330:2354   */\n      tag_141\n        /* \"#utility.yul\":2348:2353   */\n      dup3\n        /* \"#utility.yul\":2330:2354   */\n      tag_71\n      jump\t// in\n    tag_141:\n        /* \"#utility.yul\":2319:2354   */\n      swap1\n      pop\n        /* \"#utility.yul\":2264:2360   */\n      swap2\n      swap1\n      pop\n      jump\t// out\n        /* \"#utility.yul\":2366:2474   */\n    tag_73:\n        /* \"#utility.yul\":2443:2467   */\n      tag_143\n        /* \"#utility.yul\":2461:2466   */\n      dup2\n        /* \"#utility.yul\":2443:2467   */\n      tag_72\n      jump\t// in\n    tag_143:\n        /* \"#utility.yul\":2438:2441   */\n      dup3\n        /* \"#utility.yul\":2431:2468   */\n      mstore\n        /* \"#utility.yul\":2366:2474   */\n      pop\n      pop\n      jump\t// out\n        /* \"#utility.yul\":2538:3317   */\n    tag_74:\n        /* \"#utility.yul\":2651:2654   */\n      0x00\n        /* \"#utility.yul\":2687:2691   */\n      0x60\n        /* \"#utility.yul\":2682:2685   */\n      dup4\n        /* \"#utility.yul\":2678:2692   */\n      add\n        /* \"#utility.yul\":2774:2778   */\n      0x00\n        /* \"#utility.yul\":2767:2772   */\n      dup4\n        /* \"#utility.yul\":2763:2779   */\n      add\n        /* \"#utility.yul\":2757:2780   */\n      mload\n        /* \"#utility.yul\":2827:2830   */\n      dup5\n        /* \"#utility.yul\":2821:2825   */\n      dup3\n        /* \"#utility.yul\":2817:2831   */\n      sub\n        /* \"#utility.yul\":2810:2814   */\n      0x00\n        /* \"#utility.yul\":2805:2808   */\n      dup7\n        /* \"#utility.yul\":2801:2815   */\n      add\n        /* \"#utility.yul\":2794:2832   */\n      mstore\n        /* \"#utility.yul\":2853:2926   */\n      tag_145\n        /* \"#utility.yul\":2921:2925   */\n      dup3\n        /* \"#utility.yul\":2907:2919   */\n      dup3\n        /* \"#utility.yul\":2853:2926   */\n      tag_69\n      jump\t// in\n    tag_145:\n        /* \"#utility.yul\":2845:2926   */\n      swap2\n      pop\n        /* \"#utility.yul\":2702:2937   */\n      pop\n        /* \"#utility.yul\":3021:3025   */\n      0x20\n        /* \"#utility.yul\":3014:3019   */\n      dup4\n        /* \"#utility.yul\":3010:3026   */\n      add\n        /* \"#utility.yul\":3004:3027   */\n      mload\n        /* \"#utility.yul\":3040:3103   */\n      tag_146\n        /* \"#utility.yul\":3097:3101   */\n      0x20\n        /* \"#utility.yul\":3092:3095   */\n      dup7\n        /* \"#utility.yul\":3088:3102   */\n      add\n        /* \"#utility.yul\":3074:3086   */\n      dup3\n        /* \"#utility.yul\":3040:3103   */\n      tag_70\n      jump\t// in\n    tag_146:\n        /* \"#utility.yul\":2947:3113   */\n      pop\n        /* \"#utility.yul\":3198:3202   */\n      0x40\n        /* \"#utility.yul\":3191:3196   */\n      dup4\n        /* \"#utility.yul\":3187:3203   */\n      add\n        /* \"#utility.yul\":3181:3204   */\n      mload\n        /* \"#utility.yul\":3217:3280   */\n      tag_147\n        /* \"#utility.yul\":3274:3278   */\n      0x40\n        /* \"#utility.yul\":3269:3272   */\n      dup7\n        /* \"#utility.yul\":3265:3279   */\n      add\n        /* \"#utility.yul\":3251:3263   */\n      dup3\n        /* \"#utility.yul\":3217:3280   */\n      tag_73\n      jump\t// in\n    tag_147:\n        /* \"#utility.yul\":3123:3290   */\n      pop\n        /* \"#utility.yul\":3307:3311   */\n      dup1\n        /* \"#utility.yul\":3300:3311   */\n      swap2\n      pop\n        /* \"#utility.yul\":2656:3317   */\n      pop\n        /* \"#utility.yul\":2538:3317   */\n      swap3\n      swap2\n      pop\n      pop\n      jump\t// out\n        /* \"#utility.yul\":3323:3684   */\n    tag_12:\n        /* \"#utility.yul\":3460:3464   */\n      0x00\n        /* \"#utility.yul\":3498:3500   */\n      0x20\n        /* \"#utility.yul\":3487:3496   */\n      dup3\n        /* \"#utility.yul\":3483:3501   */\n      add\n        /* \"#utility.yul\":3475:3501   */\n      swap1\n      pop\n        /* \"#utility.yul\":3547:3556   */\n      dup2\n        /* \"#utility.yul\":3541:3545   */\n      dup2\n        /* \"#utility.yul\":3537:3557   */\n      sub\n        /* \"#utility.yul\":3533:3534   */\n      0x00\n        /* \"#utility.yul\":3522:3531   */\n      dup4\n        /* \"#utility.yul\":3518:3535   */\n      add\n        /* \"#utility.yul\":3511:3558   */\n      mstore\n        /* \"#utility.yul\":3575:3677   */\n      tag_149\n        /* \"#utility.yul\":3672:3676   */\n      dup2\n        /* \"#utility.yul\":3663:3669   */\n      dup5\n        /* \"#utility.yul\":3575:3677   */\n      tag_74\n      jump\t// in\n    tag_149:\n        /* \"#utility.yul\":3567:3677   */\n      swap1\n      pop\n        /* \"#utility.yul\":3323:3684   */\n      swap3\n      swap2\n      pop\n      pop\n      jump\t// out\n        /* \"#utility.yul\":3690:3807   */\n    tag_75:\n        /* \"#utility.yul\":3799:3800   */\n      0x00\n        /* \"#utility.yul\":3796:3797   */\n      dup1\n        /* \"#utility.yul\":3789:3801   */\n      revert\n        /* \"#utility.yul\":3813:3930   */\n    tag_76:\n        /* \"#utility.yul\":3922:3923   */\n      0x00\n        /* \"#utility.yul\":3919:3920   */\n      dup1\n        /* \"#utility.yul\":3912:3924   */\n      revert\n        /* \"#utility.yul\":3936:4116   */\n    tag_77:\n        /* \"#utility.yul\":3984:4061   */\n      0x4e487b7100000000000000000000000000000000000000000000000000000000\n        /* \"#utility.yul\":3981:3982   */\n      0x00\n        /* \"#utility.yul\":3974:4062   */\n      mstore\n        /* \"#utility.yul\":4081:4085   */\n      0x41\n        /* \"#utility.yul\":4078:4079   */\n      0x04\n        /* \"#utility.yul\":4071:4086   */\n      mstore\n        /* \"#utility.yul\":4105:4109   */\n      0x24\n        /* \"#utility.yul\":4102:4103   */\n      0x00\n        /* \"#utility.yul\":4095:4110   */\n      revert\n        /* \"#utility.yul\":4122:4403   */\n    tag_78:\n        /* \"#utility.yul\":4205:4232   */\n      tag_154\n        /* \"#utility.yul\":4227:4231   */\n      dup3\n        /* \"#utility.yul\":4205:4232   */\n      tag_68\n      jump\t// in\n    tag_154:\n        /* \"#utility.yul\":4197:4203   */\n      dup2\n        /* \"#utility.yul\":4193:4233   */\n      add\n        /* \"#utility.yul\":4335:4341   */\n      dup2\n        /* \"#utility.yul\":4323:4333   */\n      dup2\n        /* \"#utility.yul\":4320:4342   */\n      lt\n        /* \"#utility.yul\":4299:4317   */\n      0xffffffffffffffff\n        /* \"#utility.yul\":4287:4297   */\n      dup3\n        /* \"#utility.yul\":4284:4318   */\n      gt\n        /* \"#utility.yul\":4281:4343   */\n      or\n        /* \"#utility.yul\":4278:4366   */\n      iszero\n      tag_155\n      jumpi\n        /* \"#utility.yul\":4346:4364   */\n      tag_156\n      tag_77\n      jump\t// in\n    tag_156:\n        /* \"#utility.yul\":4278:4366   */\n    tag_155:\n        /* \"#utility.yul\":4386:4396   */\n      dup1\n        /* \"#utility.yul\":4382:4384   */\n      0x40\n        /* \"#utility.yul\":4375:4397   */\n      mstore\n        /* \"#utility.yul\":4165:4403   */\n      pop\n        /* \"#utility.yul\":4122:4403   */\n      pop\n      pop\n      jump\t// out\n        /* \"#utility.yul\":4409:4538   */\n    tag_79:\n        /* \"#utility.yul\":4443:4449   */\n      0x00\n        /* \"#utility.yul\":4470:4490   */\n      tag_158\n      tag_59\n      jump\t// in\n    tag_158:\n        /* \"#utility.yul\":4460:4490   */\n      swap1\n      pop\n        /* \"#utility.yul\":4499:4532   */\n      tag_159\n        /* \"#utility.yul\":4527:4531   */\n      dup3\n        /* \"#utility.yul\":4519:4525   */\n      dup3\n        /* \"#utility.yul\":4499:4532   */\n      tag_78\n      jump\t// in\n    tag_159:\n        /* \"#utility.yul\":4409:4538   */\n      swap2\n      swap1\n      pop\n      jump\t// out\n        /* \"#utility.yul\":4544:4852   */\n    tag_80:\n        /* \"#utility.yul\":4606:4610   */\n      0x00\n        /* \"#utility.yul\":4696:4714   */\n      0xffffffffffffffff\n        /* \"#utility.yul\":4688:4694   */\n      dup3\n        /* \"#utility.yul\":4685:4715   */\n      gt\n        /* \"#utility.yul\":4682:4738   */\n      iszero\n      tag_161\n      jumpi\n        /* \"#utility.yul\":4718:4736   */\n      tag_162\n      tag_77\n      jump\t// in\n    tag_162:\n        /* \"#utility.yul\":4682:4738   */\n    tag_161:\n        /* \"#utility.yul\":4756:4785   */\n      tag_163\n        /* \"#utility.yul\":4778:4784   */\n      dup3\n        /* \"#utility.yul\":4756:4785   */\n      tag_68\n      jump\t// in\n    tag_163:\n        /* \"#utility.yul\":4748:4785   */\n      swap1\n      pop\n        /* \"#utility.yul\":4840:4844   */\n      0x20\n        /* \"#utility.yul\":4834:4838   */\n      dup2\n        /* \"#utility.yul\":4830:4845   */\n      add\n        /* \"#utility.yul\":4822:4845   */\n      swap1\n      pop\n        /* \"#utility.yul\":4544:4852   */\n      swap2\n      swap1\n      pop\n      jump\t// out\n        /* \"#utility.yul\":4858:5004   */\n    tag_81:\n        /* \"#utility.yul\":4955:4961   */\n      dup3\n        /* \"#utility.yul\":4950:4953   */\n      dup2\n        /* \"#utility.yul\":4945:4948   */\n      dup4\n        /* \"#utility.yul\":4932:4962   */\n      calldatacopy\n        /* \"#utility.yul\":4996:4997   */\n      0x00\n        /* \"#utility.yul\":4987:4993   */\n      dup4\n        /* \"#utility.yul\":4982:4985   */\n      dup4\n        /* \"#utility.yul\":4978:4994   */\n      add\n        /* \"#utility.yul\":4971:4998   */\n      mstore\n        /* \"#utility.yul\":4858:5004   */\n      pop\n      pop\n      pop\n      jump\t// out\n        /* \"#utility.yul\":5010:5435   */\n    tag_82:\n        /* \"#utility.yul\":5088:5093   */\n      0x00\n        /* \"#utility.yul\":5113:5179   */\n      tag_166\n        /* \"#utility.yul\":5129:5178   */\n      tag_167\n        /* \"#utility.yul\":5171:5177   */\n      dup5\n        /* \"#utility.yul\":5129:5178   */\n      tag_80\n      jump\t// in\n    tag_167:\n        /* \"#utility.yul\":5113:5179   */\n      tag_79\n      jump\t// in\n    tag_166:\n        /* \"#utility.yul\":5104:5179   */\n      swap1\n      pop\n        /* \"#utility.yul\":5202:5208   */\n      dup3\n        /* \"#utility.yul\":5195:5200   */\n      dup2\n        /* \"#utility.yul\":5188:5209   */\n      mstore\n        /* \"#utility.yul\":5240:5244   */\n      0x20\n        /* \"#utility.yul\":5233:5238   */\n      dup2\n        /* \"#utility.yul\":5229:5245   */\n      add\n        /* \"#utility.yul\":5278:5281   */\n      dup5\n        /* \"#utility.yul\":5269:5275   */\n      dup5\n        /* \"#utility.yul\":5264:5267   */\n      dup5\n        /* \"#utility.yul\":5260:5276   */\n      add\n        /* \"#utility.yul\":5257:5282   */\n      gt\n        /* \"#utility.yul\":5254:5366   */\n      iszero\n      tag_168\n      jumpi\n        /* \"#utility.yul\":5285:5364   */\n      tag_169\n      tag_76\n      jump\t// in\n    tag_169:\n        /* \"#utility.yul\":5254:5366   */\n    tag_168:\n        /* \"#utility.yul\":5375:5429   */\n      tag_170\n        /* \"#utility.yul\":5422:5428   */\n      dup5\n        /* \"#utility.yul\":5417:5420   */\n      dup3\n        /* \"#utility.yul\":5412:5415   */\n      dup6\n        /* \"#utility.yul\":5375:5429   */\n      tag_81\n      jump\t// in\n    tag_170:\n        /* \"#utility.yul\":5094:5435   */\n      pop\n        /* \"#utility.yul\":5010:5435   */\n      swap4\n      swap3\n      pop\n      pop\n      pop\n      jump\t// out\n        /* \"#utility.yul\":5455:5795   */\n    tag_83:\n        /* \"#utility.yul\":5511:5516   */\n      0x00\n        /* \"#utility.yul\":5560:5563   */\n      dup3\n        /* \"#utility.yul\":5553:5557   */\n      0x1f\n        /* \"#utility.yul\":5545:5551   */\n      dup4\n        /* \"#utility.yul\":5541:5558   */\n      add\n        /* \"#utility.yul\":5537:5564   */\n      slt\n        /* \"#utility.yul\":5527:5649   */\n      tag_172\n      jumpi\n        /* \"#utility.yul\":5568:5647   */\n      tag_173\n      tag_75\n      jump\t// in\n    tag_173:\n        /* \"#utility.yul\":5527:5649   */\n    tag_172:\n        /* \"#utility.yul\":5685:5691   */\n      dup2\n        /* \"#utility.yul\":5672:5692   */\n      calldataload\n        /* \"#utility.yul\":5710:5789   */\n      tag_174\n        /* \"#utility.yul\":5785:5788   */\n      dup5\n        /* \"#utility.yul\":5777:5783   */\n      dup3\n        /* \"#utility.yul\":5770:5774   */\n      0x20\n        /* \"#utility.yul\":5762:5768   */\n      dup7\n        /* \"#utility.yul\":5758:5775   */\n      add\n        /* \"#utility.yul\":5710:5789   */\n      tag_82\n      jump\t// in\n    tag_174:\n        /* \"#utility.yul\":5701:5789   */\n      swap2\n      pop\n        /* \"#utility.yul\":5517:5795   */\n      pop\n        /* \"#utility.yul\":5455:5795   */\n      swap3\n      swap2\n      pop\n      pop\n      jump\t// out\n        /* \"#utility.yul\":5801:5923   */\n    tag_84:\n        /* \"#utility.yul\":5874:5898   */\n      tag_176\n        /* \"#utility.yul\":5892:5897   */\n      dup2\n        /* \"#utility.yul\":5874:5898   */\n      tag_72\n      jump\t// in\n    tag_176:\n        /* \"#utility.yul\":5867:5872   */\n      dup2\n        /* \"#utility.yul\":5864:5899   */\n      eq\n        /* \"#utility.yul\":5854:5917   */\n      tag_177\n      jumpi\n        /* \"#utility.yul\":5913:5914   */\n      0x00\n        /* \"#utility.yul\":5910:5911   */\n      dup1\n        /* \"#utility.yul\":5903:5915   */\n      revert\n        /* \"#utility.yul\":5854:5917   */\n    tag_177:\n        /* \"#utility.yul\":5801:5923   */\n      pop\n      jump\t// out\n        /* \"#utility.yul\":5929:6068   */\n    tag_85:\n        /* \"#utility.yul\":5975:5980   */\n      0x00\n        /* \"#utility.yul\":6013:6019   */\n      dup2\n        /* \"#utility.yul\":6000:6020   */\n      calldataload\n        /* \"#utility.yul\":5991:6020   */\n      swap1\n      pop\n        /* \"#utility.yul\":6029:6062   */\n      tag_179\n        /* \"#utility.yul\":6056:6061   */\n      dup2\n        /* \"#utility.yul\":6029:6062   */\n      tag_84\n      jump\t// in\n    tag_179:\n        /* \"#utility.yul\":5929:6068   */\n      swap3\n      swap2\n      pop\n      pop\n      jump\t// out\n        /* \"#utility.yul\":6074:6873   */\n    tag_15:\n        /* \"#utility.yul\":6161:6167   */\n      0x00\n        /* \"#utility.yul\":6169:6175   */\n      dup1\n        /* \"#utility.yul\":6177:6183   */\n      0x00\n        /* \"#utility.yul\":6226:6228   */\n      0x60\n        /* \"#utility.yul\":6214:6223   */\n      dup5\n        /* \"#utility.yul\":6205:6212   */\n      dup7\n        /* \"#utility.yul\":6201:6224   */\n      sub\n        /* \"#utility.yul\":6197:6229   */\n      slt\n        /* \"#utility.yul\":6194:6313   */\n      iszero\n      tag_181\n      jumpi\n        /* \"#utility.yul\":6232:6311   */\n      tag_182\n      tag_60\n      jump\t// in\n    tag_182:\n        /* \"#utility.yul\":6194:6313   */\n    tag_181:\n        /* \"#utility.yul\":6380:6381   */\n      0x00\n        /* \"#utility.yul\":6369:6378   */\n      dup5\n        /* \"#utility.yul\":6365:6382   */\n      add\n        /* \"#utility.yul\":6352:6383   */\n      calldataload\n        /* \"#utility.yul\":6410:6428   */\n      0xffffffffffffffff\n        /* \"#utility.yul\":6402:6408   */\n      dup2\n        /* \"#utility.yul\":6399:6429   */\n      gt\n        /* \"#utility.yul\":6396:6513   */\n      iszero\n      tag_183\n      jumpi\n        /* \"#utility.yul\":6432:6511   */\n      tag_184\n      tag_61\n      jump\t// in\n    tag_184:\n        /* \"#utility.yul\":6396:6513   */\n    tag_183:\n        /* \"#utility.yul\":6537:6600   */\n      tag_185\n        /* \"#utility.yul\":6592:6599   */\n      dup7\n        /* \"#utility.yul\":6583:6589   */\n      dup3\n        /* \"#utility.yul\":6572:6581   */\n      dup8\n        /* \"#utility.yul\":6568:6590   */\n      add\n        /* \"#utility.yul\":6537:6600   */\n      tag_83\n      jump\t// in\n    tag_185:\n        /* \"#utility.yul\":6527:6600   */\n      swap4\n      pop\n        /* \"#utility.yul\":6323:6610   */\n      pop\n        /* \"#utility.yul\":6649:6651   */\n      0x20\n        /* \"#utility.yul\":6675:6728   */\n      tag_186\n        /* \"#utility.yul\":6720:6727   */\n      dup7\n        /* \"#utility.yul\":6711:6717   */\n      dup3\n        /* \"#utility.yul\":6700:6709   */\n      dup8\n        /* \"#utility.yul\":6696:6718   */\n      add\n        /* \"#utility.yul\":6675:6728   */\n      tag_64\n      jump\t// in\n    tag_186:\n        /* \"#utility.yul\":6665:6728   */\n      swap3\n      pop\n        /* \"#utility.yul\":6620:6738   */\n      pop\n        /* \"#utility.yul\":6777:6779   */\n      0x40\n        /* \"#utility.yul\":6803:6856   */\n      tag_187\n        /* \"#utility.yul\":6848:6855   */\n      dup7\n        /* \"#utility.yul\":6839:6845   */\n      dup3\n        /* \"#utility.yul\":6828:6837   */\n      dup8\n        /* \"#utility.yul\":6824:6846   */\n      add\n        /* \"#utility.yul\":6803:6856   */\n      tag_85\n      jump\t// in\n    tag_187:\n        /* \"#utility.yul\":6793:6856   */\n      swap2\n      pop\n        /* \"#utility.yul\":6748:6866   */\n      pop\n        /* \"#utility.yul\":6074:6873   */\n      swap3\n      pop\n      swap3\n      pop\n      swap3\n      jump\t// out\n        /* \"#utility.yul\":6879:6997   */\n    tag_86:\n        /* \"#utility.yul\":6966:6990   */\n      tag_189\n        /* \"#utility.yul\":6984:6989   */\n      dup2\n        /* \"#utility.yul\":6966:6990   */\n      tag_72\n      jump\t// in\n    tag_189:\n        /* \"#utility.yul\":6961:6964   */\n      dup3\n        /* \"#utility.yul\":6954:6991   */\n      mstore\n        /* \"#utility.yul\":6879:6997   */\n      pop\n      pop\n      jump\t// out\n        /* \"#utility.yul\":7003:7225   */\n    tag_21:\n        /* \"#utility.yul\":7096:7100   */\n      0x00\n        /* \"#utility.yul\":7134:7136   */\n      0x20\n        /* \"#utility.yul\":7123:7132   */\n      dup3\n        /* \"#utility.yul\":7119:7137   */\n      add\n        /* \"#utility.yul\":7111:7137   */\n      swap1\n      pop\n        /* \"#utility.yul\":7147:7218   */\n      tag_191\n        /* \"#utility.yul\":7215:7216   */\n      0x00\n        /* \"#utility.yul\":7204:7213   */\n      dup4\n        /* \"#utility.yul\":7200:7217   */\n      add\n        /* \"#utility.yul\":7191:7197   */\n      dup5\n        /* \"#utility.yul\":7147:7218   */\n      tag_86\n      jump\t// in\n    tag_191:\n        /* \"#utility.yul\":7003:7225   */\n      swap3\n      swap2\n      pop\n      pop\n      jump\t// out\n        /* \"#utility.yul\":7231:7367   */\n    tag_87:\n        /* \"#utility.yul\":7320:7326   */\n      0x00\n        /* \"#utility.yul\":7354:7359   */\n      dup2\n        /* \"#utility.yul\":7348:7360   */\n      mload\n        /* \"#utility.yul\":7338:7360   */\n      swap1\n      pop\n        /* \"#utility.yul\":7231:7367   */\n      swap2\n      swap1\n      pop\n      jump\t// out\n        /* \"#utility.yul\":7373:7579   */\n    tag_88:\n        /* \"#utility.yul\":7494:7505   */\n      0x00\n        /* \"#utility.yul\":7528:7534   */\n      dup3\n        /* \"#utility.yul\":7523:7526   */\n      dup3\n        /* \"#utility.yul\":7516:7535   */\n      mstore\n        /* \"#utility.yul\":7568:7572   */\n      0x20\n        /* \"#utility.yul\":7563:7566   */\n      dup3\n        /* \"#utility.yul\":7559:7573   */\n      add\n        /* \"#utility.yul\":7544:7573   */\n      swap1\n      pop\n        /* \"#utility.yul\":7373:7579   */\n      swap3\n      swap2\n      pop\n      pop\n      jump\t// out\n        /* \"#utility.yul\":7585:7739   */\n    tag_89:\n        /* \"#utility.yul\":7674:7678   */\n      0x00\n        /* \"#utility.yul\":7697:7700   */\n      dup2\n        /* \"#utility.yul\":7689:7700   */\n      swap1\n      pop\n        /* \"#utility.yul\":7727:7731   */\n      0x20\n        /* \"#utility.yul\":7722:7725   */\n      dup3\n        /* \"#utility.yul\":7718:7732   */\n      add\n        /* \"#utility.yul\":7710:7732   */\n      swap1\n      pop\n        /* \"#utility.yul\":7585:7739   */\n      swap2\n      swap1\n      pop\n      jump\t// out\n        /* \"#utility.yul\":7803:8572   */\n    tag_90:\n        /* \"#utility.yul\":7906:7909   */\n      0x00\n        /* \"#utility.yul\":7942:7946   */\n      0x60\n        /* \"#utility.yul\":7937:7940   */\n      dup4\n        /* \"#utility.yul\":7933:7947   */\n      add\n        /* \"#utility.yul\":8029:8033   */\n      0x00\n        /* \"#utility.yul\":8022:8027   */\n      dup4\n        /* \"#utility.yul\":8018:8034   */\n      add\n        /* \"#utility.yul\":8012:8035   */\n      mload\n        /* \"#utility.yul\":8082:8085   */\n      dup5\n        /* \"#utility.yul\":8076:8080   */\n      dup3\n        /* \"#utility.yul\":8072:8086   */\n      sub\n        /* \"#utility.yul\":8065:8069   */\n      0x00\n        /* \"#utility.yul\":8060:8063   */\n      dup7\n        /* \"#utility.yul\":8056:8070   */\n      add\n        /* \"#utility.yul\":8049:8087   */\n      mstore\n        /* \"#utility.yul\":8108:8181   */\n      tag_196\n        /* \"#utility.yul\":8176:8180   */\n      dup3\n        /* \"#utility.yul\":8162:8174   */\n      dup3\n        /* \"#utility.yul\":8108:8181   */\n      tag_69\n      jump\t// in\n    tag_196:\n        /* \"#utility.yul\":8100:8181   */\n      swap2\n      pop\n        /* \"#utility.yul\":7957:8192   */\n      pop\n        /* \"#utility.yul\":8276:8280   */\n      0x20\n        /* \"#utility.yul\":8269:8274   */\n      dup4\n        /* \"#utility.yul\":8265:8281   */\n      add\n        /* \"#utility.yul\":8259:8282   */\n      mload\n        /* \"#utility.yul\":8295:8358   */\n      tag_197\n        /* \"#utility.yul\":8352:8356   */\n      0x20\n        /* \"#utility.yul\":8347:8350   */\n      dup7\n        /* \"#utility.yul\":8343:8357   */\n      add\n        /* \"#utility.yul\":8329:8341   */\n      dup3\n        /* \"#utility.yul\":8295:8358   */\n      tag_70\n      jump\t// in\n    tag_197:\n        /* \"#utility.yul\":8202:8368   */\n      pop\n        /* \"#utility.yul\":8453:8457   */\n      0x40\n        /* \"#utility.yul\":8446:8451   */\n      dup4\n        /* \"#utility.yul\":8442:8458   */\n      add\n        /* \"#utility.yul\":8436:8459   */\n      mload\n        /* \"#utility.yul\":8472:8535   */\n      tag_198\n        /* \"#utility.yul\":8529:8533   */\n      0x40\n        /* \"#utility.yul\":8524:8527   */\n      dup7\n        /* \"#utility.yul\":8520:8534   */\n      add\n        /* \"#utility.yul\":8506:8518   */\n      dup3\n        /* \"#utility.yul\":8472:8535   */\n      tag_73\n      jump\t// in\n    tag_198:\n        /* \"#utility.yul\":8378:8545   */\n      pop\n        /* \"#utility.yul\":8562:8566   */\n      dup1\n        /* \"#utility.yul\":8555:8566   */\n      swap2\n      pop\n        /* \"#utility.yul\":7911:8572   */\n      pop\n        /* \"#utility.yul\":7803:8572   */\n      swap3\n      swap2\n      pop\n      pop\n      jump\t// out\n        /* \"#utility.yul\":8578:8822   */\n    tag_91:\n        /* \"#utility.yul\":8691:8701   */\n      0x00\n        /* \"#utility.yul\":8726:8816   */\n      tag_200\n        /* \"#utility.yul\":8812:8815   */\n      dup4\n        /* \"#utility.yul\":8804:8810   */\n      dup4\n        /* \"#utility.yul\":8726:8816   */\n      tag_90\n      jump\t// in\n    tag_200:\n        /* \"#utility.yul\":8712:8816   */\n      swap1\n      pop\n        /* \"#utility.yul\":8578:8822   */\n      swap3\n      swap2\n      pop\n      pop\n      jump\t// out\n        /* \"#utility.yul\":8828:8963   */\n    tag_92:\n        /* \"#utility.yul\":8920:8924   */\n      0x00\n        /* \"#utility.yul\":8952:8956   */\n      0x20\n        /* \"#utility.yul\":8947:8950   */\n      dup3\n        /* \"#utility.yul\":8943:8957   */\n      add\n        /* \"#utility.yul\":8935:8957   */\n      swap1\n      pop\n        /* \"#utility.yul\":8828:8963   */\n      swap2\n      swap1\n      pop\n      jump\t// out\n        /* \"#utility.yul\":9031:10118   */\n    tag_93:\n        /* \"#utility.yul\":9194:9197   */\n      0x00\n        /* \"#utility.yul\":9223:9299   */\n      tag_203\n        /* \"#utility.yul\":9293:9298   */\n      dup3\n        /* \"#utility.yul\":9223:9299   */\n      tag_87\n      jump\t// in\n    tag_203:\n        /* \"#utility.yul\":9315:9423   */\n      tag_204\n        /* \"#utility.yul\":9416:9422   */\n      dup2\n        /* \"#utility.yul\":9411:9414   */\n      dup6\n        /* \"#utility.yul\":9315:9423   */\n      tag_88\n      jump\t// in\n    tag_204:\n        /* \"#utility.yul\":9308:9423   */\n      swap4\n      pop\n        /* \"#utility.yul\":9449:9452   */\n      dup4\n        /* \"#utility.yul\":9494:9498   */\n      0x20\n        /* \"#utility.yul\":9486:9492   */\n      dup3\n        /* \"#utility.yul\":9482:9499   */\n      mul\n        /* \"#utility.yul\":9477:9480   */\n      dup6\n        /* \"#utility.yul\":9473:9500   */\n      add\n        /* \"#utility.yul\":9524:9602   */\n      tag_205\n        /* \"#utility.yul\":9596:9601   */\n      dup6\n        /* \"#utility.yul\":9524:9602   */\n      tag_89\n      jump\t// in\n    tag_205:\n        /* \"#utility.yul\":9625:9632   */\n      dup1\n        /* \"#utility.yul\":9656:9657   */\n      0x00\n        /* \"#utility.yul\":9641:10073   */\n    tag_206:\n        /* \"#utility.yul\":9666:9672   */\n      dup6\n        /* \"#utility.yul\":9663:9664   */\n      dup2\n        /* \"#utility.yul\":9660:9673   */\n      lt\n        /* \"#utility.yul\":9641:10073   */\n      iszero\n      tag_208\n      jumpi\n        /* \"#utility.yul\":9737:9746   */\n      dup5\n        /* \"#utility.yul\":9731:9735   */\n      dup5\n        /* \"#utility.yul\":9727:9747   */\n      sub\n        /* \"#utility.yul\":9722:9725   */\n      dup10\n        /* \"#utility.yul\":9715:9748   */\n      mstore\n        /* \"#utility.yul\":9788:9794   */\n      dup2\n        /* \"#utility.yul\":9782:9795   */\n      mload\n        /* \"#utility.yul\":9816:9924   */\n      tag_209\n        /* \"#utility.yul\":9919:9923   */\n      dup6\n        /* \"#utility.yul\":9904:9917   */\n      dup3\n        /* \"#utility.yul\":9816:9924   */\n      tag_91\n      jump\t// in\n    tag_209:\n        /* \"#utility.yul\":9808:9924   */\n      swap5\n      pop\n        /* \"#utility.yul\":9947:10029   */\n      tag_210\n        /* \"#utility.yul\":10022:10028   */\n      dup4\n        /* \"#utility.yul\":9947:10029   */\n      tag_92\n      jump\t// in\n    tag_210:\n        /* \"#utility.yul\":9937:10029   */\n      swap3\n      pop\n        /* \"#utility.yul\":10058:10062   */\n      0x20\n        /* \"#utility.yul\":10053:10056   */\n      dup11\n        /* \"#utility.yul\":10049:10063   */\n      add\n        /* \"#utility.yul\":10042:10063   */\n      swap10\n      pop\n        /* \"#utility.yul\":9701:10073   */\n      pop\n        /* \"#utility.yul\":9688:9689   */\n      0x01\n        /* \"#utility.yul\":9685:9686   */\n      dup2\n        /* \"#utility.yul\":9681:9690   */\n      add\n        /* \"#utility.yul\":9676:9690   */\n      swap1\n      pop\n        /* \"#utility.yul\":9641:10073   */\n      jump(tag_206)\n    tag_208:\n        /* \"#utility.yul\":9645:9659   */\n      pop\n        /* \"#utility.yul\":10089:10093   */\n      dup3\n        /* \"#utility.yul\":10082:10093   */\n      swap8\n      pop\n        /* \"#utility.yul\":10109:10112   */\n      dup8\n        /* \"#utility.yul\":10102:10112   */\n      swap6\n      pop\n        /* \"#utility.yul\":9199:10118   */\n      pop\n      pop\n      pop\n      pop\n      pop\n        /* \"#utility.yul\":9031:10118   */\n      swap3\n      swap2\n      pop\n      pop\n      jump\t// out\n        /* \"#utility.yul\":10124:10585   */\n    tag_25:\n        /* \"#utility.yul\":10311:10315   */\n      0x00\n        /* \"#utility.yul\":10349:10351   */\n      0x20\n        /* \"#utility.yul\":10338:10347   */\n      dup3\n        /* \"#utility.yul\":10334:10352   */\n      add\n        /* \"#utility.yul\":10326:10352   */\n      swap1\n      pop\n        /* \"#utility.yul\":10398:10407   */\n      dup2\n        /* \"#utility.yul\":10392:10396   */\n      dup2\n        /* \"#utility.yul\":10388:10408   */\n      sub\n        /* \"#utility.yul\":10384:10385   */\n      0x00\n        /* \"#utility.yul\":10373:10382   */\n      dup4\n        /* \"#utility.yul\":10369:10386   */\n      add\n        /* \"#utility.yul\":10362:10409   */\n      mstore\n        /* \"#utility.yul\":10426:10578   */\n      tag_212\n        /* \"#utility.yul\":10573:10577   */\n      dup2\n        /* \"#utility.yul\":10564:10570   */\n      dup5\n        /* \"#utility.yul\":10426:10578   */\n      tag_93\n      jump\t// in\n    tag_212:\n        /* \"#utility.yul\":10418:10578   */\n      swap1\n      pop\n        /* \"#utility.yul\":10124:10585   */\n      swap3\n      swap2\n      pop\n      pop\n      jump\t// out\n        /* \"#utility.yul\":10591:10771   */\n    tag_94:\n        /* \"#utility.yul\":10639:10716   */\n      0x4e487b7100000000000000000000000000000000000000000000000000000000\n        /* \"#utility.yul\":10636:10637   */\n      0x00\n        /* \"#utility.yul\":10629:10717   */\n      mstore\n        /* \"#utility.yul\":10736:10740   */\n      0x11\n        /* \"#utility.yul\":10733:10734   */\n      0x04\n        /* \"#utility.yul\":10726:10741   */\n      mstore\n        /* \"#utility.yul\":10760:10764   */\n      0x24\n        /* \"#utility.yul\":10757:10758   */\n      0x00\n        /* \"#utility.yul\":10750:10765   */\n      revert\n        /* \"#utility.yul\":10777:10971   */\n    tag_30:\n        /* \"#utility.yul\":10817:10821   */\n      0x00\n        /* \"#utility.yul\":10837:10857   */\n      tag_215\n        /* \"#utility.yul\":10855:10856   */\n      dup3\n        /* \"#utility.yul\":10837:10857   */\n      tag_62\n      jump\t// in\n    tag_215:\n        /* \"#utility.yul\":10832:10857   */\n      swap2\n      pop\n        /* \"#utility.yul\":10871:10891   */\n      tag_216\n        /* \"#utility.yul\":10889:10890   */\n      dup4\n        /* \"#utility.yul\":10871:10891   */\n      tag_62\n      jump\t// in\n    tag_216:\n        /* \"#utility.yul\":10866:10891   */\n      swap3\n      pop\n        /* \"#utility.yul\":10915:10916   */\n      dup3\n        /* \"#utility.yul\":10912:10913   */\n      dup3\n        /* \"#utility.yul\":10908:10917   */\n      sub\n        /* \"#utility.yul\":10900:10917   */\n      swap1\n      pop\n        /* \"#utility.yul\":10939:10940   */\n      dup2\n        /* \"#utility.yul\":10933:10937   */\n      dup2\n        /* \"#utility.yul\":10930:10941   */\n      gt\n        /* \"#utility.yul\":10927:10964   */\n      iszero\n      tag_217\n      jumpi\n        /* \"#utility.yul\":10944:10962   */\n      tag_218\n      tag_94\n      jump\t// in\n    tag_218:\n        /* \"#utility.yul\":10927:10964   */\n    tag_217:\n        /* \"#utility.yul\":10777:10971   */\n      swap3\n      swap2\n      pop\n      pop\n      jump\t// out\n        /* \"#utility.yul\":10977:11157   */\n    tag_33:\n        /* \"#utility.yul\":11025:11102   */\n      0x4e487b7100000000000000000000000000000000000000000000000000000000\n        /* \"#utility.yul\":11022:11023   */\n      0x00\n        /* \"#utility.yul\":11015:11103   */\n      mstore\n        /* \"#utility.yul\":11122:11126   */\n      0x32\n        /* \"#utility.yul\":11119:11120   */\n      0x04\n        /* \"#utility.yul\":11112:11127   */\n      mstore\n        /* \"#utility.yul\":11146:11150   */\n      0x24\n        /* \"#utility.yul\":11143:11144   */\n      0x00\n        /* \"#utility.yul\":11136:11151   */\n      revert\n        /* \"#utility.yul\":11163:11343   */\n    tag_95:\n        /* \"#utility.yul\":11211:11288   */\n      0x4e487b7100000000000000000000000000000000000000000000000000000000\n        /* \"#utility.yul\":11208:11209   */\n      0x00\n        /* \"#utility.yul\":11201:11289   */\n      mstore\n        /* \"#utility.yul\":11308:11312   */\n      0x22\n        /* \"#utility.yul\":11305:11306   */\n      0x04\n        /* \"#utility.yul\":11298:11313   */\n      mstore\n        /* \"#utility.yul\":11332:11336   */\n      0x24\n        /* \"#utility.yul\":11329:11330   */\n      0x00\n        /* \"#utility.yul\":11322:11337   */\n      revert\n        /* \"#utility.yul\":11349:11669   */\n    tag_36:\n        /* \"#utility.yul\":11393:11399   */\n      0x00\n        /* \"#utility.yul\":11430:11431   */\n      0x02\n        /* \"#utility.yul\":11424:11428   */\n      dup3\n        /* \"#utility.yul\":11420:11432   */\n      div\n        /* \"#utility.yul\":11410:11432   */\n      swap1\n      pop\n        /* \"#utility.yul\":11477:11478   */\n      0x01\n        /* \"#utility.yul\":11471:11475   */\n      dup3\n        /* \"#utility.yul\":11467:11479   */\n      and\n        /* \"#utility.yul\":11498:11516   */\n      dup1\n        /* \"#utility.yul\":11488:11569   */\n      tag_222\n      jumpi\n        /* \"#utility.yul\":11554:11558   */\n      0x7f\n        /* \"#utility.yul\":11546:11552   */\n      dup3\n        /* \"#utility.yul\":11542:11559   */\n      and\n        /* \"#utility.yul\":11532:11559   */\n      swap2\n      pop\n        /* \"#utility.yul\":11488:11569   */\n    tag_222:\n        /* \"#utility.yul\":11616:11618   */\n      0x20\n        /* \"#utility.yul\":11608:11614   */\n      dup3\n        /* \"#utility.yul\":11605:11619   */\n      lt\n        /* \"#utility.yul\":11585:11603   */\n      dup2\n        /* \"#utility.yul\":11582:11620   */\n      sub\n        /* \"#utility.yul\":11579:11663   */\n      tag_223\n      jumpi\n        /* \"#utility.yul\":11635:11653   */\n      tag_224\n      tag_95\n      jump\t// in\n    tag_224:\n        /* \"#utility.yul\":11579:11663   */\n    tag_223:\n        /* \"#utility.yul\":11400:11669   */\n      pop\n        /* \"#utility.yul\":11349:11669   */\n      swap2\n      swap1\n      pop\n      jump\t// out\n        /* \"#utility.yul\":11675:11816   */\n    tag_96:\n        /* \"#utility.yul\":11724:11728   */\n      0x00\n        /* \"#utility.yul\":11747:11750   */\n      dup2\n        /* \"#utility.yul\":11739:11750   */\n      swap1\n      pop\n        /* \"#utility.yul\":11770:11773   */\n      dup2\n        /* \"#utility.yul\":11767:11768   */\n      0x00\n        /* \"#utility.yul\":11760:11774   */\n      mstore\n        /* \"#utility.yul\":11804:11808   */\n      0x20\n        /* \"#utility.yul\":11801:11802   */\n      0x00\n        /* \"#utility.yul\":11791:11809   */\n      keccak256\n        /* \"#utility.yul\":11783:11809   */\n      swap1\n      pop\n        /* \"#utility.yul\":11675:11816   */\n      swap2\n      swap1\n      pop\n      jump\t// out\n        /* \"#utility.yul\":11822:11915   */\n    tag_97:\n        /* \"#utility.yul\":11859:11865   */\n      0x00\n        /* \"#utility.yul\":11906:11908   */\n      0x20\n        /* \"#utility.yul\":11901:11903   */\n      0x1f\n        /* \"#utility.yul\":11894:11899   */\n      dup4\n        /* \"#utility.yul\":11890:11904   */\n      add\n        /* \"#utility.yul\":11886:11909   */\n      div\n        /* \"#utility.yul\":11876:11909   */\n      swap1\n      pop\n        /* \"#utility.yul\":11822:11915   */\n      swap2\n      swap1\n      pop\n      jump\t// out\n        /* \"#utility.yul\":11921:12028   */\n    tag_98:\n        /* \"#utility.yul\":11965:11973   */\n      0x00\n        /* \"#utility.yul\":12015:12020   */\n      dup3\n        /* \"#utility.yul\":12009:12013   */\n      dup3\n        /* \"#utility.yul\":12005:12021   */\n      shl\n        /* \"#utility.yul\":11984:12021   */\n      swap1\n      pop\n        /* \"#utility.yul\":11921:12028   */\n      swap3\n      swap2\n      pop\n      pop\n      jump\t// out\n        /* \"#utility.yul\":12034:12427   */\n    tag_99:\n        /* \"#utility.yul\":12103:12109   */\n      0x00\n        /* \"#utility.yul\":12153:12154   */\n      0x08\n        /* \"#utility.yul\":12141:12151   */\n      dup4\n        /* \"#utility.yul\":12137:12155   */\n      mul\n        /* \"#utility.yul\":12176:12273   */\n      tag_229\n        /* \"#utility.yul\":12206:12272   */\n      0xffffffffffffffffffffffffffffffffffffffffffffffffffffffffffffffff\n        /* \"#utility.yul\":12195:12204   */\n      dup3\n        /* \"#utility.yul\":12176:12273   */\n      tag_98\n      jump\t// in\n    tag_229:\n        /* \"#utility.yul\":12294:12333   */\n      tag_230\n        /* \"#utility.yul\":12324:12332   */\n      dup7\n        /* \"#utility.yul\":12313:12322   */\n      dup4\n        /* \"#utility.yul\":12294:12333   */\n      tag_98\n      jump\t// in\n    tag_230:\n        /* \"#utility.yul\":12282:12333   */\n      swap6\n      pop\n        /* \"#utility.yul\":12366:12370   */\n      dup1\n        /* \"#utility.yul\":12362:12371   */\n      not\n        /* \"#utility.yul\":12355:12360   */\n      dup5\n        /* \"#utility.yul\":12351:12372   */\n      and\n        /* \"#utility.yul\":12342:12372   */\n      swap4\n      pop\n        /* \"#utility.yul\":12415:12419   */\n      dup1\n        /* \"#utility.yul\":12405:12413   */\n      dup7\n        /* \"#utility.yul\":12401:12420   */\n      and\n        /* \"#utility.yul\":12394:12399   */\n      dup5\n        /* \"#utility.yul\":12391:12421   */\n      or\n        /* \"#utility.yul\":12381:12421   */\n      swap3\n      pop\n        /* \"#utility.yul\":12110:12427   */\n      pop\n      pop\n        /* \"#utility.yul\":12034:12427   */\n      swap4\n      swap3\n      pop\n      pop\n      pop\n      jump\t// out\n        /* \"#utility.yul\":12433:12493   */\n    tag_100:\n        /* \"#utility.yul\":12461:12464   */\n      0x00\n        /* \"#utility.yul\":12482:12487   */\n      dup2\n        /* \"#utility.yul\":12475:12487   */\n      swap1\n      pop\n        /* \"#utility.yul\":12433:12493   */\n      swap2\n      swap1\n      pop\n      jump\t// out\n        /* \"#utility.yul\":12499:12641   */\n    tag_101:\n        /* \"#utility.yul\":12549:12558   */\n      0x00\n        /* \"#utility.yul\":12582:12635   */\n      tag_233\n        /* \"#utility.yul\":12600:12634   */\n      tag_234\n        /* \"#utility.yul\":12609:12633   */\n      tag_235\n        /* \"#utility.yul\":12627:12632   */\n      dup5\n        /* \"#utility.yul\":12609:12633   */\n      tag_62\n      jump\t// in\n    tag_235:\n        /* \"#utility.yul\":12600:12634   */\n      tag_100\n      jump\t// in\n    tag_234:\n        /* \"#utility.yul\":12582:12635   */\n      tag_62\n      jump\t// in\n    tag_233:\n        /* \"#utility.yul\":12569:12635   */\n      swap1\n      pop\n        /* \"#utility.yul\":12499:12641   */\n      swap2\n      swap1\n      pop\n      jump\t// out\n        /* \"#utility.yul\":12647:12722   */\n    tag_102:\n        /* \"#utility.yul\":12690:12693   */\n      0x00\n        /* \"#utility.yul\":12711:12716   */\n      dup2\n        /* \"#utility.yul\":12704:12716   */\n      swap1\n      pop\n        /* \"#utility.yul\":12647:12722   */\n      swap2\n      swap1\n      pop\n      jump\t// out\n        /* \"#utility.yul\":12728:12997   */\n    tag_103:\n        /* \"#utility.yul\":12838:12877   */\n      tag_238\n        /* \"#utility.yul\":12869:12876   */\n      dup4\n        /* \"#utility.yul\":12838:12877   */\n      tag_101\n      jump\t// in\n    tag_238:\n        /* \"#utility.yul\":12899:12990   */\n      tag_239\n        /* \"#utility.yul\":12948:12989   */\n      tag_240\n        /* \"#utility.yul\":12972:12988   */\n      dup3\n        /* \"#utility.yul\":12948:12989   */\n      tag_102\n      jump\t// in\n    tag_240:\n        /* \"#utility.yul\":12940:12946   */\n      dup5\n        /* \"#utility.yul\":12933:12937   */\n      dup5\n        /* \"#utility.yul\":12927:12938   */\n      sload\n        /* \"#utility.yul\":12899:12990   */\n      tag_99\n      jump\t// in\n    tag_239:\n        /* \"#utility.yul\":12893:12897   */\n      dup3\n        /* \"#utility.yul\":12886:12991   */\n      sstore\n        /* \"#utility.yul\":12804:12997   */\n      pop\n        /* \"#utility.yul\":12728:12997   */\n      pop\n      pop\n      pop\n      jump\t// out\n        /* \"#utility.yul\":13003:13076   */\n    tag_104:\n        /* \"#utility.yul\":13048:13051   */\n      0x00\n        /* \"#utility.yul\":13003:13076   */\n      swap1\n      jump\t// out\n        /* \"#utility.yul\":13082:13271   */\n    tag_105:\n        /* \"#utility.yul\":13159:13191   */\n      tag_243\n      tag_104\n      jump\t// in\n    tag_243:\n        /* \"#utility.yul\":13200:13265   */\n      tag_244\n        /* \"#utility.yul\":13258:13264   */\n      dup2\n        /* \"#utility.yul\":13250:13256   */\n      dup5\n        /* \"#utility.yul\":13244:13248   */\n      dup5\n        /* \"#utility.yul\":13200:13265   */\n      tag_103\n      jump\t// in\n    tag_244:\n        /* \"#utility.yul\":13135:13271   */\n      pop\n        /* \"#utility.yul\":13082:13271   */\n      pop\n      pop\n      jump\t// out\n        /* \"#utility.yul\":13277:13463   */\n    tag_106:\n        /* \"#utility.yul\":13337:13457   */\n    tag_246:\n        /* \"#utility.yul\":13354:13357   */\n      dup2\n        /* \"#utility.yul\":13347:13352   */\n      dup2\n        /* \"#utility.yul\":13344:13358   */\n      lt\n        /* \"#utility.yul\":13337:13457   */\n      iszero\n      tag_248\n      jumpi\n        /* \"#utility.yul\":13408:13447   */\n      tag_249\n        /* \"#utility.yul\":13445:13446   */\n      0x00\n        /* \"#utility.yul\":13438:13443   */\n      dup3\n        /* \"#utility.yul\":13408:13447   */\n      tag_105\n      jump\t// in\n    tag_249:\n        /* \"#utility.yul\":13381:13382   */\n      0x01\n        /* \"#utility.yul\":13374:13379   */\n      dup2\n        /* \"#utility.yul\":13370:13383   */\n      add\n        /* \"#utility.yul\":13361:13383   */\n      swap1\n      pop\n        /* \"#utility.yul\":13337:13457   */\n      jump(tag_246)\n    tag_248:\n        /* \"#utility.yul\":13277:13463   */\n      pop\n      pop\n      jump\t// out\n        /* \"#utility.yul\":13469:14012   */\n    tag_107:\n        /* \"#utility.yul\":13570:13572   */\n      0x1f\n        /* \"#utility.yul\":13565:13568   */\n      dup3\n        /* \"#utility.yul\":13562:13573   */\n      gt\n        /* \"#utility.yul\":13559:14005   */\n      iszero\n      tag_251\n      jumpi\n        /* \"#utility.yul\":13604:13642   */\n      tag_252\n        /* \"#utility.yul\":13636:13641   */\n      dup2\n        /* \"#utility.yul\":13604:13642   */\n      tag_96\n      jump\t// in\n    tag_252:\n        /* \"#utility.yul\":13688:13717   */\n      tag_253\n        /* \"#utility.yul\":13706:13716   */\n      dup5\n        /* \"#utility.yul\":13688:13717   */\n      tag_97\n      jump\t// in\n    tag_253:\n        /* \"#utility.yul\":13678:13686   */\n      dup2\n        /* \"#utility.yul\":13674:13718   */\n      add\n        /* \"#utility.yul\":13871:13873   */\n      0x20\n        /* \"#utility.yul\":13859:13869   */\n      dup6\n        /* \"#utility.yul\":13856:13874   */\n      lt\n        /* \"#utility.yul\":13853:13902   */\n      iszero\n      tag_254\n      jumpi\n        /* \"#utility.yul\":13892:13900   */\n      dup2\n        /* \"#utility.yul\":13877:13900   */\n      swap1\n      pop\n        /* \"#utility.yul\":13853:13902   */\n    tag_254:\n        /* \"#utility.yul\":13915:13995   */\n      tag_255\n        /* \"#utility.yul\":13971:13993   */\n      tag_256\n        /* \"#utility.yul\":13989:13992   */\n      dup6\n        /* \"#utility.yul\":13971:13993   */\n      tag_97\n      jump\t// in\n    tag_256:\n        /* \"#utility.yul\":13961:13969   */\n      dup4\n        /* \"#utility.yul\":13957:13994   */\n      add\n        /* \"#utility.yul\":13944:13955   */\n      dup3\n        /* \"#utility.yul\":13915:13995   */\n      tag_106\n      jump\t// in\n    tag_255:\n        /* \"#utility.yul\":13574:14005   */\n      pop\n      pop\n        /* \"#utility.yul\":13559:14005   */\n    tag_251:\n        /* \"#utility.yul\":13469:14012   */\n      pop\n      pop\n      pop\n      jump\t// out\n        /* \"#utility.yul\":14018:14135   */\n    tag_108:\n        /* \"#utility.yul\":14072:14080   */\n      0x00\n        /* \"#utility.yul\":14122:14127   */\n      dup3\n        /* \"#utility.yul\":14116:14120   */\n      dup3\n        /* \"#utility.yul\":14112:14128   */\n      shr\n        /* \"#utility.yul\":14091:14128   */\n      swap1\n      pop\n        /* \"#utility.yul\":14018:14135   */\n      swap3\n      swap2\n      pop\n      pop\n      jump\t// out\n        /* \"#utility.yul\":14141:14310   */\n    tag_109:\n        /* \"#utility.yul\":14185:14191   */\n      0x00\n        /* \"#utility.yul\":14218:14269   */\n      tag_259\n        /* \"#utility.yul\":14266:14267   */\n      0x00\n        /* \"#utility.yul\":14262:14268   */\n      not\n        /* \"#utility.yul\":14254:14259   */\n      dup5\n        /* \"#utility.yul\":14251:14252   */\n      0x08\n        /* \"#utility.yul\":14247:14260   */\n      mul\n        /* \"#utility.yul\":14218:14269   */\n      tag_108\n      jump\t// in\n    tag_259:\n        /* \"#utility.yul\":14214:14270   */\n      not\n        /* \"#utility.yul\":14299:14303   */\n      dup1\n        /* \"#utility.yul\":14293:14297   */\n      dup4\n        /* \"#utility.yul\":14289:14304   */\n      and\n        /* \"#utility.yul\":14279:14304   */\n      swap2\n      pop\n        /* \"#utility.yul\":14192:14310   */\n      pop\n        /* \"#utility.yul\":14141:14310   */\n      swap3\n      swap2\n      pop\n      pop\n      jump\t// out\n        /* \"#utility.yul\":14315:14610   */\n    tag_110:\n        /* \"#utility.yul\":14391:14395   */\n      0x00\n        /* \"#utility.yul\":14537:14566   */\n      tag_261\n        /* \"#utility.yul\":14562:14565   */\n      dup4\n        /* \"#utility.yul\":14556:14560   */\n      dup4\n        /* \"#utility.yul\":14537:14566   */\n      tag_109\n      jump\t// in\n    tag_261:\n        /* \"#utility.yul\":14529:14566   */\n      swap2\n      pop\n        /* \"#utility.yul\":14599:14602   */\n      dup3\n        /* \"#utility.yul\":14596:14597   */\n      0x02\n        /* \"#utility.yul\":14592:14603   */\n      mul\n        /* \"#utility.yul\":14586:14590   */\n      dup3\n        /* \"#utility.yul\":14583:14604   */\n      or\n        /* \"#utility.yul\":14575:14604   */\n      swap1\n      pop\n        /* \"#utility.yul\":14315:14610   */\n      swap3\n      swap2\n      pop\n      pop\n      jump\t// out\n        /* \"#utility.yul\":14615:16010   */\n    tag_44:\n        /* \"#utility.yul\":14732:14769   */\n      tag_263\n        /* \"#utility.yul\":14765:14768   */\n      dup3\n        /* \"#utility.yul\":14732:14769   */\n      tag_65\n      jump\t// in\n    tag_263:\n        /* \"#utility.yul\":14834:14852   */\n      0xffffffffffffffff\n        /* \"#utility.yul\":14826:14832   */\n      dup2\n        /* \"#utility.yul\":14823:14853   */\n      gt\n        /* \"#utility.yul\":14820:14876   */\n      iszero\n      tag_264\n      jumpi\n        /* \"#utility.yul\":14856:14874   */\n      tag_265\n      tag_77\n      jump\t// in\n    tag_265:\n        /* \"#utility.yul\":14820:14876   */\n    tag_264:\n        /* \"#utility.yul\":14900:14938   */\n      tag_266\n        /* \"#utility.yul\":14932:14936   */\n      dup3\n        /* \"#utility.yul\":14926:14937   */\n      sload\n        /* \"#utility.yul\":14900:14938   */\n      tag_36\n      jump\t// in\n    tag_266:\n        /* \"#utility.yul\":14985:15052   */\n      tag_267\n        /* \"#utility.yul\":15045:15051   */\n      dup3\n        /* \"#utility.yul\":15037:15043   */\n      dup3\n        /* \"#utility.yul\":15031:15035   */\n      dup6\n        /* \"#utility.yul\":14985:15052   */\n      tag_107\n      jump\t// in\n    tag_267:\n        /* \"#utility.yul\":15079:15080   */\n      0x00\n        /* \"#utility.yul\":15103:15107   */\n      0x20\n        /* \"#utility.yul\":15090:15107   */\n      swap1\n      pop\n        /* \"#utility.yul\":15135:15137   */\n      0x1f\n        /* \"#utility.yul\":15127:15133   */\n      dup4\n        /* \"#utility.yul\":15124:15138   */\n      gt\n        /* \"#utility.yul\":15152:15153   */\n      0x01\n        /* \"#utility.yul\":15147:15765   */\n      dup2\n      eq\n      tag_269\n      jumpi\n        /* \"#utility.yul\":15809:15810   */\n      0x00\n        /* \"#utility.yul\":15826:15832   */\n      dup5\n        /* \"#utility.yul\":15823:15900   */\n      iszero\n      tag_270\n      jumpi\n        /* \"#utility.yul\":15875:15884   */\n      dup3\n        /* \"#utility.yul\":15870:15873   */\n      dup8\n        /* \"#utility.yul\":15866:15885   */\n      add\n        /* \"#utility.yul\":15860:15886   */\n      mload\n        /* \"#utility.yul\":15851:15886   */\n      swap1\n      pop\n        /* \"#utility.yul\":15823:15900   */\n    tag_270:\n        /* \"#utility.yul\":15926:15993   */\n      tag_271\n        /* \"#utility.yul\":15986:15992   */\n      dup6\n        /* \"#utility.yul\":15979:15984   */\n      dup3\n        /* \"#utility.yul\":15926:15993   */\n      tag_110\n      jump\t// in\n    tag_271:\n        /* \"#utility.yul\":15920:15924   */\n      dup7\n        /* \"#utility.yul\":15913:15994   */\n      sstore\n        /* \"#utility.yul\":15782:16004   */\n      pop\n        /* \"#utility.yul\":15117:16004   */\n      jump(tag_268)\n        /* \"#utility.yul\":15147:15765   */\n    tag_269:\n        /* \"#utility.yul\":15199:15203   */\n      0x1f\n        /* \"#utility.yul\":15195:15204   */\n      not\n        /* \"#utility.yul\":15187:15193   */\n      dup5\n        /* \"#utility.yul\":15183:15205   */\n      and\n        /* \"#utility.yul\":15233:15270   */\n      tag_272\n        /* \"#utility.yul\":15265:15269   */\n      dup7\n        /* \"#utility.yul\":15233:15270   */\n      tag_96\n      jump\t// in\n    tag_272:\n        /* \"#utility.yul\":15292:15293   */\n      0x00\n        /* \"#utility.yul\":15306:15514   */\n    tag_273:\n        /* \"#utility.yul\":15320:15327   */\n      dup3\n        /* \"#utility.yul\":15317:15318   */\n      dup2\n        /* \"#utility.yul\":15314:15328   */\n      lt\n        /* \"#utility.yul\":15306:15514   */\n      iszero\n      tag_275\n      jumpi\n        /* \"#utility.yul\":15399:15408   */\n      dup5\n        /* \"#utility.yul\":15394:15397   */\n      dup10\n        /* \"#utility.yul\":15390:15409   */\n      add\n        /* \"#utility.yul\":15384:15410   */\n      mload\n        /* \"#utility.yul\":15376:15382   */\n      dup3\n        /* \"#utility.yul\":15369:15411   */\n      sstore\n        /* \"#utility.yul\":15450:15451   */\n      0x01\n        /* \"#utility.yul\":15442:15448   */\n      dup3\n        /* \"#utility.yul\":15438:15452   */\n      add\n        /* \"#utility.yul\":15428:15452   */\n      swap2\n      pop\n        /* \"#utility.yul\":15497:15499   */\n      0x20\n        /* \"#utility.yul\":15486:15495   */\n      dup6\n        /* \"#utility.yul\":15482:15500   */\n      add\n        /* \"#utility.yul\":15469:15500   */\n      swap5\n      pop\n        /* \"#utility.yul\":15343:15347   */\n      0x20\n        /* \"#utility.yul\":15340:15341   */\n      dup2\n        /* \"#utility.yul\":15336:15348   */\n      add\n        /* \"#utility.yul\":15331:15348   */\n      swap1\n      pop\n        /* \"#utility.yul\":15306:15514   */\n      jump(tag_273)\n    tag_275:\n        /* \"#utility.yul\":15542:15548   */\n      dup7\n        /* \"#utility.yul\":15533:15540   */\n      dup4\n        /* \"#utility.yul\":15530:15549   */\n      lt\n        /* \"#utility.yul\":15527:15706   */\n      iszero\n      tag_276\n      jumpi\n        /* \"#utility.yul\":15600:15609   */\n      dup5\n        /* \"#utility.yul\":15595:15598   */\n      dup10\n        /* \"#utility.yul\":15591:15610   */\n      add\n        /* \"#utility.yul\":15585:15611   */\n      mload\n        /* \"#utility.yul\":15643:15691   */\n      tag_277\n        /* \"#utility.yul\":15685:15689   */\n      0x1f\n        /* \"#utility.yul\":15677:15683   */\n      dup10\n        /* \"#utility.yul\":15673:15690   */\n      and\n        /* \"#utility.yul\":15662:15671   */\n      dup3\n        /* \"#utility.yul\":15643:15691   */\n      tag_109\n      jump\t// in\n    tag_277:\n        /* \"#utility.yul\":15635:15641   */\n      dup4\n        /* \"#utility.yul\":15628:15692   */\n      sstore\n        /* \"#utility.yul\":15550:15706   */\n      pop\n        /* \"#utility.yul\":15527:15706   */\n    tag_276:\n        /* \"#utility.yul\":15752:15753   */\n      0x01\n        /* \"#utility.yul\":15748:15749   */\n      0x02\n        /* \"#utility.yul\":15740:15746   */\n      dup9\n        /* \"#utility.yul\":15736:15750   */\n      mul\n        /* \"#utility.yul\":15732:15754   */\n      add\n        /* \"#utility.yul\":15726:15730   */\n      dup9\n        /* \"#utility.yul\":15719:15755   */\n      sstore\n        /* \"#utility.yul\":15154:15765   */\n      pop\n      pop\n      pop\n        /* \"#utility.yul\":15117:16004   */\n    tag_268:\n      pop\n        /* \"#utility.yul\":14707:16010   */\n      pop\n      pop\n      pop\n        /* \"#utility.yul\":14615:16010   */\n      pop\n      pop\n      jump\t// out\n\n    auxdata: 0xa2646970667358221220f848a87d2d491e3fcfe6372d7f5f7f4214b9f2367092e1e6a9ffa916977d1aeb64736f6c63430008120033\n}\n",
				"bytecode": {
					"linkReferences": {},
					"object": "608060405234801561001057600080fd5b50610d6f806100206000396000f3fe608060405234801561001057600080fd5b506004361061004c5760003560e01c80635470b13b146100515780638b18e5c914610081578063bfa5b3821461009d578063db7a4605146100cd575b600080fd5b61006b6004803603810190610066919061051c565b6100eb565b6040516100789190610679565b60405180910390f35b61009b600480360381019061009691906107fc565b610225565b005b6100b760048036038101906100b2919061051c565b6102ef565b6040516100c4919061087a565b60405180910390f35b6100d561034a565b6040516100e291906109a7565b60405180910390f35b6100f361049b565b600360018361010291906109f8565b8154811061011357610112610a2c565b5b906000526020600020906003020160405180606001604052908160008201805461013c90610a8a565b80601f016020809104026020016040519081016040528092919081815260200182805461016890610a8a565b80156101b55780601f1061018a576101008083540402835291602001916101b5565b820191906000526020600020905b81548152906001019060200180831161019857829003601f168201915b50505050508152602001600182015481526020016002820160009054906101000a900473ffffffffffffffffffffffffffffffffffffffff1673ffffffffffffffffffffffffffffffffffffffff1673ffffffffffffffffffffffffffffffffffffffff16815250509050919050565b600360405180606001604052808581526020018481526020018373ffffffffffffffffffffffffffffffffffffffff16815250908060018154018082558091505060019003906000526020600020906003020160009091909190915060008201518160000190816102969190610c67565b506020820151816001015560408201518160020160006101000a81548173ffffffffffffffffffffffffffffffffffffffff021916908373ffffffffffffffffffffffffffffffffffffffff1602179055505050505050565b6000600360018361030091906109f8565b8154811061031157610310610a2c565b5b906000526020600020906003020160020160009054906101000a900473ffffffffffffffffffffffffffffffffffffffff169050919050565b60606003805480602002602001604051908101604052809291908181526020016000905b8282101561049257838290600052602060002090600302016040518060600160405290816000820180546103a190610a8a565b80601f01602080910402602001604051908101604052809291908181526020018280546103cd90610a8a565b801561041a5780601f106103ef5761010080835404028352916020019161041a565b820191906000526020600020905b8154815290600101906020018083116103fd57829003601f168201915b50505050508152602001600182015481526020016002820160009054906101000a900473ffffffffffffffffffffffffffffffffffffffff1673ffffffffffffffffffffffffffffffffffffffff1673ffffffffffffffffffffffffffffffffffffffff16815250508152602001906001019061036e565b50505050905090565b60405180606001604052806060815260200160008152602001600073ffffffffffffffffffffffffffffffffffffffff1681525090565b6000604051905090565b600080fd5b600080fd5b6000819050919050565b6104f9816104e6565b811461050457600080fd5b50565b600081359050610516816104f0565b92915050565b600060208284031215610532576105316104dc565b5b600061054084828501610507565b91505092915050565b600081519050919050565b600082825260208201905092915050565b60005b83811015610583578082015181840152602081019050610568565b60008484015250505050565b6000601f19601f8301169050919050565b60006105ab82610549565b6105b58185610554565b93506105c5818560208601610565565b6105ce8161058f565b840191505092915050565b6105e2816104e6565b82525050565b600073ffffffffffffffffffffffffffffffffffffffff82169050919050565b6000610613826105e8565b9050919050565b61062381610608565b82525050565b6000606083016000830151848203600086015261064682826105a0565b915050602083015161065b60208601826105d9565b50604083015161066e604086018261061a565b508091505092915050565b600060208201905081810360008301526106938184610629565b905092915050565b600080fd5b600080fd5b7f4e487b7100000000000000000000000000000000000000000000000000000000600052604160045260246000fd5b6106dd8261058f565b810181811067ffffffffffffffff821117156106fc576106fb6106a5565b5b80604052505050565b600061070f6104d2565b905061071b82826106d4565b919050565b600067ffffffffffffffff82111561073b5761073a6106a5565b5b6107448261058f565b9050602081019050919050565b82818337600083830152505050565b600061077361076e84610720565b610705565b90508281526020810184848401111561078f5761078e6106a0565b5b61079a848285610751565b509392505050565b600082601f8301126107b7576107b661069b565b5b81356107c7848260208601610760565b91505092915050565b6107d981610608565b81146107e457600080fd5b50565b6000813590506107f6816107d0565b92915050565b600080600060608486031215610815576108146104dc565b5b600084013567ffffffffffffffff811115610833576108326104e1565b5b61083f868287016107a2565b935050602061085086828701610507565b9250506040610861868287016107e7565b9150509250925092565b61087481610608565b82525050565b600060208201905061088f600083018461086b565b92915050565b600081519050919050565b600082825260208201905092915050565b6000819050602082019050919050565b600060608301600083015184820360008601526108de82826105a0565b91505060208301516108f360208601826105d9565b506040830151610906604086018261061a565b508091505092915050565b600061091d83836108c1565b905092915050565b6000602082019050919050565b600061093d82610895565b61094781856108a0565b935083602082028501610959856108b1565b8060005b8581101561099557848403895281516109768582610911565b945061098183610925565b925060208a0199505060018101905061095d565b50829750879550505050505092915050565b600060208201905081810360008301526109c18184610932565b905092915050565b7f4e487b7100000000000000000000000000000000000000000000000000000000600052601160045260246000fd5b6000610a03826104e6565b9150610a0e836104e6565b9250828203905081811115610a2657610a256109c9565b5b92915050565b7f4e487b7100000000000000000000000000000000000000000000000000000000600052603260045260246000fd5b7f4e487b7100000000000000000000000000000000000000000000000000000000600052602260045260246000fd5b60006002820490506001821680610aa257607f821691505b602082108103610ab557610ab4610a5b565b5b50919050565b60008190508160005260206000209050919050565b60006020601f8301049050919050565b600082821b905092915050565b600060088302610b1d7fffffffffffffffffffffffffffffffffffffffffffffffffffffffffffffffff82610ae0565b610b278683610ae0565b95508019841693508086168417925050509392505050565b6000819050919050565b6000610b64610b5f610b5a846104e6565b610b3f565b6104e6565b9050919050565b6000819050919050565b610b7e83610b49565b610b92610b8a82610b6b565b848454610aed565b825550505050565b600090565b610ba7610b9a565b610bb2818484610b75565b505050565b5b81811015610bd657610bcb600082610b9f565b600181019050610bb8565b5050565b601f821115610c1b57610bec81610abb565b610bf584610ad0565b81016020851015610c04578190505b610c18610c1085610ad0565b830182610bb7565b50505b505050565b600082821c905092915050565b6000610c3e60001984600802610c20565b1980831691505092915050565b6000610c578383610c2d565b9150826002028217905092915050565b610c7082610549565b67ffffffffffffffff811115610c8957610c886106a5565b5b610c938254610a8a565b610c9e828285610bda565b600060209050601f831160018114610cd15760008415610cbf578287015190505b610cc98582610c4b565b865550610d31565b601f198416610cdf86610abb565b60005b82811015610d0757848901518255600182019150602085019450602081019050610ce2565b86831015610d245784890151610d20601f891682610c2d565b8355505b6001600288020188555050505b50505050505056fea2646970667358221220f848a87d2d491e3fcfe6372d7f5f7f4214b9f2367092e1e6a9ffa916977d1aeb64736f6c63430008120033",
					"opcodes": "PUSH1 0x80 PUSH1 0x40 MSTORE CALLVALUE DUP1 ISZERO PUSH2 0x10 JUMPI PUSH1 0x0 DUP1 REVERT JUMPDEST POP PUSH2 0xD6F DUP1 PUSH2 0x20 PUSH1 0x0 CODECOPY PUSH1 0x0 RETURN INVALID PUSH1 0x80 PUSH1 0x40 MSTORE CALLVALUE DUP1 ISZERO PUSH2 0x10 JUMPI PUSH1 0x0 DUP1 REVERT JUMPDEST POP PUSH1 0x4 CALLDATASIZE LT PUSH2 0x4C JUMPI PUSH1 0x0 CALLDATALOAD PUSH1 0xE0 SHR DUP1 PUSH4 0x5470B13B EQ PUSH2 0x51 JUMPI DUP1 PUSH4 0x8B18E5C9 EQ PUSH2 0x81 JUMPI DUP1 PUSH4 0xBFA5B382 EQ PUSH2 0x9D JUMPI DUP1 PUSH4 0xDB7A4605 EQ PUSH2 0xCD JUMPI JUMPDEST PUSH1 0x0 DUP1 REVERT JUMPDEST PUSH2 0x6B PUSH1 0x4 DUP1 CALLDATASIZE SUB DUP2 ADD SWAP1 PUSH2 0x66 SWAP2 SWAP1 PUSH2 0x51C JUMP JUMPDEST PUSH2 0xEB JUMP JUMPDEST PUSH1 0x40 MLOAD PUSH2 0x78 SWAP2 SWAP1 PUSH2 0x679 JUMP JUMPDEST PUSH1 0x40 MLOAD DUP1 SWAP2 SUB SWAP1 RETURN JUMPDEST PUSH2 0x9B PUSH1 0x4 DUP1 CALLDATASIZE SUB DUP2 ADD SWAP1 PUSH2 0x96 SWAP2 SWAP1 PUSH2 0x7FC JUMP JUMPDEST PUSH2 0x225 JUMP JUMPDEST STOP JUMPDEST PUSH2 0xB7 PUSH1 0x4 DUP1 CALLDATASIZE SUB DUP2 ADD SWAP1 PUSH2 0xB2 SWAP2 SWAP1 PUSH2 0x51C JUMP JUMPDEST PUSH2 0x2EF JUMP JUMPDEST PUSH1 0x40 MLOAD PUSH2 0xC4 SWAP2 SWAP1 PUSH2 0x87A JUMP JUMPDEST PUSH1 0x40 MLOAD DUP1 SWAP2 SUB SWAP1 RETURN JUMPDEST PUSH2 0xD5 PUSH2 0x34A JUMP JUMPDEST PUSH1 0x40 MLOAD PUSH2 0xE2 SWAP2 SWAP1 PUSH2 0x9A7 JUMP JUMPDEST PUSH1 0x40 MLOAD DUP1 SWAP2 SUB SWAP1 RETURN JUMPDEST PUSH2 0xF3 PUSH2 0x49B JUMP JUMPDEST PUSH1 0x3 PUSH1 0x1 DUP4 PUSH2 0x102 SWAP2 SWAP1 PUSH2 0x9F8 JUMP JUMPDEST DUP2 SLOAD DUP2 LT PUSH2 0x113 JUMPI PUSH2 0x112 PUSH2 0xA2C JUMP JUMPDEST JUMPDEST SWAP1 PUSH1 0x0 MSTORE PUSH1 0x20 PUSH1 0x0 KECCAK256 SWAP1 PUSH1 0x3 MUL ADD PUSH1 0x40 MLOAD DUP1 PUSH1 0x60 ADD PUSH1 0x40 MSTORE SWAP1 DUP2 PUSH1 0x0 DUP3 ADD DUP1 SLOAD PUSH2 0x13C SWAP1 PUSH2 0xA8A JUMP JUMPDEST DUP1 PUSH1 0x1F ADD PUSH1 0x20 DUP1 SWAP2 DIV MUL PUSH1 0x20 ADD PUSH1 0x40 MLOAD SWAP1 DUP2 ADD PUSH1 0x40 MSTORE DUP1 SWAP3 SWAP2 SWAP1 DUP2 DUP2 MSTORE PUSH1 0x20 ADD DUP3 DUP1 SLOAD PUSH2 0x168 SWAP1 PUSH2 0xA8A JUMP JUMPDEST DUP1 ISZERO PUSH2 0x1B5 JUMPI DUP1 PUSH1 0x1F LT PUSH2 0x18A JUMPI PUSH2 0x100 DUP1 DUP4 SLOAD DIV MUL DUP4 MSTORE SWAP2 PUSH1 0x20 ADD SWAP2 PUSH2 0x1B5 JUMP JUMPDEST DUP3 ADD SWAP2 SWAP1 PUSH1 0x0 MSTORE PUSH1 0x20 PUSH1 0x0 KECCAK256 SWAP1 JUMPDEST DUP2 SLOAD DUP2 MSTORE SWAP1 PUSH1 0x1 ADD SWAP1 PUSH1 0x20 ADD DUP1 DUP4 GT PUSH2 0x198 JUMPI DUP3 SWAP1 SUB PUSH1 0x1F AND DUP3 ADD SWAP2 JUMPDEST POP POP POP POP POP DUP2 MSTORE PUSH1 0x20 ADD PUSH1 0x1 DUP3 ADD SLOAD DUP2 MSTORE PUSH1 0x20 ADD PUSH1 0x2 DUP3 ADD PUSH1 0x0 SWAP1 SLOAD SWAP1 PUSH2 0x100 EXP SWAP1 DIV PUSH20 0xFFFFFFFFFFFFFFFFFFFFFFFFFFFFFFFFFFFFFFFF AND PUSH20 0xFFFFFFFFFFFFFFFFFFFFFFFFFFFFFFFFFFFFFFFF AND PUSH20 0xFFFFFFFFFFFFFFFFFFFFFFFFFFFFFFFFFFFFFFFF AND DUP2 MSTORE POP POP SWAP1 POP SWAP2 SWAP1 POP JUMP JUMPDEST PUSH1 0x3 PUSH1 0x40 MLOAD DUP1 PUSH1 0x60 ADD PUSH1 0x40 MSTORE DUP1 DUP6 DUP2 MSTORE PUSH1 0x20 ADD DUP5 DUP2 MSTORE PUSH1 0x20 ADD DUP4 PUSH20 0xFFFFFFFFFFFFFFFFFFFFFFFFFFFFFFFFFFFFFFFF AND DUP2 MSTORE POP SWAP1 DUP1 PUSH1 0x1 DUP2 SLOAD ADD DUP1 DUP3 SSTORE DUP1 SWAP2 POP POP PUSH1 0x1 SWAP1 SUB SWAP1 PUSH1 0x0 MSTORE PUSH1 0x20 PUSH1 0x0 KECCAK256 SWAP1 PUSH1 0x3 MUL ADD PUSH1 0x0 SWAP1 SWAP2 SWAP1 SWAP2 SWAP1 SWAP2 POP PUSH1 0x0 DUP3 ADD MLOAD DUP2 PUSH1 0x0 ADD SWAP1 DUP2 PUSH2 0x296 SWAP2 SWAP1 PUSH2 0xC67 JUMP JUMPDEST POP PUSH1 0x20 DUP3 ADD MLOAD DUP2 PUSH1 0x1 ADD SSTORE PUSH1 0x40 DUP3 ADD MLOAD DUP2 PUSH1 0x2 ADD PUSH1 0x0 PUSH2 0x100 EXP DUP2 SLOAD DUP2 PUSH20 0xFFFFFFFFFFFFFFFFFFFFFFFFFFFFFFFFFFFFFFFF MUL NOT AND SWAP1 DUP4 PUSH20 0xFFFFFFFFFFFFFFFFFFFFFFFFFFFFFFFFFFFFFFFF AND MUL OR SWAP1 SSTORE POP POP POP POP POP POP JUMP JUMPDEST PUSH1 0x0 PUSH1 0x3 PUSH1 0x1 DUP4 PUSH2 0x300 SWAP2 SWAP1 PUSH2 0x9F8 JUMP JUMPDEST DUP2 SLOAD DUP2 LT PUSH2 0x311 JUMPI PUSH2 0x310 PUSH2 0xA2C JUMP JUMPDEST JUMPDEST SWAP1 PUSH1 0x0 MSTORE PUSH1 0x20 PUSH1 0x0 KECCAK256 SWAP1 PUSH1 0x3 MUL ADD PUSH1 0x2 ADD PUSH1 0x0 SWAP1 SLOAD SWAP1 PUSH2 0x100 EXP SWAP1 DIV PUSH20 0xFFFFFFFFFFFFFFFFFFFFFFFFFFFFFFFFFFFFFFFF AND SWAP1 POP SWAP2 SWAP1 POP JUMP JUMPDEST PUSH1 0x60 PUSH1 0x3 DUP1 SLOAD DUP1 PUSH1 0x20 MUL PUSH1 0x20 ADD PUSH1 0x40 MLOAD SWAP1 DUP2 ADD PUSH1 0x40 MSTORE DUP1 SWAP3 SWAP2 SWAP1 DUP2 DUP2 MSTORE PUSH1 0x20 ADD PUSH1 0x0 SWAP1 JUMPDEST DUP3 DUP3 LT ISZERO PUSH2 0x492 JUMPI DUP4 DUP3 SWAP1 PUSH1 0x0 MSTORE PUSH1 0x20 PUSH1 0x0 KECCAK256 SWAP1 PUSH1 0x3 MUL ADD PUSH1 0x40 MLOAD DUP1 PUSH1 0x60 ADD PUSH1 0x40 MSTORE SWAP1 DUP2 PUSH1 0x0 DUP3 ADD DUP1 SLOAD PUSH2 0x3A1 SWAP1 PUSH2 0xA8A JUMP JUMPDEST DUP1 PUSH1 0x1F ADD PUSH1 0x20 DUP1 SWAP2 DIV MUL PUSH1 0x20 ADD PUSH1 0x40 MLOAD SWAP1 DUP2 ADD PUSH1 0x40 MSTORE DUP1 SWAP3 SWAP2 SWAP1 DUP2 DUP2 MSTORE PUSH1 0x20 ADD DUP3 DUP1 SLOAD PUSH2 0x3CD SWAP1 PUSH2 0xA8A JUMP JUMPDEST DUP1 ISZERO PUSH2 0x41A JUMPI DUP1 PUSH1 0x1F LT PUSH2 0x3EF JUMPI PUSH2 0x100 DUP1 DUP4 SLOAD DIV MUL DUP4 MSTORE SWAP2 PUSH1 0x20 ADD SWAP2 PUSH2 0x41A JUMP JUMPDEST DUP3 ADD SWAP2 SWAP1 PUSH1 0x0 MSTORE PUSH1 0x20 PUSH1 0x0 KECCAK256 SWAP1 JUMPDEST DUP2 SLOAD DUP2 MSTORE SWAP1 PUSH1 0x1 ADD SWAP1 PUSH1 0x20 ADD DUP1 DUP4 GT PUSH2 0x3FD JUMPI DUP3 SWAP1 SUB PUSH1 0x1F AND DUP3 ADD SWAP2 JUMPDEST POP POP POP POP POP DUP2 MSTORE PUSH1 0x20 ADD PUSH1 0x1 DUP3 ADD SLOAD DUP2 MSTORE PUSH1 0x20 ADD PUSH1 0x2 DUP3 ADD PUSH1 0x0 SWAP1 SLOAD SWAP1 PUSH2 0x100 EXP SWAP1 DIV PUSH20 0xFFFFFFFFFFFFFFFFFFFFFFFFFFFFFFFFFFFFFFFF AND PUSH20 0xFFFFFFFFFFFFFFFFFFFFFFFFFFFFFFFFFFFFFFFF AND PUSH20 0xFFFFFFFFFFFFFFFFFFFFFFFFFFFFFFFFFFFFFFFF AND DUP2 MSTORE POP POP DUP2 MSTORE PUSH1 0x20 ADD SWAP1 PUSH1 0x1 ADD SWAP1 PUSH2 0x36E JUMP JUMPDEST POP POP POP POP SWAP1 POP SWAP1 JUMP JUMPDEST PUSH1 0x40 MLOAD DUP1 PUSH1 0x60 ADD PUSH1 0x40 MSTORE DUP1 PUSH1 0x60 DUP2 MSTORE PUSH1 0x20 ADD PUSH1 0x0 DUP2 MSTORE PUSH1 0x20 ADD PUSH1 0x0 PUSH20 0xFFFFFFFFFFFFFFFFFFFFFFFFFFFFFFFFFFFFFFFF AND DUP2 MSTORE POP SWAP1 JUMP JUMPDEST PUSH1 0x0 PUSH1 0x40 MLOAD SWAP1 POP SWAP1 JUMP JUMPDEST PUSH1 0x0 DUP1 REVERT JUMPDEST PUSH1 0x0 DUP1 REVERT JUMPDEST PUSH1 0x0 DUP2 SWAP1 POP SWAP2 SWAP1 POP JUMP JUMPDEST PUSH2 0x4F9 DUP2 PUSH2 0x4E6 JUMP JUMPDEST DUP2 EQ PUSH2 0x504 JUMPI PUSH1 0x0 DUP1 REVERT JUMPDEST POP JUMP JUMPDEST PUSH1 0x0 DUP2 CALLDATALOAD SWAP1 POP PUSH2 0x516 DUP2 PUSH2 0x4F0 JUMP JUMPDEST SWAP3 SWAP2 POP POP JUMP JUMPDEST PUSH1 0x0 PUSH1 0x20 DUP3 DUP5 SUB SLT ISZERO PUSH2 0x532 JUMPI PUSH2 0x531 PUSH2 0x4DC JUMP JUMPDEST JUMPDEST PUSH1 0x0 PUSH2 0x540 DUP5 DUP3 DUP6 ADD PUSH2 0x507 JUMP JUMPDEST SWAP2 POP POP SWAP3 SWAP2 POP POP JUMP JUMPDEST PUSH1 0x0 DUP2 MLOAD SWAP1 POP SWAP2 SWAP1 POP JUMP JUMPDEST PUSH1 0x0 DUP3 DUP3 MSTORE PUSH1 0x20 DUP3 ADD SWAP1 POP SWAP3 SWAP2 POP POP JUMP JUMPDEST PUSH1 0x0 JUMPDEST DUP4 DUP2 LT ISZERO PUSH2 0x583 JUMPI DUP1 DUP3 ADD MLOAD DUP2 DUP5 ADD MSTORE PUSH1 0x20 DUP2 ADD SWAP1 POP PUSH2 0x568 JUMP JUMPDEST PUSH1 0x0 DUP5 DUP5 ADD MSTORE POP POP POP POP JUMP JUMPDEST PUSH1 0x0 PUSH1 0x1F NOT PUSH1 0x1F DUP4 ADD AND SWAP1 POP SWAP2 SWAP1 POP JUMP JUMPDEST PUSH1 0x0 PUSH2 0x5AB DUP3 PUSH2 0x549 JUMP JUMPDEST PUSH2 0x5B5 DUP2 DUP6 PUSH2 0x554 JUMP JUMPDEST SWAP4 POP PUSH2 0x5C5 DUP2 DUP6 PUSH1 0x20 DUP7 ADD PUSH2 0x565 JUMP JUMPDEST PUSH2 0x5CE DUP2 PUSH2 0x58F JUMP JUMPDEST DUP5 ADD SWAP2 POP POP SWAP3 SWAP2 POP POP JUMP JUMPDEST PUSH2 0x5E2 DUP2 PUSH2 0x4E6 JUMP JUMPDEST DUP3 MSTORE POP POP JUMP JUMPDEST PUSH1 0x0 PUSH20 0xFFFFFFFFFFFFFFFFFFFFFFFFFFFFFFFFFFFFFFFF DUP3 AND SWAP1 POP SWAP2 SWAP1 POP JUMP JUMPDEST PUSH1 0x0 PUSH2 0x613 DUP3 PUSH2 0x5E8 JUMP JUMPDEST SWAP1 POP SWAP2 SWAP1 POP JUMP JUMPDEST PUSH2 0x623 DUP2 PUSH2 0x608 JUMP JUMPDEST DUP3 MSTORE POP POP JUMP JUMPDEST PUSH1 0x0 PUSH1 0x60 DUP4 ADD PUSH1 0x0 DUP4 ADD MLOAD DUP5 DUP3 SUB PUSH1 0x0 DUP7 ADD MSTORE PUSH2 0x646 DUP3 DUP3 PUSH2 0x5A0 JUMP JUMPDEST SWAP2 POP POP PUSH1 0x20 DUP4 ADD MLOAD PUSH2 0x65B PUSH1 0x20 DUP7 ADD DUP3 PUSH2 0x5D9 JUMP JUMPDEST POP PUSH1 0x40 DUP4 ADD MLOAD PUSH2 0x66E PUSH1 0x40 DUP7 ADD DUP3 PUSH2 0x61A JUMP JUMPDEST POP DUP1 SWAP2 POP POP SWAP3 SWAP2 POP POP JUMP JUMPDEST PUSH1 0x0 PUSH1 0x20 DUP3 ADD SWAP1 POP DUP2 DUP2 SUB PUSH1 0x0 DUP4 ADD MSTORE PUSH2 0x693 DUP2 DUP5 PUSH2 0x629 JUMP JUMPDEST SWAP1 POP SWAP3 SWAP2 POP POP JUMP JUMPDEST PUSH1 0x0 DUP1 REVERT JUMPDEST PUSH1 0x0 DUP1 REVERT JUMPDEST PUSH32 0x4E487B7100000000000000000000000000000000000000000000000000000000 PUSH1 0x0 MSTORE PUSH1 0x41 PUSH1 0x4 MSTORE PUSH1 0x24 PUSH1 0x0 REVERT JUMPDEST PUSH2 0x6DD DUP3 PUSH2 0x58F JUMP JUMPDEST DUP2 ADD DUP2 DUP2 LT PUSH8 0xFFFFFFFFFFFFFFFF DUP3 GT OR ISZERO PUSH2 0x6FC JUMPI PUSH2 0x6FB PUSH2 0x6A5 JUMP JUMPDEST JUMPDEST DUP1 PUSH1 0x40 MSTORE POP POP POP JUMP JUMPDEST PUSH1 0x0 PUSH2 0x70F PUSH2 0x4D2 JUMP JUMPDEST SWAP1 POP PUSH2 0x71B DUP3 DUP3 PUSH2 0x6D4 JUMP JUMPDEST SWAP2 SWAP1 POP JUMP JUMPDEST PUSH1 0x0 PUSH8 0xFFFFFFFFFFFFFFFF DUP3 GT ISZERO PUSH2 0x73B JUMPI PUSH2 0x73A PUSH2 0x6A5 JUMP JUMPDEST JUMPDEST PUSH2 0x744 DUP3 PUSH2 0x58F JUMP JUMPDEST SWAP1 POP PUSH1 0x20 DUP2 ADD SWAP1 POP SWAP2 SWAP1 POP JUMP JUMPDEST DUP3 DUP2 DUP4 CALLDATACOPY PUSH1 0x0 DUP4 DUP4 ADD MSTORE POP POP POP JUMP JUMPDEST PUSH1 0x0 PUSH2 0x773 PUSH2 0x76E DUP5 PUSH2 0x720 JUMP JUMPDEST PUSH2 0x705 JUMP JUMPDEST SWAP1 POP DUP3 DUP2 MSTORE PUSH1 0x20 DUP2 ADD DUP5 DUP5 DUP5 ADD GT ISZERO PUSH2 0x78F JUMPI PUSH2 0x78E PUSH2 0x6A0 JUMP JUMPDEST JUMPDEST PUSH2 0x79A DUP5 DUP3 DUP6 PUSH2 0x751 JUMP JUMPDEST POP SWAP4 SWAP3 POP POP POP JUMP JUMPDEST PUSH1 0x0 DUP3 PUSH1 0x1F DUP4 ADD SLT PUSH2 0x7B7 JUMPI PUSH2 0x7B6 PUSH2 0x69B JUMP JUMPDEST JUMPDEST DUP2 CALLDATALOAD PUSH2 0x7C7 DUP5 DUP3 PUSH1 0x20 DUP7 ADD PUSH2 0x760 JUMP JUMPDEST SWAP2 POP POP SWAP3 SWAP2 POP POP JUMP JUMPDEST PUSH2 0x7D9 DUP2 PUSH2 0x608 JUMP JUMPDEST DUP2 EQ PUSH2 0x7E4 JUMPI PUSH1 0x0 DUP1 REVERT JUMPDEST POP JUMP JUMPDEST PUSH1 0x0 DUP2 CALLDATALOAD SWAP1 POP PUSH2 0x7F6 DUP2 PUSH2 0x7D0 JUMP JUMPDEST SWAP3 SWAP2 POP POP JUMP JUMPDEST PUSH1 0x0 DUP1 PUSH1 0x0 PUSH1 0x60 DUP5 DUP7 SUB SLT ISZERO PUSH2 0x815 JUMPI PUSH2 0x814 PUSH2 0x4DC JUMP JUMPDEST JUMPDEST PUSH1 0x0 DUP5 ADD CALLDATALOAD PUSH8 0xFFFFFFFFFFFFFFFF DUP2 GT ISZERO PUSH2 0x833 JUMPI PUSH2 0x832 PUSH2 0x4E1 JUMP JUMPDEST JUMPDEST PUSH2 0x83F DUP7 DUP3 DUP8 ADD PUSH2 0x7A2 JUMP JUMPDEST SWAP4 POP POP PUSH1 0x20 PUSH2 0x850 DUP7 DUP3 DUP8 ADD PUSH2 0x507 JUMP JUMPDEST SWAP3 POP POP PUSH1 0x40 PUSH2 0x861 DUP7 DUP3 DUP8 ADD PUSH2 0x7E7 JUMP JUMPDEST SWAP2 POP POP SWAP3 POP SWAP3 POP SWAP3 JUMP JUMPDEST PUSH2 0x874 DUP2 PUSH2 0x608 JUMP JUMPDEST DUP3 MSTORE POP POP JUMP JUMPDEST PUSH1 0x0 PUSH1 0x20 DUP3 ADD SWAP1 POP PUSH2 0x88F PUSH1 0x0 DUP4 ADD DUP5 PUSH2 0x86B JUMP JUMPDEST SWAP3 SWAP2 POP POP JUMP JUMPDEST PUSH1 0x0 DUP2 MLOAD SWAP1 POP SWAP2 SWAP1 POP JUMP JUMPDEST PUSH1 0x0 DUP3 DUP3 MSTORE PUSH1 0x20 DUP3 ADD SWAP1 POP SWAP3 SWAP2 POP POP JUMP JUMPDEST PUSH1 0x0 DUP2 SWAP1 POP PUSH1 0x20 DUP3 ADD SWAP1 POP SWAP2 SWAP1 POP JUMP JUMPDEST PUSH1 0x0 PUSH1 0x60 DUP4 ADD PUSH1 0x0 DUP4 ADD MLOAD DUP5 DUP3 SUB PUSH1 0x0 DUP7 ADD MSTORE PUSH2 0x8DE DUP3 DUP3 PUSH2 0x5A0 JUMP JUMPDEST SWAP2 POP POP PUSH1 0x20 DUP4 ADD MLOAD PUSH2 0x8F3 PUSH1 0x20 DUP7 ADD DUP3 PUSH2 0x5D9 JUMP JUMPDEST POP PUSH1 0x40 DUP4 ADD MLOAD PUSH2 0x906 PUSH1 0x40 DUP7 ADD DUP3 PUSH2 0x61A JUMP JUMPDEST POP DUP1 SWAP2 POP POP SWAP3 SWAP2 POP POP JUMP JUMPDEST PUSH1 0x0 PUSH2 0x91D DUP4 DUP4 PUSH2 0x8C1 JUMP JUMPDEST SWAP1 POP SWAP3 SWAP2 POP POP JUMP JUMPDEST PUSH1 0x0 PUSH1 0x20 DUP3 ADD SWAP1 POP SWAP2 SWAP1 POP JUMP JUMPDEST PUSH1 0x0 PUSH2 0x93D DUP3 PUSH2 0x895 JUMP JUMPDEST PUSH2 0x947 DUP2 DUP6 PUSH2 0x8A0 JUMP JUMPDEST SWAP4 POP DUP4 PUSH1 0x20 DUP3 MUL DUP6 ADD PUSH2 0x959 DUP6 PUSH2 0x8B1 JUMP JUMPDEST DUP1 PUSH1 0x0 JUMPDEST DUP6 DUP2 LT ISZERO PUSH2 0x995 JUMPI DUP5 DUP5 SUB DUP10 MSTORE DUP2 MLOAD PUSH2 0x976 DUP6 DUP3 PUSH2 0x911 JUMP JUMPDEST SWAP5 POP PUSH2 0x981 DUP4 PUSH2 0x925 JUMP JUMPDEST SWAP3 POP PUSH1 0x20 DUP11 ADD SWAP10 POP POP PUSH1 0x1 DUP2 ADD SWAP1 POP PUSH2 0x95D JUMP JUMPDEST POP DUP3 SWAP8 POP DUP8 SWAP6 POP POP POP POP POP POP SWAP3 SWAP2 POP POP JUMP JUMPDEST PUSH1 0x0 PUSH1 0x20 DUP3 ADD SWAP1 POP DUP2 DUP2 SUB PUSH1 0x0 DUP4 ADD MSTORE PUSH2 0x9C1 DUP2 DUP5 PUSH2 0x932 JUMP JUMPDEST SWAP1 POP SWAP3 SWAP2 POP POP JUMP JUMPDEST PUSH32 0x4E487B7100000000000000000000000000000000000000000000000000000000 PUSH1 0x0 MSTORE PUSH1 0x11 PUSH1 0x4 MSTORE PUSH1 0x24 PUSH1 0x0 REVERT JUMPDEST PUSH1 0x0 PUSH2 0xA03 DUP3 PUSH2 0x4E6 JUMP JUMPDEST SWAP2 POP PUSH2 0xA0E DUP4 PUSH2 0x4E6 JUMP JUMPDEST SWAP3 POP DUP3 DUP3 SUB SWAP1 POP DUP2 DUP2 GT ISZERO PUSH2 0xA26 JUMPI PUSH2 0xA25 PUSH2 0x9C9 JUMP JUMPDEST JUMPDEST SWAP3 SWAP2 POP POP JUMP JUMPDEST PUSH32 0x4E487B7100000000000000000000000000000000000000000000000000000000 PUSH1 0x0 MSTORE PUSH1 0x32 PUSH1 0x4 MSTORE PUSH1 0x24 PUSH1 0x0 REVERT JUMPDEST PUSH32 0x4E487B7100000000000000000000000000000000000000000000000000000000 PUSH1 0x0 MSTORE PUSH1 0x22 PUSH1 0x4 MSTORE PUSH1 0x24 PUSH1 0x0 REVERT JUMPDEST PUSH1 0x0 PUSH1 0x2 DUP3 DIV SWAP1 POP PUSH1 0x1 DUP3 AND DUP1 PUSH2 0xAA2 JUMPI PUSH1 0x7F DUP3 AND SWAP2 POP JUMPDEST PUSH1 0x20 DUP3 LT DUP2 SUB PUSH2 0xAB5 JUMPI PUSH2 0xAB4 PUSH2 0xA5B JUMP JUMPDEST JUMPDEST POP SWAP2 SWAP1 POP JUMP JUMPDEST PUSH1 0x0 DUP2 SWAP1 POP DUP2 PUSH1 0x0 MSTORE PUSH1 0x20 PUSH1 0x0 KECCAK256 SWAP1 POP SWAP2 SWAP1 POP JUMP JUMPDEST PUSH1 0x0 PUSH1 0x20 PUSH1 0x1F DUP4 ADD DIV SWAP1 POP SWAP2 SWAP1 POP JUMP JUMPDEST PUSH1 0x0 DUP3 DUP3 SHL SWAP1 POP SWAP3 SWAP2 POP POP JUMP JUMPDEST PUSH1 0x0 PUSH1 0x8 DUP4 MUL PUSH2 0xB1D PUSH32 0xFFFFFFFFFFFFFFFFFFFFFFFFFFFFFFFFFFFFFFFFFFFFFFFFFFFFFFFFFFFFFFFF DUP3 PUSH2 0xAE0 JUMP JUMPDEST PUSH2 0xB27 DUP7 DUP4 PUSH2 0xAE0 JUMP JUMPDEST SWAP6 POP DUP1 NOT DUP5 AND SWAP4 POP DUP1 DUP7 AND DUP5 OR SWAP3 POP POP POP SWAP4 SWAP3 POP POP POP JUMP JUMPDEST PUSH1 0x0 DUP2 SWAP1 POP SWAP2 SWAP1 POP JUMP JUMPDEST PUSH1 0x0 PUSH2 0xB64 PUSH2 0xB5F PUSH2 0xB5A DUP5 PUSH2 0x4E6 JUMP JUMPDEST PUSH2 0xB3F JUMP JUMPDEST PUSH2 0x4E6 JUMP JUMPDEST SWAP1 POP SWAP2 SWAP1 POP JUMP JUMPDEST PUSH1 0x0 DUP2 SWAP1 POP SWAP2 SWAP1 POP JUMP JUMPDEST PUSH2 0xB7E DUP4 PUSH2 0xB49 JUMP JUMPDEST PUSH2 0xB92 PUSH2 0xB8A DUP3 PUSH2 0xB6B JUMP JUMPDEST DUP5 DUP5 SLOAD PUSH2 0xAED JUMP JUMPDEST DUP3 SSTORE POP POP POP POP JUMP JUMPDEST PUSH1 0x0 SWAP1 JUMP JUMPDEST PUSH2 0xBA7 PUSH2 0xB9A JUMP JUMPDEST PUSH2 0xBB2 DUP2 DUP5 DUP5 PUSH2 0xB75 JUMP JUMPDEST POP POP POP JUMP JUMPDEST JUMPDEST DUP2 DUP2 LT ISZERO PUSH2 0xBD6 JUMPI PUSH2 0xBCB PUSH1 0x0 DUP3 PUSH2 0xB9F JUMP JUMPDEST PUSH1 0x1 DUP2 ADD SWAP1 POP PUSH2 0xBB8 JUMP JUMPDEST POP POP JUMP JUMPDEST PUSH1 0x1F DUP3 GT ISZERO PUSH2 0xC1B JUMPI PUSH2 0xBEC DUP2 PUSH2 0xABB JUMP JUMPDEST PUSH2 0xBF5 DUP5 PUSH2 0xAD0 JUMP JUMPDEST DUP2 ADD PUSH1 0x20 DUP6 LT ISZERO PUSH2 0xC04 JUMPI DUP2 SWAP1 POP JUMPDEST PUSH2 0xC18 PUSH2 0xC10 DUP6 PUSH2 0xAD0 JUMP JUMPDEST DUP4 ADD DUP3 PUSH2 0xBB7 JUMP JUMPDEST POP POP JUMPDEST POP POP POP JUMP JUMPDEST PUSH1 0x0 DUP3 DUP3 SHR SWAP1 POP SWAP3 SWAP2 POP POP JUMP JUMPDEST PUSH1 0x0 PUSH2 0xC3E PUSH1 0x0 NOT DUP5 PUSH1 0x8 MUL PUSH2 0xC20 JUMP JUMPDEST NOT DUP1 DUP4 AND SWAP2 POP POP SWAP3 SWAP2 POP POP JUMP JUMPDEST PUSH1 0x0 PUSH2 0xC57 DUP4 DUP4 PUSH2 0xC2D JUMP JUMPDEST SWAP2 POP DUP3 PUSH1 0x2 MUL DUP3 OR SWAP1 POP SWAP3 SWAP2 POP POP JUMP JUMPDEST PUSH2 0xC70 DUP3 PUSH2 0x549 JUMP JUMPDEST PUSH8 0xFFFFFFFFFFFFFFFF DUP2 GT ISZERO PUSH2 0xC89 JUMPI PUSH2 0xC88 PUSH2 0x6A5 JUMP JUMPDEST JUMPDEST PUSH2 0xC93 DUP3 SLOAD PUSH2 0xA8A JUMP JUMPDEST PUSH2 0xC9E DUP3 DUP3 DUP6 PUSH2 0xBDA JUMP JUMPDEST PUSH1 0x0 PUSH1 0x20 SWAP1 POP PUSH1 0x1F DUP4 GT PUSH1 0x1 DUP2 EQ PUSH2 0xCD1 JUMPI PUSH1 0x0 DUP5 ISZERO PUSH2 0xCBF JUMPI DUP3 DUP8 ADD MLOAD SWAP1 POP JUMPDEST PUSH2 0xCC9 DUP6 DUP3 PUSH2 0xC4B JUMP JUMPDEST DUP7 SSTORE POP PUSH2 0xD31 JUMP JUMPDEST PUSH1 0x1F NOT DUP5 AND PUSH2 0xCDF DUP7 PUSH2 0xABB JUMP JUMPDEST PUSH1 0x0 JUMPDEST DUP3 DUP2 LT ISZERO PUSH2 0xD07 JUMPI DUP5 DUP10 ADD MLOAD DUP3 SSTORE PUSH1 0x1 DUP3 ADD SWAP2 POP PUSH1 0x20 DUP6 ADD SWAP5 POP PUSH1 0x20 DUP2 ADD SWAP1 POP PUSH2 0xCE2 JUMP JUMPDEST DUP7 DUP4 LT ISZERO PUSH2 0xD24 JUMPI DUP5 DUP10 ADD MLOAD PUSH2 0xD20 PUSH1 0x1F DUP10 AND DUP3 PUSH2 0xC2D JUMP JUMPDEST DUP4 SSTORE POP JUMPDEST PUSH1 0x1 PUSH1 0x2 DUP9 MUL ADD DUP9 SSTORE POP POP POP JUMPDEST POP POP POP POP POP POP JUMP INVALID LOG2 PUSH5 0x6970667358 0x22 SLT KECCAK256 0xF8 BASEFEE 0xA8 PUSH30 0x2D491E3FCFE6372D7F5F7F4214B9F2367092E1E6A9FFA916977D1AEB6473 PUSH16 0x6C634300081200330000000000000000 "
				},
				"gasEstimates": {
					"creation": {
						"codeDepositCost": "687800",
						"executionCost": "721",
						"totalCost": "688521"
					},
					"external": {
						"getWallet(uint256)": "infinite",
						"getWalletAccount(uint256)": "infinite",
						"getWallets()": "infinite",
						"setWallets(string,uint256,address)": "infinite"
					}
				},
				"methodIdentifiers": {
					"getWallet(uint256)": "5470b13b",
					"getWalletAccount(uint256)": "bfa5b382",
					"getWallets()": "db7a4605",
					"setWallets(string,uint256,address)": "8b18e5c9"
				}
			},
			"storageLayout": {
				"storage": [
					{
						"astId": 86,
						"contract": "contracts/1_Mapping.sol:Practice1",
						"label": "NumToNum",
						"offset": 0,
						"slot": "0",
						"type": "t_mapping(t_uint256,t_uint256)"
					},
					{
						"astId": 90,
						"contract": "contracts/1_Mapping.sol:Practice1",
						"label": "StrToNum",
						"offset": 0,
						"slot": "1",
						"type": "t_mapping(t_string_memory_ptr,t_uint256)"
					},
					{
						"astId": 102,
						"contract": "contracts/1_Mapping.sol:Practice1",
						"label": "StrToWallet",
						"offset": 0,
						"slot": "2",
						"type": "t_mapping(t_string_memory_ptr,t_struct(Wallet)97_storage)"
					},
					{
						"astId": 106,
						"contract": "contracts/1_Mapping.sol:Practice1",
						"label": "wallets",
						"offset": 0,
						"slot": "3",
						"type": "t_array(t_struct(Wallet)97_storage)dyn_storage"
					}
				],
				"types": {
					"t_address": {
						"encoding": "inplace",
						"label": "address",
						"numberOfBytes": "20"
					},
					"t_array(t_struct(Wallet)97_storage)dyn_storage": {
						"base": "t_struct(Wallet)97_storage",
						"encoding": "dynamic_array",
						"label": "struct Practice1.Wallet[]",
						"numberOfBytes": "32"
					},
					"t_mapping(t_string_memory_ptr,t_struct(Wallet)97_storage)": {
						"encoding": "mapping",
						"key": "t_string_memory_ptr",
						"label": "mapping(string => struct Practice1.Wallet)",
						"numberOfBytes": "32",
						"value": "t_struct(Wallet)97_storage"
					},
					"t_mapping(t_string_memory_ptr,t_uint256)": {
						"encoding": "mapping",
						"key": "t_string_memory_ptr",
						"label": "mapping(string => uint256)",
						"numberOfBytes": "32",
						"value": "t_uint256"
					},
					"t_mapping(t_uint256,t_uint256)": {
						"encoding": "mapping",
						"key": "t_uint256",
						"label": "mapping(uint256 => uint256)",
						"numberOfBytes": "32",
						"value": "t_uint256"
					},
					"t_string_memory_ptr": {
						"encoding": "bytes",
						"label": "string",
						"numberOfBytes": "32"
					},
					"t_string_storage": {
						"encoding": "bytes",
						"label": "string",
						"numberOfBytes": "32"
					},
					"t_struct(Wallet)97_storage": {
						"encoding": "inplace",
						"label": "struct Practice1.Wallet",
						"members": [
							{
								"astId": 92,
								"contract": "contracts/1_Mapping.sol:Practice1",
								"label": "name",
								"offset": 0,
								"slot": "0",
								"type": "t_string_storage"
							},
							{
								"astId": 94,
								"contract": "contracts/1_Mapping.sol:Practice1",
								"label": "number",
								"offset": 0,
								"slot": "1",
								"type": "t_uint256"
							},
							{
								"astId": 96,
								"contract": "contracts/1_Mapping.sol:Practice1",
								"label": "account",
								"offset": 0,
								"slot": "2",
								"type": "t_address"
							}
						],
						"numberOfBytes": "96"
					},
					"t_uint256": {
						"encoding": "inplace",
						"label": "uint256",
						"numberOfBytes": "32"
					}
				}
			},
			"userdoc": {
				"kind": "user",
				"methods": {},
				"version": 1
			}
		}
	}
}