{
	"contracts/99_test.sol": {
		"codingtest": {
			"abi": [
				{
					"inputs": [],
					"name": "getStudentInfo",
					"outputs": [
						{
							"components": [
								{
									"internalType": "string",
									"name": "name",
									"type": "string"
								},
								{
									"internalType": "uint256",
									"name": "number",
									"type": "uint256"
								},
								{
									"internalType": "uint256",
									"name": "score",
									"type": "uint256"
								},
								{
									"internalType": "string",
									"name": "grade",
									"type": "string"
								},
								{
									"internalType": "string[]",
									"name": "classes",
									"type": "string[]"
								}
							],
							"internalType": "struct codingtest.Student[]",
							"name": "",
							"type": "tuple[]"
						}
					],
					"stateMutability": "view",
					"type": "function"
				},
				{
					"inputs": [],
					"name": "getStudentNumber",
					"outputs": [
						{
							"internalType": "uint256",
							"name": "",
							"type": "uint256"
						}
					],
					"stateMutability": "view",
					"type": "function"
				},
				{
					"inputs": [
						{
							"internalType": "string",
							"name": "_name",
							"type": "string"
						}
					],
					"name": "getStudentScore",
					"outputs": [
						{
							"internalType": "uint256",
							"name": "",
							"type": "uint256"
						}
					],
					"stateMutability": "view",
					"type": "function"
				},
				{
					"inputs": [
						{
							"internalType": "uint256",
							"name": "_number",
							"type": "uint256"
						}
					],
					"name": "getStudentbyNumber",
					"outputs": [
						{
							"components": [
								{
									"internalType": "string",
									"name": "name",
									"type": "string"
								},
								{
									"internalType": "uint256",
									"name": "number",
									"type": "uint256"
								},
								{
									"internalType": "uint256",
									"name": "score",
									"type": "uint256"
								},
								{
									"internalType": "string",
									"name": "grade",
									"type": "string"
								},
								{
									"internalType": "string[]",
									"name": "classes",
									"type": "string[]"
								}
							],
							"internalType": "struct codingtest.Student",
							"name": "",
							"type": "tuple"
						}
					],
					"stateMutability": "view",
					"type": "function"
				},
				{
					"inputs": [
						{
							"internalType": "string",
							"name": "_name",
							"type": "string"
						}
					],
					"name": "getStudentbyString",
					"outputs": [
						{
							"components": [
								{
									"internalType": "string",
									"name": "name",
									"type": "string"
								},
								{
									"internalType": "uint256",
									"name": "number",
									"type": "uint256"
								},
								{
									"internalType": "uint256",
									"name": "score",
									"type": "uint256"
								},
								{
									"internalType": "string",
									"name": "grade",
									"type": "string"
								},
								{
									"internalType": "string[]",
									"name": "classes",
									"type": "string[]"
								}
							],
							"internalType": "struct codingtest.Student",
							"name": "",
							"type": "tuple"
						}
					],
					"stateMutability": "view",
					"type": "function"
				},
				{
					"inputs": [],
					"name": "getTrueOrFalse",
					"outputs": [
						{
							"internalType": "bool",
							"name": "",
							"type": "bool"
						}
					],
					"stateMutability": "view",
					"type": "function"
				},
				{
					"inputs": [],
					"name": "setAverage",
					"outputs": [
						{
							"internalType": "uint256",
							"name": "",
							"type": "uint256"
						}
					],
					"stateMutability": "view",
					"type": "function"
				},
				{
					"inputs": [
						{
							"internalType": "string",
							"name": "_name",
							"type": "string"
						},
						{
							"internalType": "uint256",
							"name": "_number",
							"type": "uint256"
						},
						{
							"internalType": "uint256",
							"name": "_score",
							"type": "uint256"
						},
						{
							"internalType": "string[]",
							"name": "_class",
							"type": "string[]"
						}
					],
					"name": "setStudent",
					"outputs": [],
					"stateMutability": "nonpayable",
					"type": "function"
				}
			],
			"devdoc": {
				"kind": "dev",
				"methods": {},
				"version": 1
			},
			"evm": {
				"assembly": "    /* \"contracts/99_test.sol\":61:4797  contract codingtest{... */\n  mstore(0x40, 0x80)\n  callvalue\n  dup1\n  iszero\n  tag_1\n  jumpi\n  0x00\n  dup1\n  revert\ntag_1:\n  pop\n  dataSize(sub_0)\n  dup1\n  dataOffset(sub_0)\n  0x00\n  codecopy\n  0x00\n  return\nstop\n\nsub_0: assembly {\n        /* \"contracts/99_test.sol\":61:4797  contract codingtest{... */\n      mstore(0x40, 0x80)\n      callvalue\n      dup1\n      iszero\n      tag_1\n      jumpi\n      0x00\n      dup1\n      revert\n    tag_1:\n      pop\n      jumpi(tag_2, lt(calldatasize, 0x04))\n      shr(0xe0, calldataload(0x00))\n      dup1\n      0xcacac671\n      gt\n      tag_11\n      jumpi\n      dup1\n      0xcacac671\n      eq\n      tag_7\n      jumpi\n      dup1\n      0xe5521501\n      eq\n      tag_8\n      jumpi\n      dup1\n      0xf97e916d\n      eq\n      tag_9\n      jumpi\n      dup1\n      0xfd9cec4b\n      eq\n      tag_10\n      jumpi\n      jump(tag_2)\n    tag_11:\n      dup1\n      0x0d23dce5\n      eq\n      tag_3\n      jumpi\n      dup1\n      0x3da20a57\n      eq\n      tag_4\n      jumpi\n      dup1\n      0xa1e68c52\n      eq\n      tag_5\n      jumpi\n      dup1\n      0xb1a27377\n      eq\n      tag_6\n      jumpi\n    tag_2:\n      0x00\n      dup1\n      revert\n        /* \"contracts/99_test.sol\":3005:3135  function getStudentbyString(string memory _name) public view returns (Student memory) {... */\n    tag_3:\n      tag_12\n      0x04\n      dup1\n      calldatasize\n      sub\n      dup2\n      add\n      swap1\n      tag_13\n      swap2\n      swap1\n      tag_14\n      jump\t// in\n    tag_13:\n      tag_15\n      jump\t// in\n    tag_12:\n      mload(0x40)\n      tag_16\n      swap2\n      swap1\n      tag_17\n      jump\t// in\n    tag_16:\n      mload(0x40)\n      dup1\n      swap2\n      sub\n      swap1\n      return\n        /* \"contracts/99_test.sol\":2874:2997  function getStudentbyNumber(uint _number) public view returns (Student memory) {... */\n    tag_4:\n      tag_18\n      0x04\n      dup1\n      calldatasize\n      sub\n      dup2\n      add\n      swap1\n      tag_19\n      swap2\n      swap1\n      tag_20\n      jump\t// in\n    tag_19:\n      tag_21\n      jump\t// in\n    tag_18:\n      mload(0x40)\n      tag_22\n      swap2\n      swap1\n      tag_17\n      jump\t// in\n    tag_22:\n      mload(0x40)\n      dup1\n      swap2\n      sub\n      swap1\n      return\n        /* \"contracts/99_test.sol\":3375:3471  function getStudentInfo() public view returns (Student[] memory) {... */\n    tag_5:\n      tag_23\n      tag_24\n      jump\t// in\n    tag_23:\n      mload(0x40)\n      tag_25\n      swap2\n      swap1\n      tag_26\n      jump\t// in\n    tag_25:\n      mload(0x40)\n      dup1\n      swap2\n      sub\n      swap1\n      return\n        /* \"contracts/99_test.sol\":3274:3367  function getStudentNumber() public view returns (uint) {... */\n    tag_6:\n      tag_27\n      tag_28\n      jump\t// in\n    tag_27:\n      mload(0x40)\n      tag_29\n      swap2\n      swap1\n      tag_30\n      jump\t// in\n    tag_29:\n      mload(0x40)\n      dup1\n      swap2\n      sub\n      swap1\n      return\n        /* \"contracts/99_test.sol\":3479:3738  function setAverage() public view returns(uint) {... */\n    tag_7:\n      tag_31\n      tag_32\n      jump\t// in\n    tag_31:\n      mload(0x40)\n      tag_33\n      swap2\n      swap1\n      tag_30\n      jump\t// in\n    tag_33:\n      mload(0x40)\n      dup1\n      swap2\n      sub\n      swap1\n      return\n        /* \"contracts/99_test.sol\":3143:3266  function getStudentScore(string memory _name) public view returns (uint) {... */\n    tag_8:\n      tag_34\n      0x04\n      dup1\n      calldatasize\n      sub\n      dup2\n      add\n      swap1\n      tag_35\n      swap2\n      swap1\n      tag_14\n      jump\t// in\n    tag_35:\n      tag_36\n      jump\t// in\n    tag_34:\n      mload(0x40)\n      tag_37\n      swap2\n      swap1\n      tag_30\n      jump\t// in\n    tag_37:\n      mload(0x40)\n      dup1\n      swap2\n      sub\n      swap1\n      return\n        /* \"contracts/99_test.sol\":2279:2866  function setStudent(string memory _name, uint _number, uint _score, string[] memory _class) public {... */\n    tag_9:\n      tag_38\n      0x04\n      dup1\n      calldatasize\n      sub\n      dup2\n      add\n      swap1\n      tag_39\n      swap2\n      swap1\n      tag_40\n      jump\t// in\n    tag_39:\n      tag_41\n      jump\t// in\n    tag_38:\n      stop\n        /* \"contracts/99_test.sol\":3746:3955  function getTrueOrFalse() public view returns(bool) {... */\n    tag_10:\n      tag_42\n      tag_43\n      jump\t// in\n    tag_42:\n      mload(0x40)\n      tag_44\n      swap2\n      swap1\n      tag_45\n      jump\t// in\n    tag_44:\n      mload(0x40)\n      dup1\n      swap2\n      sub\n      swap1\n      return\n        /* \"contracts/99_test.sol\":3005:3135  function getStudentbyString(string memory _name) public view returns (Student memory) {... */\n    tag_15:\n        /* \"contracts/99_test.sol\":3075:3089  Student memory */\n      tag_46\n      tag_47\n      jump\t// in\n    tag_46:\n        /* \"contracts/99_test.sol\":3109:3120  NameToClass */\n      0x00\n        /* \"contracts/99_test.sol\":3121:3126  _name */\n      dup3\n        /* \"contracts/99_test.sol\":3109:3127  NameToClass[_name] */\n      mload(0x40)\n      tag_49\n      swap2\n      swap1\n      tag_50\n      jump\t// in\n    tag_49:\n      swap1\n      dup2\n      mstore\n      0x20\n      add\n      mload(0x40)\n      dup1\n      swap2\n      sub\n      swap1\n      keccak256\n        /* \"contracts/99_test.sol\":3102:3127  return NameToClass[_name] */\n      mload(0x40)\n      dup1\n      0xa0\n      add\n      0x40\n      mstore\n      swap1\n      dup2\n      0x00\n      dup3\n      add\n      dup1\n      sload\n      tag_51\n      swap1\n      tag_52\n      jump\t// in\n    tag_51:\n      dup1\n      0x1f\n      add\n      0x20\n      dup1\n      swap2\n      div\n      mul\n      0x20\n      add\n      mload(0x40)\n      swap1\n      dup2\n      add\n      0x40\n      mstore\n      dup1\n      swap3\n      swap2\n      swap1\n      dup2\n      dup2\n      mstore\n      0x20\n      add\n      dup3\n      dup1\n      sload\n      tag_53\n      swap1\n      tag_52\n      jump\t// in\n    tag_53:\n      dup1\n      iszero\n      tag_54\n      jumpi\n      dup1\n      0x1f\n      lt\n      tag_55\n      jumpi\n      0x0100\n      dup1\n      dup4\n      sload\n      div\n      mul\n      dup4\n      mstore\n      swap2\n      0x20\n      add\n      swap2\n      jump(tag_54)\n    tag_55:\n      dup3\n      add\n      swap2\n      swap1\n      0x00\n      mstore\n      keccak256(0x00, 0x20)\n      swap1\n    tag_56:\n      dup2\n      sload\n      dup2\n      mstore\n      swap1\n      0x01\n      add\n      swap1\n      0x20\n      add\n      dup1\n      dup4\n      gt\n      tag_56\n      jumpi\n      dup3\n      swap1\n      sub\n      0x1f\n      and\n      dup3\n      add\n      swap2\n    tag_54:\n      pop\n      pop\n      pop\n      pop\n      pop\n      dup2\n      mstore\n      0x20\n      add\n      0x01\n      dup3\n      add\n      sload\n      dup2\n      mstore\n      0x20\n      add\n      0x02\n      dup3\n      add\n      sload\n      dup2\n      mstore\n      0x20\n      add\n      0x03\n      dup3\n      add\n      dup1\n      sload\n      tag_57\n      swap1\n      tag_52\n      jump\t// in\n    tag_57:\n      dup1\n      0x1f\n      add\n      0x20\n      dup1\n      swap2\n      div\n      mul\n      0x20\n      add\n      mload(0x40)\n      swap1\n      dup2\n      add\n      0x40\n      mstore\n      dup1\n      swap3\n      swap2\n      swap1\n      dup2\n      dup2\n      mstore\n      0x20\n      add\n      dup3\n      dup1\n      sload\n      tag_58\n      swap1\n      tag_52\n      jump\t// in\n    tag_58:\n      dup1\n      iszero\n      tag_59\n      jumpi\n      dup1\n      0x1f\n      lt\n      tag_60\n      jumpi\n      0x0100\n      dup1\n      dup4\n      sload\n      div\n      mul\n      dup4\n      mstore\n      swap2\n      0x20\n      add\n      swap2\n      jump(tag_59)\n    tag_60:\n      dup3\n      add\n      swap2\n      swap1\n      0x00\n      mstore\n      keccak256(0x00, 0x20)\n      swap1\n    tag_61:\n      dup2\n      sload\n      dup2\n      mstore\n      swap1\n      0x01\n      add\n      swap1\n      0x20\n      add\n      dup1\n      dup4\n      gt\n      tag_61\n      jumpi\n      dup3\n      swap1\n      sub\n      0x1f\n      and\n      dup3\n      add\n      swap2\n    tag_59:\n      pop\n      pop\n      pop\n      pop\n      pop\n      dup2\n      mstore\n      0x20\n      add\n      0x04\n      dup3\n      add\n      dup1\n      sload\n      dup1\n      0x20\n      mul\n      0x20\n      add\n      mload(0x40)\n      swap1\n      dup2\n      add\n      0x40\n      mstore\n      dup1\n      swap3\n      swap2\n      swap1\n      dup2\n      dup2\n      mstore\n      0x20\n      add\n      0x00\n      swap1\n    tag_62:\n      dup3\n      dup3\n      lt\n      iszero\n      tag_63\n      jumpi\n      dup4\n      dup3\n      swap1\n      0x00\n      mstore\n      keccak256(0x00, 0x20)\n      add\n      dup1\n      sload\n      tag_65\n      swap1\n      tag_52\n      jump\t// in\n    tag_65:\n      dup1\n      0x1f\n      add\n      0x20\n      dup1\n      swap2\n      div\n      mul\n      0x20\n      add\n      mload(0x40)\n      swap1\n      dup2\n      add\n      0x40\n      mstore\n      dup1\n      swap3\n      swap2\n      swap1\n      dup2\n      dup2\n      mstore\n      0x20\n      add\n      dup3\n      dup1\n      sload\n      tag_66\n      swap1\n      tag_52\n      jump\t// in\n    tag_66:\n      dup1\n      iszero\n      tag_67\n      jumpi\n      dup1\n      0x1f\n      lt\n      tag_68\n      jumpi\n      0x0100\n      dup1\n      dup4\n      sload\n      div\n      mul\n      dup4\n      mstore\n      swap2\n      0x20\n      add\n      swap2\n      jump(tag_67)\n    tag_68:\n      dup3\n      add\n      swap2\n      swap1\n      0x00\n      mstore\n      keccak256(0x00, 0x20)\n      swap1\n    tag_69:\n      dup2\n      sload\n      dup2\n      mstore\n      swap1\n      0x01\n      add\n      swap1\n      0x20\n      add\n      dup1\n      dup4\n      gt\n      tag_69\n      jumpi\n      dup3\n      swap1\n      sub\n      0x1f\n      and\n      dup3\n      add\n      swap2\n    tag_67:\n      pop\n      pop\n      pop\n      pop\n      pop\n      dup2\n      mstore\n      0x20\n      add\n      swap1\n      0x01\n      add\n      swap1\n      jump(tag_62)\n    tag_63:\n      pop\n      pop\n      pop\n      pop\n      dup2\n      mstore\n      pop\n      pop\n      swap1\n      pop\n        /* \"contracts/99_test.sol\":3005:3135  function getStudentbyString(string memory _name) public view returns (Student memory) {... */\n      swap2\n      swap1\n      pop\n      jump\t// out\n        /* \"contracts/99_test.sol\":2874:2997  function getStudentbyNumber(uint _number) public view returns (Student memory) {... */\n    tag_21:\n        /* \"contracts/99_test.sol\":2937:2951  Student memory */\n      tag_70\n      tag_47\n      jump\t// in\n    tag_70:\n        /* \"contracts/99_test.sol\":2971:2976  Class */\n      0x01\n        /* \"contracts/99_test.sol\":2987:2988  1 */\n      dup1\n        /* \"contracts/99_test.sol\":2977:2984  _number */\n      dup4\n        /* \"contracts/99_test.sol\":2977:2988  _number - 1 */\n      tag_72\n      swap2\n      swap1\n      tag_73\n      jump\t// in\n    tag_72:\n        /* \"contracts/99_test.sol\":2971:2989  Class[_number - 1] */\n      dup2\n      sload\n      dup2\n      lt\n      tag_74\n      jumpi\n      tag_75\n      tag_76\n      jump\t// in\n    tag_75:\n    tag_74:\n      swap1\n      0x00\n      mstore\n      keccak256(0x00, 0x20)\n      swap1\n      0x05\n      mul\n      add\n        /* \"contracts/99_test.sol\":2964:2989  return Class[_number - 1] */\n      mload(0x40)\n      dup1\n      0xa0\n      add\n      0x40\n      mstore\n      swap1\n      dup2\n      0x00\n      dup3\n      add\n      dup1\n      sload\n      tag_78\n      swap1\n      tag_52\n      jump\t// in\n    tag_78:\n      dup1\n      0x1f\n      add\n      0x20\n      dup1\n      swap2\n      div\n      mul\n      0x20\n      add\n      mload(0x40)\n      swap1\n      dup2\n      add\n      0x40\n      mstore\n      dup1\n      swap3\n      swap2\n      swap1\n      dup2\n      dup2\n      mstore\n      0x20\n      add\n      dup3\n      dup1\n      sload\n      tag_79\n      swap1\n      tag_52\n      jump\t// in\n    tag_79:\n      dup1\n      iszero\n      tag_80\n      jumpi\n      dup1\n      0x1f\n      lt\n      tag_81\n      jumpi\n      0x0100\n      dup1\n      dup4\n      sload\n      div\n      mul\n      dup4\n      mstore\n      swap2\n      0x20\n      add\n      swap2\n      jump(tag_80)\n    tag_81:\n      dup3\n      add\n      swap2\n      swap1\n      0x00\n      mstore\n      keccak256(0x00, 0x20)\n      swap1\n    tag_82:\n      dup2\n      sload\n      dup2\n      mstore\n      swap1\n      0x01\n      add\n      swap1\n      0x20\n      add\n      dup1\n      dup4\n      gt\n      tag_82\n      jumpi\n      dup3\n      swap1\n      sub\n      0x1f\n      and\n      dup3\n      add\n      swap2\n    tag_80:\n      pop\n      pop\n      pop\n      pop\n      pop\n      dup2\n      mstore\n      0x20\n      add\n      0x01\n      dup3\n      add\n      sload\n      dup2\n      mstore\n      0x20\n      add\n      0x02\n      dup3\n      add\n      sload\n      dup2\n      mstore\n      0x20\n      add\n      0x03\n      dup3\n      add\n      dup1\n      sload\n      tag_83\n      swap1\n      tag_52\n      jump\t// in\n    tag_83:\n      dup1\n      0x1f\n      add\n      0x20\n      dup1\n      swap2\n      div\n      mul\n      0x20\n      add\n      mload(0x40)\n      swap1\n      dup2\n      add\n      0x40\n      mstore\n      dup1\n      swap3\n      swap2\n      swap1\n      dup2\n      dup2\n      mstore\n      0x20\n      add\n      dup3\n      dup1\n      sload\n      tag_84\n      swap1\n      tag_52\n      jump\t// in\n    tag_84:\n      dup1\n      iszero\n      tag_85\n      jumpi\n      dup1\n      0x1f\n      lt\n      tag_86\n      jumpi\n      0x0100\n      dup1\n      dup4\n      sload\n      div\n      mul\n      dup4\n      mstore\n      swap2\n      0x20\n      add\n      swap2\n      jump(tag_85)\n    tag_86:\n      dup3\n      add\n      swap2\n      swap1\n      0x00\n      mstore\n      keccak256(0x00, 0x20)\n      swap1\n    tag_87:\n      dup2\n      sload\n      dup2\n      mstore\n      swap1\n      0x01\n      add\n      swap1\n      0x20\n      add\n      dup1\n      dup4\n      gt\n      tag_87\n      jumpi\n      dup3\n      swap1\n      sub\n      0x1f\n      and\n      dup3\n      add\n      swap2\n    tag_85:\n      pop\n      pop\n      pop\n      pop\n      pop\n      dup2\n      mstore\n      0x20\n      add\n      0x04\n      dup3\n      add\n      dup1\n      sload\n      dup1\n      0x20\n      mul\n      0x20\n      add\n      mload(0x40)\n      swap1\n      dup2\n      add\n      0x40\n      mstore\n      dup1\n      swap3\n      swap2\n      swap1\n      dup2\n      dup2\n      mstore\n      0x20\n      add\n      0x00\n      swap1\n    tag_88:\n      dup3\n      dup3\n      lt\n      iszero\n      tag_89\n      jumpi\n      dup4\n      dup3\n      swap1\n      0x00\n      mstore\n      keccak256(0x00, 0x20)\n      add\n      dup1\n      sload\n      tag_91\n      swap1\n      tag_52\n      jump\t// in\n    tag_91:\n      dup1\n      0x1f\n      add\n      0x20\n      dup1\n      swap2\n      div\n      mul\n      0x20\n      add\n      mload(0x40)\n      swap1\n      dup2\n      add\n      0x40\n      mstore\n      dup1\n      swap3\n      swap2\n      swap1\n      dup2\n      dup2\n      mstore\n      0x20\n      add\n      dup3\n      dup1\n      sload\n      tag_92\n      swap1\n      tag_52\n      jump\t// in\n    tag_92:\n      dup1\n      iszero\n      tag_93\n      jumpi\n      dup1\n      0x1f\n      lt\n      tag_94\n      jumpi\n      0x0100\n      dup1\n      dup4\n      sload\n      div\n      mul\n      dup4\n      mstore\n      swap2\n      0x20\n      add\n      swap2\n      jump(tag_93)\n    tag_94:\n      dup3\n      add\n      swap2\n      swap1\n      0x00\n      mstore\n      keccak256(0x00, 0x20)\n      swap1\n    tag_95:\n      dup2\n      sload\n      dup2\n      mstore\n      swap1\n      0x01\n      add\n      swap1\n      0x20\n      add\n      dup1\n      dup4\n      gt\n      tag_95\n      jumpi\n      dup3\n      swap1\n      sub\n      0x1f\n      and\n      dup3\n      add\n      swap2\n    tag_93:\n      pop\n      pop\n      pop\n      pop\n      pop\n      dup2\n      mstore\n      0x20\n      add\n      swap1\n      0x01\n      add\n      swap1\n      jump(tag_88)\n    tag_89:\n      pop\n      pop\n      pop\n      pop\n      dup2\n      mstore\n      pop\n      pop\n      swap1\n      pop\n        /* \"contracts/99_test.sol\":2874:2997  function getStudentbyNumber(uint _number) public view returns (Student memory) {... */\n      swap2\n      swap1\n      pop\n      jump\t// out\n        /* \"contracts/99_test.sol\":3375:3471  function getStudentInfo() public view returns (Student[] memory) {... */\n    tag_24:\n        /* \"contracts/99_test.sol\":3422:3438  Student[] memory */\n      0x60\n        /* \"contracts/99_test.sol\":3458:3463  Class */\n      0x01\n        /* \"contracts/99_test.sol\":3451:3463  return Class */\n      dup1\n      sload\n      dup1\n      0x20\n      mul\n      0x20\n      add\n      mload(0x40)\n      swap1\n      dup2\n      add\n      0x40\n      mstore\n      dup1\n      swap3\n      swap2\n      swap1\n      dup2\n      dup2\n      mstore\n      0x20\n      add\n      0x00\n      swap1\n    tag_97:\n      dup3\n      dup3\n      lt\n      iszero\n      tag_98\n      jumpi\n      dup4\n      dup3\n      swap1\n      0x00\n      mstore\n      keccak256(0x00, 0x20)\n      swap1\n      0x05\n      mul\n      add\n      mload(0x40)\n      dup1\n      0xa0\n      add\n      0x40\n      mstore\n      swap1\n      dup2\n      0x00\n      dup3\n      add\n      dup1\n      sload\n      tag_100\n      swap1\n      tag_52\n      jump\t// in\n    tag_100:\n      dup1\n      0x1f\n      add\n      0x20\n      dup1\n      swap2\n      div\n      mul\n      0x20\n      add\n      mload(0x40)\n      swap1\n      dup2\n      add\n      0x40\n      mstore\n      dup1\n      swap3\n      swap2\n      swap1\n      dup2\n      dup2\n      mstore\n      0x20\n      add\n      dup3\n      dup1\n      sload\n      tag_101\n      swap1\n      tag_52\n      jump\t// in\n    tag_101:\n      dup1\n      iszero\n      tag_102\n      jumpi\n      dup1\n      0x1f\n      lt\n      tag_103\n      jumpi\n      0x0100\n      dup1\n      dup4\n      sload\n      div\n      mul\n      dup4\n      mstore\n      swap2\n      0x20\n      add\n      swap2\n      jump(tag_102)\n    tag_103:\n      dup3\n      add\n      swap2\n      swap1\n      0x00\n      mstore\n      keccak256(0x00, 0x20)\n      swap1\n    tag_104:\n      dup2\n      sload\n      dup2\n      mstore\n      swap1\n      0x01\n      add\n      swap1\n      0x20\n      add\n      dup1\n      dup4\n      gt\n      tag_104\n      jumpi\n      dup3\n      swap1\n      sub\n      0x1f\n      and\n      dup3\n      add\n      swap2\n    tag_102:\n      pop\n      pop\n      pop\n      pop\n      pop\n      dup2\n      mstore\n      0x20\n      add\n      0x01\n      dup3\n      add\n      sload\n      dup2\n      mstore\n      0x20\n      add\n      0x02\n      dup3\n      add\n      sload\n      dup2\n      mstore\n      0x20\n      add\n      0x03\n      dup3\n      add\n      dup1\n      sload\n      tag_105\n      swap1\n      tag_52\n      jump\t// in\n    tag_105:\n      dup1\n      0x1f\n      add\n      0x20\n      dup1\n      swap2\n      div\n      mul\n      0x20\n      add\n      mload(0x40)\n      swap1\n      dup2\n      add\n      0x40\n      mstore\n      dup1\n      swap3\n      swap2\n      swap1\n      dup2\n      dup2\n      mstore\n      0x20\n      add\n      dup3\n      dup1\n      sload\n      tag_106\n      swap1\n      tag_52\n      jump\t// in\n    tag_106:\n      dup1\n      iszero\n      tag_107\n      jumpi\n      dup1\n      0x1f\n      lt\n      tag_108\n      jumpi\n      0x0100\n      dup1\n      dup4\n      sload\n      div\n      mul\n      dup4\n      mstore\n      swap2\n      0x20\n      add\n      swap2\n      jump(tag_107)\n    tag_108:\n      dup3\n      add\n      swap2\n      swap1\n      0x00\n      mstore\n      keccak256(0x00, 0x20)\n      swap1\n    tag_109:\n      dup2\n      sload\n      dup2\n      mstore\n      swap1\n      0x01\n      add\n      swap1\n      0x20\n      add\n      dup1\n      dup4\n      gt\n      tag_109\n      jumpi\n      dup3\n      swap1\n      sub\n      0x1f\n      and\n      dup3\n      add\n      swap2\n    tag_107:\n      pop\n      pop\n      pop\n      pop\n      pop\n      dup2\n      mstore\n      0x20\n      add\n      0x04\n      dup3\n      add\n      dup1\n      sload\n      dup1\n      0x20\n      mul\n      0x20\n      add\n      mload(0x40)\n      swap1\n      dup2\n      add\n      0x40\n      mstore\n      dup1\n      swap3\n      swap2\n      swap1\n      dup2\n      dup2\n      mstore\n      0x20\n      add\n      0x00\n      swap1\n    tag_110:\n      dup3\n      dup3\n      lt\n      iszero\n      tag_111\n      jumpi\n      dup4\n      dup3\n      swap1\n      0x00\n      mstore\n      keccak256(0x00, 0x20)\n      add\n      dup1\n      sload\n      tag_113\n      swap1\n      tag_52\n      jump\t// in\n    tag_113:\n      dup1\n      0x1f\n      add\n      0x20\n      dup1\n      swap2\n      div\n      mul\n      0x20\n      add\n      mload(0x40)\n      swap1\n      dup2\n      add\n      0x40\n      mstore\n      dup1\n      swap3\n      swap2\n      swap1\n      dup2\n      dup2\n      mstore\n      0x20\n      add\n      dup3\n      dup1\n      sload\n      tag_114\n      swap1\n      tag_52\n      jump\t// in\n    tag_114:\n      dup1\n      iszero\n      tag_115\n      jumpi\n      dup1\n      0x1f\n      lt\n      tag_116\n      jumpi\n      0x0100\n      dup1\n      dup4\n      sload\n      div\n      mul\n      dup4\n      mstore\n      swap2\n      0x20\n      add\n      swap2\n      jump(tag_115)\n    tag_116:\n      dup3\n      add\n      swap2\n      swap1\n      0x00\n      mstore\n      keccak256(0x00, 0x20)\n      swap1\n    tag_117:\n      dup2\n      sload\n      dup2\n      mstore\n      swap1\n      0x01\n      add\n      swap1\n      0x20\n      add\n      dup1\n      dup4\n      gt\n      tag_117\n      jumpi\n      dup3\n      swap1\n      sub\n      0x1f\n      and\n      dup3\n      add\n      swap2\n    tag_115:\n      pop\n      pop\n      pop\n      pop\n      pop\n      dup2\n      mstore\n      0x20\n      add\n      swap1\n      0x01\n      add\n      swap1\n      jump(tag_110)\n    tag_111:\n      pop\n      pop\n      pop\n      pop\n      dup2\n      mstore\n      pop\n      pop\n      dup2\n      mstore\n      0x20\n      add\n      swap1\n      0x01\n      add\n      swap1\n      jump(tag_97)\n    tag_98:\n      pop\n      pop\n      pop\n      pop\n      swap1\n      pop\n        /* \"contracts/99_test.sol\":3375:3471  function getStudentInfo() public view returns (Student[] memory) {... */\n      swap1\n      jump\t// out\n        /* \"contracts/99_test.sol\":3274:3367  function getStudentNumber() public view returns (uint) {... */\n    tag_28:\n        /* \"contracts/99_test.sol\":3323:3327  uint */\n      0x00\n        /* \"contracts/99_test.sol\":3347:3352  Class */\n      0x01\n        /* \"contracts/99_test.sol\":3347:3359  Class.length */\n      dup1\n      sload\n      swap1\n      pop\n        /* \"contracts/99_test.sol\":3340:3359  return Class.length */\n      swap1\n      pop\n        /* \"contracts/99_test.sol\":3274:3367  function getStudentNumber() public view returns (uint) {... */\n      swap1\n      jump\t// out\n        /* \"contracts/99_test.sol\":3479:3738  function setAverage() public view returns(uint) {... */\n    tag_32:\n        /* \"contracts/99_test.sol\":3521:3525  uint */\n      0x00\n        /* \"contracts/99_test.sol\":3538:3546  uint sum */\n      dup1\n        /* \"contracts/99_test.sol\":3557:3569  uint average */\n      0x00\n        /* \"contracts/99_test.sol\":3584:3590  uint i */\n      dup1\n        /* \"contracts/99_test.sol\":3593:3594  0 */\n      0x00\n        /* \"contracts/99_test.sol\":3584:3594  uint i = 0 */\n      swap1\n      pop\n        /* \"contracts/99_test.sol\":3580:3667  for(uint i = 0; i < Class.length; i++) {... */\n    tag_120:\n        /* \"contracts/99_test.sol\":3600:3605  Class */\n      0x01\n        /* \"contracts/99_test.sol\":3600:3612  Class.length */\n      dup1\n      sload\n      swap1\n      pop\n        /* \"contracts/99_test.sol\":3596:3597  i */\n      dup2\n        /* \"contracts/99_test.sol\":3596:3612  i < Class.length */\n      lt\n        /* \"contracts/99_test.sol\":3580:3667  for(uint i = 0; i < Class.length; i++) {... */\n      iszero\n      tag_121\n      jumpi\n        /* \"contracts/99_test.sol\":3641:3646  Class */\n      0x01\n        /* \"contracts/99_test.sol\":3647:3648  i */\n      dup2\n        /* \"contracts/99_test.sol\":3641:3649  Class[i] */\n      dup2\n      sload\n      dup2\n      lt\n      tag_123\n      jumpi\n      tag_124\n      tag_76\n      jump\t// in\n    tag_124:\n    tag_123:\n      swap1\n      0x00\n      mstore\n      keccak256(0x00, 0x20)\n      swap1\n      0x05\n      mul\n      add\n        /* \"contracts/99_test.sol\":3641:3655  Class[i].score */\n      0x02\n      add\n      sload\n        /* \"contracts/99_test.sol\":3634:3655  sum += Class[i].score */\n      dup4\n      tag_126\n      swap2\n      swap1\n      tag_127\n      jump\t// in\n    tag_126:\n      swap3\n      pop\n        /* \"contracts/99_test.sol\":3614:3617  i++ */\n      dup1\n      dup1\n      tag_128\n      swap1\n      tag_129\n      jump\t// in\n    tag_128:\n      swap2\n      pop\n      pop\n        /* \"contracts/99_test.sol\":3580:3667  for(uint i = 0; i < Class.length; i++) {... */\n      jump(tag_120)\n    tag_121:\n      pop\n        /* \"contracts/99_test.sol\":3693:3698  Class */\n      0x01\n        /* \"contracts/99_test.sol\":3693:3705  Class.length */\n      dup1\n      sload\n      swap1\n      pop\n        /* \"contracts/99_test.sol\":3687:3690  sum */\n      dup3\n        /* \"contracts/99_test.sol\":3687:3705  sum / Class.length */\n      tag_130\n      swap2\n      swap1\n      tag_131\n      jump\t// in\n    tag_130:\n        /* \"contracts/99_test.sol\":3677:3705  average = sum / Class.length */\n      swap1\n      pop\n        /* \"contracts/99_test.sol\":3723:3730  average */\n      dup1\n        /* \"contracts/99_test.sol\":3716:3730  return average */\n      swap3\n      pop\n      pop\n      pop\n        /* \"contracts/99_test.sol\":3479:3738  function setAverage() public view returns(uint) {... */\n      swap1\n      jump\t// out\n        /* \"contracts/99_test.sol\":3143:3266  function getStudentScore(string memory _name) public view returns (uint) {... */\n    tag_36:\n        /* \"contracts/99_test.sol\":3210:3214  uint */\n      0x00\n        /* \"contracts/99_test.sol\":3234:3245  NameToClass */\n      dup1\n        /* \"contracts/99_test.sol\":3246:3251  _name */\n      dup3\n        /* \"contracts/99_test.sol\":3234:3252  NameToClass[_name] */\n      mload(0x40)\n      tag_133\n      swap2\n      swap1\n      tag_50\n      jump\t// in\n    tag_133:\n      swap1\n      dup2\n      mstore\n      0x20\n      add\n      mload(0x40)\n      dup1\n      swap2\n      sub\n      swap1\n      keccak256\n        /* \"contracts/99_test.sol\":3234:3258  NameToClass[_name].score */\n      0x02\n      add\n      sload\n        /* \"contracts/99_test.sol\":3227:3258  return NameToClass[_name].score */\n      swap1\n      pop\n        /* \"contracts/99_test.sol\":3143:3266  function getStudentScore(string memory _name) public view returns (uint) {... */\n      swap2\n      swap1\n      pop\n      jump\t// out\n        /* \"contracts/99_test.sol\":2279:2866  function setStudent(string memory _name, uint _number, uint _score, string[] memory _class) public {... */\n    tag_41:\n        /* \"contracts/99_test.sol\":2389:2409  string memory _grade */\n      0x60\n        /* \"contracts/99_test.sol\":2433:2435  90 */\n      0x5a\n        /* \"contracts/99_test.sol\":2423:2429  _score */\n      dup4\n        /* \"contracts/99_test.sol\":2423:2435  _score >= 90 */\n      lt\n        /* \"contracts/99_test.sol\":2420:2710  if(_score >= 90) {... */\n      tag_135\n      jumpi\n        /* \"contracts/99_test.sol\":2452:2464  _grade = \"A\" */\n      mload(0x40)\n      dup1\n      0x40\n      add\n      0x40\n      mstore\n      dup1\n      0x01\n      dup2\n      mstore\n      0x20\n      add\n      0x4100000000000000000000000000000000000000000000000000000000000000\n      dup2\n      mstore\n      pop\n      swap1\n      pop\n        /* \"contracts/99_test.sol\":2420:2710  if(_score >= 90) {... */\n      jump(tag_136)\n    tag_135:\n        /* \"contracts/99_test.sol\":2496:2498  80 */\n      0x50\n        /* \"contracts/99_test.sol\":2486:2492  _score */\n      dup4\n        /* \"contracts/99_test.sol\":2486:2498  _score >= 80 */\n      lt\n        /* \"contracts/99_test.sol\":2482:2710  if (_score >= 80) {... */\n      tag_137\n      jumpi\n        /* \"contracts/99_test.sol\":2515:2527  _grade = \"B\" */\n      mload(0x40)\n      dup1\n      0x40\n      add\n      0x40\n      mstore\n      dup1\n      0x01\n      dup2\n      mstore\n      0x20\n      add\n      0x4200000000000000000000000000000000000000000000000000000000000000\n      dup2\n      mstore\n      pop\n      swap1\n      pop\n        /* \"contracts/99_test.sol\":2482:2710  if (_score >= 80) {... */\n      jump(tag_138)\n    tag_137:\n        /* \"contracts/99_test.sol\":2559:2561  70 */\n      0x46\n        /* \"contracts/99_test.sol\":2549:2555  _score */\n      dup4\n        /* \"contracts/99_test.sol\":2549:2561  _score >= 70 */\n      lt\n        /* \"contracts/99_test.sol\":2545:2710  if (_score >= 70) {... */\n      tag_139\n      jumpi\n        /* \"contracts/99_test.sol\":2578:2590  _grade = \"C\" */\n      mload(0x40)\n      dup1\n      0x40\n      add\n      0x40\n      mstore\n      dup1\n      0x01\n      dup2\n      mstore\n      0x20\n      add\n      0x4300000000000000000000000000000000000000000000000000000000000000\n      dup2\n      mstore\n      pop\n      swap1\n      pop\n        /* \"contracts/99_test.sol\":2545:2710  if (_score >= 70) {... */\n      jump(tag_140)\n    tag_139:\n        /* \"contracts/99_test.sol\":2622:2624  60 */\n      0x3c\n        /* \"contracts/99_test.sol\":2612:2618  _score */\n      dup4\n        /* \"contracts/99_test.sol\":2612:2624  _score >= 60 */\n      lt\n        /* \"contracts/99_test.sol\":2608:2710  if (_score >= 60) {... */\n      tag_141\n      jumpi\n        /* \"contracts/99_test.sol\":2641:2653  _grade = \"D\" */\n      mload(0x40)\n      dup1\n      0x40\n      add\n      0x40\n      mstore\n      dup1\n      0x01\n      dup2\n      mstore\n      0x20\n      add\n      0x4400000000000000000000000000000000000000000000000000000000000000\n      dup2\n      mstore\n      pop\n      swap1\n      pop\n        /* \"contracts/99_test.sol\":2608:2710  if (_score >= 60) {... */\n      jump(tag_142)\n    tag_141:\n        /* \"contracts/99_test.sol\":2686:2698  _grade = \"F\" */\n      mload(0x40)\n      dup1\n      0x40\n      add\n      0x40\n      mstore\n      dup1\n      0x01\n      dup2\n      mstore\n      0x20\n      add\n      0x4600000000000000000000000000000000000000000000000000000000000000\n      dup2\n      mstore\n      pop\n      swap1\n      pop\n        /* \"contracts/99_test.sol\":2608:2710  if (_score >= 60) {... */\n    tag_142:\n        /* \"contracts/99_test.sol\":2545:2710  if (_score >= 70) {... */\n    tag_140:\n        /* \"contracts/99_test.sol\":2482:2710  if (_score >= 80) {... */\n    tag_138:\n        /* \"contracts/99_test.sol\":2420:2710  if(_score >= 90) {... */\n    tag_136:\n        /* \"contracts/99_test.sol\":2741:2788  Student(_name, _number, _score, _grade, _class) */\n      mload(0x40)\n      dup1\n      0xa0\n      add\n      0x40\n      mstore\n      dup1\n        /* \"contracts/99_test.sol\":2749:2754  _name */\n      dup7\n        /* \"contracts/99_test.sol\":2741:2788  Student(_name, _number, _score, _grade, _class) */\n      dup2\n      mstore\n      0x20\n      add\n        /* \"contracts/99_test.sol\":2756:2763  _number */\n      dup6\n        /* \"contracts/99_test.sol\":2741:2788  Student(_name, _number, _score, _grade, _class) */\n      dup2\n      mstore\n      0x20\n      add\n        /* \"contracts/99_test.sol\":2765:2771  _score */\n      dup5\n        /* \"contracts/99_test.sol\":2741:2788  Student(_name, _number, _score, _grade, _class) */\n      dup2\n      mstore\n      0x20\n      add\n        /* \"contracts/99_test.sol\":2773:2779  _grade */\n      dup3\n        /* \"contracts/99_test.sol\":2741:2788  Student(_name, _number, _score, _grade, _class) */\n      dup2\n      mstore\n      0x20\n      add\n        /* \"contracts/99_test.sol\":2781:2787  _class */\n      dup4\n        /* \"contracts/99_test.sol\":2741:2788  Student(_name, _number, _score, _grade, _class) */\n      dup2\n      mstore\n      pop\n        /* \"contracts/99_test.sol\":2720:2731  NameToClass */\n      0x00\n        /* \"contracts/99_test.sol\":2732:2737  _name */\n      dup7\n        /* \"contracts/99_test.sol\":2720:2738  NameToClass[_name] */\n      mload(0x40)\n      tag_143\n      swap2\n      swap1\n      tag_50\n      jump\t// in\n    tag_143:\n      swap1\n      dup2\n      mstore\n      0x20\n      add\n      mload(0x40)\n      dup1\n      swap2\n      sub\n      swap1\n      keccak256\n        /* \"contracts/99_test.sol\":2720:2788  NameToClass[_name] = Student(_name, _number, _score, _grade, _class) */\n      0x00\n      dup3\n      add\n      mload\n      dup2\n      0x00\n      add\n      swap1\n      dup2\n      tag_144\n      swap2\n      swap1\n      tag_145\n      jump\t// in\n    tag_144:\n      pop\n      0x20\n      dup3\n      add\n      mload\n      dup2\n      0x01\n      add\n      sstore\n      0x40\n      dup3\n      add\n      mload\n      dup2\n      0x02\n      add\n      sstore\n      0x60\n      dup3\n      add\n      mload\n      dup2\n      0x03\n      add\n      swap1\n      dup2\n      tag_146\n      swap2\n      swap1\n      tag_145\n      jump\t// in\n    tag_146:\n      pop\n      0x80\n      dup3\n      add\n      mload\n      dup2\n      0x04\n      add\n      swap1\n      dup1\n      mload\n      swap1\n      0x20\n      add\n      swap1\n      tag_147\n      swap3\n      swap2\n      swap1\n      tag_148\n      jump\t// in\n    tag_147:\n      pop\n      swap1\n      pop\n      pop\n        /* \"contracts/99_test.sol\":2799:2804  Class */\n      0x01\n        /* \"contracts/99_test.sol\":2810:2857  Student(_name, _number, _score, _grade, _class) */\n      mload(0x40)\n      dup1\n      0xa0\n      add\n      0x40\n      mstore\n      dup1\n        /* \"contracts/99_test.sol\":2818:2823  _name */\n      dup8\n        /* \"contracts/99_test.sol\":2810:2857  Student(_name, _number, _score, _grade, _class) */\n      dup2\n      mstore\n      0x20\n      add\n        /* \"contracts/99_test.sol\":2825:2832  _number */\n      dup7\n        /* \"contracts/99_test.sol\":2810:2857  Student(_name, _number, _score, _grade, _class) */\n      dup2\n      mstore\n      0x20\n      add\n        /* \"contracts/99_test.sol\":2834:2840  _score */\n      dup6\n        /* \"contracts/99_test.sol\":2810:2857  Student(_name, _number, _score, _grade, _class) */\n      dup2\n      mstore\n      0x20\n      add\n        /* \"contracts/99_test.sol\":2842:2848  _grade */\n      dup4\n        /* \"contracts/99_test.sol\":2810:2857  Student(_name, _number, _score, _grade, _class) */\n      dup2\n      mstore\n      0x20\n      add\n        /* \"contracts/99_test.sol\":2850:2856  _class */\n      dup5\n        /* \"contracts/99_test.sol\":2810:2857  Student(_name, _number, _score, _grade, _class) */\n      dup2\n      mstore\n      pop\n        /* \"contracts/99_test.sol\":2799:2858  Class.push(Student(_name, _number, _score, _grade, _class)) */\n      swap1\n      dup1\n      0x01\n      dup2\n      sload\n      add\n      dup1\n      dup3\n      sstore\n      dup1\n      swap2\n      pop\n      pop\n      0x01\n      swap1\n      sub\n      swap1\n      0x00\n      mstore\n      keccak256(0x00, 0x20)\n      swap1\n      0x05\n      mul\n      add\n      0x00\n      swap1\n      swap2\n      swap1\n      swap2\n      swap1\n      swap2\n      pop\n      0x00\n      dup3\n      add\n      mload\n      dup2\n      0x00\n      add\n      swap1\n      dup2\n      tag_150\n      swap2\n      swap1\n      tag_145\n      jump\t// in\n    tag_150:\n      pop\n      0x20\n      dup3\n      add\n      mload\n      dup2\n      0x01\n      add\n      sstore\n      0x40\n      dup3\n      add\n      mload\n      dup2\n      0x02\n      add\n      sstore\n      0x60\n      dup3\n      add\n      mload\n      dup2\n      0x03\n      add\n      swap1\n      dup2\n      tag_151\n      swap2\n      swap1\n      tag_145\n      jump\t// in\n    tag_151:\n      pop\n      0x80\n      dup3\n      add\n      mload\n      dup2\n      0x04\n      add\n      swap1\n      dup1\n      mload\n      swap1\n      0x20\n      add\n      swap1\n      tag_152\n      swap3\n      swap2\n      swap1\n      tag_148\n      jump\t// in\n    tag_152:\n      pop\n      pop\n      pop\n        /* \"contracts/99_test.sol\":2378:2866  {... */\n      pop\n        /* \"contracts/99_test.sol\":2279:2866  function setStudent(string memory _name, uint _number, uint _score, string[] memory _class) public {... */\n      pop\n      pop\n      pop\n      pop\n      jump\t// out\n        /* \"contracts/99_test.sol\":3746:3955  function getTrueOrFalse() public view returns(bool) {... */\n    tag_43:\n        /* \"contracts/99_test.sol\":3792:3796  bool */\n      0x00\n        /* \"contracts/99_test.sol\":3809:3821  uint average */\n      dup1\n        /* \"contracts/99_test.sol\":3824:3836  setAverage() */\n      tag_154\n        /* \"contracts/99_test.sol\":3824:3834  setAverage */\n      tag_32\n        /* \"contracts/99_test.sol\":3824:3836  setAverage() */\n      jump\t// in\n    tag_154:\n        /* \"contracts/99_test.sol\":3809:3836  uint average = setAverage() */\n      swap1\n      pop\n        /* \"contracts/99_test.sol\":3861:3863  70 */\n      0x46\n        /* \"contracts/99_test.sol\":3850:3857  average */\n      dup2\n        /* \"contracts/99_test.sol\":3850:3863  average >= 70 */\n      lt\n        /* \"contracts/99_test.sol\":3847:3948  if(average >= 70) {... */\n      tag_155\n      jumpi\n        /* \"contracts/99_test.sol\":3887:3891  true */\n      0x01\n        /* \"contracts/99_test.sol\":3880:3891  return true */\n      swap2\n      pop\n      pop\n      jump(tag_153)\n        /* \"contracts/99_test.sol\":3847:3948  if(average >= 70) {... */\n    tag_155:\n        /* \"contracts/99_test.sol\":3931:3936  false */\n      0x00\n        /* \"contracts/99_test.sol\":3924:3936  return false */\n      swap2\n      pop\n      pop\n        /* \"contracts/99_test.sol\":3746:3955  function getTrueOrFalse() public view returns(bool) {... */\n    tag_153:\n      swap1\n      jump\t// out\n    tag_47:\n      mload(0x40)\n      dup1\n      0xa0\n      add\n      0x40\n      mstore\n      dup1\n      0x60\n      dup2\n      mstore\n      0x20\n      add\n      0x00\n      dup2\n      mstore\n      0x20\n      add\n      0x00\n      dup2\n      mstore\n      0x20\n      add\n      0x60\n      dup2\n      mstore\n      0x20\n      add\n      0x60\n      dup2\n      mstore\n      pop\n      swap1\n      jump\t// out\n    tag_148:\n      dup3\n      dup1\n      sload\n      dup3\n      dup3\n      sstore\n      swap1\n      0x00\n      mstore\n      keccak256(0x00, 0x20)\n      swap1\n      dup2\n      add\n      swap3\n      dup3\n      iszero\n      tag_157\n      jumpi\n      swap2\n      0x20\n      mul\n      dup3\n      add\n    tag_158:\n      dup3\n      dup2\n      gt\n      iszero\n      tag_159\n      jumpi\n      dup3\n      mload\n      dup3\n      swap1\n      dup2\n      tag_160\n      swap2\n      swap1\n      tag_145\n      jump\t// in\n    tag_160:\n      pop\n      swap2\n      0x20\n      add\n      swap2\n      swap1\n      0x01\n      add\n      swap1\n      jump(tag_158)\n    tag_159:\n    tag_157:\n      pop\n      swap1\n      pop\n      tag_161\n      swap2\n      swap1\n      tag_162\n      jump\t// in\n    tag_161:\n      pop\n      swap1\n      jump\t// out\n    tag_162:\n    tag_163:\n      dup1\n      dup3\n      gt\n      iszero\n      tag_164\n      jumpi\n      0x00\n      dup2\n      dup2\n      tag_165\n      swap2\n      swap1\n      tag_166\n      jump\t// in\n    tag_165:\n      pop\n      0x01\n      add\n      jump(tag_163)\n    tag_164:\n      pop\n      swap1\n      jump\t// out\n    tag_166:\n      pop\n      dup1\n      sload\n      tag_167\n      swap1\n      tag_52\n      jump\t// in\n    tag_167:\n      0x00\n      dup3\n      sstore\n      dup1\n      0x1f\n      lt\n      tag_169\n      jumpi\n      pop\n      jump(tag_168)\n    tag_169:\n      0x1f\n      add\n      0x20\n      swap1\n      div\n      swap1\n      0x00\n      mstore\n      keccak256(0x00, 0x20)\n      swap1\n      dup2\n      add\n      swap1\n      tag_170\n      swap2\n      swap1\n      tag_171\n      jump\t// in\n    tag_170:\n    tag_168:\n      pop\n      jump\t// out\n    tag_171:\n    tag_172:\n      dup1\n      dup3\n      gt\n      iszero\n      tag_173\n      jumpi\n      0x00\n      dup2\n      0x00\n      swap1\n      sstore\n      pop\n      0x01\n      add\n      jump(tag_172)\n    tag_173:\n      pop\n      swap1\n      jump\t// out\n        /* \"#utility.yul\":7:82   */\n    tag_174:\n        /* \"#utility.yul\":40:46   */\n      0x00\n        /* \"#utility.yul\":73:75   */\n      0x40\n        /* \"#utility.yul\":67:76   */\n      mload\n        /* \"#utility.yul\":57:76   */\n      swap1\n      pop\n        /* \"#utility.yul\":7:82   */\n      swap1\n      jump\t// out\n        /* \"#utility.yul\":88:205   */\n    tag_175:\n        /* \"#utility.yul\":197:198   */\n      0x00\n        /* \"#utility.yul\":194:195   */\n      dup1\n        /* \"#utility.yul\":187:199   */\n      revert\n        /* \"#utility.yul\":211:328   */\n    tag_176:\n        /* \"#utility.yul\":320:321   */\n      0x00\n        /* \"#utility.yul\":317:318   */\n      dup1\n        /* \"#utility.yul\":310:322   */\n      revert\n        /* \"#utility.yul\":334:451   */\n    tag_177:\n        /* \"#utility.yul\":443:444   */\n      0x00\n        /* \"#utility.yul\":440:441   */\n      dup1\n        /* \"#utility.yul\":433:445   */\n      revert\n        /* \"#utility.yul\":457:574   */\n    tag_178:\n        /* \"#utility.yul\":566:567   */\n      0x00\n        /* \"#utility.yul\":563:564   */\n      dup1\n        /* \"#utility.yul\":556:568   */\n      revert\n        /* \"#utility.yul\":580:682   */\n    tag_179:\n        /* \"#utility.yul\":621:627   */\n      0x00\n        /* \"#utility.yul\":672:674   */\n      0x1f\n        /* \"#utility.yul\":668:675   */\n      not\n        /* \"#utility.yul\":663:665   */\n      0x1f\n        /* \"#utility.yul\":656:661   */\n      dup4\n        /* \"#utility.yul\":652:666   */\n      add\n        /* \"#utility.yul\":648:676   */\n      and\n        /* \"#utility.yul\":638:676   */\n      swap1\n      pop\n        /* \"#utility.yul\":580:682   */\n      swap2\n      swap1\n      pop\n      jump\t// out\n        /* \"#utility.yul\":688:868   */\n    tag_180:\n        /* \"#utility.yul\":736:813   */\n      0x4e487b7100000000000000000000000000000000000000000000000000000000\n        /* \"#utility.yul\":733:734   */\n      0x00\n        /* \"#utility.yul\":726:814   */\n      mstore\n        /* \"#utility.yul\":833:837   */\n      0x41\n        /* \"#utility.yul\":830:831   */\n      0x04\n        /* \"#utility.yul\":823:838   */\n      mstore\n        /* \"#utility.yul\":857:861   */\n      0x24\n        /* \"#utility.yul\":854:855   */\n      0x00\n        /* \"#utility.yul\":847:862   */\n      revert\n        /* \"#utility.yul\":874:1155   */\n    tag_181:\n        /* \"#utility.yul\":957:984   */\n      tag_245\n        /* \"#utility.yul\":979:983   */\n      dup3\n        /* \"#utility.yul\":957:984   */\n      tag_179\n      jump\t// in\n    tag_245:\n        /* \"#utility.yul\":949:955   */\n      dup2\n        /* \"#utility.yul\":945:985   */\n      add\n        /* \"#utility.yul\":1087:1093   */\n      dup2\n        /* \"#utility.yul\":1075:1085   */\n      dup2\n        /* \"#utility.yul\":1072:1094   */\n      lt\n        /* \"#utility.yul\":1051:1069   */\n      0xffffffffffffffff\n        /* \"#utility.yul\":1039:1049   */\n      dup3\n        /* \"#utility.yul\":1036:1070   */\n      gt\n        /* \"#utility.yul\":1033:1095   */\n      or\n        /* \"#utility.yul\":1030:1118   */\n      iszero\n      tag_246\n      jumpi\n        /* \"#utility.yul\":1098:1116   */\n      tag_247\n      tag_180\n      jump\t// in\n    tag_247:\n        /* \"#utility.yul\":1030:1118   */\n    tag_246:\n        /* \"#utility.yul\":1138:1148   */\n      dup1\n        /* \"#utility.yul\":1134:1136   */\n      0x40\n        /* \"#utility.yul\":1127:1149   */\n      mstore\n        /* \"#utility.yul\":917:1155   */\n      pop\n        /* \"#utility.yul\":874:1155   */\n      pop\n      pop\n      jump\t// out\n        /* \"#utility.yul\":1161:1290   */\n    tag_182:\n        /* \"#utility.yul\":1195:1201   */\n      0x00\n        /* \"#utility.yul\":1222:1242   */\n      tag_249\n      tag_174\n      jump\t// in\n    tag_249:\n        /* \"#utility.yul\":1212:1242   */\n      swap1\n      pop\n        /* \"#utility.yul\":1251:1284   */\n      tag_250\n        /* \"#utility.yul\":1279:1283   */\n      dup3\n        /* \"#utility.yul\":1271:1277   */\n      dup3\n        /* \"#utility.yul\":1251:1284   */\n      tag_181\n      jump\t// in\n    tag_250:\n        /* \"#utility.yul\":1161:1290   */\n      swap2\n      swap1\n      pop\n      jump\t// out\n        /* \"#utility.yul\":1296:1604   */\n    tag_183:\n        /* \"#utility.yul\":1358:1362   */\n      0x00\n        /* \"#utility.yul\":1448:1466   */\n      0xffffffffffffffff\n        /* \"#utility.yul\":1440:1446   */\n      dup3\n        /* \"#utility.yul\":1437:1467   */\n      gt\n        /* \"#utility.yul\":1434:1490   */\n      iszero\n      tag_252\n      jumpi\n        /* \"#utility.yul\":1470:1488   */\n      tag_253\n      tag_180\n      jump\t// in\n    tag_253:\n        /* \"#utility.yul\":1434:1490   */\n    tag_252:\n        /* \"#utility.yul\":1508:1537   */\n      tag_254\n        /* \"#utility.yul\":1530:1536   */\n      dup3\n        /* \"#utility.yul\":1508:1537   */\n      tag_179\n      jump\t// in\n    tag_254:\n        /* \"#utility.yul\":1500:1537   */\n      swap1\n      pop\n        /* \"#utility.yul\":1592:1596   */\n      0x20\n        /* \"#utility.yul\":1586:1590   */\n      dup2\n        /* \"#utility.yul\":1582:1597   */\n      add\n        /* \"#utility.yul\":1574:1597   */\n      swap1\n      pop\n        /* \"#utility.yul\":1296:1604   */\n      swap2\n      swap1\n      pop\n      jump\t// out\n        /* \"#utility.yul\":1610:1756   */\n    tag_184:\n        /* \"#utility.yul\":1707:1713   */\n      dup3\n        /* \"#utility.yul\":1702:1705   */\n      dup2\n        /* \"#utility.yul\":1697:1700   */\n      dup4\n        /* \"#utility.yul\":1684:1714   */\n      calldatacopy\n        /* \"#utility.yul\":1748:1749   */\n      0x00\n        /* \"#utility.yul\":1739:1745   */\n      dup4\n        /* \"#utility.yul\":1734:1737   */\n      dup4\n        /* \"#utility.yul\":1730:1746   */\n      add\n        /* \"#utility.yul\":1723:1750   */\n      mstore\n        /* \"#utility.yul\":1610:1756   */\n      pop\n      pop\n      pop\n      jump\t// out\n        /* \"#utility.yul\":1762:2187   */\n    tag_185:\n        /* \"#utility.yul\":1840:1845   */\n      0x00\n        /* \"#utility.yul\":1865:1931   */\n      tag_257\n        /* \"#utility.yul\":1881:1930   */\n      tag_258\n        /* \"#utility.yul\":1923:1929   */\n      dup5\n        /* \"#utility.yul\":1881:1930   */\n      tag_183\n      jump\t// in\n    tag_258:\n        /* \"#utility.yul\":1865:1931   */\n      tag_182\n      jump\t// in\n    tag_257:\n        /* \"#utility.yul\":1856:1931   */\n      swap1\n      pop\n        /* \"#utility.yul\":1954:1960   */\n      dup3\n        /* \"#utility.yul\":1947:1952   */\n      dup2\n        /* \"#utility.yul\":1940:1961   */\n      mstore\n        /* \"#utility.yul\":1992:1996   */\n      0x20\n        /* \"#utility.yul\":1985:1990   */\n      dup2\n        /* \"#utility.yul\":1981:1997   */\n      add\n        /* \"#utility.yul\":2030:2033   */\n      dup5\n        /* \"#utility.yul\":2021:2027   */\n      dup5\n        /* \"#utility.yul\":2016:2019   */\n      dup5\n        /* \"#utility.yul\":2012:2028   */\n      add\n        /* \"#utility.yul\":2009:2034   */\n      gt\n        /* \"#utility.yul\":2006:2118   */\n      iszero\n      tag_259\n      jumpi\n        /* \"#utility.yul\":2037:2116   */\n      tag_260\n      tag_178\n      jump\t// in\n    tag_260:\n        /* \"#utility.yul\":2006:2118   */\n    tag_259:\n        /* \"#utility.yul\":2127:2181   */\n      tag_261\n        /* \"#utility.yul\":2174:2180   */\n      dup5\n        /* \"#utility.yul\":2169:2172   */\n      dup3\n        /* \"#utility.yul\":2164:2167   */\n      dup6\n        /* \"#utility.yul\":2127:2181   */\n      tag_184\n      jump\t// in\n    tag_261:\n        /* \"#utility.yul\":1846:2187   */\n      pop\n        /* \"#utility.yul\":1762:2187   */\n      swap4\n      swap3\n      pop\n      pop\n      pop\n      jump\t// out\n        /* \"#utility.yul\":2207:2547   */\n    tag_186:\n        /* \"#utility.yul\":2263:2268   */\n      0x00\n        /* \"#utility.yul\":2312:2315   */\n      dup3\n        /* \"#utility.yul\":2305:2309   */\n      0x1f\n        /* \"#utility.yul\":2297:2303   */\n      dup4\n        /* \"#utility.yul\":2293:2310   */\n      add\n        /* \"#utility.yul\":2289:2316   */\n      slt\n        /* \"#utility.yul\":2279:2401   */\n      tag_263\n      jumpi\n        /* \"#utility.yul\":2320:2399   */\n      tag_264\n      tag_177\n      jump\t// in\n    tag_264:\n        /* \"#utility.yul\":2279:2401   */\n    tag_263:\n        /* \"#utility.yul\":2437:2443   */\n      dup2\n        /* \"#utility.yul\":2424:2444   */\n      calldataload\n        /* \"#utility.yul\":2462:2541   */\n      tag_265\n        /* \"#utility.yul\":2537:2540   */\n      dup5\n        /* \"#utility.yul\":2529:2535   */\n      dup3\n        /* \"#utility.yul\":2522:2526   */\n      0x20\n        /* \"#utility.yul\":2514:2520   */\n      dup7\n        /* \"#utility.yul\":2510:2527   */\n      add\n        /* \"#utility.yul\":2462:2541   */\n      tag_185\n      jump\t// in\n    tag_265:\n        /* \"#utility.yul\":2453:2541   */\n      swap2\n      pop\n        /* \"#utility.yul\":2269:2547   */\n      pop\n        /* \"#utility.yul\":2207:2547   */\n      swap3\n      swap2\n      pop\n      pop\n      jump\t// out\n        /* \"#utility.yul\":2553:3062   */\n    tag_14:\n        /* \"#utility.yul\":2622:2628   */\n      0x00\n        /* \"#utility.yul\":2671:2673   */\n      0x20\n        /* \"#utility.yul\":2659:2668   */\n      dup3\n        /* \"#utility.yul\":2650:2657   */\n      dup5\n        /* \"#utility.yul\":2646:2669   */\n      sub\n        /* \"#utility.yul\":2642:2674   */\n      slt\n        /* \"#utility.yul\":2639:2758   */\n      iszero\n      tag_267\n      jumpi\n        /* \"#utility.yul\":2677:2756   */\n      tag_268\n      tag_175\n      jump\t// in\n    tag_268:\n        /* \"#utility.yul\":2639:2758   */\n    tag_267:\n        /* \"#utility.yul\":2825:2826   */\n      0x00\n        /* \"#utility.yul\":2814:2823   */\n      dup3\n        /* \"#utility.yul\":2810:2827   */\n      add\n        /* \"#utility.yul\":2797:2828   */\n      calldataload\n        /* \"#utility.yul\":2855:2873   */\n      0xffffffffffffffff\n        /* \"#utility.yul\":2847:2853   */\n      dup2\n        /* \"#utility.yul\":2844:2874   */\n      gt\n        /* \"#utility.yul\":2841:2958   */\n      iszero\n      tag_269\n      jumpi\n        /* \"#utility.yul\":2877:2956   */\n      tag_270\n      tag_176\n      jump\t// in\n    tag_270:\n        /* \"#utility.yul\":2841:2958   */\n    tag_269:\n        /* \"#utility.yul\":2982:3045   */\n      tag_271\n        /* \"#utility.yul\":3037:3044   */\n      dup5\n        /* \"#utility.yul\":3028:3034   */\n      dup3\n        /* \"#utility.yul\":3017:3026   */\n      dup6\n        /* \"#utility.yul\":3013:3035   */\n      add\n        /* \"#utility.yul\":2982:3045   */\n      tag_186\n      jump\t// in\n    tag_271:\n        /* \"#utility.yul\":2972:3045   */\n      swap2\n      pop\n        /* \"#utility.yul\":2768:3055   */\n      pop\n        /* \"#utility.yul\":2553:3062   */\n      swap3\n      swap2\n      pop\n      pop\n      jump\t// out\n        /* \"#utility.yul\":3068:3167   */\n    tag_187:\n        /* \"#utility.yul\":3120:3126   */\n      0x00\n        /* \"#utility.yul\":3154:3159   */\n      dup2\n        /* \"#utility.yul\":3148:3160   */\n      mload\n        /* \"#utility.yul\":3138:3160   */\n      swap1\n      pop\n        /* \"#utility.yul\":3068:3167   */\n      swap2\n      swap1\n      pop\n      jump\t// out\n        /* \"#utility.yul\":3173:3332   */\n    tag_188:\n        /* \"#utility.yul\":3247:3258   */\n      0x00\n        /* \"#utility.yul\":3281:3287   */\n      dup3\n        /* \"#utility.yul\":3276:3279   */\n      dup3\n        /* \"#utility.yul\":3269:3288   */\n      mstore\n        /* \"#utility.yul\":3321:3325   */\n      0x20\n        /* \"#utility.yul\":3316:3319   */\n      dup3\n        /* \"#utility.yul\":3312:3326   */\n      add\n        /* \"#utility.yul\":3297:3326   */\n      swap1\n      pop\n        /* \"#utility.yul\":3173:3332   */\n      swap3\n      swap2\n      pop\n      pop\n      jump\t// out\n        /* \"#utility.yul\":3338:3584   */\n    tag_189:\n        /* \"#utility.yul\":3419:3420   */\n      0x00\n        /* \"#utility.yul\":3429:3542   */\n    tag_275:\n        /* \"#utility.yul\":3443:3449   */\n      dup4\n        /* \"#utility.yul\":3440:3441   */\n      dup2\n        /* \"#utility.yul\":3437:3450   */\n      lt\n        /* \"#utility.yul\":3429:3542   */\n      iszero\n      tag_277\n      jumpi\n        /* \"#utility.yul\":3528:3529   */\n      dup1\n        /* \"#utility.yul\":3523:3526   */\n      dup3\n        /* \"#utility.yul\":3519:3530   */\n      add\n        /* \"#utility.yul\":3513:3531   */\n      mload\n        /* \"#utility.yul\":3509:3510   */\n      dup2\n        /* \"#utility.yul\":3504:3507   */\n      dup5\n        /* \"#utility.yul\":3500:3511   */\n      add\n        /* \"#utility.yul\":3493:3532   */\n      mstore\n        /* \"#utility.yul\":3465:3467   */\n      0x20\n        /* \"#utility.yul\":3462:3463   */\n      dup2\n        /* \"#utility.yul\":3458:3468   */\n      add\n        /* \"#utility.yul\":3453:3468   */\n      swap1\n      pop\n        /* \"#utility.yul\":3429:3542   */\n      jump(tag_275)\n    tag_277:\n        /* \"#utility.yul\":3576:3577   */\n      0x00\n        /* \"#utility.yul\":3567:3573   */\n      dup5\n        /* \"#utility.yul\":3562:3565   */\n      dup5\n        /* \"#utility.yul\":3558:3574   */\n      add\n        /* \"#utility.yul\":3551:3578   */\n      mstore\n        /* \"#utility.yul\":3400:3584   */\n      pop\n        /* \"#utility.yul\":3338:3584   */\n      pop\n      pop\n      pop\n      jump\t// out\n        /* \"#utility.yul\":3590:3947   */\n    tag_190:\n        /* \"#utility.yul\":3668:3671   */\n      0x00\n        /* \"#utility.yul\":3696:3735   */\n      tag_279\n        /* \"#utility.yul\":3729:3734   */\n      dup3\n        /* \"#utility.yul\":3696:3735   */\n      tag_187\n      jump\t// in\n    tag_279:\n        /* \"#utility.yul\":3751:3812   */\n      tag_280\n        /* \"#utility.yul\":3805:3811   */\n      dup2\n        /* \"#utility.yul\":3800:3803   */\n      dup6\n        /* \"#utility.yul\":3751:3812   */\n      tag_188\n      jump\t// in\n    tag_280:\n        /* \"#utility.yul\":3744:3812   */\n      swap4\n      pop\n        /* \"#utility.yul\":3821:3886   */\n      tag_281\n        /* \"#utility.yul\":3879:3885   */\n      dup2\n        /* \"#utility.yul\":3874:3877   */\n      dup6\n        /* \"#utility.yul\":3867:3871   */\n      0x20\n        /* \"#utility.yul\":3860:3865   */\n      dup7\n        /* \"#utility.yul\":3856:3872   */\n      add\n        /* \"#utility.yul\":3821:3886   */\n      tag_189\n      jump\t// in\n    tag_281:\n        /* \"#utility.yul\":3911:3940   */\n      tag_282\n        /* \"#utility.yul\":3933:3939   */\n      dup2\n        /* \"#utility.yul\":3911:3940   */\n      tag_179\n      jump\t// in\n    tag_282:\n        /* \"#utility.yul\":3906:3909   */\n      dup5\n        /* \"#utility.yul\":3902:3941   */\n      add\n        /* \"#utility.yul\":3895:3941   */\n      swap2\n      pop\n        /* \"#utility.yul\":3672:3947   */\n      pop\n        /* \"#utility.yul\":3590:3947   */\n      swap3\n      swap2\n      pop\n      pop\n      jump\t// out\n        /* \"#utility.yul\":3953:4030   */\n    tag_191:\n        /* \"#utility.yul\":3990:3997   */\n      0x00\n        /* \"#utility.yul\":4019:4024   */\n      dup2\n        /* \"#utility.yul\":4008:4024   */\n      swap1\n      pop\n        /* \"#utility.yul\":3953:4030   */\n      swap2\n      swap1\n      pop\n      jump\t// out\n        /* \"#utility.yul\":4036:4144   */\n    tag_192:\n        /* \"#utility.yul\":4113:4137   */\n      tag_285\n        /* \"#utility.yul\":4131:4136   */\n      dup2\n        /* \"#utility.yul\":4113:4137   */\n      tag_191\n      jump\t// in\n    tag_285:\n        /* \"#utility.yul\":4108:4111   */\n      dup3\n        /* \"#utility.yul\":4101:4138   */\n      mstore\n        /* \"#utility.yul\":4036:4144   */\n      pop\n      pop\n      jump\t// out\n        /* \"#utility.yul\":4150:4274   */\n    tag_193:\n        /* \"#utility.yul\":4227:4233   */\n      0x00\n        /* \"#utility.yul\":4261:4266   */\n      dup2\n        /* \"#utility.yul\":4255:4267   */\n      mload\n        /* \"#utility.yul\":4245:4267   */\n      swap1\n      pop\n        /* \"#utility.yul\":4150:4274   */\n      swap2\n      swap1\n      pop\n      jump\t// out\n        /* \"#utility.yul\":4280:4464   */\n    tag_194:\n        /* \"#utility.yul\":4379:4390   */\n      0x00\n        /* \"#utility.yul\":4413:4419   */\n      dup3\n        /* \"#utility.yul\":4408:4411   */\n      dup3\n        /* \"#utility.yul\":4401:4420   */\n      mstore\n        /* \"#utility.yul\":4453:4457   */\n      0x20\n        /* \"#utility.yul\":4448:4451   */\n      dup3\n        /* \"#utility.yul\":4444:4458   */\n      add\n        /* \"#utility.yul\":4429:4458   */\n      swap1\n      pop\n        /* \"#utility.yul\":4280:4464   */\n      swap3\n      swap2\n      pop\n      pop\n      jump\t// out\n        /* \"#utility.yul\":4470:4612   */\n    tag_195:\n        /* \"#utility.yul\":4547:4551   */\n      0x00\n        /* \"#utility.yul\":4570:4573   */\n      dup2\n        /* \"#utility.yul\":4562:4573   */\n      swap1\n      pop\n        /* \"#utility.yul\":4600:4604   */\n      0x20\n        /* \"#utility.yul\":4595:4598   */\n      dup3\n        /* \"#utility.yul\":4591:4605   */\n      add\n        /* \"#utility.yul\":4583:4605   */\n      swap1\n      pop\n        /* \"#utility.yul\":4470:4612   */\n      swap2\n      swap1\n      pop\n      jump\t// out\n        /* \"#utility.yul\":4618:4814   */\n    tag_196:\n        /* \"#utility.yul\":4707:4717   */\n      0x00\n        /* \"#utility.yul\":4742:4808   */\n      tag_290\n        /* \"#utility.yul\":4804:4807   */\n      dup4\n        /* \"#utility.yul\":4796:4802   */\n      dup4\n        /* \"#utility.yul\":4742:4808   */\n      tag_190\n      jump\t// in\n    tag_290:\n        /* \"#utility.yul\":4728:4808   */\n      swap1\n      pop\n        /* \"#utility.yul\":4618:4814   */\n      swap3\n      swap2\n      pop\n      pop\n      jump\t// out\n        /* \"#utility.yul\":4820:4943   */\n    tag_197:\n        /* \"#utility.yul\":4900:4904   */\n      0x00\n        /* \"#utility.yul\":4932:4936   */\n      0x20\n        /* \"#utility.yul\":4927:4930   */\n      dup3\n        /* \"#utility.yul\":4923:4937   */\n      add\n        /* \"#utility.yul\":4915:4937   */\n      swap1\n      pop\n        /* \"#utility.yul\":4820:4943   */\n      swap2\n      swap1\n      pop\n      jump\t// out\n        /* \"#utility.yul\":4977:5948   */\n    tag_198:\n        /* \"#utility.yul\":5106:5109   */\n      0x00\n        /* \"#utility.yul\":5135:5199   */\n      tag_293\n        /* \"#utility.yul\":5193:5198   */\n      dup3\n        /* \"#utility.yul\":5135:5199   */\n      tag_193\n      jump\t// in\n    tag_293:\n        /* \"#utility.yul\":5215:5301   */\n      tag_294\n        /* \"#utility.yul\":5294:5300   */\n      dup2\n        /* \"#utility.yul\":5289:5292   */\n      dup6\n        /* \"#utility.yul\":5215:5301   */\n      tag_194\n      jump\t// in\n    tag_294:\n        /* \"#utility.yul\":5208:5301   */\n      swap4\n      pop\n        /* \"#utility.yul\":5327:5330   */\n      dup4\n        /* \"#utility.yul\":5372:5376   */\n      0x20\n        /* \"#utility.yul\":5364:5370   */\n      dup3\n        /* \"#utility.yul\":5360:5377   */\n      mul\n        /* \"#utility.yul\":5355:5358   */\n      dup6\n        /* \"#utility.yul\":5351:5378   */\n      add\n        /* \"#utility.yul\":5402:5468   */\n      tag_295\n        /* \"#utility.yul\":5462:5467   */\n      dup6\n        /* \"#utility.yul\":5402:5468   */\n      tag_195\n      jump\t// in\n    tag_295:\n        /* \"#utility.yul\":5491:5498   */\n      dup1\n        /* \"#utility.yul\":5522:5523   */\n      0x00\n        /* \"#utility.yul\":5507:5903   */\n    tag_296:\n        /* \"#utility.yul\":5532:5538   */\n      dup6\n        /* \"#utility.yul\":5529:5530   */\n      dup2\n        /* \"#utility.yul\":5526:5539   */\n      lt\n        /* \"#utility.yul\":5507:5903   */\n      iszero\n      tag_298\n      jumpi\n        /* \"#utility.yul\":5603:5612   */\n      dup5\n        /* \"#utility.yul\":5597:5601   */\n      dup5\n        /* \"#utility.yul\":5593:5613   */\n      sub\n        /* \"#utility.yul\":5588:5591   */\n      dup10\n        /* \"#utility.yul\":5581:5614   */\n      mstore\n        /* \"#utility.yul\":5654:5660   */\n      dup2\n        /* \"#utility.yul\":5648:5661   */\n      mload\n        /* \"#utility.yul\":5682:5766   */\n      tag_299\n        /* \"#utility.yul\":5761:5765   */\n      dup6\n        /* \"#utility.yul\":5746:5759   */\n      dup3\n        /* \"#utility.yul\":5682:5766   */\n      tag_196\n      jump\t// in\n    tag_299:\n        /* \"#utility.yul\":5674:5766   */\n      swap5\n      pop\n        /* \"#utility.yul\":5789:5859   */\n      tag_300\n        /* \"#utility.yul\":5852:5858   */\n      dup4\n        /* \"#utility.yul\":5789:5859   */\n      tag_197\n      jump\t// in\n    tag_300:\n        /* \"#utility.yul\":5779:5859   */\n      swap3\n      pop\n        /* \"#utility.yul\":5888:5892   */\n      0x20\n        /* \"#utility.yul\":5883:5886   */\n      dup11\n        /* \"#utility.yul\":5879:5893   */\n      add\n        /* \"#utility.yul\":5872:5893   */\n      swap10\n      pop\n        /* \"#utility.yul\":5567:5903   */\n      pop\n        /* \"#utility.yul\":5554:5555   */\n      0x01\n        /* \"#utility.yul\":5551:5552   */\n      dup2\n        /* \"#utility.yul\":5547:5556   */\n      add\n        /* \"#utility.yul\":5542:5556   */\n      swap1\n      pop\n        /* \"#utility.yul\":5507:5903   */\n      jump(tag_296)\n    tag_298:\n        /* \"#utility.yul\":5511:5525   */\n      pop\n        /* \"#utility.yul\":5919:5923   */\n      dup3\n        /* \"#utility.yul\":5912:5923   */\n      swap8\n      pop\n        /* \"#utility.yul\":5939:5942   */\n      dup8\n        /* \"#utility.yul\":5932:5942   */\n      swap6\n      pop\n        /* \"#utility.yul\":5111:5948   */\n      pop\n      pop\n      pop\n      pop\n      pop\n        /* \"#utility.yul\":4977:5948   */\n      swap3\n      swap2\n      pop\n      pop\n      jump\t// out\n        /* \"#utility.yul\":6016:7339   */\n    tag_199:\n        /* \"#utility.yul\":6131:6134   */\n      0x00\n        /* \"#utility.yul\":6167:6171   */\n      0xa0\n        /* \"#utility.yul\":6162:6165   */\n      dup4\n        /* \"#utility.yul\":6158:6172   */\n      add\n        /* \"#utility.yul\":6254:6258   */\n      0x00\n        /* \"#utility.yul\":6247:6252   */\n      dup4\n        /* \"#utility.yul\":6243:6259   */\n      add\n        /* \"#utility.yul\":6237:6260   */\n      mload\n        /* \"#utility.yul\":6307:6310   */\n      dup5\n        /* \"#utility.yul\":6301:6305   */\n      dup3\n        /* \"#utility.yul\":6297:6311   */\n      sub\n        /* \"#utility.yul\":6290:6294   */\n      0x00\n        /* \"#utility.yul\":6285:6288   */\n      dup7\n        /* \"#utility.yul\":6281:6295   */\n      add\n        /* \"#utility.yul\":6274:6312   */\n      mstore\n        /* \"#utility.yul\":6333:6406   */\n      tag_302\n        /* \"#utility.yul\":6401:6405   */\n      dup3\n        /* \"#utility.yul\":6387:6399   */\n      dup3\n        /* \"#utility.yul\":6333:6406   */\n      tag_190\n      jump\t// in\n    tag_302:\n        /* \"#utility.yul\":6325:6406   */\n      swap2\n      pop\n        /* \"#utility.yul\":6182:6417   */\n      pop\n        /* \"#utility.yul\":6501:6505   */\n      0x20\n        /* \"#utility.yul\":6494:6499   */\n      dup4\n        /* \"#utility.yul\":6490:6506   */\n      add\n        /* \"#utility.yul\":6484:6507   */\n      mload\n        /* \"#utility.yul\":6520:6583   */\n      tag_303\n        /* \"#utility.yul\":6577:6581   */\n      0x20\n        /* \"#utility.yul\":6572:6575   */\n      dup7\n        /* \"#utility.yul\":6568:6582   */\n      add\n        /* \"#utility.yul\":6554:6566   */\n      dup3\n        /* \"#utility.yul\":6520:6583   */\n      tag_192\n      jump\t// in\n    tag_303:\n        /* \"#utility.yul\":6427:6593   */\n      pop\n        /* \"#utility.yul\":6676:6680   */\n      0x40\n        /* \"#utility.yul\":6669:6674   */\n      dup4\n        /* \"#utility.yul\":6665:6681   */\n      add\n        /* \"#utility.yul\":6659:6682   */\n      mload\n        /* \"#utility.yul\":6695:6758   */\n      tag_304\n        /* \"#utility.yul\":6752:6756   */\n      0x40\n        /* \"#utility.yul\":6747:6750   */\n      dup7\n        /* \"#utility.yul\":6743:6757   */\n      add\n        /* \"#utility.yul\":6729:6741   */\n      dup3\n        /* \"#utility.yul\":6695:6758   */\n      tag_192\n      jump\t// in\n    tag_304:\n        /* \"#utility.yul\":6603:6768   */\n      pop\n        /* \"#utility.yul\":6851:6855   */\n      0x60\n        /* \"#utility.yul\":6844:6849   */\n      dup4\n        /* \"#utility.yul\":6840:6856   */\n      add\n        /* \"#utility.yul\":6834:6857   */\n      mload\n        /* \"#utility.yul\":6904:6907   */\n      dup5\n        /* \"#utility.yul\":6898:6902   */\n      dup3\n        /* \"#utility.yul\":6894:6908   */\n      sub\n        /* \"#utility.yul\":6887:6891   */\n      0x60\n        /* \"#utility.yul\":6882:6885   */\n      dup7\n        /* \"#utility.yul\":6878:6892   */\n      add\n        /* \"#utility.yul\":6871:6909   */\n      mstore\n        /* \"#utility.yul\":6930:7003   */\n      tag_305\n        /* \"#utility.yul\":6998:7002   */\n      dup3\n        /* \"#utility.yul\":6984:6996   */\n      dup3\n        /* \"#utility.yul\":6930:7003   */\n      tag_190\n      jump\t// in\n    tag_305:\n        /* \"#utility.yul\":6922:7003   */\n      swap2\n      pop\n        /* \"#utility.yul\":6778:7014   */\n      pop\n        /* \"#utility.yul\":7099:7103   */\n      0x80\n        /* \"#utility.yul\":7092:7097   */\n      dup4\n        /* \"#utility.yul\":7088:7104   */\n      add\n        /* \"#utility.yul\":7082:7105   */\n      mload\n        /* \"#utility.yul\":7152:7155   */\n      dup5\n        /* \"#utility.yul\":7146:7150   */\n      dup3\n        /* \"#utility.yul\":7142:7156   */\n      sub\n        /* \"#utility.yul\":7135:7139   */\n      0x80\n        /* \"#utility.yul\":7130:7133   */\n      dup7\n        /* \"#utility.yul\":7126:7140   */\n      add\n        /* \"#utility.yul\":7119:7157   */\n      mstore\n        /* \"#utility.yul\":7178:7301   */\n      tag_306\n        /* \"#utility.yul\":7296:7300   */\n      dup3\n        /* \"#utility.yul\":7282:7294   */\n      dup3\n        /* \"#utility.yul\":7178:7301   */\n      tag_198\n      jump\t// in\n    tag_306:\n        /* \"#utility.yul\":7170:7301   */\n      swap2\n      pop\n        /* \"#utility.yul\":7024:7312   */\n      pop\n        /* \"#utility.yul\":7329:7333   */\n      dup1\n        /* \"#utility.yul\":7322:7333   */\n      swap2\n      pop\n        /* \"#utility.yul\":6136:7339   */\n      pop\n        /* \"#utility.yul\":6016:7339   */\n      swap3\n      swap2\n      pop\n      pop\n      jump\t// out\n        /* \"#utility.yul\":7345:7710   */\n    tag_17:\n        /* \"#utility.yul\":7484:7488   */\n      0x00\n        /* \"#utility.yul\":7522:7524   */\n      0x20\n        /* \"#utility.yul\":7511:7520   */\n      dup3\n        /* \"#utility.yul\":7507:7525   */\n      add\n        /* \"#utility.yul\":7499:7525   */\n      swap1\n      pop\n        /* \"#utility.yul\":7571:7580   */\n      dup2\n        /* \"#utility.yul\":7565:7569   */\n      dup2\n        /* \"#utility.yul\":7561:7581   */\n      sub\n        /* \"#utility.yul\":7557:7558   */\n      0x00\n        /* \"#utility.yul\":7546:7555   */\n      dup4\n        /* \"#utility.yul\":7542:7559   */\n      add\n        /* \"#utility.yul\":7535:7582   */\n      mstore\n        /* \"#utility.yul\":7599:7703   */\n      tag_308\n        /* \"#utility.yul\":7698:7702   */\n      dup2\n        /* \"#utility.yul\":7689:7695   */\n      dup5\n        /* \"#utility.yul\":7599:7703   */\n      tag_199\n      jump\t// in\n    tag_308:\n        /* \"#utility.yul\":7591:7703   */\n      swap1\n      pop\n        /* \"#utility.yul\":7345:7710   */\n      swap3\n      swap2\n      pop\n      pop\n      jump\t// out\n        /* \"#utility.yul\":7716:7838   */\n    tag_200:\n        /* \"#utility.yul\":7789:7813   */\n      tag_310\n        /* \"#utility.yul\":7807:7812   */\n      dup2\n        /* \"#utility.yul\":7789:7813   */\n      tag_191\n      jump\t// in\n    tag_310:\n        /* \"#utility.yul\":7782:7787   */\n      dup2\n        /* \"#utility.yul\":7779:7814   */\n      eq\n        /* \"#utility.yul\":7769:7832   */\n      tag_311\n      jumpi\n        /* \"#utility.yul\":7828:7829   */\n      0x00\n        /* \"#utility.yul\":7825:7826   */\n      dup1\n        /* \"#utility.yul\":7818:7830   */\n      revert\n        /* \"#utility.yul\":7769:7832   */\n    tag_311:\n        /* \"#utility.yul\":7716:7838   */\n      pop\n      jump\t// out\n        /* \"#utility.yul\":7844:7983   */\n    tag_201:\n        /* \"#utility.yul\":7890:7895   */\n      0x00\n        /* \"#utility.yul\":7928:7934   */\n      dup2\n        /* \"#utility.yul\":7915:7935   */\n      calldataload\n        /* \"#utility.yul\":7906:7935   */\n      swap1\n      pop\n        /* \"#utility.yul\":7944:7977   */\n      tag_313\n        /* \"#utility.yul\":7971:7976   */\n      dup2\n        /* \"#utility.yul\":7944:7977   */\n      tag_200\n      jump\t// in\n    tag_313:\n        /* \"#utility.yul\":7844:7983   */\n      swap3\n      swap2\n      pop\n      pop\n      jump\t// out\n        /* \"#utility.yul\":7989:8318   */\n    tag_20:\n        /* \"#utility.yul\":8048:8054   */\n      0x00\n        /* \"#utility.yul\":8097:8099   */\n      0x20\n        /* \"#utility.yul\":8085:8094   */\n      dup3\n        /* \"#utility.yul\":8076:8083   */\n      dup5\n        /* \"#utility.yul\":8072:8095   */\n      sub\n        /* \"#utility.yul\":8068:8100   */\n      slt\n        /* \"#utility.yul\":8065:8184   */\n      iszero\n      tag_315\n      jumpi\n        /* \"#utility.yul\":8103:8182   */\n      tag_316\n      tag_175\n      jump\t// in\n    tag_316:\n        /* \"#utility.yul\":8065:8184   */\n    tag_315:\n        /* \"#utility.yul\":8223:8224   */\n      0x00\n        /* \"#utility.yul\":8248:8301   */\n      tag_317\n        /* \"#utility.yul\":8293:8300   */\n      dup5\n        /* \"#utility.yul\":8284:8290   */\n      dup3\n        /* \"#utility.yul\":8273:8282   */\n      dup6\n        /* \"#utility.yul\":8269:8291   */\n      add\n        /* \"#utility.yul\":8248:8301   */\n      tag_201\n      jump\t// in\n    tag_317:\n        /* \"#utility.yul\":8238:8301   */\n      swap2\n      pop\n        /* \"#utility.yul\":8194:8311   */\n      pop\n        /* \"#utility.yul\":7989:8318   */\n      swap3\n      swap2\n      pop\n      pop\n      jump\t// out\n        /* \"#utility.yul\":8324:8461   */\n    tag_202:\n        /* \"#utility.yul\":8414:8420   */\n      0x00\n        /* \"#utility.yul\":8448:8453   */\n      dup2\n        /* \"#utility.yul\":8442:8454   */\n      mload\n        /* \"#utility.yul\":8432:8454   */\n      swap1\n      pop\n        /* \"#utility.yul\":8324:8461   */\n      swap2\n      swap1\n      pop\n      jump\t// out\n        /* \"#utility.yul\":8467:8674   */\n    tag_203:\n        /* \"#utility.yul\":8589:8600   */\n      0x00\n        /* \"#utility.yul\":8623:8629   */\n      dup3\n        /* \"#utility.yul\":8618:8621   */\n      dup3\n        /* \"#utility.yul\":8611:8630   */\n      mstore\n        /* \"#utility.yul\":8663:8667   */\n      0x20\n        /* \"#utility.yul\":8658:8661   */\n      dup3\n        /* \"#utility.yul\":8654:8668   */\n      add\n        /* \"#utility.yul\":8639:8668   */\n      swap1\n      pop\n        /* \"#utility.yul\":8467:8674   */\n      swap3\n      swap2\n      pop\n      pop\n      jump\t// out\n        /* \"#utility.yul\":8680:8835   */\n    tag_204:\n        /* \"#utility.yul\":8770:8774   */\n      0x00\n        /* \"#utility.yul\":8793:8796   */\n      dup2\n        /* \"#utility.yul\":8785:8796   */\n      swap1\n      pop\n        /* \"#utility.yul\":8823:8827   */\n      0x20\n        /* \"#utility.yul\":8818:8821   */\n      dup3\n        /* \"#utility.yul\":8814:8828   */\n      add\n        /* \"#utility.yul\":8806:8828   */\n      swap1\n      pop\n        /* \"#utility.yul\":8680:8835   */\n      swap2\n      swap1\n      pop\n      jump\t// out\n        /* \"#utility.yul\":8903:10216   */\n    tag_205:\n        /* \"#utility.yul\":9008:9011   */\n      0x00\n        /* \"#utility.yul\":9044:9048   */\n      0xa0\n        /* \"#utility.yul\":9039:9042   */\n      dup4\n        /* \"#utility.yul\":9035:9049   */\n      add\n        /* \"#utility.yul\":9131:9135   */\n      0x00\n        /* \"#utility.yul\":9124:9129   */\n      dup4\n        /* \"#utility.yul\":9120:9136   */\n      add\n        /* \"#utility.yul\":9114:9137   */\n      mload\n        /* \"#utility.yul\":9184:9187   */\n      dup5\n        /* \"#utility.yul\":9178:9182   */\n      dup3\n        /* \"#utility.yul\":9174:9188   */\n      sub\n        /* \"#utility.yul\":9167:9171   */\n      0x00\n        /* \"#utility.yul\":9162:9165   */\n      dup7\n        /* \"#utility.yul\":9158:9172   */\n      add\n        /* \"#utility.yul\":9151:9189   */\n      mstore\n        /* \"#utility.yul\":9210:9283   */\n      tag_322\n        /* \"#utility.yul\":9278:9282   */\n      dup3\n        /* \"#utility.yul\":9264:9276   */\n      dup3\n        /* \"#utility.yul\":9210:9283   */\n      tag_190\n      jump\t// in\n    tag_322:\n        /* \"#utility.yul\":9202:9283   */\n      swap2\n      pop\n        /* \"#utility.yul\":9059:9294   */\n      pop\n        /* \"#utility.yul\":9378:9382   */\n      0x20\n        /* \"#utility.yul\":9371:9376   */\n      dup4\n        /* \"#utility.yul\":9367:9383   */\n      add\n        /* \"#utility.yul\":9361:9384   */\n      mload\n        /* \"#utility.yul\":9397:9460   */\n      tag_323\n        /* \"#utility.yul\":9454:9458   */\n      0x20\n        /* \"#utility.yul\":9449:9452   */\n      dup7\n        /* \"#utility.yul\":9445:9459   */\n      add\n        /* \"#utility.yul\":9431:9443   */\n      dup3\n        /* \"#utility.yul\":9397:9460   */\n      tag_192\n      jump\t// in\n    tag_323:\n        /* \"#utility.yul\":9304:9470   */\n      pop\n        /* \"#utility.yul\":9553:9557   */\n      0x40\n        /* \"#utility.yul\":9546:9551   */\n      dup4\n        /* \"#utility.yul\":9542:9558   */\n      add\n        /* \"#utility.yul\":9536:9559   */\n      mload\n        /* \"#utility.yul\":9572:9635   */\n      tag_324\n        /* \"#utility.yul\":9629:9633   */\n      0x40\n        /* \"#utility.yul\":9624:9627   */\n      dup7\n        /* \"#utility.yul\":9620:9634   */\n      add\n        /* \"#utility.yul\":9606:9618   */\n      dup3\n        /* \"#utility.yul\":9572:9635   */\n      tag_192\n      jump\t// in\n    tag_324:\n        /* \"#utility.yul\":9480:9645   */\n      pop\n        /* \"#utility.yul\":9728:9732   */\n      0x60\n        /* \"#utility.yul\":9721:9726   */\n      dup4\n        /* \"#utility.yul\":9717:9733   */\n      add\n        /* \"#utility.yul\":9711:9734   */\n      mload\n        /* \"#utility.yul\":9781:9784   */\n      dup5\n        /* \"#utility.yul\":9775:9779   */\n      dup3\n        /* \"#utility.yul\":9771:9785   */\n      sub\n        /* \"#utility.yul\":9764:9768   */\n      0x60\n        /* \"#utility.yul\":9759:9762   */\n      dup7\n        /* \"#utility.yul\":9755:9769   */\n      add\n        /* \"#utility.yul\":9748:9786   */\n      mstore\n        /* \"#utility.yul\":9807:9880   */\n      tag_325\n        /* \"#utility.yul\":9875:9879   */\n      dup3\n        /* \"#utility.yul\":9861:9873   */\n      dup3\n        /* \"#utility.yul\":9807:9880   */\n      tag_190\n      jump\t// in\n    tag_325:\n        /* \"#utility.yul\":9799:9880   */\n      swap2\n      pop\n        /* \"#utility.yul\":9655:9891   */\n      pop\n        /* \"#utility.yul\":9976:9980   */\n      0x80\n        /* \"#utility.yul\":9969:9974   */\n      dup4\n        /* \"#utility.yul\":9965:9981   */\n      add\n        /* \"#utility.yul\":9959:9982   */\n      mload\n        /* \"#utility.yul\":10029:10032   */\n      dup5\n        /* \"#utility.yul\":10023:10027   */\n      dup3\n        /* \"#utility.yul\":10019:10033   */\n      sub\n        /* \"#utility.yul\":10012:10016   */\n      0x80\n        /* \"#utility.yul\":10007:10010   */\n      dup7\n        /* \"#utility.yul\":10003:10017   */\n      add\n        /* \"#utility.yul\":9996:10034   */\n      mstore\n        /* \"#utility.yul\":10055:10178   */\n      tag_326\n        /* \"#utility.yul\":10173:10177   */\n      dup3\n        /* \"#utility.yul\":10159:10171   */\n      dup3\n        /* \"#utility.yul\":10055:10178   */\n      tag_198\n      jump\t// in\n    tag_326:\n        /* \"#utility.yul\":10047:10178   */\n      swap2\n      pop\n        /* \"#utility.yul\":9901:10189   */\n      pop\n        /* \"#utility.yul\":10206:10210   */\n      dup1\n        /* \"#utility.yul\":10199:10210   */\n      swap2\n      pop\n        /* \"#utility.yul\":9013:10216   */\n      pop\n        /* \"#utility.yul\":8903:10216   */\n      swap3\n      swap2\n      pop\n      pop\n      jump\t// out\n        /* \"#utility.yul\":10222:10470   */\n    tag_206:\n        /* \"#utility.yul\":10337:10347   */\n      0x00\n        /* \"#utility.yul\":10372:10464   */\n      tag_328\n        /* \"#utility.yul\":10460:10463   */\n      dup4\n        /* \"#utility.yul\":10452:10458   */\n      dup4\n        /* \"#utility.yul\":10372:10464   */\n      tag_205\n      jump\t// in\n    tag_328:\n        /* \"#utility.yul\":10358:10464   */\n      swap1\n      pop\n        /* \"#utility.yul\":10222:10470   */\n      swap3\n      swap2\n      pop\n      pop\n      jump\t// out\n        /* \"#utility.yul\":10476:10612   */\n    tag_207:\n        /* \"#utility.yul\":10569:10573   */\n      0x00\n        /* \"#utility.yul\":10601:10605   */\n      0x20\n        /* \"#utility.yul\":10596:10599   */\n      dup3\n        /* \"#utility.yul\":10592:10606   */\n      add\n        /* \"#utility.yul\":10584:10606   */\n      swap1\n      pop\n        /* \"#utility.yul\":10476:10612   */\n      swap2\n      swap1\n      pop\n      jump\t// out\n        /* \"#utility.yul\":10684:11779   */\n    tag_208:\n        /* \"#utility.yul\":10849:10852   */\n      0x00\n        /* \"#utility.yul\":10878:10955   */\n      tag_331\n        /* \"#utility.yul\":10949:10954   */\n      dup3\n        /* \"#utility.yul\":10878:10955   */\n      tag_202\n      jump\t// in\n    tag_331:\n        /* \"#utility.yul\":10971:11080   */\n      tag_332\n        /* \"#utility.yul\":11073:11079   */\n      dup2\n        /* \"#utility.yul\":11068:11071   */\n      dup6\n        /* \"#utility.yul\":10971:11080   */\n      tag_203\n      jump\t// in\n    tag_332:\n        /* \"#utility.yul\":10964:11080   */\n      swap4\n      pop\n        /* \"#utility.yul\":11106:11109   */\n      dup4\n        /* \"#utility.yul\":11151:11155   */\n      0x20\n        /* \"#utility.yul\":11143:11149   */\n      dup3\n        /* \"#utility.yul\":11139:11156   */\n      mul\n        /* \"#utility.yul\":11134:11137   */\n      dup6\n        /* \"#utility.yul\":11130:11157   */\n      add\n        /* \"#utility.yul\":11181:11260   */\n      tag_333\n        /* \"#utility.yul\":11254:11259   */\n      dup6\n        /* \"#utility.yul\":11181:11260   */\n      tag_204\n      jump\t// in\n    tag_333:\n        /* \"#utility.yul\":11283:11290   */\n      dup1\n        /* \"#utility.yul\":11314:11315   */\n      0x00\n        /* \"#utility.yul\":11299:11734   */\n    tag_334:\n        /* \"#utility.yul\":11324:11330   */\n      dup6\n        /* \"#utility.yul\":11321:11322   */\n      dup2\n        /* \"#utility.yul\":11318:11331   */\n      lt\n        /* \"#utility.yul\":11299:11734   */\n      iszero\n      tag_336\n      jumpi\n        /* \"#utility.yul\":11395:11404   */\n      dup5\n        /* \"#utility.yul\":11389:11393   */\n      dup5\n        /* \"#utility.yul\":11385:11405   */\n      sub\n        /* \"#utility.yul\":11380:11383   */\n      dup10\n        /* \"#utility.yul\":11373:11406   */\n      mstore\n        /* \"#utility.yul\":11446:11452   */\n      dup2\n        /* \"#utility.yul\":11440:11453   */\n      mload\n        /* \"#utility.yul\":11474:11584   */\n      tag_337\n        /* \"#utility.yul\":11579:11583   */\n      dup6\n        /* \"#utility.yul\":11564:11577   */\n      dup3\n        /* \"#utility.yul\":11474:11584   */\n      tag_206\n      jump\t// in\n    tag_337:\n        /* \"#utility.yul\":11466:11584   */\n      swap5\n      pop\n        /* \"#utility.yul\":11607:11690   */\n      tag_338\n        /* \"#utility.yul\":11683:11689   */\n      dup4\n        /* \"#utility.yul\":11607:11690   */\n      tag_207\n      jump\t// in\n    tag_338:\n        /* \"#utility.yul\":11597:11690   */\n      swap3\n      pop\n        /* \"#utility.yul\":11719:11723   */\n      0x20\n        /* \"#utility.yul\":11714:11717   */\n      dup11\n        /* \"#utility.yul\":11710:11724   */\n      add\n        /* \"#utility.yul\":11703:11724   */\n      swap10\n      pop\n        /* \"#utility.yul\":11359:11734   */\n      pop\n        /* \"#utility.yul\":11346:11347   */\n      0x01\n        /* \"#utility.yul\":11343:11344   */\n      dup2\n        /* \"#utility.yul\":11339:11348   */\n      add\n        /* \"#utility.yul\":11334:11348   */\n      swap1\n      pop\n        /* \"#utility.yul\":11299:11734   */\n      jump(tag_334)\n    tag_336:\n        /* \"#utility.yul\":11303:11317   */\n      pop\n        /* \"#utility.yul\":11750:11754   */\n      dup3\n        /* \"#utility.yul\":11743:11754   */\n      swap8\n      pop\n        /* \"#utility.yul\":11770:11773   */\n      dup8\n        /* \"#utility.yul\":11763:11773   */\n      swap6\n      pop\n        /* \"#utility.yul\":10854:11779   */\n      pop\n      pop\n      pop\n      pop\n      pop\n        /* \"#utility.yul\":10684:11779   */\n      swap3\n      swap2\n      pop\n      pop\n      jump\t// out\n        /* \"#utility.yul\":11785:12250   */\n    tag_26:\n        /* \"#utility.yul\":11974:11978   */\n      0x00\n        /* \"#utility.yul\":12012:12014   */\n      0x20\n        /* \"#utility.yul\":12001:12010   */\n      dup3\n        /* \"#utility.yul\":11997:12015   */\n      add\n        /* \"#utility.yul\":11989:12015   */\n      swap1\n      pop\n        /* \"#utility.yul\":12061:12070   */\n      dup2\n        /* \"#utility.yul\":12055:12059   */\n      dup2\n        /* \"#utility.yul\":12051:12071   */\n      sub\n        /* \"#utility.yul\":12047:12048   */\n      0x00\n        /* \"#utility.yul\":12036:12045   */\n      dup4\n        /* \"#utility.yul\":12032:12049   */\n      add\n        /* \"#utility.yul\":12025:12072   */\n      mstore\n        /* \"#utility.yul\":12089:12243   */\n      tag_340\n        /* \"#utility.yul\":12238:12242   */\n      dup2\n        /* \"#utility.yul\":12229:12235   */\n      dup5\n        /* \"#utility.yul\":12089:12243   */\n      tag_208\n      jump\t// in\n    tag_340:\n        /* \"#utility.yul\":12081:12243   */\n      swap1\n      pop\n        /* \"#utility.yul\":11785:12250   */\n      swap3\n      swap2\n      pop\n      pop\n      jump\t// out\n        /* \"#utility.yul\":12256:12374   */\n    tag_209:\n        /* \"#utility.yul\":12343:12367   */\n      tag_342\n        /* \"#utility.yul\":12361:12366   */\n      dup2\n        /* \"#utility.yul\":12343:12367   */\n      tag_191\n      jump\t// in\n    tag_342:\n        /* \"#utility.yul\":12338:12341   */\n      dup3\n        /* \"#utility.yul\":12331:12368   */\n      mstore\n        /* \"#utility.yul\":12256:12374   */\n      pop\n      pop\n      jump\t// out\n        /* \"#utility.yul\":12380:12602   */\n    tag_30:\n        /* \"#utility.yul\":12473:12477   */\n      0x00\n        /* \"#utility.yul\":12511:12513   */\n      0x20\n        /* \"#utility.yul\":12500:12509   */\n      dup3\n        /* \"#utility.yul\":12496:12514   */\n      add\n        /* \"#utility.yul\":12488:12514   */\n      swap1\n      pop\n        /* \"#utility.yul\":12524:12595   */\n      tag_344\n        /* \"#utility.yul\":12592:12593   */\n      0x00\n        /* \"#utility.yul\":12581:12590   */\n      dup4\n        /* \"#utility.yul\":12577:12594   */\n      add\n        /* \"#utility.yul\":12568:12574   */\n      dup5\n        /* \"#utility.yul\":12524:12595   */\n      tag_209\n      jump\t// in\n    tag_344:\n        /* \"#utility.yul\":12380:12602   */\n      swap3\n      swap2\n      pop\n      pop\n      jump\t// out\n        /* \"#utility.yul\":12608:12929   */\n    tag_210:\n        /* \"#utility.yul\":12695:12699   */\n      0x00\n        /* \"#utility.yul\":12785:12803   */\n      0xffffffffffffffff\n        /* \"#utility.yul\":12777:12783   */\n      dup3\n        /* \"#utility.yul\":12774:12804   */\n      gt\n        /* \"#utility.yul\":12771:12827   */\n      iszero\n      tag_346\n      jumpi\n        /* \"#utility.yul\":12807:12825   */\n      tag_347\n      tag_180\n      jump\t// in\n    tag_347:\n        /* \"#utility.yul\":12771:12827   */\n    tag_346:\n        /* \"#utility.yul\":12857:12861   */\n      0x20\n        /* \"#utility.yul\":12849:12855   */\n      dup3\n        /* \"#utility.yul\":12845:12862   */\n      mul\n        /* \"#utility.yul\":12837:12862   */\n      swap1\n      pop\n        /* \"#utility.yul\":12917:12921   */\n      0x20\n        /* \"#utility.yul\":12911:12915   */\n      dup2\n        /* \"#utility.yul\":12907:12922   */\n      add\n        /* \"#utility.yul\":12899:12922   */\n      swap1\n      pop\n        /* \"#utility.yul\":12608:12929   */\n      swap2\n      swap1\n      pop\n      jump\t// out\n        /* \"#utility.yul\":12935:13052   */\n    tag_211:\n        /* \"#utility.yul\":13044:13045   */\n      0x00\n        /* \"#utility.yul\":13041:13042   */\n      dup1\n        /* \"#utility.yul\":13034:13046   */\n      revert\n        /* \"#utility.yul\":13074:14019   */\n    tag_212:\n        /* \"#utility.yul\":13180:13185   */\n      0x00\n        /* \"#utility.yul\":13205:13296   */\n      tag_350\n        /* \"#utility.yul\":13221:13295   */\n      tag_351\n        /* \"#utility.yul\":13288:13294   */\n      dup5\n        /* \"#utility.yul\":13221:13295   */\n      tag_210\n      jump\t// in\n    tag_351:\n        /* \"#utility.yul\":13205:13296   */\n      tag_182\n      jump\t// in\n    tag_350:\n        /* \"#utility.yul\":13196:13296   */\n      swap1\n      pop\n        /* \"#utility.yul\":13316:13321   */\n      dup1\n        /* \"#utility.yul\":13345:13351   */\n      dup4\n        /* \"#utility.yul\":13338:13343   */\n      dup3\n        /* \"#utility.yul\":13331:13352   */\n      mstore\n        /* \"#utility.yul\":13379:13383   */\n      0x20\n        /* \"#utility.yul\":13372:13377   */\n      dup3\n        /* \"#utility.yul\":13368:13384   */\n      add\n        /* \"#utility.yul\":13361:13384   */\n      swap1\n      pop\n        /* \"#utility.yul\":13432:13436   */\n      0x20\n        /* \"#utility.yul\":13424:13430   */\n      dup5\n        /* \"#utility.yul\":13420:13437   */\n      mul\n        /* \"#utility.yul\":13412:13418   */\n      dup4\n        /* \"#utility.yul\":13408:13438   */\n      add\n        /* \"#utility.yul\":13461:13464   */\n      dup6\n        /* \"#utility.yul\":13453:13459   */\n      dup2\n        /* \"#utility.yul\":13450:13465   */\n      gt\n        /* \"#utility.yul\":13447:13569   */\n      iszero\n      tag_352\n      jumpi\n        /* \"#utility.yul\":13480:13559   */\n      tag_353\n      tag_211\n      jump\t// in\n    tag_353:\n        /* \"#utility.yul\":13447:13569   */\n    tag_352:\n        /* \"#utility.yul\":13595:13601   */\n      dup4\n        /* \"#utility.yul\":13578:14013   */\n    tag_354:\n        /* \"#utility.yul\":13612:13618   */\n      dup2\n        /* \"#utility.yul\":13607:13610   */\n      dup2\n        /* \"#utility.yul\":13604:13619   */\n      lt\n        /* \"#utility.yul\":13578:14013   */\n      iszero\n      tag_356\n      jumpi\n        /* \"#utility.yul\":13701:13704   */\n      dup1\n        /* \"#utility.yul\":13688:13705   */\n      calldataload\n        /* \"#utility.yul\":13737:13755   */\n      0xffffffffffffffff\n        /* \"#utility.yul\":13724:13735   */\n      dup2\n        /* \"#utility.yul\":13721:13756   */\n      gt\n        /* \"#utility.yul\":13718:13840   */\n      iszero\n      tag_357\n      jumpi\n        /* \"#utility.yul\":13759:13838   */\n      tag_358\n      tag_177\n      jump\t// in\n    tag_358:\n        /* \"#utility.yul\":13718:13840   */\n    tag_357:\n        /* \"#utility.yul\":13883:13894   */\n      dup1\n        /* \"#utility.yul\":13875:13881   */\n      dup7\n        /* \"#utility.yul\":13871:13895   */\n      add\n        /* \"#utility.yul\":13921:13968   */\n      tag_359\n        /* \"#utility.yul\":13964:13967   */\n      dup10\n        /* \"#utility.yul\":13952:13962   */\n      dup3\n        /* \"#utility.yul\":13921:13968   */\n      tag_186\n      jump\t// in\n    tag_359:\n        /* \"#utility.yul\":13916:13919   */\n      dup6\n        /* \"#utility.yul\":13909:13969   */\n      mstore\n        /* \"#utility.yul\":13998:14002   */\n      0x20\n        /* \"#utility.yul\":13993:13996   */\n      dup6\n        /* \"#utility.yul\":13989:14003   */\n      add\n        /* \"#utility.yul\":13982:14003   */\n      swap5\n      pop\n        /* \"#utility.yul\":13654:14013   */\n      pop\n      pop\n        /* \"#utility.yul\":13638:13642   */\n      0x20\n        /* \"#utility.yul\":13633:13636   */\n      dup2\n        /* \"#utility.yul\":13629:13643   */\n      add\n        /* \"#utility.yul\":13622:13643   */\n      swap1\n      pop\n        /* \"#utility.yul\":13578:14013   */\n      jump(tag_354)\n    tag_356:\n        /* \"#utility.yul\":13582:13603   */\n      pop\n        /* \"#utility.yul\":13186:14019   */\n      pop\n      pop\n        /* \"#utility.yul\":13074:14019   */\n      swap4\n      swap3\n      pop\n      pop\n      pop\n      jump\t// out\n        /* \"#utility.yul\":14041:14431   */\n    tag_213:\n        /* \"#utility.yul\":14122:14127   */\n      0x00\n        /* \"#utility.yul\":14171:14174   */\n      dup3\n        /* \"#utility.yul\":14164:14168   */\n      0x1f\n        /* \"#utility.yul\":14156:14162   */\n      dup4\n        /* \"#utility.yul\":14152:14169   */\n      add\n        /* \"#utility.yul\":14148:14175   */\n      slt\n        /* \"#utility.yul\":14138:14260   */\n      tag_361\n      jumpi\n        /* \"#utility.yul\":14179:14258   */\n      tag_362\n      tag_177\n      jump\t// in\n    tag_362:\n        /* \"#utility.yul\":14138:14260   */\n    tag_361:\n        /* \"#utility.yul\":14296:14302   */\n      dup2\n        /* \"#utility.yul\":14283:14303   */\n      calldataload\n        /* \"#utility.yul\":14321:14425   */\n      tag_363\n        /* \"#utility.yul\":14421:14424   */\n      dup5\n        /* \"#utility.yul\":14413:14419   */\n      dup3\n        /* \"#utility.yul\":14406:14410   */\n      0x20\n        /* \"#utility.yul\":14398:14404   */\n      dup7\n        /* \"#utility.yul\":14394:14411   */\n      add\n        /* \"#utility.yul\":14321:14425   */\n      tag_212\n      jump\t// in\n    tag_363:\n        /* \"#utility.yul\":14312:14425   */\n      swap2\n      pop\n        /* \"#utility.yul\":14128:14431   */\n      pop\n        /* \"#utility.yul\":14041:14431   */\n      swap3\n      swap2\n      pop\n      pop\n      jump\t// out\n        /* \"#utility.yul\":14437:15612   */\n    tag_40:\n        /* \"#utility.yul\":14568:14574   */\n      0x00\n        /* \"#utility.yul\":14576:14582   */\n      dup1\n        /* \"#utility.yul\":14584:14590   */\n      0x00\n        /* \"#utility.yul\":14592:14598   */\n      dup1\n        /* \"#utility.yul\":14641:14644   */\n      0x80\n        /* \"#utility.yul\":14629:14638   */\n      dup6\n        /* \"#utility.yul\":14620:14627   */\n      dup8\n        /* \"#utility.yul\":14616:14639   */\n      sub\n        /* \"#utility.yul\":14612:14645   */\n      slt\n        /* \"#utility.yul\":14609:14729   */\n      iszero\n      tag_365\n      jumpi\n        /* \"#utility.yul\":14648:14727   */\n      tag_366\n      tag_175\n      jump\t// in\n    tag_366:\n        /* \"#utility.yul\":14609:14729   */\n    tag_365:\n        /* \"#utility.yul\":14796:14797   */\n      0x00\n        /* \"#utility.yul\":14785:14794   */\n      dup6\n        /* \"#utility.yul\":14781:14798   */\n      add\n        /* \"#utility.yul\":14768:14799   */\n      calldataload\n        /* \"#utility.yul\":14826:14844   */\n      0xffffffffffffffff\n        /* \"#utility.yul\":14818:14824   */\n      dup2\n        /* \"#utility.yul\":14815:14845   */\n      gt\n        /* \"#utility.yul\":14812:14929   */\n      iszero\n      tag_367\n      jumpi\n        /* \"#utility.yul\":14848:14927   */\n      tag_368\n      tag_176\n      jump\t// in\n    tag_368:\n        /* \"#utility.yul\":14812:14929   */\n    tag_367:\n        /* \"#utility.yul\":14953:15016   */\n      tag_369\n        /* \"#utility.yul\":15008:15015   */\n      dup8\n        /* \"#utility.yul\":14999:15005   */\n      dup3\n        /* \"#utility.yul\":14988:14997   */\n      dup9\n        /* \"#utility.yul\":14984:15006   */\n      add\n        /* \"#utility.yul\":14953:15016   */\n      tag_186\n      jump\t// in\n    tag_369:\n        /* \"#utility.yul\":14943:15016   */\n      swap5\n      pop\n        /* \"#utility.yul\":14739:15026   */\n      pop\n        /* \"#utility.yul\":15065:15067   */\n      0x20\n        /* \"#utility.yul\":15091:15144   */\n      tag_370\n        /* \"#utility.yul\":15136:15143   */\n      dup8\n        /* \"#utility.yul\":15127:15133   */\n      dup3\n        /* \"#utility.yul\":15116:15125   */\n      dup9\n        /* \"#utility.yul\":15112:15134   */\n      add\n        /* \"#utility.yul\":15091:15144   */\n      tag_201\n      jump\t// in\n    tag_370:\n        /* \"#utility.yul\":15081:15144   */\n      swap4\n      pop\n        /* \"#utility.yul\":15036:15154   */\n      pop\n        /* \"#utility.yul\":15193:15195   */\n      0x40\n        /* \"#utility.yul\":15219:15272   */\n      tag_371\n        /* \"#utility.yul\":15264:15271   */\n      dup8\n        /* \"#utility.yul\":15255:15261   */\n      dup3\n        /* \"#utility.yul\":15244:15253   */\n      dup9\n        /* \"#utility.yul\":15240:15262   */\n      add\n        /* \"#utility.yul\":15219:15272   */\n      tag_201\n      jump\t// in\n    tag_371:\n        /* \"#utility.yul\":15209:15272   */\n      swap3\n      pop\n        /* \"#utility.yul\":15164:15282   */\n      pop\n        /* \"#utility.yul\":15349:15351   */\n      0x60\n        /* \"#utility.yul\":15338:15347   */\n      dup6\n        /* \"#utility.yul\":15334:15352   */\n      add\n        /* \"#utility.yul\":15321:15353   */\n      calldataload\n        /* \"#utility.yul\":15380:15398   */\n      0xffffffffffffffff\n        /* \"#utility.yul\":15372:15378   */\n      dup2\n        /* \"#utility.yul\":15369:15399   */\n      gt\n        /* \"#utility.yul\":15366:15483   */\n      iszero\n      tag_372\n      jumpi\n        /* \"#utility.yul\":15402:15481   */\n      tag_373\n      tag_176\n      jump\t// in\n    tag_373:\n        /* \"#utility.yul\":15366:15483   */\n    tag_372:\n        /* \"#utility.yul\":15507:15595   */\n      tag_374\n        /* \"#utility.yul\":15587:15594   */\n      dup8\n        /* \"#utility.yul\":15578:15584   */\n      dup3\n        /* \"#utility.yul\":15567:15576   */\n      dup9\n        /* \"#utility.yul\":15563:15585   */\n      add\n        /* \"#utility.yul\":15507:15595   */\n      tag_213\n      jump\t// in\n    tag_374:\n        /* \"#utility.yul\":15497:15595   */\n      swap2\n      pop\n        /* \"#utility.yul\":15292:15605   */\n      pop\n        /* \"#utility.yul\":14437:15612   */\n      swap3\n      swap6\n      swap2\n      swap5\n      pop\n      swap3\n      pop\n      jump\t// out\n        /* \"#utility.yul\":15618:15708   */\n    tag_214:\n        /* \"#utility.yul\":15652:15659   */\n      0x00\n        /* \"#utility.yul\":15695:15700   */\n      dup2\n        /* \"#utility.yul\":15688:15701   */\n      iszero\n        /* \"#utility.yul\":15681:15702   */\n      iszero\n        /* \"#utility.yul\":15670:15702   */\n      swap1\n      pop\n        /* \"#utility.yul\":15618:15708   */\n      swap2\n      swap1\n      pop\n      jump\t// out\n        /* \"#utility.yul\":15714:15823   */\n    tag_215:\n        /* \"#utility.yul\":15795:15816   */\n      tag_377\n        /* \"#utility.yul\":15810:15815   */\n      dup2\n        /* \"#utility.yul\":15795:15816   */\n      tag_214\n      jump\t// in\n    tag_377:\n        /* \"#utility.yul\":15790:15793   */\n      dup3\n        /* \"#utility.yul\":15783:15817   */\n      mstore\n        /* \"#utility.yul\":15714:15823   */\n      pop\n      pop\n      jump\t// out\n        /* \"#utility.yul\":15829:16039   */\n    tag_45:\n        /* \"#utility.yul\":15916:15920   */\n      0x00\n        /* \"#utility.yul\":15954:15956   */\n      0x20\n        /* \"#utility.yul\":15943:15952   */\n      dup3\n        /* \"#utility.yul\":15939:15957   */\n      add\n        /* \"#utility.yul\":15931:15957   */\n      swap1\n      pop\n        /* \"#utility.yul\":15967:16032   */\n      tag_379\n        /* \"#utility.yul\":16029:16030   */\n      0x00\n        /* \"#utility.yul\":16018:16027   */\n      dup4\n        /* \"#utility.yul\":16014:16031   */\n      add\n        /* \"#utility.yul\":16005:16011   */\n      dup5\n        /* \"#utility.yul\":15967:16032   */\n      tag_215\n      jump\t// in\n    tag_379:\n        /* \"#utility.yul\":15829:16039   */\n      swap3\n      swap2\n      pop\n      pop\n      jump\t// out\n        /* \"#utility.yul\":16045:16193   */\n    tag_216:\n        /* \"#utility.yul\":16147:16158   */\n      0x00\n        /* \"#utility.yul\":16184:16187   */\n      dup2\n        /* \"#utility.yul\":16169:16187   */\n      swap1\n      pop\n        /* \"#utility.yul\":16045:16193   */\n      swap3\n      swap2\n      pop\n      pop\n      jump\t// out\n        /* \"#utility.yul\":16199:16589   */\n    tag_217:\n        /* \"#utility.yul\":16305:16308   */\n      0x00\n        /* \"#utility.yul\":16333:16372   */\n      tag_382\n        /* \"#utility.yul\":16366:16371   */\n      dup3\n        /* \"#utility.yul\":16333:16372   */\n      tag_187\n      jump\t// in\n    tag_382:\n        /* \"#utility.yul\":16388:16477   */\n      tag_383\n        /* \"#utility.yul\":16470:16476   */\n      dup2\n        /* \"#utility.yul\":16465:16468   */\n      dup6\n        /* \"#utility.yul\":16388:16477   */\n      tag_216\n      jump\t// in\n    tag_383:\n        /* \"#utility.yul\":16381:16477   */\n      swap4\n      pop\n        /* \"#utility.yul\":16486:16551   */\n      tag_384\n        /* \"#utility.yul\":16544:16550   */\n      dup2\n        /* \"#utility.yul\":16539:16542   */\n      dup6\n        /* \"#utility.yul\":16532:16536   */\n      0x20\n        /* \"#utility.yul\":16525:16530   */\n      dup7\n        /* \"#utility.yul\":16521:16537   */\n      add\n        /* \"#utility.yul\":16486:16551   */\n      tag_189\n      jump\t// in\n    tag_384:\n        /* \"#utility.yul\":16576:16582   */\n      dup1\n        /* \"#utility.yul\":16571:16574   */\n      dup5\n        /* \"#utility.yul\":16567:16583   */\n      add\n        /* \"#utility.yul\":16560:16583   */\n      swap2\n      pop\n        /* \"#utility.yul\":16309:16589   */\n      pop\n        /* \"#utility.yul\":16199:16589   */\n      swap3\n      swap2\n      pop\n      pop\n      jump\t// out\n        /* \"#utility.yul\":16595:16870   */\n    tag_50:\n        /* \"#utility.yul\":16727:16730   */\n      0x00\n        /* \"#utility.yul\":16749:16844   */\n      tag_386\n        /* \"#utility.yul\":16840:16843   */\n      dup3\n        /* \"#utility.yul\":16831:16837   */\n      dup5\n        /* \"#utility.yul\":16749:16844   */\n      tag_217\n      jump\t// in\n    tag_386:\n        /* \"#utility.yul\":16742:16844   */\n      swap2\n      pop\n        /* \"#utility.yul\":16861:16864   */\n      dup2\n        /* \"#utility.yul\":16854:16864   */\n      swap1\n      pop\n        /* \"#utility.yul\":16595:16870   */\n      swap3\n      swap2\n      pop\n      pop\n      jump\t// out\n        /* \"#utility.yul\":16876:17056   */\n    tag_218:\n        /* \"#utility.yul\":16924:17001   */\n      0x4e487b7100000000000000000000000000000000000000000000000000000000\n        /* \"#utility.yul\":16921:16922   */\n      0x00\n        /* \"#utility.yul\":16914:17002   */\n      mstore\n        /* \"#utility.yul\":17021:17025   */\n      0x22\n        /* \"#utility.yul\":17018:17019   */\n      0x04\n        /* \"#utility.yul\":17011:17026   */\n      mstore\n        /* \"#utility.yul\":17045:17049   */\n      0x24\n        /* \"#utility.yul\":17042:17043   */\n      0x00\n        /* \"#utility.yul\":17035:17050   */\n      revert\n        /* \"#utility.yul\":17062:17382   */\n    tag_52:\n        /* \"#utility.yul\":17106:17112   */\n      0x00\n        /* \"#utility.yul\":17143:17144   */\n      0x02\n        /* \"#utility.yul\":17137:17141   */\n      dup3\n        /* \"#utility.yul\":17133:17145   */\n      div\n        /* \"#utility.yul\":17123:17145   */\n      swap1\n      pop\n        /* \"#utility.yul\":17190:17191   */\n      0x01\n        /* \"#utility.yul\":17184:17188   */\n      dup3\n        /* \"#utility.yul\":17180:17192   */\n      and\n        /* \"#utility.yul\":17211:17229   */\n      dup1\n        /* \"#utility.yul\":17201:17282   */\n      tag_389\n      jumpi\n        /* \"#utility.yul\":17267:17271   */\n      0x7f\n        /* \"#utility.yul\":17259:17265   */\n      dup3\n        /* \"#utility.yul\":17255:17272   */\n      and\n        /* \"#utility.yul\":17245:17272   */\n      swap2\n      pop\n        /* \"#utility.yul\":17201:17282   */\n    tag_389:\n        /* \"#utility.yul\":17329:17331   */\n      0x20\n        /* \"#utility.yul\":17321:17327   */\n      dup3\n        /* \"#utility.yul\":17318:17332   */\n      lt\n        /* \"#utility.yul\":17298:17316   */\n      dup2\n        /* \"#utility.yul\":17295:17333   */\n      sub\n        /* \"#utility.yul\":17292:17376   */\n      tag_390\n      jumpi\n        /* \"#utility.yul\":17348:17366   */\n      tag_391\n      tag_218\n      jump\t// in\n    tag_391:\n        /* \"#utility.yul\":17292:17376   */\n    tag_390:\n        /* \"#utility.yul\":17113:17382   */\n      pop\n        /* \"#utility.yul\":17062:17382   */\n      swap2\n      swap1\n      pop\n      jump\t// out\n        /* \"#utility.yul\":17388:17568   */\n    tag_219:\n        /* \"#utility.yul\":17436:17513   */\n      0x4e487b7100000000000000000000000000000000000000000000000000000000\n        /* \"#utility.yul\":17433:17434   */\n      0x00\n        /* \"#utility.yul\":17426:17514   */\n      mstore\n        /* \"#utility.yul\":17533:17537   */\n      0x11\n        /* \"#utility.yul\":17530:17531   */\n      0x04\n        /* \"#utility.yul\":17523:17538   */\n      mstore\n        /* \"#utility.yul\":17557:17561   */\n      0x24\n        /* \"#utility.yul\":17554:17555   */\n      0x00\n        /* \"#utility.yul\":17547:17562   */\n      revert\n        /* \"#utility.yul\":17574:17768   */\n    tag_73:\n        /* \"#utility.yul\":17614:17618   */\n      0x00\n        /* \"#utility.yul\":17634:17654   */\n      tag_394\n        /* \"#utility.yul\":17652:17653   */\n      dup3\n        /* \"#utility.yul\":17634:17654   */\n      tag_191\n      jump\t// in\n    tag_394:\n        /* \"#utility.yul\":17629:17654   */\n      swap2\n      pop\n        /* \"#utility.yul\":17668:17688   */\n      tag_395\n        /* \"#utility.yul\":17686:17687   */\n      dup4\n        /* \"#utility.yul\":17668:17688   */\n      tag_191\n      jump\t// in\n    tag_395:\n        /* \"#utility.yul\":17663:17688   */\n      swap3\n      pop\n        /* \"#utility.yul\":17712:17713   */\n      dup3\n        /* \"#utility.yul\":17709:17710   */\n      dup3\n        /* \"#utility.yul\":17705:17714   */\n      sub\n        /* \"#utility.yul\":17697:17714   */\n      swap1\n      pop\n        /* \"#utility.yul\":17736:17737   */\n      dup2\n        /* \"#utility.yul\":17730:17734   */\n      dup2\n        /* \"#utility.yul\":17727:17738   */\n      gt\n        /* \"#utility.yul\":17724:17761   */\n      iszero\n      tag_396\n      jumpi\n        /* \"#utility.yul\":17741:17759   */\n      tag_397\n      tag_219\n      jump\t// in\n    tag_397:\n        /* \"#utility.yul\":17724:17761   */\n    tag_396:\n        /* \"#utility.yul\":17574:17768   */\n      swap3\n      swap2\n      pop\n      pop\n      jump\t// out\n        /* \"#utility.yul\":17774:17954   */\n    tag_76:\n        /* \"#utility.yul\":17822:17899   */\n      0x4e487b7100000000000000000000000000000000000000000000000000000000\n        /* \"#utility.yul\":17819:17820   */\n      0x00\n        /* \"#utility.yul\":17812:17900   */\n      mstore\n        /* \"#utility.yul\":17919:17923   */\n      0x32\n        /* \"#utility.yul\":17916:17917   */\n      0x04\n        /* \"#utility.yul\":17909:17924   */\n      mstore\n        /* \"#utility.yul\":17943:17947   */\n      0x24\n        /* \"#utility.yul\":17940:17941   */\n      0x00\n        /* \"#utility.yul\":17933:17948   */\n      revert\n        /* \"#utility.yul\":17960:18151   */\n    tag_127:\n        /* \"#utility.yul\":18000:18003   */\n      0x00\n        /* \"#utility.yul\":18019:18039   */\n      tag_400\n        /* \"#utility.yul\":18037:18038   */\n      dup3\n        /* \"#utility.yul\":18019:18039   */\n      tag_191\n      jump\t// in\n    tag_400:\n        /* \"#utility.yul\":18014:18039   */\n      swap2\n      pop\n        /* \"#utility.yul\":18053:18073   */\n      tag_401\n        /* \"#utility.yul\":18071:18072   */\n      dup4\n        /* \"#utility.yul\":18053:18073   */\n      tag_191\n      jump\t// in\n    tag_401:\n        /* \"#utility.yul\":18048:18073   */\n      swap3\n      pop\n        /* \"#utility.yul\":18096:18097   */\n      dup3\n        /* \"#utility.yul\":18093:18094   */\n      dup3\n        /* \"#utility.yul\":18089:18098   */\n      add\n        /* \"#utility.yul\":18082:18098   */\n      swap1\n      pop\n        /* \"#utility.yul\":18117:18120   */\n      dup1\n        /* \"#utility.yul\":18114:18115   */\n      dup3\n        /* \"#utility.yul\":18111:18121   */\n      gt\n        /* \"#utility.yul\":18108:18144   */\n      iszero\n      tag_402\n      jumpi\n        /* \"#utility.yul\":18124:18142   */\n      tag_403\n      tag_219\n      jump\t// in\n    tag_403:\n        /* \"#utility.yul\":18108:18144   */\n    tag_402:\n        /* \"#utility.yul\":17960:18151   */\n      swap3\n      swap2\n      pop\n      pop\n      jump\t// out\n        /* \"#utility.yul\":18157:18390   */\n    tag_129:\n        /* \"#utility.yul\":18196:18199   */\n      0x00\n        /* \"#utility.yul\":18219:18243   */\n      tag_405\n        /* \"#utility.yul\":18237:18242   */\n      dup3\n        /* \"#utility.yul\":18219:18243   */\n      tag_191\n      jump\t// in\n    tag_405:\n        /* \"#utility.yul\":18210:18243   */\n      swap2\n      pop\n        /* \"#utility.yul\":18265:18331   */\n      0xffffffffffffffffffffffffffffffffffffffffffffffffffffffffffffffff\n        /* \"#utility.yul\":18258:18263   */\n      dup3\n        /* \"#utility.yul\":18255:18332   */\n      sub\n        /* \"#utility.yul\":18252:18355   */\n      tag_406\n      jumpi\n        /* \"#utility.yul\":18335:18353   */\n      tag_407\n      tag_219\n      jump\t// in\n    tag_407:\n        /* \"#utility.yul\":18252:18355   */\n    tag_406:\n        /* \"#utility.yul\":18382:18383   */\n      0x01\n        /* \"#utility.yul\":18375:18380   */\n      dup3\n        /* \"#utility.yul\":18371:18384   */\n      add\n        /* \"#utility.yul\":18364:18384   */\n      swap1\n      pop\n        /* \"#utility.yul\":18157:18390   */\n      swap2\n      swap1\n      pop\n      jump\t// out\n        /* \"#utility.yul\":18396:18576   */\n    tag_220:\n        /* \"#utility.yul\":18444:18521   */\n      0x4e487b7100000000000000000000000000000000000000000000000000000000\n        /* \"#utility.yul\":18441:18442   */\n      0x00\n        /* \"#utility.yul\":18434:18522   */\n      mstore\n        /* \"#utility.yul\":18541:18545   */\n      0x12\n        /* \"#utility.yul\":18538:18539   */\n      0x04\n        /* \"#utility.yul\":18531:18546   */\n      mstore\n        /* \"#utility.yul\":18565:18569   */\n      0x24\n        /* \"#utility.yul\":18562:18563   */\n      0x00\n        /* \"#utility.yul\":18555:18570   */\n      revert\n        /* \"#utility.yul\":18582:18767   */\n    tag_131:\n        /* \"#utility.yul\":18622:18623   */\n      0x00\n        /* \"#utility.yul\":18639:18659   */\n      tag_410\n        /* \"#utility.yul\":18657:18658   */\n      dup3\n        /* \"#utility.yul\":18639:18659   */\n      tag_191\n      jump\t// in\n    tag_410:\n        /* \"#utility.yul\":18634:18659   */\n      swap2\n      pop\n        /* \"#utility.yul\":18673:18693   */\n      tag_411\n        /* \"#utility.yul\":18691:18692   */\n      dup4\n        /* \"#utility.yul\":18673:18693   */\n      tag_191\n      jump\t// in\n    tag_411:\n        /* \"#utility.yul\":18668:18693   */\n      swap3\n      pop\n        /* \"#utility.yul\":18712:18713   */\n      dup3\n        /* \"#utility.yul\":18702:18737   */\n      tag_412\n      jumpi\n        /* \"#utility.yul\":18717:18735   */\n      tag_413\n      tag_220\n      jump\t// in\n    tag_413:\n        /* \"#utility.yul\":18702:18737   */\n    tag_412:\n        /* \"#utility.yul\":18759:18760   */\n      dup3\n        /* \"#utility.yul\":18756:18757   */\n      dup3\n        /* \"#utility.yul\":18752:18761   */\n      div\n        /* \"#utility.yul\":18747:18761   */\n      swap1\n      pop\n        /* \"#utility.yul\":18582:18767   */\n      swap3\n      swap2\n      pop\n      pop\n      jump\t// out\n        /* \"#utility.yul\":18773:18914   */\n    tag_221:\n        /* \"#utility.yul\":18822:18826   */\n      0x00\n        /* \"#utility.yul\":18845:18848   */\n      dup2\n        /* \"#utility.yul\":18837:18848   */\n      swap1\n      pop\n        /* \"#utility.yul\":18868:18871   */\n      dup2\n        /* \"#utility.yul\":18865:18866   */\n      0x00\n        /* \"#utility.yul\":18858:18872   */\n      mstore\n        /* \"#utility.yul\":18902:18906   */\n      0x20\n        /* \"#utility.yul\":18899:18900   */\n      0x00\n        /* \"#utility.yul\":18889:18907   */\n      keccak256\n        /* \"#utility.yul\":18881:18907   */\n      swap1\n      pop\n        /* \"#utility.yul\":18773:18914   */\n      swap2\n      swap1\n      pop\n      jump\t// out\n        /* \"#utility.yul\":18920:19013   */\n    tag_222:\n        /* \"#utility.yul\":18957:18963   */\n      0x00\n        /* \"#utility.yul\":19004:19006   */\n      0x20\n        /* \"#utility.yul\":18999:19001   */\n      0x1f\n        /* \"#utility.yul\":18992:18997   */\n      dup4\n        /* \"#utility.yul\":18988:19002   */\n      add\n        /* \"#utility.yul\":18984:19007   */\n      div\n        /* \"#utility.yul\":18974:19007   */\n      swap1\n      pop\n        /* \"#utility.yul\":18920:19013   */\n      swap2\n      swap1\n      pop\n      jump\t// out\n        /* \"#utility.yul\":19019:19126   */\n    tag_223:\n        /* \"#utility.yul\":19063:19071   */\n      0x00\n        /* \"#utility.yul\":19113:19118   */\n      dup3\n        /* \"#utility.yul\":19107:19111   */\n      dup3\n        /* \"#utility.yul\":19103:19119   */\n      shl\n        /* \"#utility.yul\":19082:19119   */\n      swap1\n      pop\n        /* \"#utility.yul\":19019:19126   */\n      swap3\n      swap2\n      pop\n      pop\n      jump\t// out\n        /* \"#utility.yul\":19132:19525   */\n    tag_224:\n        /* \"#utility.yul\":19201:19207   */\n      0x00\n        /* \"#utility.yul\":19251:19252   */\n      0x08\n        /* \"#utility.yul\":19239:19249   */\n      dup4\n        /* \"#utility.yul\":19235:19253   */\n      mul\n        /* \"#utility.yul\":19274:19371   */\n      tag_418\n        /* \"#utility.yul\":19304:19370   */\n      0xffffffffffffffffffffffffffffffffffffffffffffffffffffffffffffffff\n        /* \"#utility.yul\":19293:19302   */\n      dup3\n        /* \"#utility.yul\":19274:19371   */\n      tag_223\n      jump\t// in\n    tag_418:\n        /* \"#utility.yul\":19392:19431   */\n      tag_419\n        /* \"#utility.yul\":19422:19430   */\n      dup7\n        /* \"#utility.yul\":19411:19420   */\n      dup4\n        /* \"#utility.yul\":19392:19431   */\n      tag_223\n      jump\t// in\n    tag_419:\n        /* \"#utility.yul\":19380:19431   */\n      swap6\n      pop\n        /* \"#utility.yul\":19464:19468   */\n      dup1\n        /* \"#utility.yul\":19460:19469   */\n      not\n        /* \"#utility.yul\":19453:19458   */\n      dup5\n        /* \"#utility.yul\":19449:19470   */\n      and\n        /* \"#utility.yul\":19440:19470   */\n      swap4\n      pop\n        /* \"#utility.yul\":19513:19517   */\n      dup1\n        /* \"#utility.yul\":19503:19511   */\n      dup7\n        /* \"#utility.yul\":19499:19518   */\n      and\n        /* \"#utility.yul\":19492:19497   */\n      dup5\n        /* \"#utility.yul\":19489:19519   */\n      or\n        /* \"#utility.yul\":19479:19519   */\n      swap3\n      pop\n        /* \"#utility.yul\":19208:19525   */\n      pop\n      pop\n        /* \"#utility.yul\":19132:19525   */\n      swap4\n      swap3\n      pop\n      pop\n      pop\n      jump\t// out\n        /* \"#utility.yul\":19531:19591   */\n    tag_225:\n        /* \"#utility.yul\":19559:19562   */\n      0x00\n        /* \"#utility.yul\":19580:19585   */\n      dup2\n        /* \"#utility.yul\":19573:19585   */\n      swap1\n      pop\n        /* \"#utility.yul\":19531:19591   */\n      swap2\n      swap1\n      pop\n      jump\t// out\n        /* \"#utility.yul\":19597:19739   */\n    tag_226:\n        /* \"#utility.yul\":19647:19656   */\n      0x00\n        /* \"#utility.yul\":19680:19733   */\n      tag_422\n        /* \"#utility.yul\":19698:19732   */\n      tag_423\n        /* \"#utility.yul\":19707:19731   */\n      tag_424\n        /* \"#utility.yul\":19725:19730   */\n      dup5\n        /* \"#utility.yul\":19707:19731   */\n      tag_191\n      jump\t// in\n    tag_424:\n        /* \"#utility.yul\":19698:19732   */\n      tag_225\n      jump\t// in\n    tag_423:\n        /* \"#utility.yul\":19680:19733   */\n      tag_191\n      jump\t// in\n    tag_422:\n        /* \"#utility.yul\":19667:19733   */\n      swap1\n      pop\n        /* \"#utility.yul\":19597:19739   */\n      swap2\n      swap1\n      pop\n      jump\t// out\n        /* \"#utility.yul\":19745:19820   */\n    tag_227:\n        /* \"#utility.yul\":19788:19791   */\n      0x00\n        /* \"#utility.yul\":19809:19814   */\n      dup2\n        /* \"#utility.yul\":19802:19814   */\n      swap1\n      pop\n        /* \"#utility.yul\":19745:19820   */\n      swap2\n      swap1\n      pop\n      jump\t// out\n        /* \"#utility.yul\":19826:20095   */\n    tag_228:\n        /* \"#utility.yul\":19936:19975   */\n      tag_427\n        /* \"#utility.yul\":19967:19974   */\n      dup4\n        /* \"#utility.yul\":19936:19975   */\n      tag_226\n      jump\t// in\n    tag_427:\n        /* \"#utility.yul\":19997:20088   */\n      tag_428\n        /* \"#utility.yul\":20046:20087   */\n      tag_429\n        /* \"#utility.yul\":20070:20086   */\n      dup3\n        /* \"#utility.yul\":20046:20087   */\n      tag_227\n      jump\t// in\n    tag_429:\n        /* \"#utility.yul\":20038:20044   */\n      dup5\n        /* \"#utility.yul\":20031:20035   */\n      dup5\n        /* \"#utility.yul\":20025:20036   */\n      sload\n        /* \"#utility.yul\":19997:20088   */\n      tag_224\n      jump\t// in\n    tag_428:\n        /* \"#utility.yul\":19991:19995   */\n      dup3\n        /* \"#utility.yul\":19984:20089   */\n      sstore\n        /* \"#utility.yul\":19902:20095   */\n      pop\n        /* \"#utility.yul\":19826:20095   */\n      pop\n      pop\n      pop\n      jump\t// out\n        /* \"#utility.yul\":20101:20174   */\n    tag_229:\n        /* \"#utility.yul\":20146:20149   */\n      0x00\n        /* \"#utility.yul\":20101:20174   */\n      swap1\n      jump\t// out\n        /* \"#utility.yul\":20180:20369   */\n    tag_230:\n        /* \"#utility.yul\":20257:20289   */\n      tag_432\n      tag_229\n      jump\t// in\n    tag_432:\n        /* \"#utility.yul\":20298:20363   */\n      tag_433\n        /* \"#utility.yul\":20356:20362   */\n      dup2\n        /* \"#utility.yul\":20348:20354   */\n      dup5\n        /* \"#utility.yul\":20342:20346   */\n      dup5\n        /* \"#utility.yul\":20298:20363   */\n      tag_228\n      jump\t// in\n    tag_433:\n        /* \"#utility.yul\":20233:20369   */\n      pop\n        /* \"#utility.yul\":20180:20369   */\n      pop\n      pop\n      jump\t// out\n        /* \"#utility.yul\":20375:20561   */\n    tag_231:\n        /* \"#utility.yul\":20435:20555   */\n    tag_435:\n        /* \"#utility.yul\":20452:20455   */\n      dup2\n        /* \"#utility.yul\":20445:20450   */\n      dup2\n        /* \"#utility.yul\":20442:20456   */\n      lt\n        /* \"#utility.yul\":20435:20555   */\n      iszero\n      tag_437\n      jumpi\n        /* \"#utility.yul\":20506:20545   */\n      tag_438\n        /* \"#utility.yul\":20543:20544   */\n      0x00\n        /* \"#utility.yul\":20536:20541   */\n      dup3\n        /* \"#utility.yul\":20506:20545   */\n      tag_230\n      jump\t// in\n    tag_438:\n        /* \"#utility.yul\":20479:20480   */\n      0x01\n        /* \"#utility.yul\":20472:20477   */\n      dup2\n        /* \"#utility.yul\":20468:20481   */\n      add\n        /* \"#utility.yul\":20459:20481   */\n      swap1\n      pop\n        /* \"#utility.yul\":20435:20555   */\n      jump(tag_435)\n    tag_437:\n        /* \"#utility.yul\":20375:20561   */\n      pop\n      pop\n      jump\t// out\n        /* \"#utility.yul\":20567:21110   */\n    tag_232:\n        /* \"#utility.yul\":20668:20670   */\n      0x1f\n        /* \"#utility.yul\":20663:20666   */\n      dup3\n        /* \"#utility.yul\":20660:20671   */\n      gt\n        /* \"#utility.yul\":20657:21103   */\n      iszero\n      tag_440\n      jumpi\n        /* \"#utility.yul\":20702:20740   */\n      tag_441\n        /* \"#utility.yul\":20734:20739   */\n      dup2\n        /* \"#utility.yul\":20702:20740   */\n      tag_221\n      jump\t// in\n    tag_441:\n        /* \"#utility.yul\":20786:20815   */\n      tag_442\n        /* \"#utility.yul\":20804:20814   */\n      dup5\n        /* \"#utility.yul\":20786:20815   */\n      tag_222\n      jump\t// in\n    tag_442:\n        /* \"#utility.yul\":20776:20784   */\n      dup2\n        /* \"#utility.yul\":20772:20816   */\n      add\n        /* \"#utility.yul\":20969:20971   */\n      0x20\n        /* \"#utility.yul\":20957:20967   */\n      dup6\n        /* \"#utility.yul\":20954:20972   */\n      lt\n        /* \"#utility.yul\":20951:21000   */\n      iszero\n      tag_443\n      jumpi\n        /* \"#utility.yul\":20990:20998   */\n      dup2\n        /* \"#utility.yul\":20975:20998   */\n      swap1\n      pop\n        /* \"#utility.yul\":20951:21000   */\n    tag_443:\n        /* \"#utility.yul\":21013:21093   */\n      tag_444\n        /* \"#utility.yul\":21069:21091   */\n      tag_445\n        /* \"#utility.yul\":21087:21090   */\n      dup6\n        /* \"#utility.yul\":21069:21091   */\n      tag_222\n      jump\t// in\n    tag_445:\n        /* \"#utility.yul\":21059:21067   */\n      dup4\n        /* \"#utility.yul\":21055:21092   */\n      add\n        /* \"#utility.yul\":21042:21053   */\n      dup3\n        /* \"#utility.yul\":21013:21093   */\n      tag_231\n      jump\t// in\n    tag_444:\n        /* \"#utility.yul\":20672:21103   */\n      pop\n      pop\n        /* \"#utility.yul\":20657:21103   */\n    tag_440:\n        /* \"#utility.yul\":20567:21110   */\n      pop\n      pop\n      pop\n      jump\t// out\n        /* \"#utility.yul\":21116:21233   */\n    tag_233:\n        /* \"#utility.yul\":21170:21178   */\n      0x00\n        /* \"#utility.yul\":21220:21225   */\n      dup3\n        /* \"#utility.yul\":21214:21218   */\n      dup3\n        /* \"#utility.yul\":21210:21226   */\n      shr\n        /* \"#utility.yul\":21189:21226   */\n      swap1\n      pop\n        /* \"#utility.yul\":21116:21233   */\n      swap3\n      swap2\n      pop\n      pop\n      jump\t// out\n        /* \"#utility.yul\":21239:21408   */\n    tag_234:\n        /* \"#utility.yul\":21283:21289   */\n      0x00\n        /* \"#utility.yul\":21316:21367   */\n      tag_448\n        /* \"#utility.yul\":21364:21365   */\n      0x00\n        /* \"#utility.yul\":21360:21366   */\n      not\n        /* \"#utility.yul\":21352:21357   */\n      dup5\n        /* \"#utility.yul\":21349:21350   */\n      0x08\n        /* \"#utility.yul\":21345:21358   */\n      mul\n        /* \"#utility.yul\":21316:21367   */\n      tag_233\n      jump\t// in\n    tag_448:\n        /* \"#utility.yul\":21312:21368   */\n      not\n        /* \"#utility.yul\":21397:21401   */\n      dup1\n        /* \"#utility.yul\":21391:21395   */\n      dup4\n        /* \"#utility.yul\":21387:21402   */\n      and\n        /* \"#utility.yul\":21377:21402   */\n      swap2\n      pop\n        /* \"#utility.yul\":21290:21408   */\n      pop\n        /* \"#utility.yul\":21239:21408   */\n      swap3\n      swap2\n      pop\n      pop\n      jump\t// out\n        /* \"#utility.yul\":21413:21708   */\n    tag_235:\n        /* \"#utility.yul\":21489:21493   */\n      0x00\n        /* \"#utility.yul\":21635:21664   */\n      tag_450\n        /* \"#utility.yul\":21660:21663   */\n      dup4\n        /* \"#utility.yul\":21654:21658   */\n      dup4\n        /* \"#utility.yul\":21635:21664   */\n      tag_234\n      jump\t// in\n    tag_450:\n        /* \"#utility.yul\":21627:21664   */\n      swap2\n      pop\n        /* \"#utility.yul\":21697:21700   */\n      dup3\n        /* \"#utility.yul\":21694:21695   */\n      0x02\n        /* \"#utility.yul\":21690:21701   */\n      mul\n        /* \"#utility.yul\":21684:21688   */\n      dup3\n        /* \"#utility.yul\":21681:21702   */\n      or\n        /* \"#utility.yul\":21673:21702   */\n      swap1\n      pop\n        /* \"#utility.yul\":21413:21708   */\n      swap3\n      swap2\n      pop\n      pop\n      jump\t// out\n        /* \"#utility.yul\":21713:23108   */\n    tag_145:\n        /* \"#utility.yul\":21830:21867   */\n      tag_452\n        /* \"#utility.yul\":21863:21866   */\n      dup3\n        /* \"#utility.yul\":21830:21867   */\n      tag_187\n      jump\t// in\n    tag_452:\n        /* \"#utility.yul\":21932:21950   */\n      0xffffffffffffffff\n        /* \"#utility.yul\":21924:21930   */\n      dup2\n        /* \"#utility.yul\":21921:21951   */\n      gt\n        /* \"#utility.yul\":21918:21974   */\n      iszero\n      tag_453\n      jumpi\n        /* \"#utility.yul\":21954:21972   */\n      tag_454\n      tag_180\n      jump\t// in\n    tag_454:\n        /* \"#utility.yul\":21918:21974   */\n    tag_453:\n        /* \"#utility.yul\":21998:22036   */\n      tag_455\n        /* \"#utility.yul\":22030:22034   */\n      dup3\n        /* \"#utility.yul\":22024:22035   */\n      sload\n        /* \"#utility.yul\":21998:22036   */\n      tag_52\n      jump\t// in\n    tag_455:\n        /* \"#utility.yul\":22083:22150   */\n      tag_456\n        /* \"#utility.yul\":22143:22149   */\n      dup3\n        /* \"#utility.yul\":22135:22141   */\n      dup3\n        /* \"#utility.yul\":22129:22133   */\n      dup6\n        /* \"#utility.yul\":22083:22150   */\n      tag_232\n      jump\t// in\n    tag_456:\n        /* \"#utility.yul\":22177:22178   */\n      0x00\n        /* \"#utility.yul\":22201:22205   */\n      0x20\n        /* \"#utility.yul\":22188:22205   */\n      swap1\n      pop\n        /* \"#utility.yul\":22233:22235   */\n      0x1f\n        /* \"#utility.yul\":22225:22231   */\n      dup4\n        /* \"#utility.yul\":22222:22236   */\n      gt\n        /* \"#utility.yul\":22250:22251   */\n      0x01\n        /* \"#utility.yul\":22245:22863   */\n      dup2\n      eq\n      tag_458\n      jumpi\n        /* \"#utility.yul\":22907:22908   */\n      0x00\n        /* \"#utility.yul\":22924:22930   */\n      dup5\n        /* \"#utility.yul\":22921:22998   */\n      iszero\n      tag_459\n      jumpi\n        /* \"#utility.yul\":22973:22982   */\n      dup3\n        /* \"#utility.yul\":22968:22971   */\n      dup8\n        /* \"#utility.yul\":22964:22983   */\n      add\n        /* \"#utility.yul\":22958:22984   */\n      mload\n        /* \"#utility.yul\":22949:22984   */\n      swap1\n      pop\n        /* \"#utility.yul\":22921:22998   */\n    tag_459:\n        /* \"#utility.yul\":23024:23091   */\n      tag_460\n        /* \"#utility.yul\":23084:23090   */\n      dup6\n        /* \"#utility.yul\":23077:23082   */\n      dup3\n        /* \"#utility.yul\":23024:23091   */\n      tag_235\n      jump\t// in\n    tag_460:\n        /* \"#utility.yul\":23018:23022   */\n      dup7\n        /* \"#utility.yul\":23011:23092   */\n      sstore\n        /* \"#utility.yul\":22880:23102   */\n      pop\n        /* \"#utility.yul\":22215:23102   */\n      jump(tag_457)\n        /* \"#utility.yul\":22245:22863   */\n    tag_458:\n        /* \"#utility.yul\":22297:22301   */\n      0x1f\n        /* \"#utility.yul\":22293:22302   */\n      not\n        /* \"#utility.yul\":22285:22291   */\n      dup5\n        /* \"#utility.yul\":22281:22303   */\n      and\n        /* \"#utility.yul\":22331:22368   */\n      tag_461\n        /* \"#utility.yul\":22363:22367   */\n      dup7\n        /* \"#utility.yul\":22331:22368   */\n      tag_221\n      jump\t// in\n    tag_461:\n        /* \"#utility.yul\":22390:22391   */\n      0x00\n        /* \"#utility.yul\":22404:22612   */\n    tag_462:\n        /* \"#utility.yul\":22418:22425   */\n      dup3\n        /* \"#utility.yul\":22415:22416   */\n      dup2\n        /* \"#utility.yul\":22412:22426   */\n      lt\n        /* \"#utility.yul\":22404:22612   */\n      iszero\n      tag_464\n      jumpi\n        /* \"#utility.yul\":22497:22506   */\n      dup5\n        /* \"#utility.yul\":22492:22495   */\n      dup10\n        /* \"#utility.yul\":22488:22507   */\n      add\n        /* \"#utility.yul\":22482:22508   */\n      mload\n        /* \"#utility.yul\":22474:22480   */\n      dup3\n        /* \"#utility.yul\":22467:22509   */\n      sstore\n        /* \"#utility.yul\":22548:22549   */\n      0x01\n        /* \"#utility.yul\":22540:22546   */\n      dup3\n        /* \"#utility.yul\":22536:22550   */\n      add\n        /* \"#utility.yul\":22526:22550   */\n      swap2\n      pop\n        /* \"#utility.yul\":22595:22597   */\n      0x20\n        /* \"#utility.yul\":22584:22593   */\n      dup6\n        /* \"#utility.yul\":22580:22598   */\n      add\n        /* \"#utility.yul\":22567:22598   */\n      swap5\n      pop\n        /* \"#utility.yul\":22441:22445   */\n      0x20\n        /* \"#utility.yul\":22438:22439   */\n      dup2\n        /* \"#utility.yul\":22434:22446   */\n      add\n        /* \"#utility.yul\":22429:22446   */\n      swap1\n      pop\n        /* \"#utility.yul\":22404:22612   */\n      jump(tag_462)\n    tag_464:\n        /* \"#utility.yul\":22640:22646   */\n      dup7\n        /* \"#utility.yul\":22631:22638   */\n      dup4\n        /* \"#utility.yul\":22628:22647   */\n      lt\n        /* \"#utility.yul\":22625:22804   */\n      iszero\n      tag_465\n      jumpi\n        /* \"#utility.yul\":22698:22707   */\n      dup5\n        /* \"#utility.yul\":22693:22696   */\n      dup10\n        /* \"#utility.yul\":22689:22708   */\n      add\n        /* \"#utility.yul\":22683:22709   */\n      mload\n        /* \"#utility.yul\":22741:22789   */\n      tag_466\n        /* \"#utility.yul\":22783:22787   */\n      0x1f\n        /* \"#utility.yul\":22775:22781   */\n      dup10\n        /* \"#utility.yul\":22771:22788   */\n      and\n        /* \"#utility.yul\":22760:22769   */\n      dup3\n        /* \"#utility.yul\":22741:22789   */\n      tag_234\n      jump\t// in\n    tag_466:\n        /* \"#utility.yul\":22733:22739   */\n      dup4\n        /* \"#utility.yul\":22726:22790   */\n      sstore\n        /* \"#utility.yul\":22648:22804   */\n      pop\n        /* \"#utility.yul\":22625:22804   */\n    tag_465:\n        /* \"#utility.yul\":22850:22851   */\n      0x01\n        /* \"#utility.yul\":22846:22847   */\n      0x02\n        /* \"#utility.yul\":22838:22844   */\n      dup9\n        /* \"#utility.yul\":22834:22848   */\n      mul\n        /* \"#utility.yul\":22830:22852   */\n      add\n        /* \"#utility.yul\":22824:22828   */\n      dup9\n        /* \"#utility.yul\":22817:22853   */\n      sstore\n        /* \"#utility.yul\":22252:22863   */\n      pop\n      pop\n      pop\n        /* \"#utility.yul\":22215:23102   */\n    tag_457:\n      pop\n        /* \"#utility.yul\":21805:23108   */\n      pop\n      pop\n      pop\n        /* \"#utility.yul\":21713:23108   */\n      pop\n      pop\n      jump\t// out\n\n    auxdata: 0xa26469706673582212206a47f1ee2d545f0a16b169197ce96c69a9f569fa010252de3f549b86d28dad5364736f6c63430008120033\n}\n",
				"bytecode": {
					"linkReferences": {},
					"object": "608060405234801561001057600080fd5b50611971806100206000396000f3fe608060405234801561001057600080fd5b50600436106100885760003560e01c8063cacac6711161005b578063cacac67114610129578063e552150114610147578063f97e916d14610177578063fd9cec4b1461019357610088565b80630d23dce51461008d5780633da20a57146100bd578063a1e68c52146100ed578063b1a273771461010b575b600080fd5b6100a760048036038101906100a29190610ead565b6101b1565b6040516100b491906110d4565b60405180910390f35b6100d760048036038101906100d29190611122565b6103fa565b6040516100e491906110d4565b60405180910390f35b6100f5610652565b6040516101029190611295565b60405180910390f35b6101136108c2565b60405161012091906112c6565b60405180910390f35b6101316108cf565b60405161013e91906112c6565b60405180910390f35b610161600480360381019061015c9190610ead565b610949565b60405161016e91906112c6565b60405180910390f35b610191600480360381019061018c91906113c7565b610973565b005b61019b610c22565b6040516101a89190611481565b60405180910390f35b6101b9610c4a565b6000826040516101c991906114d8565b90815260200160405180910390206040518060a00160405290816000820180546101f29061151e565b80601f016020809104026020016040519081016040528092919081815260200182805461021e9061151e565b801561026b5780601f106102405761010080835404028352916020019161026b565b820191906000526020600020905b81548152906001019060200180831161024e57829003601f168201915b5050505050815260200160018201548152602001600282015481526020016003820180546102989061151e565b80601f01602080910402602001604051908101604052809291908181526020018280546102c49061151e565b80156103115780601f106102e657610100808354040283529160200191610311565b820191906000526020600020905b8154815290600101906020018083116102f457829003601f168201915b5050505050815260200160048201805480602002602001604051908101604052809291908181526020016000905b828210156103eb57838290600052602060002001805461035e9061151e565b80601f016020809104026020016040519081016040528092919081815260200182805461038a9061151e565b80156103d75780601f106103ac576101008083540402835291602001916103d7565b820191906000526020600020905b8154815290600101906020018083116103ba57829003601f168201915b50505050508152602001906001019061033f565b50505050815250509050919050565b610402610c4a565b60018083610410919061157e565b81548110610421576104206115b2565b5b90600052602060002090600502016040518060a001604052908160008201805461044a9061151e565b80601f01602080910402602001604051908101604052809291908181526020018280546104769061151e565b80156104c35780601f10610498576101008083540402835291602001916104c3565b820191906000526020600020905b8154815290600101906020018083116104a657829003601f168201915b5050505050815260200160018201548152602001600282015481526020016003820180546104f09061151e565b80601f016020809104026020016040519081016040528092919081815260200182805461051c9061151e565b80156105695780601f1061053e57610100808354040283529160200191610569565b820191906000526020600020905b81548152906001019060200180831161054c57829003601f168201915b5050505050815260200160048201805480602002602001604051908101604052809291908181526020016000905b828210156106435783829060005260206000200180546105b69061151e565b80601f01602080910402602001604051908101604052809291908181526020018280546105e29061151e565b801561062f5780601f106106045761010080835404028352916020019161062f565b820191906000526020600020905b81548152906001019060200180831161061257829003601f168201915b505050505081526020019060010190610597565b50505050815250509050919050565b60606001805480602002602001604051908101604052809291908181526020016000905b828210156108b957838290600052602060002090600502016040518060a00160405290816000820180546106a99061151e565b80601f01602080910402602001604051908101604052809291908181526020018280546106d59061151e565b80156107225780601f106106f757610100808354040283529160200191610722565b820191906000526020600020905b81548152906001019060200180831161070557829003601f168201915b50505050508152602001600182015481526020016002820154815260200160038201805461074f9061151e565b80601f016020809104026020016040519081016040528092919081815260200182805461077b9061151e565b80156107c85780601f1061079d576101008083540402835291602001916107c8565b820191906000526020600020905b8154815290600101906020018083116107ab57829003601f168201915b5050505050815260200160048201805480602002602001604051908101604052809291908181526020016000905b828210156108a25783829060005260206000200180546108159061151e565b80601f01602080910402602001604051908101604052809291908181526020018280546108419061151e565b801561088e5780601f106108635761010080835404028352916020019161088e565b820191906000526020600020905b81548152906001019060200180831161087157829003601f168201915b5050505050815260200190600101906107f6565b505050508152505081526020019060010190610676565b50505050905090565b6000600180549050905090565b600080600080600090505b60018054905081101561092d57600181815481106108fb576108fa6115b2565b5b9060005260206000209060050201600201548361091891906115e1565b9250808061092590611615565b9150506108da565b506001805490508261093f919061168c565b9050809250505090565b6000808260405161095a91906114d8565b9081526020016040518091039020600201549050919050565b6060605a83106109ba576040518060400160405280600181526020017f41000000000000000000000000000000000000000000000000000000000000008152509050610ac5565b605083106109ff576040518060400160405280600181526020017f42000000000000000000000000000000000000000000000000000000000000008152509050610ac4565b60468310610a44576040518060400160405280600181526020017f43000000000000000000000000000000000000000000000000000000000000008152509050610ac3565b603c8310610a89576040518060400160405280600181526020017f44000000000000000000000000000000000000000000000000000000000000008152509050610ac2565b6040518060400160405280600181526020017f460000000000000000000000000000000000000000000000000000000000000081525090505b5b5b5b6040518060a0016040528086815260200185815260200184815260200182815260200183815250600086604051610afc91906114d8565b90815260200160405180910390206000820151816000019081610b1f9190611869565b5060208201518160010155604082015181600201556060820151816003019081610b499190611869565b506080820151816004019080519060200190610b66929190610c79565b5090505060016040518060a001604052808781526020018681526020018581526020018381526020018481525090806001815401808255809150506001900390600052602060002090600502016000909190919091506000820151816000019081610bd19190611869565b5060208201518160010155604082015181600201556060820151816003019081610bfb9190611869565b506080820151816004019080519060200190610c18929190610c79565b5050505050505050565b600080610c2d6108cf565b905060468110610c41576001915050610c47565b60009150505b90565b6040518060a0016040528060608152602001600081526020016000815260200160608152602001606081525090565b828054828255906000526020600020908101928215610cc1579160200282015b82811115610cc0578251829081610cb09190611869565b5091602001919060010190610c99565b5b509050610cce9190610cd2565b5090565b5b80821115610cf25760008181610ce99190610cf6565b50600101610cd3565b5090565b508054610d029061151e565b6000825580601f10610d145750610d33565b601f016020900490600052602060002090810190610d329190610d36565b5b50565b5b80821115610d4f576000816000905550600101610d37565b5090565b6000604051905090565b600080fd5b600080fd5b600080fd5b600080fd5b6000601f19601f8301169050919050565b7f4e487b7100000000000000000000000000000000000000000000000000000000600052604160045260246000fd5b610dba82610d71565b810181811067ffffffffffffffff82111715610dd957610dd8610d82565b5b80604052505050565b6000610dec610d53565b9050610df88282610db1565b919050565b600067ffffffffffffffff821115610e1857610e17610d82565b5b610e2182610d71565b9050602081019050919050565b82818337600083830152505050565b6000610e50610e4b84610dfd565b610de2565b905082815260208101848484011115610e6c57610e6b610d6c565b5b610e77848285610e2e565b509392505050565b600082601f830112610e9457610e93610d67565b5b8135610ea4848260208601610e3d565b91505092915050565b600060208284031215610ec357610ec2610d5d565b5b600082013567ffffffffffffffff811115610ee157610ee0610d62565b5b610eed84828501610e7f565b91505092915050565b600081519050919050565b600082825260208201905092915050565b60005b83811015610f30578082015181840152602081019050610f15565b60008484015250505050565b6000610f4782610ef6565b610f518185610f01565b9350610f61818560208601610f12565b610f6a81610d71565b840191505092915050565b6000819050919050565b610f8881610f75565b82525050565b600081519050919050565b600082825260208201905092915050565b6000819050602082019050919050565b6000610fc68383610f3c565b905092915050565b6000602082019050919050565b6000610fe682610f8e565b610ff08185610f99565b93508360208202850161100285610faa565b8060005b8581101561103e578484038952815161101f8582610fba565b945061102a83610fce565b925060208a01995050600181019050611006565b50829750879550505050505092915050565b600060a083016000830151848203600086015261106d8282610f3c565b91505060208301516110826020860182610f7f565b5060408301516110956040860182610f7f565b50606083015184820360608601526110ad8282610f3c565b915050608083015184820360808601526110c78282610fdb565b9150508091505092915050565b600060208201905081810360008301526110ee8184611050565b905092915050565b6110ff81610f75565b811461110a57600080fd5b50565b60008135905061111c816110f6565b92915050565b60006020828403121561113857611137610d5d565b5b60006111468482850161110d565b91505092915050565b600081519050919050565b600082825260208201905092915050565b6000819050602082019050919050565b600060a08301600083015184820360008601526111988282610f3c565b91505060208301516111ad6020860182610f7f565b5060408301516111c06040860182610f7f565b50606083015184820360608601526111d88282610f3c565b915050608083015184820360808601526111f28282610fdb565b9150508091505092915050565b600061120b838361117b565b905092915050565b6000602082019050919050565b600061122b8261114f565b611235818561115a565b9350836020820285016112478561116b565b8060005b85811015611283578484038952815161126485826111ff565b945061126f83611213565b925060208a0199505060018101905061124b565b50829750879550505050505092915050565b600060208201905081810360008301526112af8184611220565b905092915050565b6112c081610f75565b82525050565b60006020820190506112db60008301846112b7565b92915050565b600067ffffffffffffffff8211156112fc576112fb610d82565b5b602082029050602081019050919050565b600080fd5b6000611325611320846112e1565b610de2565b905080838252602082019050602084028301858111156113485761134761130d565b5b835b8181101561138f57803567ffffffffffffffff81111561136d5761136c610d67565b5b80860161137a8982610e7f565b8552602085019450505060208101905061134a565b5050509392505050565b600082601f8301126113ae576113ad610d67565b5b81356113be848260208601611312565b91505092915050565b600080600080608085870312156113e1576113e0610d5d565b5b600085013567ffffffffffffffff8111156113ff576113fe610d62565b5b61140b87828801610e7f565b945050602061141c8782880161110d565b935050604061142d8782880161110d565b925050606085013567ffffffffffffffff81111561144e5761144d610d62565b5b61145a87828801611399565b91505092959194509250565b60008115159050919050565b61147b81611466565b82525050565b60006020820190506114966000830184611472565b92915050565b600081905092915050565b60006114b282610ef6565b6114bc818561149c565b93506114cc818560208601610f12565b80840191505092915050565b60006114e482846114a7565b915081905092915050565b7f4e487b7100000000000000000000000000000000000000000000000000000000600052602260045260246000fd5b6000600282049050600182168061153657607f821691505b602082108103611549576115486114ef565b5b50919050565b7f4e487b7100000000000000000000000000000000000000000000000000000000600052601160045260246000fd5b600061158982610f75565b915061159483610f75565b92508282039050818111156115ac576115ab61154f565b5b92915050565b7f4e487b7100000000000000000000000000000000000000000000000000000000600052603260045260246000fd5b60006115ec82610f75565b91506115f783610f75565b925082820190508082111561160f5761160e61154f565b5b92915050565b600061162082610f75565b91507fffffffffffffffffffffffffffffffffffffffffffffffffffffffffffffffff82036116525761165161154f565b5b600182019050919050565b7f4e487b7100000000000000000000000000000000000000000000000000000000600052601260045260246000fd5b600061169782610f75565b91506116a283610f75565b9250826116b2576116b161165d565b5b828204905092915050565b60008190508160005260206000209050919050565b60006020601f8301049050919050565b600082821b905092915050565b60006008830261171f7fffffffffffffffffffffffffffffffffffffffffffffffffffffffffffffffff826116e2565b61172986836116e2565b95508019841693508086168417925050509392505050565b6000819050919050565b600061176661176161175c84610f75565b611741565b610f75565b9050919050565b6000819050919050565b6117808361174b565b61179461178c8261176d565b8484546116ef565b825550505050565b600090565b6117a961179c565b6117b4818484611777565b505050565b5b818110156117d8576117cd6000826117a1565b6001810190506117ba565b5050565b601f82111561181d576117ee816116bd565b6117f7846116d2565b81016020851015611806578190505b61181a611812856116d2565b8301826117b9565b50505b505050565b600082821c905092915050565b600061184060001984600802611822565b1980831691505092915050565b6000611859838361182f565b9150826002028217905092915050565b61187282610ef6565b67ffffffffffffffff81111561188b5761188a610d82565b5b611895825461151e565b6118a08282856117dc565b600060209050601f8311600181146118d357600084156118c1578287015190505b6118cb858261184d565b865550611933565b601f1984166118e1866116bd565b60005b82811015611909578489015182556001820191506020850194506020810190506118e4565b868310156119265784890151611922601f89168261182f565b8355505b6001600288020188555050505b50505050505056fea26469706673582212206a47f1ee2d545f0a16b169197ce96c69a9f569fa010252de3f549b86d28dad5364736f6c63430008120033",
					"opcodes": "PUSH1 0x80 PUSH1 0x40 MSTORE CALLVALUE DUP1 ISZERO PUSH2 0x10 JUMPI PUSH1 0x0 DUP1 REVERT JUMPDEST POP PUSH2 0x1971 DUP1 PUSH2 0x20 PUSH1 0x0 CODECOPY PUSH1 0x0 RETURN INVALID PUSH1 0x80 PUSH1 0x40 MSTORE CALLVALUE DUP1 ISZERO PUSH2 0x10 JUMPI PUSH1 0x0 DUP1 REVERT JUMPDEST POP PUSH1 0x4 CALLDATASIZE LT PUSH2 0x88 JUMPI PUSH1 0x0 CALLDATALOAD PUSH1 0xE0 SHR DUP1 PUSH4 0xCACAC671 GT PUSH2 0x5B JUMPI DUP1 PUSH4 0xCACAC671 EQ PUSH2 0x129 JUMPI DUP1 PUSH4 0xE5521501 EQ PUSH2 0x147 JUMPI DUP1 PUSH4 0xF97E916D EQ PUSH2 0x177 JUMPI DUP1 PUSH4 0xFD9CEC4B EQ PUSH2 0x193 JUMPI PUSH2 0x88 JUMP JUMPDEST DUP1 PUSH4 0xD23DCE5 EQ PUSH2 0x8D JUMPI DUP1 PUSH4 0x3DA20A57 EQ PUSH2 0xBD JUMPI DUP1 PUSH4 0xA1E68C52 EQ PUSH2 0xED JUMPI DUP1 PUSH4 0xB1A27377 EQ PUSH2 0x10B JUMPI JUMPDEST PUSH1 0x0 DUP1 REVERT JUMPDEST PUSH2 0xA7 PUSH1 0x4 DUP1 CALLDATASIZE SUB DUP2 ADD SWAP1 PUSH2 0xA2 SWAP2 SWAP1 PUSH2 0xEAD JUMP JUMPDEST PUSH2 0x1B1 JUMP JUMPDEST PUSH1 0x40 MLOAD PUSH2 0xB4 SWAP2 SWAP1 PUSH2 0x10D4 JUMP JUMPDEST PUSH1 0x40 MLOAD DUP1 SWAP2 SUB SWAP1 RETURN JUMPDEST PUSH2 0xD7 PUSH1 0x4 DUP1 CALLDATASIZE SUB DUP2 ADD SWAP1 PUSH2 0xD2 SWAP2 SWAP1 PUSH2 0x1122 JUMP JUMPDEST PUSH2 0x3FA JUMP JUMPDEST PUSH1 0x40 MLOAD PUSH2 0xE4 SWAP2 SWAP1 PUSH2 0x10D4 JUMP JUMPDEST PUSH1 0x40 MLOAD DUP1 SWAP2 SUB SWAP1 RETURN JUMPDEST PUSH2 0xF5 PUSH2 0x652 JUMP JUMPDEST PUSH1 0x40 MLOAD PUSH2 0x102 SWAP2 SWAP1 PUSH2 0x1295 JUMP JUMPDEST PUSH1 0x40 MLOAD DUP1 SWAP2 SUB SWAP1 RETURN JUMPDEST PUSH2 0x113 PUSH2 0x8C2 JUMP JUMPDEST PUSH1 0x40 MLOAD PUSH2 0x120 SWAP2 SWAP1 PUSH2 0x12C6 JUMP JUMPDEST PUSH1 0x40 MLOAD DUP1 SWAP2 SUB SWAP1 RETURN JUMPDEST PUSH2 0x131 PUSH2 0x8CF JUMP JUMPDEST PUSH1 0x40 MLOAD PUSH2 0x13E SWAP2 SWAP1 PUSH2 0x12C6 JUMP JUMPDEST PUSH1 0x40 MLOAD DUP1 SWAP2 SUB SWAP1 RETURN JUMPDEST PUSH2 0x161 PUSH1 0x4 DUP1 CALLDATASIZE SUB DUP2 ADD SWAP1 PUSH2 0x15C SWAP2 SWAP1 PUSH2 0xEAD JUMP JUMPDEST PUSH2 0x949 JUMP JUMPDEST PUSH1 0x40 MLOAD PUSH2 0x16E SWAP2 SWAP1 PUSH2 0x12C6 JUMP JUMPDEST PUSH1 0x40 MLOAD DUP1 SWAP2 SUB SWAP1 RETURN JUMPDEST PUSH2 0x191 PUSH1 0x4 DUP1 CALLDATASIZE SUB DUP2 ADD SWAP1 PUSH2 0x18C SWAP2 SWAP1 PUSH2 0x13C7 JUMP JUMPDEST PUSH2 0x973 JUMP JUMPDEST STOP JUMPDEST PUSH2 0x19B PUSH2 0xC22 JUMP JUMPDEST PUSH1 0x40 MLOAD PUSH2 0x1A8 SWAP2 SWAP1 PUSH2 0x1481 JUMP JUMPDEST PUSH1 0x40 MLOAD DUP1 SWAP2 SUB SWAP1 RETURN JUMPDEST PUSH2 0x1B9 PUSH2 0xC4A JUMP JUMPDEST PUSH1 0x0 DUP3 PUSH1 0x40 MLOAD PUSH2 0x1C9 SWAP2 SWAP1 PUSH2 0x14D8 JUMP JUMPDEST SWAP1 DUP2 MSTORE PUSH1 0x20 ADD PUSH1 0x40 MLOAD DUP1 SWAP2 SUB SWAP1 KECCAK256 PUSH1 0x40 MLOAD DUP1 PUSH1 0xA0 ADD PUSH1 0x40 MSTORE SWAP1 DUP2 PUSH1 0x0 DUP3 ADD DUP1 SLOAD PUSH2 0x1F2 SWAP1 PUSH2 0x151E JUMP JUMPDEST DUP1 PUSH1 0x1F ADD PUSH1 0x20 DUP1 SWAP2 DIV MUL PUSH1 0x20 ADD PUSH1 0x40 MLOAD SWAP1 DUP2 ADD PUSH1 0x40 MSTORE DUP1 SWAP3 SWAP2 SWAP1 DUP2 DUP2 MSTORE PUSH1 0x20 ADD DUP3 DUP1 SLOAD PUSH2 0x21E SWAP1 PUSH2 0x151E JUMP JUMPDEST DUP1 ISZERO PUSH2 0x26B JUMPI DUP1 PUSH1 0x1F LT PUSH2 0x240 JUMPI PUSH2 0x100 DUP1 DUP4 SLOAD DIV MUL DUP4 MSTORE SWAP2 PUSH1 0x20 ADD SWAP2 PUSH2 0x26B JUMP JUMPDEST DUP3 ADD SWAP2 SWAP1 PUSH1 0x0 MSTORE PUSH1 0x20 PUSH1 0x0 KECCAK256 SWAP1 JUMPDEST DUP2 SLOAD DUP2 MSTORE SWAP1 PUSH1 0x1 ADD SWAP1 PUSH1 0x20 ADD DUP1 DUP4 GT PUSH2 0x24E JUMPI DUP3 SWAP1 SUB PUSH1 0x1F AND DUP3 ADD SWAP2 JUMPDEST POP POP POP POP POP DUP2 MSTORE PUSH1 0x20 ADD PUSH1 0x1 DUP3 ADD SLOAD DUP2 MSTORE PUSH1 0x20 ADD PUSH1 0x2 DUP3 ADD SLOAD DUP2 MSTORE PUSH1 0x20 ADD PUSH1 0x3 DUP3 ADD DUP1 SLOAD PUSH2 0x298 SWAP1 PUSH2 0x151E JUMP JUMPDEST DUP1 PUSH1 0x1F ADD PUSH1 0x20 DUP1 SWAP2 DIV MUL PUSH1 0x20 ADD PUSH1 0x40 MLOAD SWAP1 DUP2 ADD PUSH1 0x40 MSTORE DUP1 SWAP3 SWAP2 SWAP1 DUP2 DUP2 MSTORE PUSH1 0x20 ADD DUP3 DUP1 SLOAD PUSH2 0x2C4 SWAP1 PUSH2 0x151E JUMP JUMPDEST DUP1 ISZERO PUSH2 0x311 JUMPI DUP1 PUSH1 0x1F LT PUSH2 0x2E6 JUMPI PUSH2 0x100 DUP1 DUP4 SLOAD DIV MUL DUP4 MSTORE SWAP2 PUSH1 0x20 ADD SWAP2 PUSH2 0x311 JUMP JUMPDEST DUP3 ADD SWAP2 SWAP1 PUSH1 0x0 MSTORE PUSH1 0x20 PUSH1 0x0 KECCAK256 SWAP1 JUMPDEST DUP2 SLOAD DUP2 MSTORE SWAP1 PUSH1 0x1 ADD SWAP1 PUSH1 0x20 ADD DUP1 DUP4 GT PUSH2 0x2F4 JUMPI DUP3 SWAP1 SUB PUSH1 0x1F AND DUP3 ADD SWAP2 JUMPDEST POP POP POP POP POP DUP2 MSTORE PUSH1 0x20 ADD PUSH1 0x4 DUP3 ADD DUP1 SLOAD DUP1 PUSH1 0x20 MUL PUSH1 0x20 ADD PUSH1 0x40 MLOAD SWAP1 DUP2 ADD PUSH1 0x40 MSTORE DUP1 SWAP3 SWAP2 SWAP1 DUP2 DUP2 MSTORE PUSH1 0x20 ADD PUSH1 0x0 SWAP1 JUMPDEST DUP3 DUP3 LT ISZERO PUSH2 0x3EB JUMPI DUP4 DUP3 SWAP1 PUSH1 0x0 MSTORE PUSH1 0x20 PUSH1 0x0 KECCAK256 ADD DUP1 SLOAD PUSH2 0x35E SWAP1 PUSH2 0x151E JUMP JUMPDEST DUP1 PUSH1 0x1F ADD PUSH1 0x20 DUP1 SWAP2 DIV MUL PUSH1 0x20 ADD PUSH1 0x40 MLOAD SWAP1 DUP2 ADD PUSH1 0x40 MSTORE DUP1 SWAP3 SWAP2 SWAP1 DUP2 DUP2 MSTORE PUSH1 0x20 ADD DUP3 DUP1 SLOAD PUSH2 0x38A SWAP1 PUSH2 0x151E JUMP JUMPDEST DUP1 ISZERO PUSH2 0x3D7 JUMPI DUP1 PUSH1 0x1F LT PUSH2 0x3AC JUMPI PUSH2 0x100 DUP1 DUP4 SLOAD DIV MUL DUP4 MSTORE SWAP2 PUSH1 0x20 ADD SWAP2 PUSH2 0x3D7 JUMP JUMPDEST DUP3 ADD SWAP2 SWAP1 PUSH1 0x0 MSTORE PUSH1 0x20 PUSH1 0x0 KECCAK256 SWAP1 JUMPDEST DUP2 SLOAD DUP2 MSTORE SWAP1 PUSH1 0x1 ADD SWAP1 PUSH1 0x20 ADD DUP1 DUP4 GT PUSH2 0x3BA JUMPI DUP3 SWAP1 SUB PUSH1 0x1F AND DUP3 ADD SWAP2 JUMPDEST POP POP POP POP POP DUP2 MSTORE PUSH1 0x20 ADD SWAP1 PUSH1 0x1 ADD SWAP1 PUSH2 0x33F JUMP JUMPDEST POP POP POP POP DUP2 MSTORE POP POP SWAP1 POP SWAP2 SWAP1 POP JUMP JUMPDEST PUSH2 0x402 PUSH2 0xC4A JUMP JUMPDEST PUSH1 0x1 DUP1 DUP4 PUSH2 0x410 SWAP2 SWAP1 PUSH2 0x157E JUMP JUMPDEST DUP2 SLOAD DUP2 LT PUSH2 0x421 JUMPI PUSH2 0x420 PUSH2 0x15B2 JUMP JUMPDEST JUMPDEST SWAP1 PUSH1 0x0 MSTORE PUSH1 0x20 PUSH1 0x0 KECCAK256 SWAP1 PUSH1 0x5 MUL ADD PUSH1 0x40 MLOAD DUP1 PUSH1 0xA0 ADD PUSH1 0x40 MSTORE SWAP1 DUP2 PUSH1 0x0 DUP3 ADD DUP1 SLOAD PUSH2 0x44A SWAP1 PUSH2 0x151E JUMP JUMPDEST DUP1 PUSH1 0x1F ADD PUSH1 0x20 DUP1 SWAP2 DIV MUL PUSH1 0x20 ADD PUSH1 0x40 MLOAD SWAP1 DUP2 ADD PUSH1 0x40 MSTORE DUP1 SWAP3 SWAP2 SWAP1 DUP2 DUP2 MSTORE PUSH1 0x20 ADD DUP3 DUP1 SLOAD PUSH2 0x476 SWAP1 PUSH2 0x151E JUMP JUMPDEST DUP1 ISZERO PUSH2 0x4C3 JUMPI DUP1 PUSH1 0x1F LT PUSH2 0x498 JUMPI PUSH2 0x100 DUP1 DUP4 SLOAD DIV MUL DUP4 MSTORE SWAP2 PUSH1 0x20 ADD SWAP2 PUSH2 0x4C3 JUMP JUMPDEST DUP3 ADD SWAP2 SWAP1 PUSH1 0x0 MSTORE PUSH1 0x20 PUSH1 0x0 KECCAK256 SWAP1 JUMPDEST DUP2 SLOAD DUP2 MSTORE SWAP1 PUSH1 0x1 ADD SWAP1 PUSH1 0x20 ADD DUP1 DUP4 GT PUSH2 0x4A6 JUMPI DUP3 SWAP1 SUB PUSH1 0x1F AND DUP3 ADD SWAP2 JUMPDEST POP POP POP POP POP DUP2 MSTORE PUSH1 0x20 ADD PUSH1 0x1 DUP3 ADD SLOAD DUP2 MSTORE PUSH1 0x20 ADD PUSH1 0x2 DUP3 ADD SLOAD DUP2 MSTORE PUSH1 0x20 ADD PUSH1 0x3 DUP3 ADD DUP1 SLOAD PUSH2 0x4F0 SWAP1 PUSH2 0x151E JUMP JUMPDEST DUP1 PUSH1 0x1F ADD PUSH1 0x20 DUP1 SWAP2 DIV MUL PUSH1 0x20 ADD PUSH1 0x40 MLOAD SWAP1 DUP2 ADD PUSH1 0x40 MSTORE DUP1 SWAP3 SWAP2 SWAP1 DUP2 DUP2 MSTORE PUSH1 0x20 ADD DUP3 DUP1 SLOAD PUSH2 0x51C SWAP1 PUSH2 0x151E JUMP JUMPDEST DUP1 ISZERO PUSH2 0x569 JUMPI DUP1 PUSH1 0x1F LT PUSH2 0x53E JUMPI PUSH2 0x100 DUP1 DUP4 SLOAD DIV MUL DUP4 MSTORE SWAP2 PUSH1 0x20 ADD SWAP2 PUSH2 0x569 JUMP JUMPDEST DUP3 ADD SWAP2 SWAP1 PUSH1 0x0 MSTORE PUSH1 0x20 PUSH1 0x0 KECCAK256 SWAP1 JUMPDEST DUP2 SLOAD DUP2 MSTORE SWAP1 PUSH1 0x1 ADD SWAP1 PUSH1 0x20 ADD DUP1 DUP4 GT PUSH2 0x54C JUMPI DUP3 SWAP1 SUB PUSH1 0x1F AND DUP3 ADD SWAP2 JUMPDEST POP POP POP POP POP DUP2 MSTORE PUSH1 0x20 ADD PUSH1 0x4 DUP3 ADD DUP1 SLOAD DUP1 PUSH1 0x20 MUL PUSH1 0x20 ADD PUSH1 0x40 MLOAD SWAP1 DUP2 ADD PUSH1 0x40 MSTORE DUP1 SWAP3 SWAP2 SWAP1 DUP2 DUP2 MSTORE PUSH1 0x20 ADD PUSH1 0x0 SWAP1 JUMPDEST DUP3 DUP3 LT ISZERO PUSH2 0x643 JUMPI DUP4 DUP3 SWAP1 PUSH1 0x0 MSTORE PUSH1 0x20 PUSH1 0x0 KECCAK256 ADD DUP1 SLOAD PUSH2 0x5B6 SWAP1 PUSH2 0x151E JUMP JUMPDEST DUP1 PUSH1 0x1F ADD PUSH1 0x20 DUP1 SWAP2 DIV MUL PUSH1 0x20 ADD PUSH1 0x40 MLOAD SWAP1 DUP2 ADD PUSH1 0x40 MSTORE DUP1 SWAP3 SWAP2 SWAP1 DUP2 DUP2 MSTORE PUSH1 0x20 ADD DUP3 DUP1 SLOAD PUSH2 0x5E2 SWAP1 PUSH2 0x151E JUMP JUMPDEST DUP1 ISZERO PUSH2 0x62F JUMPI DUP1 PUSH1 0x1F LT PUSH2 0x604 JUMPI PUSH2 0x100 DUP1 DUP4 SLOAD DIV MUL DUP4 MSTORE SWAP2 PUSH1 0x20 ADD SWAP2 PUSH2 0x62F JUMP JUMPDEST DUP3 ADD SWAP2 SWAP1 PUSH1 0x0 MSTORE PUSH1 0x20 PUSH1 0x0 KECCAK256 SWAP1 JUMPDEST DUP2 SLOAD DUP2 MSTORE SWAP1 PUSH1 0x1 ADD SWAP1 PUSH1 0x20 ADD DUP1 DUP4 GT PUSH2 0x612 JUMPI DUP3 SWAP1 SUB PUSH1 0x1F AND DUP3 ADD SWAP2 JUMPDEST POP POP POP POP POP DUP2 MSTORE PUSH1 0x20 ADD SWAP1 PUSH1 0x1 ADD SWAP1 PUSH2 0x597 JUMP JUMPDEST POP POP POP POP DUP2 MSTORE POP POP SWAP1 POP SWAP2 SWAP1 POP JUMP JUMPDEST PUSH1 0x60 PUSH1 0x1 DUP1 SLOAD DUP1 PUSH1 0x20 MUL PUSH1 0x20 ADD PUSH1 0x40 MLOAD SWAP1 DUP2 ADD PUSH1 0x40 MSTORE DUP1 SWAP3 SWAP2 SWAP1 DUP2 DUP2 MSTORE PUSH1 0x20 ADD PUSH1 0x0 SWAP1 JUMPDEST DUP3 DUP3 LT ISZERO PUSH2 0x8B9 JUMPI DUP4 DUP3 SWAP1 PUSH1 0x0 MSTORE PUSH1 0x20 PUSH1 0x0 KECCAK256 SWAP1 PUSH1 0x5 MUL ADD PUSH1 0x40 MLOAD DUP1 PUSH1 0xA0 ADD PUSH1 0x40 MSTORE SWAP1 DUP2 PUSH1 0x0 DUP3 ADD DUP1 SLOAD PUSH2 0x6A9 SWAP1 PUSH2 0x151E JUMP JUMPDEST DUP1 PUSH1 0x1F ADD PUSH1 0x20 DUP1 SWAP2 DIV MUL PUSH1 0x20 ADD PUSH1 0x40 MLOAD SWAP1 DUP2 ADD PUSH1 0x40 MSTORE DUP1 SWAP3 SWAP2 SWAP1 DUP2 DUP2 MSTORE PUSH1 0x20 ADD DUP3 DUP1 SLOAD PUSH2 0x6D5 SWAP1 PUSH2 0x151E JUMP JUMPDEST DUP1 ISZERO PUSH2 0x722 JUMPI DUP1 PUSH1 0x1F LT PUSH2 0x6F7 JUMPI PUSH2 0x100 DUP1 DUP4 SLOAD DIV MUL DUP4 MSTORE SWAP2 PUSH1 0x20 ADD SWAP2 PUSH2 0x722 JUMP JUMPDEST DUP3 ADD SWAP2 SWAP1 PUSH1 0x0 MSTORE PUSH1 0x20 PUSH1 0x0 KECCAK256 SWAP1 JUMPDEST DUP2 SLOAD DUP2 MSTORE SWAP1 PUSH1 0x1 ADD SWAP1 PUSH1 0x20 ADD DUP1 DUP4 GT PUSH2 0x705 JUMPI DUP3 SWAP1 SUB PUSH1 0x1F AND DUP3 ADD SWAP2 JUMPDEST POP POP POP POP POP DUP2 MSTORE PUSH1 0x20 ADD PUSH1 0x1 DUP3 ADD SLOAD DUP2 MSTORE PUSH1 0x20 ADD PUSH1 0x2 DUP3 ADD SLOAD DUP2 MSTORE PUSH1 0x20 ADD PUSH1 0x3 DUP3 ADD DUP1 SLOAD PUSH2 0x74F SWAP1 PUSH2 0x151E JUMP JUMPDEST DUP1 PUSH1 0x1F ADD PUSH1 0x20 DUP1 SWAP2 DIV MUL PUSH1 0x20 ADD PUSH1 0x40 MLOAD SWAP1 DUP2 ADD PUSH1 0x40 MSTORE DUP1 SWAP3 SWAP2 SWAP1 DUP2 DUP2 MSTORE PUSH1 0x20 ADD DUP3 DUP1 SLOAD PUSH2 0x77B SWAP1 PUSH2 0x151E JUMP JUMPDEST DUP1 ISZERO PUSH2 0x7C8 JUMPI DUP1 PUSH1 0x1F LT PUSH2 0x79D JUMPI PUSH2 0x100 DUP1 DUP4 SLOAD DIV MUL DUP4 MSTORE SWAP2 PUSH1 0x20 ADD SWAP2 PUSH2 0x7C8 JUMP JUMPDEST DUP3 ADD SWAP2 SWAP1 PUSH1 0x0 MSTORE PUSH1 0x20 PUSH1 0x0 KECCAK256 SWAP1 JUMPDEST DUP2 SLOAD DUP2 MSTORE SWAP1 PUSH1 0x1 ADD SWAP1 PUSH1 0x20 ADD DUP1 DUP4 GT PUSH2 0x7AB JUMPI DUP3 SWAP1 SUB PUSH1 0x1F AND DUP3 ADD SWAP2 JUMPDEST POP POP POP POP POP DUP2 MSTORE PUSH1 0x20 ADD PUSH1 0x4 DUP3 ADD DUP1 SLOAD DUP1 PUSH1 0x20 MUL PUSH1 0x20 ADD PUSH1 0x40 MLOAD SWAP1 DUP2 ADD PUSH1 0x40 MSTORE DUP1 SWAP3 SWAP2 SWAP1 DUP2 DUP2 MSTORE PUSH1 0x20 ADD PUSH1 0x0 SWAP1 JUMPDEST DUP3 DUP3 LT ISZERO PUSH2 0x8A2 JUMPI DUP4 DUP3 SWAP1 PUSH1 0x0 MSTORE PUSH1 0x20 PUSH1 0x0 KECCAK256 ADD DUP1 SLOAD PUSH2 0x815 SWAP1 PUSH2 0x151E JUMP JUMPDEST DUP1 PUSH1 0x1F ADD PUSH1 0x20 DUP1 SWAP2 DIV MUL PUSH1 0x20 ADD PUSH1 0x40 MLOAD SWAP1 DUP2 ADD PUSH1 0x40 MSTORE DUP1 SWAP3 SWAP2 SWAP1 DUP2 DUP2 MSTORE PUSH1 0x20 ADD DUP3 DUP1 SLOAD PUSH2 0x841 SWAP1 PUSH2 0x151E JUMP JUMPDEST DUP1 ISZERO PUSH2 0x88E JUMPI DUP1 PUSH1 0x1F LT PUSH2 0x863 JUMPI PUSH2 0x100 DUP1 DUP4 SLOAD DIV MUL DUP4 MSTORE SWAP2 PUSH1 0x20 ADD SWAP2 PUSH2 0x88E JUMP JUMPDEST DUP3 ADD SWAP2 SWAP1 PUSH1 0x0 MSTORE PUSH1 0x20 PUSH1 0x0 KECCAK256 SWAP1 JUMPDEST DUP2 SLOAD DUP2 MSTORE SWAP1 PUSH1 0x1 ADD SWAP1 PUSH1 0x20 ADD DUP1 DUP4 GT PUSH2 0x871 JUMPI DUP3 SWAP1 SUB PUSH1 0x1F AND DUP3 ADD SWAP2 JUMPDEST POP POP POP POP POP DUP2 MSTORE PUSH1 0x20 ADD SWAP1 PUSH1 0x1 ADD SWAP1 PUSH2 0x7F6 JUMP JUMPDEST POP POP POP POP DUP2 MSTORE POP POP DUP2 MSTORE PUSH1 0x20 ADD SWAP1 PUSH1 0x1 ADD SWAP1 PUSH2 0x676 JUMP JUMPDEST POP POP POP POP SWAP1 POP SWAP1 JUMP JUMPDEST PUSH1 0x0 PUSH1 0x1 DUP1 SLOAD SWAP1 POP SWAP1 POP SWAP1 JUMP JUMPDEST PUSH1 0x0 DUP1 PUSH1 0x0 DUP1 PUSH1 0x0 SWAP1 POP JUMPDEST PUSH1 0x1 DUP1 SLOAD SWAP1 POP DUP2 LT ISZERO PUSH2 0x92D JUMPI PUSH1 0x1 DUP2 DUP2 SLOAD DUP2 LT PUSH2 0x8FB JUMPI PUSH2 0x8FA PUSH2 0x15B2 JUMP JUMPDEST JUMPDEST SWAP1 PUSH1 0x0 MSTORE PUSH1 0x20 PUSH1 0x0 KECCAK256 SWAP1 PUSH1 0x5 MUL ADD PUSH1 0x2 ADD SLOAD DUP4 PUSH2 0x918 SWAP2 SWAP1 PUSH2 0x15E1 JUMP JUMPDEST SWAP3 POP DUP1 DUP1 PUSH2 0x925 SWAP1 PUSH2 0x1615 JUMP JUMPDEST SWAP2 POP POP PUSH2 0x8DA JUMP JUMPDEST POP PUSH1 0x1 DUP1 SLOAD SWAP1 POP DUP3 PUSH2 0x93F SWAP2 SWAP1 PUSH2 0x168C JUMP JUMPDEST SWAP1 POP DUP1 SWAP3 POP POP POP SWAP1 JUMP JUMPDEST PUSH1 0x0 DUP1 DUP3 PUSH1 0x40 MLOAD PUSH2 0x95A SWAP2 SWAP1 PUSH2 0x14D8 JUMP JUMPDEST SWAP1 DUP2 MSTORE PUSH1 0x20 ADD PUSH1 0x40 MLOAD DUP1 SWAP2 SUB SWAP1 KECCAK256 PUSH1 0x2 ADD SLOAD SWAP1 POP SWAP2 SWAP1 POP JUMP JUMPDEST PUSH1 0x60 PUSH1 0x5A DUP4 LT PUSH2 0x9BA JUMPI PUSH1 0x40 MLOAD DUP1 PUSH1 0x40 ADD PUSH1 0x40 MSTORE DUP1 PUSH1 0x1 DUP2 MSTORE PUSH1 0x20 ADD PUSH32 0x4100000000000000000000000000000000000000000000000000000000000000 DUP2 MSTORE POP SWAP1 POP PUSH2 0xAC5 JUMP JUMPDEST PUSH1 0x50 DUP4 LT PUSH2 0x9FF JUMPI PUSH1 0x40 MLOAD DUP1 PUSH1 0x40 ADD PUSH1 0x40 MSTORE DUP1 PUSH1 0x1 DUP2 MSTORE PUSH1 0x20 ADD PUSH32 0x4200000000000000000000000000000000000000000000000000000000000000 DUP2 MSTORE POP SWAP1 POP PUSH2 0xAC4 JUMP JUMPDEST PUSH1 0x46 DUP4 LT PUSH2 0xA44 JUMPI PUSH1 0x40 MLOAD DUP1 PUSH1 0x40 ADD PUSH1 0x40 MSTORE DUP1 PUSH1 0x1 DUP2 MSTORE PUSH1 0x20 ADD PUSH32 0x4300000000000000000000000000000000000000000000000000000000000000 DUP2 MSTORE POP SWAP1 POP PUSH2 0xAC3 JUMP JUMPDEST PUSH1 0x3C DUP4 LT PUSH2 0xA89 JUMPI PUSH1 0x40 MLOAD DUP1 PUSH1 0x40 ADD PUSH1 0x40 MSTORE DUP1 PUSH1 0x1 DUP2 MSTORE PUSH1 0x20 ADD PUSH32 0x4400000000000000000000000000000000000000000000000000000000000000 DUP2 MSTORE POP SWAP1 POP PUSH2 0xAC2 JUMP JUMPDEST PUSH1 0x40 MLOAD DUP1 PUSH1 0x40 ADD PUSH1 0x40 MSTORE DUP1 PUSH1 0x1 DUP2 MSTORE PUSH1 0x20 ADD PUSH32 0x4600000000000000000000000000000000000000000000000000000000000000 DUP2 MSTORE POP SWAP1 POP JUMPDEST JUMPDEST JUMPDEST JUMPDEST PUSH1 0x40 MLOAD DUP1 PUSH1 0xA0 ADD PUSH1 0x40 MSTORE DUP1 DUP7 DUP2 MSTORE PUSH1 0x20 ADD DUP6 DUP2 MSTORE PUSH1 0x20 ADD DUP5 DUP2 MSTORE PUSH1 0x20 ADD DUP3 DUP2 MSTORE PUSH1 0x20 ADD DUP4 DUP2 MSTORE POP PUSH1 0x0 DUP7 PUSH1 0x40 MLOAD PUSH2 0xAFC SWAP2 SWAP1 PUSH2 0x14D8 JUMP JUMPDEST SWAP1 DUP2 MSTORE PUSH1 0x20 ADD PUSH1 0x40 MLOAD DUP1 SWAP2 SUB SWAP1 KECCAK256 PUSH1 0x0 DUP3 ADD MLOAD DUP2 PUSH1 0x0 ADD SWAP1 DUP2 PUSH2 0xB1F SWAP2 SWAP1 PUSH2 0x1869 JUMP JUMPDEST POP PUSH1 0x20 DUP3 ADD MLOAD DUP2 PUSH1 0x1 ADD SSTORE PUSH1 0x40 DUP3 ADD MLOAD DUP2 PUSH1 0x2 ADD SSTORE PUSH1 0x60 DUP3 ADD MLOAD DUP2 PUSH1 0x3 ADD SWAP1 DUP2 PUSH2 0xB49 SWAP2 SWAP1 PUSH2 0x1869 JUMP JUMPDEST POP PUSH1 0x80 DUP3 ADD MLOAD DUP2 PUSH1 0x4 ADD SWAP1 DUP1 MLOAD SWAP1 PUSH1 0x20 ADD SWAP1 PUSH2 0xB66 SWAP3 SWAP2 SWAP1 PUSH2 0xC79 JUMP JUMPDEST POP SWAP1 POP POP PUSH1 0x1 PUSH1 0x40 MLOAD DUP1 PUSH1 0xA0 ADD PUSH1 0x40 MSTORE DUP1 DUP8 DUP2 MSTORE PUSH1 0x20 ADD DUP7 DUP2 MSTORE PUSH1 0x20 ADD DUP6 DUP2 MSTORE PUSH1 0x20 ADD DUP4 DUP2 MSTORE PUSH1 0x20 ADD DUP5 DUP2 MSTORE POP SWAP1 DUP1 PUSH1 0x1 DUP2 SLOAD ADD DUP1 DUP3 SSTORE DUP1 SWAP2 POP POP PUSH1 0x1 SWAP1 SUB SWAP1 PUSH1 0x0 MSTORE PUSH1 0x20 PUSH1 0x0 KECCAK256 SWAP1 PUSH1 0x5 MUL ADD PUSH1 0x0 SWAP1 SWAP2 SWAP1 SWAP2 SWAP1 SWAP2 POP PUSH1 0x0 DUP3 ADD MLOAD DUP2 PUSH1 0x0 ADD SWAP1 DUP2 PUSH2 0xBD1 SWAP2 SWAP1 PUSH2 0x1869 JUMP JUMPDEST POP PUSH1 0x20 DUP3 ADD MLOAD DUP2 PUSH1 0x1 ADD SSTORE PUSH1 0x40 DUP3 ADD MLOAD DUP2 PUSH1 0x2 ADD SSTORE PUSH1 0x60 DUP3 ADD MLOAD DUP2 PUSH1 0x3 ADD SWAP1 DUP2 PUSH2 0xBFB SWAP2 SWAP1 PUSH2 0x1869 JUMP JUMPDEST POP PUSH1 0x80 DUP3 ADD MLOAD DUP2 PUSH1 0x4 ADD SWAP1 DUP1 MLOAD SWAP1 PUSH1 0x20 ADD SWAP1 PUSH2 0xC18 SWAP3 SWAP2 SWAP1 PUSH2 0xC79 JUMP JUMPDEST POP POP POP POP POP POP POP POP JUMP JUMPDEST PUSH1 0x0 DUP1 PUSH2 0xC2D PUSH2 0x8CF JUMP JUMPDEST SWAP1 POP PUSH1 0x46 DUP2 LT PUSH2 0xC41 JUMPI PUSH1 0x1 SWAP2 POP POP PUSH2 0xC47 JUMP JUMPDEST PUSH1 0x0 SWAP2 POP POP JUMPDEST SWAP1 JUMP JUMPDEST PUSH1 0x40 MLOAD DUP1 PUSH1 0xA0 ADD PUSH1 0x40 MSTORE DUP1 PUSH1 0x60 DUP2 MSTORE PUSH1 0x20 ADD PUSH1 0x0 DUP2 MSTORE PUSH1 0x20 ADD PUSH1 0x0 DUP2 MSTORE PUSH1 0x20 ADD PUSH1 0x60 DUP2 MSTORE PUSH1 0x20 ADD PUSH1 0x60 DUP2 MSTORE POP SWAP1 JUMP JUMPDEST DUP3 DUP1 SLOAD DUP3 DUP3 SSTORE SWAP1 PUSH1 0x0 MSTORE PUSH1 0x20 PUSH1 0x0 KECCAK256 SWAP1 DUP2 ADD SWAP3 DUP3 ISZERO PUSH2 0xCC1 JUMPI SWAP2 PUSH1 0x20 MUL DUP3 ADD JUMPDEST DUP3 DUP2 GT ISZERO PUSH2 0xCC0 JUMPI DUP3 MLOAD DUP3 SWAP1 DUP2 PUSH2 0xCB0 SWAP2 SWAP1 PUSH2 0x1869 JUMP JUMPDEST POP SWAP2 PUSH1 0x20 ADD SWAP2 SWAP1 PUSH1 0x1 ADD SWAP1 PUSH2 0xC99 JUMP JUMPDEST JUMPDEST POP SWAP1 POP PUSH2 0xCCE SWAP2 SWAP1 PUSH2 0xCD2 JUMP JUMPDEST POP SWAP1 JUMP JUMPDEST JUMPDEST DUP1 DUP3 GT ISZERO PUSH2 0xCF2 JUMPI PUSH1 0x0 DUP2 DUP2 PUSH2 0xCE9 SWAP2 SWAP1 PUSH2 0xCF6 JUMP JUMPDEST POP PUSH1 0x1 ADD PUSH2 0xCD3 JUMP JUMPDEST POP SWAP1 JUMP JUMPDEST POP DUP1 SLOAD PUSH2 0xD02 SWAP1 PUSH2 0x151E JUMP JUMPDEST PUSH1 0x0 DUP3 SSTORE DUP1 PUSH1 0x1F LT PUSH2 0xD14 JUMPI POP PUSH2 0xD33 JUMP JUMPDEST PUSH1 0x1F ADD PUSH1 0x20 SWAP1 DIV SWAP1 PUSH1 0x0 MSTORE PUSH1 0x20 PUSH1 0x0 KECCAK256 SWAP1 DUP2 ADD SWAP1 PUSH2 0xD32 SWAP2 SWAP1 PUSH2 0xD36 JUMP JUMPDEST JUMPDEST POP JUMP JUMPDEST JUMPDEST DUP1 DUP3 GT ISZERO PUSH2 0xD4F JUMPI PUSH1 0x0 DUP2 PUSH1 0x0 SWAP1 SSTORE POP PUSH1 0x1 ADD PUSH2 0xD37 JUMP JUMPDEST POP SWAP1 JUMP JUMPDEST PUSH1 0x0 PUSH1 0x40 MLOAD SWAP1 POP SWAP1 JUMP JUMPDEST PUSH1 0x0 DUP1 REVERT JUMPDEST PUSH1 0x0 DUP1 REVERT JUMPDEST PUSH1 0x0 DUP1 REVERT JUMPDEST PUSH1 0x0 DUP1 REVERT JUMPDEST PUSH1 0x0 PUSH1 0x1F NOT PUSH1 0x1F DUP4 ADD AND SWAP1 POP SWAP2 SWAP1 POP JUMP JUMPDEST PUSH32 0x4E487B7100000000000000000000000000000000000000000000000000000000 PUSH1 0x0 MSTORE PUSH1 0x41 PUSH1 0x4 MSTORE PUSH1 0x24 PUSH1 0x0 REVERT JUMPDEST PUSH2 0xDBA DUP3 PUSH2 0xD71 JUMP JUMPDEST DUP2 ADD DUP2 DUP2 LT PUSH8 0xFFFFFFFFFFFFFFFF DUP3 GT OR ISZERO PUSH2 0xDD9 JUMPI PUSH2 0xDD8 PUSH2 0xD82 JUMP JUMPDEST JUMPDEST DUP1 PUSH1 0x40 MSTORE POP POP POP JUMP JUMPDEST PUSH1 0x0 PUSH2 0xDEC PUSH2 0xD53 JUMP JUMPDEST SWAP1 POP PUSH2 0xDF8 DUP3 DUP3 PUSH2 0xDB1 JUMP JUMPDEST SWAP2 SWAP1 POP JUMP JUMPDEST PUSH1 0x0 PUSH8 0xFFFFFFFFFFFFFFFF DUP3 GT ISZERO PUSH2 0xE18 JUMPI PUSH2 0xE17 PUSH2 0xD82 JUMP JUMPDEST JUMPDEST PUSH2 0xE21 DUP3 PUSH2 0xD71 JUMP JUMPDEST SWAP1 POP PUSH1 0x20 DUP2 ADD SWAP1 POP SWAP2 SWAP1 POP JUMP JUMPDEST DUP3 DUP2 DUP4 CALLDATACOPY PUSH1 0x0 DUP4 DUP4 ADD MSTORE POP POP POP JUMP JUMPDEST PUSH1 0x0 PUSH2 0xE50 PUSH2 0xE4B DUP5 PUSH2 0xDFD JUMP JUMPDEST PUSH2 0xDE2 JUMP JUMPDEST SWAP1 POP DUP3 DUP2 MSTORE PUSH1 0x20 DUP2 ADD DUP5 DUP5 DUP5 ADD GT ISZERO PUSH2 0xE6C JUMPI PUSH2 0xE6B PUSH2 0xD6C JUMP JUMPDEST JUMPDEST PUSH2 0xE77 DUP5 DUP3 DUP6 PUSH2 0xE2E JUMP JUMPDEST POP SWAP4 SWAP3 POP POP POP JUMP JUMPDEST PUSH1 0x0 DUP3 PUSH1 0x1F DUP4 ADD SLT PUSH2 0xE94 JUMPI PUSH2 0xE93 PUSH2 0xD67 JUMP JUMPDEST JUMPDEST DUP2 CALLDATALOAD PUSH2 0xEA4 DUP5 DUP3 PUSH1 0x20 DUP7 ADD PUSH2 0xE3D JUMP JUMPDEST SWAP2 POP POP SWAP3 SWAP2 POP POP JUMP JUMPDEST PUSH1 0x0 PUSH1 0x20 DUP3 DUP5 SUB SLT ISZERO PUSH2 0xEC3 JUMPI PUSH2 0xEC2 PUSH2 0xD5D JUMP JUMPDEST JUMPDEST PUSH1 0x0 DUP3 ADD CALLDATALOAD PUSH8 0xFFFFFFFFFFFFFFFF DUP2 GT ISZERO PUSH2 0xEE1 JUMPI PUSH2 0xEE0 PUSH2 0xD62 JUMP JUMPDEST JUMPDEST PUSH2 0xEED DUP5 DUP3 DUP6 ADD PUSH2 0xE7F JUMP JUMPDEST SWAP2 POP POP SWAP3 SWAP2 POP POP JUMP JUMPDEST PUSH1 0x0 DUP2 MLOAD SWAP1 POP SWAP2 SWAP1 POP JUMP JUMPDEST PUSH1 0x0 DUP3 DUP3 MSTORE PUSH1 0x20 DUP3 ADD SWAP1 POP SWAP3 SWAP2 POP POP JUMP JUMPDEST PUSH1 0x0 JUMPDEST DUP4 DUP2 LT ISZERO PUSH2 0xF30 JUMPI DUP1 DUP3 ADD MLOAD DUP2 DUP5 ADD MSTORE PUSH1 0x20 DUP2 ADD SWAP1 POP PUSH2 0xF15 JUMP JUMPDEST PUSH1 0x0 DUP5 DUP5 ADD MSTORE POP POP POP POP JUMP JUMPDEST PUSH1 0x0 PUSH2 0xF47 DUP3 PUSH2 0xEF6 JUMP JUMPDEST PUSH2 0xF51 DUP2 DUP6 PUSH2 0xF01 JUMP JUMPDEST SWAP4 POP PUSH2 0xF61 DUP2 DUP6 PUSH1 0x20 DUP7 ADD PUSH2 0xF12 JUMP JUMPDEST PUSH2 0xF6A DUP2 PUSH2 0xD71 JUMP JUMPDEST DUP5 ADD SWAP2 POP POP SWAP3 SWAP2 POP POP JUMP JUMPDEST PUSH1 0x0 DUP2 SWAP1 POP SWAP2 SWAP1 POP JUMP JUMPDEST PUSH2 0xF88 DUP2 PUSH2 0xF75 JUMP JUMPDEST DUP3 MSTORE POP POP JUMP JUMPDEST PUSH1 0x0 DUP2 MLOAD SWAP1 POP SWAP2 SWAP1 POP JUMP JUMPDEST PUSH1 0x0 DUP3 DUP3 MSTORE PUSH1 0x20 DUP3 ADD SWAP1 POP SWAP3 SWAP2 POP POP JUMP JUMPDEST PUSH1 0x0 DUP2 SWAP1 POP PUSH1 0x20 DUP3 ADD SWAP1 POP SWAP2 SWAP1 POP JUMP JUMPDEST PUSH1 0x0 PUSH2 0xFC6 DUP4 DUP4 PUSH2 0xF3C JUMP JUMPDEST SWAP1 POP SWAP3 SWAP2 POP POP JUMP JUMPDEST PUSH1 0x0 PUSH1 0x20 DUP3 ADD SWAP1 POP SWAP2 SWAP1 POP JUMP JUMPDEST PUSH1 0x0 PUSH2 0xFE6 DUP3 PUSH2 0xF8E JUMP JUMPDEST PUSH2 0xFF0 DUP2 DUP6 PUSH2 0xF99 JUMP JUMPDEST SWAP4 POP DUP4 PUSH1 0x20 DUP3 MUL DUP6 ADD PUSH2 0x1002 DUP6 PUSH2 0xFAA JUMP JUMPDEST DUP1 PUSH1 0x0 JUMPDEST DUP6 DUP2 LT ISZERO PUSH2 0x103E JUMPI DUP5 DUP5 SUB DUP10 MSTORE DUP2 MLOAD PUSH2 0x101F DUP6 DUP3 PUSH2 0xFBA JUMP JUMPDEST SWAP5 POP PUSH2 0x102A DUP4 PUSH2 0xFCE JUMP JUMPDEST SWAP3 POP PUSH1 0x20 DUP11 ADD SWAP10 POP POP PUSH1 0x1 DUP2 ADD SWAP1 POP PUSH2 0x1006 JUMP JUMPDEST POP DUP3 SWAP8 POP DUP8 SWAP6 POP POP POP POP POP POP SWAP3 SWAP2 POP POP JUMP JUMPDEST PUSH1 0x0 PUSH1 0xA0 DUP4 ADD PUSH1 0x0 DUP4 ADD MLOAD DUP5 DUP3 SUB PUSH1 0x0 DUP7 ADD MSTORE PUSH2 0x106D DUP3 DUP3 PUSH2 0xF3C JUMP JUMPDEST SWAP2 POP POP PUSH1 0x20 DUP4 ADD MLOAD PUSH2 0x1082 PUSH1 0x20 DUP7 ADD DUP3 PUSH2 0xF7F JUMP JUMPDEST POP PUSH1 0x40 DUP4 ADD MLOAD PUSH2 0x1095 PUSH1 0x40 DUP7 ADD DUP3 PUSH2 0xF7F JUMP JUMPDEST POP PUSH1 0x60 DUP4 ADD MLOAD DUP5 DUP3 SUB PUSH1 0x60 DUP7 ADD MSTORE PUSH2 0x10AD DUP3 DUP3 PUSH2 0xF3C JUMP JUMPDEST SWAP2 POP POP PUSH1 0x80 DUP4 ADD MLOAD DUP5 DUP3 SUB PUSH1 0x80 DUP7 ADD MSTORE PUSH2 0x10C7 DUP3 DUP3 PUSH2 0xFDB JUMP JUMPDEST SWAP2 POP POP DUP1 SWAP2 POP POP SWAP3 SWAP2 POP POP JUMP JUMPDEST PUSH1 0x0 PUSH1 0x20 DUP3 ADD SWAP1 POP DUP2 DUP2 SUB PUSH1 0x0 DUP4 ADD MSTORE PUSH2 0x10EE DUP2 DUP5 PUSH2 0x1050 JUMP JUMPDEST SWAP1 POP SWAP3 SWAP2 POP POP JUMP JUMPDEST PUSH2 0x10FF DUP2 PUSH2 0xF75 JUMP JUMPDEST DUP2 EQ PUSH2 0x110A JUMPI PUSH1 0x0 DUP1 REVERT JUMPDEST POP JUMP JUMPDEST PUSH1 0x0 DUP2 CALLDATALOAD SWAP1 POP PUSH2 0x111C DUP2 PUSH2 0x10F6 JUMP JUMPDEST SWAP3 SWAP2 POP POP JUMP JUMPDEST PUSH1 0x0 PUSH1 0x20 DUP3 DUP5 SUB SLT ISZERO PUSH2 0x1138 JUMPI PUSH2 0x1137 PUSH2 0xD5D JUMP JUMPDEST JUMPDEST PUSH1 0x0 PUSH2 0x1146 DUP5 DUP3 DUP6 ADD PUSH2 0x110D JUMP JUMPDEST SWAP2 POP POP SWAP3 SWAP2 POP POP JUMP JUMPDEST PUSH1 0x0 DUP2 MLOAD SWAP1 POP SWAP2 SWAP1 POP JUMP JUMPDEST PUSH1 0x0 DUP3 DUP3 MSTORE PUSH1 0x20 DUP3 ADD SWAP1 POP SWAP3 SWAP2 POP POP JUMP JUMPDEST PUSH1 0x0 DUP2 SWAP1 POP PUSH1 0x20 DUP3 ADD SWAP1 POP SWAP2 SWAP1 POP JUMP JUMPDEST PUSH1 0x0 PUSH1 0xA0 DUP4 ADD PUSH1 0x0 DUP4 ADD MLOAD DUP5 DUP3 SUB PUSH1 0x0 DUP7 ADD MSTORE PUSH2 0x1198 DUP3 DUP3 PUSH2 0xF3C JUMP JUMPDEST SWAP2 POP POP PUSH1 0x20 DUP4 ADD MLOAD PUSH2 0x11AD PUSH1 0x20 DUP7 ADD DUP3 PUSH2 0xF7F JUMP JUMPDEST POP PUSH1 0x40 DUP4 ADD MLOAD PUSH2 0x11C0 PUSH1 0x40 DUP7 ADD DUP3 PUSH2 0xF7F JUMP JUMPDEST POP PUSH1 0x60 DUP4 ADD MLOAD DUP5 DUP3 SUB PUSH1 0x60 DUP7 ADD MSTORE PUSH2 0x11D8 DUP3 DUP3 PUSH2 0xF3C JUMP JUMPDEST SWAP2 POP POP PUSH1 0x80 DUP4 ADD MLOAD DUP5 DUP3 SUB PUSH1 0x80 DUP7 ADD MSTORE PUSH2 0x11F2 DUP3 DUP3 PUSH2 0xFDB JUMP JUMPDEST SWAP2 POP POP DUP1 SWAP2 POP POP SWAP3 SWAP2 POP POP JUMP JUMPDEST PUSH1 0x0 PUSH2 0x120B DUP4 DUP4 PUSH2 0x117B JUMP JUMPDEST SWAP1 POP SWAP3 SWAP2 POP POP JUMP JUMPDEST PUSH1 0x0 PUSH1 0x20 DUP3 ADD SWAP1 POP SWAP2 SWAP1 POP JUMP JUMPDEST PUSH1 0x0 PUSH2 0x122B DUP3 PUSH2 0x114F JUMP JUMPDEST PUSH2 0x1235 DUP2 DUP6 PUSH2 0x115A JUMP JUMPDEST SWAP4 POP DUP4 PUSH1 0x20 DUP3 MUL DUP6 ADD PUSH2 0x1247 DUP6 PUSH2 0x116B JUMP JUMPDEST DUP1 PUSH1 0x0 JUMPDEST DUP6 DUP2 LT ISZERO PUSH2 0x1283 JUMPI DUP5 DUP5 SUB DUP10 MSTORE DUP2 MLOAD PUSH2 0x1264 DUP6 DUP3 PUSH2 0x11FF JUMP JUMPDEST SWAP5 POP PUSH2 0x126F DUP4 PUSH2 0x1213 JUMP JUMPDEST SWAP3 POP PUSH1 0x20 DUP11 ADD SWAP10 POP POP PUSH1 0x1 DUP2 ADD SWAP1 POP PUSH2 0x124B JUMP JUMPDEST POP DUP3 SWAP8 POP DUP8 SWAP6 POP POP POP POP POP POP SWAP3 SWAP2 POP POP JUMP JUMPDEST PUSH1 0x0 PUSH1 0x20 DUP3 ADD SWAP1 POP DUP2 DUP2 SUB PUSH1 0x0 DUP4 ADD MSTORE PUSH2 0x12AF DUP2 DUP5 PUSH2 0x1220 JUMP JUMPDEST SWAP1 POP SWAP3 SWAP2 POP POP JUMP JUMPDEST PUSH2 0x12C0 DUP2 PUSH2 0xF75 JUMP JUMPDEST DUP3 MSTORE POP POP JUMP JUMPDEST PUSH1 0x0 PUSH1 0x20 DUP3 ADD SWAP1 POP PUSH2 0x12DB PUSH1 0x0 DUP4 ADD DUP5 PUSH2 0x12B7 JUMP JUMPDEST SWAP3 SWAP2 POP POP JUMP JUMPDEST PUSH1 0x0 PUSH8 0xFFFFFFFFFFFFFFFF DUP3 GT ISZERO PUSH2 0x12FC JUMPI PUSH2 0x12FB PUSH2 0xD82 JUMP JUMPDEST JUMPDEST PUSH1 0x20 DUP3 MUL SWAP1 POP PUSH1 0x20 DUP2 ADD SWAP1 POP SWAP2 SWAP1 POP JUMP JUMPDEST PUSH1 0x0 DUP1 REVERT JUMPDEST PUSH1 0x0 PUSH2 0x1325 PUSH2 0x1320 DUP5 PUSH2 0x12E1 JUMP JUMPDEST PUSH2 0xDE2 JUMP JUMPDEST SWAP1 POP DUP1 DUP4 DUP3 MSTORE PUSH1 0x20 DUP3 ADD SWAP1 POP PUSH1 0x20 DUP5 MUL DUP4 ADD DUP6 DUP2 GT ISZERO PUSH2 0x1348 JUMPI PUSH2 0x1347 PUSH2 0x130D JUMP JUMPDEST JUMPDEST DUP4 JUMPDEST DUP2 DUP2 LT ISZERO PUSH2 0x138F JUMPI DUP1 CALLDATALOAD PUSH8 0xFFFFFFFFFFFFFFFF DUP2 GT ISZERO PUSH2 0x136D JUMPI PUSH2 0x136C PUSH2 0xD67 JUMP JUMPDEST JUMPDEST DUP1 DUP7 ADD PUSH2 0x137A DUP10 DUP3 PUSH2 0xE7F JUMP JUMPDEST DUP6 MSTORE PUSH1 0x20 DUP6 ADD SWAP5 POP POP POP PUSH1 0x20 DUP2 ADD SWAP1 POP PUSH2 0x134A JUMP JUMPDEST POP POP POP SWAP4 SWAP3 POP POP POP JUMP JUMPDEST PUSH1 0x0 DUP3 PUSH1 0x1F DUP4 ADD SLT PUSH2 0x13AE JUMPI PUSH2 0x13AD PUSH2 0xD67 JUMP JUMPDEST JUMPDEST DUP2 CALLDATALOAD PUSH2 0x13BE DUP5 DUP3 PUSH1 0x20 DUP7 ADD PUSH2 0x1312 JUMP JUMPDEST SWAP2 POP POP SWAP3 SWAP2 POP POP JUMP JUMPDEST PUSH1 0x0 DUP1 PUSH1 0x0 DUP1 PUSH1 0x80 DUP6 DUP8 SUB SLT ISZERO PUSH2 0x13E1 JUMPI PUSH2 0x13E0 PUSH2 0xD5D JUMP JUMPDEST JUMPDEST PUSH1 0x0 DUP6 ADD CALLDATALOAD PUSH8 0xFFFFFFFFFFFFFFFF DUP2 GT ISZERO PUSH2 0x13FF JUMPI PUSH2 0x13FE PUSH2 0xD62 JUMP JUMPDEST JUMPDEST PUSH2 0x140B DUP8 DUP3 DUP9 ADD PUSH2 0xE7F JUMP JUMPDEST SWAP5 POP POP PUSH1 0x20 PUSH2 0x141C DUP8 DUP3 DUP9 ADD PUSH2 0x110D JUMP JUMPDEST SWAP4 POP POP PUSH1 0x40 PUSH2 0x142D DUP8 DUP3 DUP9 ADD PUSH2 0x110D JUMP JUMPDEST SWAP3 POP POP PUSH1 0x60 DUP6 ADD CALLDATALOAD PUSH8 0xFFFFFFFFFFFFFFFF DUP2 GT ISZERO PUSH2 0x144E JUMPI PUSH2 0x144D PUSH2 0xD62 JUMP JUMPDEST JUMPDEST PUSH2 0x145A DUP8 DUP3 DUP9 ADD PUSH2 0x1399 JUMP JUMPDEST SWAP2 POP POP SWAP3 SWAP6 SWAP2 SWAP5 POP SWAP3 POP JUMP JUMPDEST PUSH1 0x0 DUP2 ISZERO ISZERO SWAP1 POP SWAP2 SWAP1 POP JUMP JUMPDEST PUSH2 0x147B DUP2 PUSH2 0x1466 JUMP JUMPDEST DUP3 MSTORE POP POP JUMP JUMPDEST PUSH1 0x0 PUSH1 0x20 DUP3 ADD SWAP1 POP PUSH2 0x1496 PUSH1 0x0 DUP4 ADD DUP5 PUSH2 0x1472 JUMP JUMPDEST SWAP3 SWAP2 POP POP JUMP JUMPDEST PUSH1 0x0 DUP2 SWAP1 POP SWAP3 SWAP2 POP POP JUMP JUMPDEST PUSH1 0x0 PUSH2 0x14B2 DUP3 PUSH2 0xEF6 JUMP JUMPDEST PUSH2 0x14BC DUP2 DUP6 PUSH2 0x149C JUMP JUMPDEST SWAP4 POP PUSH2 0x14CC DUP2 DUP6 PUSH1 0x20 DUP7 ADD PUSH2 0xF12 JUMP JUMPDEST DUP1 DUP5 ADD SWAP2 POP POP SWAP3 SWAP2 POP POP JUMP JUMPDEST PUSH1 0x0 PUSH2 0x14E4 DUP3 DUP5 PUSH2 0x14A7 JUMP JUMPDEST SWAP2 POP DUP2 SWAP1 POP SWAP3 SWAP2 POP POP JUMP JUMPDEST PUSH32 0x4E487B7100000000000000000000000000000000000000000000000000000000 PUSH1 0x0 MSTORE PUSH1 0x22 PUSH1 0x4 MSTORE PUSH1 0x24 PUSH1 0x0 REVERT JUMPDEST PUSH1 0x0 PUSH1 0x2 DUP3 DIV SWAP1 POP PUSH1 0x1 DUP3 AND DUP1 PUSH2 0x1536 JUMPI PUSH1 0x7F DUP3 AND SWAP2 POP JUMPDEST PUSH1 0x20 DUP3 LT DUP2 SUB PUSH2 0x1549 JUMPI PUSH2 0x1548 PUSH2 0x14EF JUMP JUMPDEST JUMPDEST POP SWAP2 SWAP1 POP JUMP JUMPDEST PUSH32 0x4E487B7100000000000000000000000000000000000000000000000000000000 PUSH1 0x0 MSTORE PUSH1 0x11 PUSH1 0x4 MSTORE PUSH1 0x24 PUSH1 0x0 REVERT JUMPDEST PUSH1 0x0 PUSH2 0x1589 DUP3 PUSH2 0xF75 JUMP JUMPDEST SWAP2 POP PUSH2 0x1594 DUP4 PUSH2 0xF75 JUMP JUMPDEST SWAP3 POP DUP3 DUP3 SUB SWAP1 POP DUP2 DUP2 GT ISZERO PUSH2 0x15AC JUMPI PUSH2 0x15AB PUSH2 0x154F JUMP JUMPDEST JUMPDEST SWAP3 SWAP2 POP POP JUMP JUMPDEST PUSH32 0x4E487B7100000000000000000000000000000000000000000000000000000000 PUSH1 0x0 MSTORE PUSH1 0x32 PUSH1 0x4 MSTORE PUSH1 0x24 PUSH1 0x0 REVERT JUMPDEST PUSH1 0x0 PUSH2 0x15EC DUP3 PUSH2 0xF75 JUMP JUMPDEST SWAP2 POP PUSH2 0x15F7 DUP4 PUSH2 0xF75 JUMP JUMPDEST SWAP3 POP DUP3 DUP3 ADD SWAP1 POP DUP1 DUP3 GT ISZERO PUSH2 0x160F JUMPI PUSH2 0x160E PUSH2 0x154F JUMP JUMPDEST JUMPDEST SWAP3 SWAP2 POP POP JUMP JUMPDEST PUSH1 0x0 PUSH2 0x1620 DUP3 PUSH2 0xF75 JUMP JUMPDEST SWAP2 POP PUSH32 0xFFFFFFFFFFFFFFFFFFFFFFFFFFFFFFFFFFFFFFFFFFFFFFFFFFFFFFFFFFFFFFFF DUP3 SUB PUSH2 0x1652 JUMPI PUSH2 0x1651 PUSH2 0x154F JUMP JUMPDEST JUMPDEST PUSH1 0x1 DUP3 ADD SWAP1 POP SWAP2 SWAP1 POP JUMP JUMPDEST PUSH32 0x4E487B7100000000000000000000000000000000000000000000000000000000 PUSH1 0x0 MSTORE PUSH1 0x12 PUSH1 0x4 MSTORE PUSH1 0x24 PUSH1 0x0 REVERT JUMPDEST PUSH1 0x0 PUSH2 0x1697 DUP3 PUSH2 0xF75 JUMP JUMPDEST SWAP2 POP PUSH2 0x16A2 DUP4 PUSH2 0xF75 JUMP JUMPDEST SWAP3 POP DUP3 PUSH2 0x16B2 JUMPI PUSH2 0x16B1 PUSH2 0x165D JUMP JUMPDEST JUMPDEST DUP3 DUP3 DIV SWAP1 POP SWAP3 SWAP2 POP POP JUMP JUMPDEST PUSH1 0x0 DUP2 SWAP1 POP DUP2 PUSH1 0x0 MSTORE PUSH1 0x20 PUSH1 0x0 KECCAK256 SWAP1 POP SWAP2 SWAP1 POP JUMP JUMPDEST PUSH1 0x0 PUSH1 0x20 PUSH1 0x1F DUP4 ADD DIV SWAP1 POP SWAP2 SWAP1 POP JUMP JUMPDEST PUSH1 0x0 DUP3 DUP3 SHL SWAP1 POP SWAP3 SWAP2 POP POP JUMP JUMPDEST PUSH1 0x0 PUSH1 0x8 DUP4 MUL PUSH2 0x171F PUSH32 0xFFFFFFFFFFFFFFFFFFFFFFFFFFFFFFFFFFFFFFFFFFFFFFFFFFFFFFFFFFFFFFFF DUP3 PUSH2 0x16E2 JUMP JUMPDEST PUSH2 0x1729 DUP7 DUP4 PUSH2 0x16E2 JUMP JUMPDEST SWAP6 POP DUP1 NOT DUP5 AND SWAP4 POP DUP1 DUP7 AND DUP5 OR SWAP3 POP POP POP SWAP4 SWAP3 POP POP POP JUMP JUMPDEST PUSH1 0x0 DUP2 SWAP1 POP SWAP2 SWAP1 POP JUMP JUMPDEST PUSH1 0x0 PUSH2 0x1766 PUSH2 0x1761 PUSH2 0x175C DUP5 PUSH2 0xF75 JUMP JUMPDEST PUSH2 0x1741 JUMP JUMPDEST PUSH2 0xF75 JUMP JUMPDEST SWAP1 POP SWAP2 SWAP1 POP JUMP JUMPDEST PUSH1 0x0 DUP2 SWAP1 POP SWAP2 SWAP1 POP JUMP JUMPDEST PUSH2 0x1780 DUP4 PUSH2 0x174B JUMP JUMPDEST PUSH2 0x1794 PUSH2 0x178C DUP3 PUSH2 0x176D JUMP JUMPDEST DUP5 DUP5 SLOAD PUSH2 0x16EF JUMP JUMPDEST DUP3 SSTORE POP POP POP POP JUMP JUMPDEST PUSH1 0x0 SWAP1 JUMP JUMPDEST PUSH2 0x17A9 PUSH2 0x179C JUMP JUMPDEST PUSH2 0x17B4 DUP2 DUP5 DUP5 PUSH2 0x1777 JUMP JUMPDEST POP POP POP JUMP JUMPDEST JUMPDEST DUP2 DUP2 LT ISZERO PUSH2 0x17D8 JUMPI PUSH2 0x17CD PUSH1 0x0 DUP3 PUSH2 0x17A1 JUMP JUMPDEST PUSH1 0x1 DUP2 ADD SWAP1 POP PUSH2 0x17BA JUMP JUMPDEST POP POP JUMP JUMPDEST PUSH1 0x1F DUP3 GT ISZERO PUSH2 0x181D JUMPI PUSH2 0x17EE DUP2 PUSH2 0x16BD JUMP JUMPDEST PUSH2 0x17F7 DUP5 PUSH2 0x16D2 JUMP JUMPDEST DUP2 ADD PUSH1 0x20 DUP6 LT ISZERO PUSH2 0x1806 JUMPI DUP2 SWAP1 POP JUMPDEST PUSH2 0x181A PUSH2 0x1812 DUP6 PUSH2 0x16D2 JUMP JUMPDEST DUP4 ADD DUP3 PUSH2 0x17B9 JUMP JUMPDEST POP POP JUMPDEST POP POP POP JUMP JUMPDEST PUSH1 0x0 DUP3 DUP3 SHR SWAP1 POP SWAP3 SWAP2 POP POP JUMP JUMPDEST PUSH1 0x0 PUSH2 0x1840 PUSH1 0x0 NOT DUP5 PUSH1 0x8 MUL PUSH2 0x1822 JUMP JUMPDEST NOT DUP1 DUP4 AND SWAP2 POP POP SWAP3 SWAP2 POP POP JUMP JUMPDEST PUSH1 0x0 PUSH2 0x1859 DUP4 DUP4 PUSH2 0x182F JUMP JUMPDEST SWAP2 POP DUP3 PUSH1 0x2 MUL DUP3 OR SWAP1 POP SWAP3 SWAP2 POP POP JUMP JUMPDEST PUSH2 0x1872 DUP3 PUSH2 0xEF6 JUMP JUMPDEST PUSH8 0xFFFFFFFFFFFFFFFF DUP2 GT ISZERO PUSH2 0x188B JUMPI PUSH2 0x188A PUSH2 0xD82 JUMP JUMPDEST JUMPDEST PUSH2 0x1895 DUP3 SLOAD PUSH2 0x151E JUMP JUMPDEST PUSH2 0x18A0 DUP3 DUP3 DUP6 PUSH2 0x17DC JUMP JUMPDEST PUSH1 0x0 PUSH1 0x20 SWAP1 POP PUSH1 0x1F DUP4 GT PUSH1 0x1 DUP2 EQ PUSH2 0x18D3 JUMPI PUSH1 0x0 DUP5 ISZERO PUSH2 0x18C1 JUMPI DUP3 DUP8 ADD MLOAD SWAP1 POP JUMPDEST PUSH2 0x18CB DUP6 DUP3 PUSH2 0x184D JUMP JUMPDEST DUP7 SSTORE POP PUSH2 0x1933 JUMP JUMPDEST PUSH1 0x1F NOT DUP5 AND PUSH2 0x18E1 DUP7 PUSH2 0x16BD JUMP JUMPDEST PUSH1 0x0 JUMPDEST DUP3 DUP2 LT ISZERO PUSH2 0x1909 JUMPI DUP5 DUP10 ADD MLOAD DUP3 SSTORE PUSH1 0x1 DUP3 ADD SWAP2 POP PUSH1 0x20 DUP6 ADD SWAP5 POP PUSH1 0x20 DUP2 ADD SWAP1 POP PUSH2 0x18E4 JUMP JUMPDEST DUP7 DUP4 LT ISZERO PUSH2 0x1926 JUMPI DUP5 DUP10 ADD MLOAD PUSH2 0x1922 PUSH1 0x1F DUP10 AND DUP3 PUSH2 0x182F JUMP JUMPDEST DUP4 SSTORE POP JUMPDEST PUSH1 0x1 PUSH1 0x2 DUP9 MUL ADD DUP9 SSTORE POP POP POP JUMPDEST POP POP POP POP POP POP JUMP INVALID LOG2 PUSH5 0x6970667358 0x22 SLT KECCAK256 PUSH11 0x47F1EE2D545F0A16B16919 PUSH29 0xE96C69A9F569FA010252DE3F549B86D28DAD5364736F6C634300081200 CALLER "
				},
				"gasEstimates": {
					"creation": {
						"codeDepositCost": "1302600",
						"executionCost": "1356",
						"totalCost": "1303956"
					},
					"external": {
						"getStudentInfo()": "infinite",
						"getStudentNumber()": "2512",
						"getStudentScore(string)": "infinite",
						"getStudentbyNumber(uint256)": "infinite",
						"getStudentbyString(string)": "infinite",
						"getTrueOrFalse()": "infinite",
						"setAverage()": "infinite",
						"setStudent(string,uint256,uint256,string[])": "infinite"
					}
				},
				"methodIdentifiers": {
					"getStudentInfo()": "a1e68c52",
					"getStudentNumber()": "b1a27377",
					"getStudentScore(string)": "e5521501",
					"getStudentbyNumber(uint256)": "3da20a57",
					"getStudentbyString(string)": "0d23dce5",
					"getTrueOrFalse()": "fd9cec4b",
					"setAverage()": "cacac671",
					"setStudent(string,uint256,uint256,string[])": "f97e916d"
				}
			},
			"storageLayout": {
				"storage": [
					{
						"astId": 18,
						"contract": "contracts/99_test.sol:codingtest",
						"label": "NameToClass",
						"offset": 0,
						"slot": "0",
						"type": "t_mapping(t_string_memory_ptr,t_struct(Student)13_storage)"
					},
					{
						"astId": 22,
						"contract": "contracts/99_test.sol:codingtest",
						"label": "Class",
						"offset": 0,
						"slot": "1",
						"type": "t_array(t_struct(Student)13_storage)dyn_storage"
					}
				],
				"types": {
					"t_array(t_string_storage)dyn_storage": {
						"base": "t_string_storage",
						"encoding": "dynamic_array",
						"label": "string[]",
						"numberOfBytes": "32"
					},
					"t_array(t_struct(Student)13_storage)dyn_storage": {
						"base": "t_struct(Student)13_storage",
						"encoding": "dynamic_array",
						"label": "struct codingtest.Student[]",
						"numberOfBytes": "32"
					},
					"t_mapping(t_string_memory_ptr,t_struct(Student)13_storage)": {
						"encoding": "mapping",
						"key": "t_string_memory_ptr",
						"label": "mapping(string => struct codingtest.Student)",
						"numberOfBytes": "32",
						"value": "t_struct(Student)13_storage"
					},
					"t_string_memory_ptr": {
						"encoding": "bytes",
						"label": "string",
						"numberOfBytes": "32"
					},
					"t_string_storage": {
						"encoding": "bytes",
						"label": "string",
						"numberOfBytes": "32"
					},
					"t_struct(Student)13_storage": {
						"encoding": "inplace",
						"label": "struct codingtest.Student",
						"members": [
							{
								"astId": 3,
								"contract": "contracts/99_test.sol:codingtest",
								"label": "name",
								"offset": 0,
								"slot": "0",
								"type": "t_string_storage"
							},
							{
								"astId": 5,
								"contract": "contracts/99_test.sol:codingtest",
								"label": "number",
								"offset": 0,
								"slot": "1",
								"type": "t_uint256"
							},
							{
								"astId": 7,
								"contract": "contracts/99_test.sol:codingtest",
								"label": "score",
								"offset": 0,
								"slot": "2",
								"type": "t_uint256"
							},
							{
								"astId": 9,
								"contract": "contracts/99_test.sol:codingtest",
								"label": "grade",
								"offset": 0,
								"slot": "3",
								"type": "t_string_storage"
							},
							{
								"astId": 12,
								"contract": "contracts/99_test.sol:codingtest",
								"label": "classes",
								"offset": 0,
								"slot": "4",
								"type": "t_array(t_string_storage)dyn_storage"
							}
						],
						"numberOfBytes": "160"
					},
					"t_uint256": {
						"encoding": "inplace",
						"label": "uint256",
						"numberOfBytes": "32"
					}
				}
			},
			"userdoc": {
				"kind": "user",
				"methods": {},
				"version": 1
			}
		}
	}
}